{
  "_format": "hh-sol-artifact-1",
  "contractName": "Namespaces",
  "sourceName": "contracts/vocdoni/namespaces.sol",
  "abi": [
    {
      "anonymous": false,
      "inputs": [
        {
          "indexed": false,
          "internalType": "uint32",
          "name": "namespace",
          "type": "uint32"
        }
      ],
      "name": "NamespaceRegistered",
      "type": "event"
    },
    {
      "inputs": [],
      "name": "namespaceCount",
      "outputs": [
        {
          "internalType": "uint32",
          "name": "",
          "type": "uint32"
        }
      ],
      "stateMutability": "view",
      "type": "function"
    },
    {
      "inputs": [
        {
          "internalType": "uint32",
          "name": "",
          "type": "uint32"
        }
      ],
      "name": "namespaces",
      "outputs": [
        {
          "internalType": "address",
          "name": "",
          "type": "address"
        }
      ],
      "stateMutability": "view",
      "type": "function"
    },
    {
      "inputs": [
        {
          "internalType": "uint32",
          "name": "namespaceId",
          "type": "uint32"
        }
      ],
      "name": "processContractAt",
      "outputs": [
        {
          "internalType": "address",
          "name": "",
          "type": "address"
        }
      ],
      "stateMutability": "view",
      "type": "function"
    },
    {
      "inputs": [],
      "name": "register",
      "outputs": [
        {
          "internalType": "uint32",
          "name": "result",
          "type": "uint32"
        }
      ],
      "stateMutability": "nonpayable",
      "type": "function"
    }
  ],
  "bytecode": "0x608060405234801561001057600080fd5b5061025a806100206000396000f3fe608060405234801561001057600080fd5b506004361061004c5760003560e01c80631aa3a008146100515780636d3005ae1461006f578063b40ec02b1461008f578063f631514c14610097575b600080fd5b6100596100aa565b6040516100669190610213565b60405180910390f35b61008261007d3660046101c7565b610165565b60405161006691906101f2565b610059610193565b6100826100a53660046101c7565b61019f565b600180547fffffffffffffffffffffffffffffffffffffffffffffffffffffffff00000000811663ffffffff918216830182161780835581166000908152602081905260408082208054337fffffffffffffffffffffffff00000000000000000000000000000000000000009091161790559254925190927f6342a3b1a0f483c8ec694afd510f5f330e4792137228eb79e3e14458f78c57469261015092911690610213565b60405180910390a15060015463ffffffff1690565b63ffffffff1660009081526020819052604090205473ffffffffffffffffffffffffffffffffffffffff1690565b60015463ffffffff1681565b60006020819052908152604090205473ffffffffffffffffffffffffffffffffffffffff1681565b6000602082840312156101d8578081fd5b813563ffffffff811681146101eb578182fd5b9392505050565b73ffffffffffffffffffffffffffffffffffffffff91909116815260200190565b63ffffffff9190911681526020019056fea2646970667358221220381efc8717ef703de3aeea5ec2f5e762342bd236c3293c091e37745a89a5780e64736f6c634300060c0033",
  "linkReferences": {},
  "deployedLinkReferences": {}
}