{
  "_format": "hh-sol-artifact-1",
  "contractName": "PublicResolver",
  "sourceName": "contracts/vocdoni/vendor/resolver/PublicResolver.sol",
  "abi": [
    {
      "inputs": [
        {
          "internalType": "contract ENS",
          "name": "_ens",
          "type": "address"
        }
      ],
      "stateMutability": "nonpayable",
      "type": "constructor"
    },
    {
      "anonymous": false,
      "inputs": [
        {
          "indexed": true,
          "internalType": "bytes32",
          "name": "node",
          "type": "bytes32"
        },
        {
          "indexed": true,
          "internalType": "uint256",
          "name": "contentType",
          "type": "uint256"
        }
      ],
      "name": "ABIChanged",
      "type": "event"
    },
    {
      "anonymous": false,
      "inputs": [
        {
          "indexed": true,
          "internalType": "bytes32",
          "name": "node",
          "type": "bytes32"
        },
        {
          "indexed": false,
          "internalType": "address",
          "name": "a",
          "type": "address"
        }
      ],
      "name": "AddrChanged",
      "type": "event"
    },
    {
      "anonymous": false,
      "inputs": [
        {
          "indexed": true,
          "internalType": "bytes32",
          "name": "node",
          "type": "bytes32"
        },
        {
          "indexed": false,
          "internalType": "uint256",
          "name": "coinType",
          "type": "uint256"
        },
        {
          "indexed": false,
          "internalType": "bytes",
          "name": "newAddress",
          "type": "bytes"
        }
      ],
      "name": "AddressChanged",
      "type": "event"
    },
    {
      "anonymous": false,
      "inputs": [
        {
          "indexed": true,
          "internalType": "bytes32",
          "name": "node",
          "type": "bytes32"
        },
        {
          "indexed": true,
          "internalType": "address",
          "name": "owner",
          "type": "address"
        },
        {
          "indexed": true,
          "internalType": "address",
          "name": "target",
          "type": "address"
        },
        {
          "indexed": false,
          "internalType": "bool",
          "name": "isAuthorised",
          "type": "bool"
        }
      ],
      "name": "AuthorisationChanged",
      "type": "event"
    },
    {
      "anonymous": false,
      "inputs": [
        {
          "indexed": true,
          "internalType": "bytes32",
          "name": "node",
          "type": "bytes32"
        },
        {
          "indexed": false,
          "internalType": "bytes",
          "name": "hash",
          "type": "bytes"
        }
      ],
      "name": "ContenthashChanged",
      "type": "event"
    },
    {
      "anonymous": false,
      "inputs": [
        {
          "indexed": true,
          "internalType": "bytes32",
          "name": "node",
          "type": "bytes32"
        },
        {
          "indexed": true,
          "internalType": "bytes4",
          "name": "interfaceID",
          "type": "bytes4"
        },
        {
          "indexed": false,
          "internalType": "address",
          "name": "implementer",
          "type": "address"
        }
      ],
      "name": "InterfaceChanged",
      "type": "event"
    },
    {
      "anonymous": false,
      "inputs": [
        {
          "indexed": true,
          "internalType": "bytes32",
          "name": "node",
          "type": "bytes32"
        },
        {
          "indexed": false,
          "internalType": "string",
          "name": "key",
          "type": "string"
        },
        {
          "indexed": false,
          "internalType": "uint256",
          "name": "index",
          "type": "uint256"
        }
      ],
      "name": "ListItemChanged",
      "type": "event"
    },
    {
      "anonymous": false,
      "inputs": [
        {
          "indexed": true,
          "internalType": "bytes32",
          "name": "node",
          "type": "bytes32"
        },
        {
          "indexed": false,
          "internalType": "string",
          "name": "key",
          "type": "string"
        },
        {
          "indexed": false,
          "internalType": "uint256",
          "name": "index",
          "type": "uint256"
        }
      ],
      "name": "ListItemRemoved",
      "type": "event"
    },
    {
      "anonymous": false,
      "inputs": [
        {
          "indexed": true,
          "internalType": "bytes32",
          "name": "node",
          "type": "bytes32"
        },
        {
          "indexed": false,
          "internalType": "string",
          "name": "name",
          "type": "string"
        }
      ],
      "name": "NameChanged",
      "type": "event"
    },
    {
      "anonymous": false,
      "inputs": [
        {
          "indexed": true,
          "internalType": "bytes32",
          "name": "node",
          "type": "bytes32"
        },
        {
          "indexed": false,
          "internalType": "bytes32",
          "name": "x",
          "type": "bytes32"
        },
        {
          "indexed": false,
          "internalType": "bytes32",
          "name": "y",
          "type": "bytes32"
        }
      ],
      "name": "PubkeyChanged",
      "type": "event"
    },
    {
      "anonymous": false,
      "inputs": [
        {
          "indexed": true,
          "internalType": "bytes32",
          "name": "node",
          "type": "bytes32"
        },
        {
          "indexed": true,
          "internalType": "string",
          "name": "indexedKey",
          "type": "string"
        },
        {
          "indexed": false,
          "internalType": "string",
          "name": "key",
          "type": "string"
        }
      ],
      "name": "TextChanged",
      "type": "event"
    },
    {
      "inputs": [
        {
          "internalType": "bytes32",
          "name": "node",
          "type": "bytes32"
        },
        {
          "internalType": "uint256",
          "name": "contentTypes",
          "type": "uint256"
        }
      ],
      "name": "ABI",
      "outputs": [
        {
          "internalType": "uint256",
          "name": "",
          "type": "uint256"
        },
        {
          "internalType": "bytes",
          "name": "",
          "type": "bytes"
        }
      ],
      "stateMutability": "view",
      "type": "function"
    },
    {
      "inputs": [
        {
          "internalType": "bytes32",
          "name": "node",
          "type": "bytes32"
        }
      ],
      "name": "addr",
      "outputs": [
        {
          "internalType": "address payable",
          "name": "",
          "type": "address"
        }
      ],
      "stateMutability": "view",
      "type": "function"
    },
    {
      "inputs": [
        {
          "internalType": "bytes32",
          "name": "node",
          "type": "bytes32"
        },
        {
          "internalType": "uint256",
          "name": "coinType",
          "type": "uint256"
        }
      ],
      "name": "addr",
      "outputs": [
        {
          "internalType": "bytes",
          "name": "",
          "type": "bytes"
        }
      ],
      "stateMutability": "view",
      "type": "function"
    },
    {
      "inputs": [
        {
          "internalType": "bytes32",
          "name": "",
          "type": "bytes32"
        },
        {
          "internalType": "address",
          "name": "",
          "type": "address"
        },
        {
          "internalType": "address",
          "name": "",
          "type": "address"
        }
      ],
      "name": "authorisations",
      "outputs": [
        {
          "internalType": "bool",
          "name": "",
          "type": "bool"
        }
      ],
      "stateMutability": "view",
      "type": "function"
    },
    {
      "inputs": [
        {
          "internalType": "bytes32",
          "name": "node",
          "type": "bytes32"
        }
      ],
      "name": "contenthash",
      "outputs": [
        {
          "internalType": "bytes",
          "name": "",
          "type": "bytes"
        }
      ],
      "stateMutability": "view",
      "type": "function"
    },
    {
      "inputs": [
        {
          "internalType": "bytes32",
          "name": "node",
          "type": "bytes32"
        },
        {
          "internalType": "bytes4",
          "name": "interfaceID",
          "type": "bytes4"
        }
      ],
      "name": "interfaceImplementer",
      "outputs": [
        {
          "internalType": "address",
          "name": "",
          "type": "address"
        }
      ],
      "stateMutability": "view",
      "type": "function"
    },
    {
      "inputs": [
        {
          "internalType": "bytes32",
          "name": "node",
          "type": "bytes32"
        },
        {
          "internalType": "string",
          "name": "key",
          "type": "string"
        }
      ],
      "name": "list",
      "outputs": [
        {
          "internalType": "string[]",
          "name": "",
          "type": "string[]"
        }
      ],
      "stateMutability": "view",
      "type": "function"
    },
    {
      "inputs": [
        {
          "internalType": "bytes32",
          "name": "node",
          "type": "bytes32"
        },
        {
          "internalType": "string",
          "name": "key",
          "type": "string"
        },
        {
          "internalType": "uint256",
          "name": "index",
          "type": "uint256"
        }
      ],
      "name": "listText",
      "outputs": [
        {
          "internalType": "string",
          "name": "",
          "type": "string"
        }
      ],
      "stateMutability": "view",
      "type": "function"
    },
    {
      "inputs": [
        {
          "internalType": "bytes[]",
          "name": "data",
          "type": "bytes[]"
        }
      ],
      "name": "multicall",
      "outputs": [
        {
          "internalType": "bytes[]",
          "name": "results",
          "type": "bytes[]"
        }
      ],
      "stateMutability": "nonpayable",
      "type": "function"
    },
    {
      "inputs": [
        {
          "internalType": "bytes32",
          "name": "node",
          "type": "bytes32"
        }
      ],
      "name": "name",
      "outputs": [
        {
          "internalType": "string",
          "name": "",
          "type": "string"
        }
      ],
      "stateMutability": "view",
      "type": "function"
    },
    {
      "inputs": [
        {
          "internalType": "bytes32",
          "name": "node",
          "type": "bytes32"
        }
      ],
      "name": "pubkey",
      "outputs": [
        {
          "internalType": "bytes32",
          "name": "x",
          "type": "bytes32"
        },
        {
          "internalType": "bytes32",
          "name": "y",
          "type": "bytes32"
        }
      ],
      "stateMutability": "view",
      "type": "function"
    },
    {
      "inputs": [
        {
          "internalType": "bytes32",
          "name": "node",
          "type": "bytes32"
        },
        {
          "internalType": "string",
          "name": "key",
          "type": "string"
        },
        {
          "internalType": "string",
          "name": "value",
          "type": "string"
        }
      ],
      "name": "pushListText",
      "outputs": [],
      "stateMutability": "nonpayable",
      "type": "function"
    },
    {
      "inputs": [
        {
          "internalType": "bytes32",
          "name": "node",
          "type": "bytes32"
        },
        {
          "internalType": "string",
          "name": "key",
          "type": "string"
        },
        {
          "internalType": "uint256",
          "name": "index",
          "type": "uint256"
        }
      ],
      "name": "removeListIndex",
      "outputs": [],
      "stateMutability": "nonpayable",
      "type": "function"
    },
    {
      "inputs": [
        {
          "internalType": "bytes32",
          "name": "node",
          "type": "bytes32"
        },
        {
          "internalType": "uint256",
          "name": "contentType",
          "type": "uint256"
        },
        {
          "internalType": "bytes",
          "name": "data",
          "type": "bytes"
        }
      ],
      "name": "setABI",
      "outputs": [],
      "stateMutability": "nonpayable",
      "type": "function"
    },
    {
      "inputs": [
        {
          "internalType": "bytes32",
          "name": "node",
          "type": "bytes32"
        },
        {
          "internalType": "uint256",
          "name": "coinType",
          "type": "uint256"
        },
        {
          "internalType": "bytes",
          "name": "a",
          "type": "bytes"
        }
      ],
      "name": "setAddr",
      "outputs": [],
      "stateMutability": "nonpayable",
      "type": "function"
    },
    {
      "inputs": [
        {
          "internalType": "bytes32",
          "name": "node",
          "type": "bytes32"
        },
        {
          "internalType": "address",
          "name": "a",
          "type": "address"
        }
      ],
      "name": "setAddr",
      "outputs": [],
      "stateMutability": "nonpayable",
      "type": "function"
    },
    {
      "inputs": [
        {
          "internalType": "bytes32",
          "name": "node",
          "type": "bytes32"
        },
        {
          "internalType": "address",
          "name": "target",
          "type": "address"
        },
        {
          "internalType": "bool",
          "name": "isAuthorised",
          "type": "bool"
        }
      ],
      "name": "setAuthorisation",
      "outputs": [],
      "stateMutability": "nonpayable",
      "type": "function"
    },
    {
      "inputs": [
        {
          "internalType": "bytes32",
          "name": "node",
          "type": "bytes32"
        },
        {
          "internalType": "bytes",
          "name": "hash",
          "type": "bytes"
        }
      ],
      "name": "setContenthash",
      "outputs": [],
      "stateMutability": "nonpayable",
      "type": "function"
    },
    {
      "inputs": [
        {
          "internalType": "bytes32",
          "name": "node",
          "type": "bytes32"
        },
        {
          "internalType": "bytes4",
          "name": "interfaceID",
          "type": "bytes4"
        },
        {
          "internalType": "address",
          "name": "implementer",
          "type": "address"
        }
      ],
      "name": "setInterface",
      "outputs": [],
      "stateMutability": "nonpayable",
      "type": "function"
    },
    {
      "inputs": [
        {
          "internalType": "bytes32",
          "name": "node",
          "type": "bytes32"
        },
        {
          "internalType": "string",
          "name": "key",
          "type": "string"
        },
        {
          "internalType": "uint256",
          "name": "index",
          "type": "uint256"
        },
        {
          "internalType": "string",
          "name": "value",
          "type": "string"
        }
      ],
      "name": "setListText",
      "outputs": [],
      "stateMutability": "nonpayable",
      "type": "function"
    },
    {
      "inputs": [
        {
          "internalType": "bytes32",
          "name": "node",
          "type": "bytes32"
        },
        {
          "internalType": "string",
          "name": "name",
          "type": "string"
        }
      ],
      "name": "setName",
      "outputs": [],
      "stateMutability": "nonpayable",
      "type": "function"
    },
    {
      "inputs": [
        {
          "internalType": "bytes32",
          "name": "node",
          "type": "bytes32"
        },
        {
          "internalType": "bytes32",
          "name": "x",
          "type": "bytes32"
        },
        {
          "internalType": "bytes32",
          "name": "y",
          "type": "bytes32"
        }
      ],
      "name": "setPubkey",
      "outputs": [],
      "stateMutability": "nonpayable",
      "type": "function"
    },
    {
      "inputs": [
        {
          "internalType": "bytes32",
          "name": "node",
          "type": "bytes32"
        },
        {
          "internalType": "string",
          "name": "key",
          "type": "string"
        },
        {
          "internalType": "string",
          "name": "value",
          "type": "string"
        }
      ],
      "name": "setText",
      "outputs": [],
      "stateMutability": "nonpayable",
      "type": "function"
    },
    {
      "inputs": [
        {
          "internalType": "bytes4",
          "name": "interfaceID",
          "type": "bytes4"
        }
      ],
      "name": "supportsInterface",
      "outputs": [
        {
          "internalType": "bool",
          "name": "",
          "type": "bool"
        }
      ],
      "stateMutability": "pure",
      "type": "function"
    },
    {
      "inputs": [
        {
          "internalType": "bytes32",
          "name": "node",
          "type": "bytes32"
        },
        {
          "internalType": "string",
          "name": "key",
          "type": "string"
        }
      ],
      "name": "text",
      "outputs": [
        {
          "internalType": "string",
          "name": "",
          "type": "string"
        }
      ],
      "stateMutability": "view",
      "type": "function"
    }
  ],
  "bytecode": "0x608060405234801561001057600080fd5b50604051620024973803806200249783398101604081905261003191610056565b600880546001600160a01b0319166001600160a01b0392909216919091179055610084565b600060208284031215610067578081fd5b81516001600160a01b038116811461007d578182fd5b9392505050565b61240380620000946000396000f3fe608060405234801561001057600080fd5b50600436106101a35760003560e01c80636f473720116100ee578063bc1c58d111610097578063e59d895d11610071578063e59d895d1461039f578063f1cb7e06146103b2578063f86bc879146103c5578063fdf720c6146103d8576101a3565b8063bc1c58d114610358578063c86902331461036b578063d5fa2b001461038c576101a3565b80638b95dd71116100c85780638b95dd7114610312578063a2df33e114610325578063ac9650d814610338576101a3565b80636f473720146102cc57806374c756ee146102df57806377372213146102ff576101a3565b8063304e6ade1161015057806359d1d43c1161012a57806359d1d43c14610286578063623195b0146102a6578063691f3431146102b9576101a3565b8063304e6ade1461024d5780633b3b57de146102605780633e9ce79414610273576101a3565b8063124a319c11610181578063124a319c146101f95780632203ab561461021957806329cd62ea1461023a576101a3565b806301ffc9a7146101a8578063043a728d146101d157806310f13a8c146101e6575b600080fd5b6101bb6101b6366004612032565b6103eb565b6040516101c891906121c7565b60405180910390f35b6101e46101df366004611dca565b6103fe565b005b6101e46101f4366004611dca565b6104f2565b61020c610207366004611d36565b6105b2565b6040516101c89190612100565b61022c610227366004611f12565b610837565b6040516101c89291906122f6565b6101e4610248366004611d0b565b610958565b6101e461025b366004611d80565b6109eb565b61020c61026e366004611c49565b610a5d565b6101e4610281366004611cd1565b610a92565b610299610294366004611d80565b610b0c565b6040516101c8919061221a565b6101e46102b4366004611f33565b610bce565b6102996102c7366004611c49565b610c5c565b6101e46102da366004611e41565b610cfd565b6102f26102ed366004611d80565b610e7d565b6040516101c89190612174565b6101e461030d366004611d80565b610f91565b6101e4610320366004611f84565b611003565b6101e4610333366004611e92565b6110db565b61034b610346366004611bda565b6111eb565b6040516101c89190612114565b610299610366366004611c49565b611302565b61037e610379366004611c49565b61136a565b6040516101c89291906121db565b6101e461039a366004611c61565b611384565b6101e46103ad366004611d5a565b6113be565b6102996103c0366004611f12565b611479565b6101bb6103d3366004611c90565b611522565b6102996103e6366004611e41565b611548565b60006103f682611639565b90505b919050565b8461040881611656565b61042d5760405162461bcd60e51b815260040161042490612288565b60405180910390fd5b600085856040516020016104429291906120d4565b60408051601f19818403018152918152815160209283012060008a815260078452828120828252845291822080546001810182559083529290912090925061048c910185856119c1565b5060008781526007602090815260408083208484529091529081902054905188917fad6a325380d85c50dfaa38511cbbbc97c46b9a52e342c8d705bf5515d0ef45b3916104e1918a918a91600019019061222d565b60405180910390a250505050505050565b846104fc81611656565b6105185760405162461bcd60e51b815260040161042490612288565b828260066000898152602001908152602001600020878760405161053d9291906120d4565b9081526040519081900360200190206105579290916119c1565b5084846040516105689291906120d4565b6040518091039020867fd8c9334b1a9c2f9da342a0a2b32629c1a229b6445dad78947f674b44444a755087876040516105a29291906121fe565b60405180910390a3505050505050565b60008281526003602090815260408083206001600160e01b0319851684529091528120546001600160a01b031680156105ec579050610831565b60006105f785610a5d565b90506001600160a01b03811661061257600092505050610831565b60006060826001600160a01b03166301ffc9a760e01b60405160240161063891906121e9565b60408051601f198184030181529181526020820180517bffffffffffffffffffffffffffffffffffffffffffffffffffffffff166301ffc9a760e01b1790525161068291906120e4565b600060405180830381855afa9150503d80600081146106bd576040519150601f19603f3d011682016040523d82523d6000602084013e6106c2565b606091505b50915091508115806106d5575060208151105b80610711575080601f815181106106e857fe5b01602001517fff0000000000000000000000000000000000000000000000000000000000000016155b15610723576000945050505050610831565b826001600160a01b03168660405160240161073e91906121e9565b60408051601f198184030181529181526020820180517bffffffffffffffffffffffffffffffffffffffffffffffffffffffff166301ffc9a760e01b1790525161078891906120e4565b600060405180830381855afa9150503d80600081146107c3576040519150601f19603f3d011682016040523d82523d6000602084013e6107c8565b606091505b5090925090508115806107dc575060208151105b80610818575080601f815181106107ef57fe5b01602001517fff0000000000000000000000000000000000000000000000000000000000000016155b1561082a576000945050505050610831565b5090925050505b92915050565b600082815260208190526040812060609060015b848111610938578085161580159061088357506000818152602083905260409020546002600019610100600184161502019091160415155b15610930576000818152602083815260409182902080548351601f600260001961010060018616150201909316929092049182018490048402810184019094528084528493919283919083018282801561091e5780601f106108f35761010080835404028352916020019161091e565b820191906000526020600020905b81548152906001019060200180831161090157829003601f168201915b50505050509050935093505050610951565b60011b61084b565b5060006040518060200160405280600081525092509250505b9250929050565b8261096281611656565b61097e5760405162461bcd60e51b815260040161042490612288565b6040805180820182528481526020808201858152600088815260059092529083902091518255516001909101555184907f1d6f5e03d3f63eb58751986629a5439baee5079ff04f345becb66e23eb154e46906109dd90869086906121db565b60405180910390a250505050565b826109f581611656565b610a115760405162461bcd60e51b815260040161042490612288565b6000848152600260205260409020610a2a9084846119c1565b50837fe379c1624ed7e714cc0937528a32359d69d5281337765313dba4e081b72d757884846040516109dd9291906121fe565b60006060610a6c83603c611479565b9050805160001415610a825760009150506103f9565b610a8b81611788565b9392505050565b6000838152600960209081526040808320338085529083528184206001600160a01b038716808652935292819020805460ff19168515151790555190919085907fe1c5610a6e0cbe10764ecd182adcef1ec338dc4e199c99c32ce98f38e12791df90610aff9086906121c7565b60405180910390a4505050565b6060600660008581526020019081526020016000208383604051610b319291906120d4565b9081526040805160209281900383018120805460026001821615610100026000190190911604601f81018590048502830185019093528282529092909190830182828015610bc05780601f10610b9557610100808354040283529160200191610bc0565b820191906000526020600020905b815481529060010190602001808311610ba357829003601f168201915b505050505090509392505050565b83610bd881611656565b610bf45760405162461bcd60e51b815260040161042490612288565b6000198401841615610c0557600080fd5b6000858152602081815260408083208784529091529020610c279084846119c1565b50604051849086907faa121bbeef5f32f5961a2a28966e769023910fc9479059ee3495d4c1a696efe390600090a35050505050565b60008181526004602090815260409182902080548351601f6002600019610100600186161502019093169290920491820184900484028101840190945280845260609392830182828015610cf15780601f10610cc657610100808354040283529160200191610cf1565b820191906000526020600020905b815481529060010190602001808311610cd457829003601f168201915b50505050509050919050565b83610d0781611656565b610d235760405162461bcd60e51b815260040161042490612288565b60008484604051602001610d389291906120d4565b60408051601f1981840301815291815281516020928301206000898152600784528281208282529093529120549091508310610d865760405162461bcd60e51b815260040161042490612251565b600086815260076020908152604080832084845290915290208054906000198201828110610db057fe5b600091825260208083208a845260078252604080852087865290925292208054929091019186908110610ddf57fe5b906000526020600020019080546001816001161561010002031660029004610e08929190611a3f565b5060008781526007602090815260408083208584529091529020805480610e2b57fe5b600190038181906000526020600020016000610e479190611ab4565b9055867f5dbbe7a1e616b629a61480b13fd4e89dfe8b604d35802cdf7b0bb03687e3eb498787876040516104e19392919061222d565b606060008383604051602001610e949291906120d4565b60408051601f198184030181528282528051602091820120600089815260078352838120828252835283812080548085028701850190955284865291955090929184015b82821015610f835760008481526020908190208301805460408051601f6002600019610100600187161502019094169390930492830185900485028101850190915281815292830182828015610f6f5780601f10610f4457610100808354040283529160200191610f6f565b820191906000526020600020905b815481529060010190602001808311610f5257829003601f168201915b505050505081526020019060010190610ed8565b505050509150509392505050565b82610f9b81611656565b610fb75760405162461bcd60e51b815260040161042490612288565b6000848152600460205260409020610fd09084846119c1565b50837fb7d29e911041e8d9b843369e890bcb72c9388692ba48b65ac54e7214c4c348f784846040516109dd9291906121fe565b8261100d81611656565b6110295760405162461bcd60e51b815260040161042490612288565b837f65412581168e88a1e60c6459d7f44ae83ad0832e670826c05a4e2476b57af752848460405161105b9291906122f6565b60405180910390a2603c8314156110ad57837f52d7d861f09ab3d26239d492e8968629f95e9e318cf0b73bfddc441522a15fd261109784611788565b6040516110a49190612100565b60405180910390a25b6000848152600160209081526040808320868452825290912083516110d492850190611afb565b5050505050565b856110e581611656565b6111015760405162461bcd60e51b815260040161042490612288565b600086866040516020016111169291906120d4565b60408051601f19818403018152918152815160209283012060008b81526007845282812082825290935291205490915085106111645760405162461bcd60e51b815260040161042490612251565b600088815260076020908152604080832084845290915290208054859185918890811061118d57fe5b9060005260206000200191906111a49291906119c1565b50877fad6a325380d85c50dfaa38511cbbbc97c46b9a52e342c8d705bf5515d0ef45b38888886040516111d99392919061222d565b60405180910390a25050505050505050565b60608167ffffffffffffffff8111801561120457600080fd5b5060405190808252806020026020018201604052801561123857816020015b60608152602001906001900390816112235790505b50905060005b828110156112fb57600060603086868581811061125757fe5b9050602002810190611269919061230f565b6040516112779291906120d4565b600060405180830381855af49150503d80600081146112b2576040519150601f19603f3d011682016040523d82523d6000602084013e6112b7565b606091505b5091509150816112d95760405162461bcd60e51b8152600401610424906122bf565b808484815181106112e657fe5b6020908102919091010152505060010161123e565b5092915050565b600081815260026020818152604092839020805484516001821615610100026000190190911693909304601f81018390048302840183019094528383526060939091830182828015610cf15780601f10610cc657610100808354040283529160200191610cf1565b600090815260056020526040902080546001909101549091565b8161138e81611656565b6113aa5760405162461bcd60e51b815260040161042490612288565b6113b983603c610320856117b0565b505050565b826113c881611656565b6113e45760405162461bcd60e51b815260040161042490612288565b60008481526003602090815260408083206001600160e01b0319871680855292529182902080547fffffffffffffffffffffffff0000000000000000000000000000000000000000166001600160a01b038616179055905185907f7c69f06bea0bdef565b709e93a147836b0063ba2dd89f02d0b7e8d931e6a6daa9061146b908690612100565b60405180910390a350505050565b600082815260016020818152604080842085855282529283902080548451600294821615610100026000190190911693909304601f810183900483028401830190945283835260609390918301828280156115155780601f106114ea57610100808354040283529160200191611515565b820191906000526020600020905b8154815290600101906020018083116114f857829003601f168201915b5050505050905092915050565b600960209081526000938452604080852082529284528284209052825290205460ff1681565b60606000848460405160200161155f9291906120d4565b60408051601f19818403018152918152815160209283012060008981526007845282812082825290935291208054919250908490811061159b57fe5b600091825260209182902001805460408051601f60026000196101006001871615020190941693909304928301859004850281018501909152818152928301828280156116295780601f106115fe57610100808354040283529160200191611629565b820191906000526020600020905b81548152906001019060200180831161160c57829003601f168201915b5050505050915050949350505050565b60006001600160e01b0319821615806103f657506103f6826117e9565b6008546000906001600160a01b031615611758576008546040517f02571be30000000000000000000000000000000000000000000000000000000081526000916001600160a01b0316906302571be3906116b49086906004016121d2565b60206040518083038186803b1580156116cc57600080fd5b505afa1580156116e0573d6000803e3d6000fd5b505050506040513d601f19601f820116820180604052508101906117049190611bbe565b90506001600160a01b038116331480611747575060008381526009602090815260408083206001600160a01b0385168452825280832033845290915290205460ff165b156117565760019150506103f9565b505b813360405160200161176a91906120a4565b60405160208183030381529060405280519060200120149050919050565b6000815160141461179857600080fd5b50602001516c01000000000000000000000000900490565b6040805160148082528183019092526060916020820181803683375050506c010000000000000000000000009290920260208301525090565b60006001600160e01b031982167f59d1d43c0000000000000000000000000000000000000000000000000000000014806103f657506103f68260006001600160e01b031982167fc86902330000000000000000000000000000000000000000000000000000000014806103f657506103f68260006001600160e01b031982167f691f34310000000000000000000000000000000000000000000000000000000014806103f657506103f68260006001600160e01b031982167f124a319c0000000000000000000000000000000000000000000000000000000014806103f657506103f68260006001600160e01b031982167fbc1c58d10000000000000000000000000000000000000000000000000000000014806103f657506103f68260006001600160e01b031982167f3b3b57de00000000000000000000000000000000000000000000000000000000148061196957506001600160e01b031982167ff1cb7e0600000000000000000000000000000000000000000000000000000000145b806103f657506103f68260006001600160e01b031982167f2203ab560000000000000000000000000000000000000000000000000000000014806103f657506301ffc9a760e01b6001600160e01b03198316146103f6565b828054600181600116156101000203166002900490600052602060002090601f016020900481019282601f10611a025782800160ff19823516178555611a2f565b82800160010185558215611a2f579182015b82811115611a2f578235825591602001919060010190611a14565b50611a3b929150611b69565b5090565b828054600181600116156101000203166002900490600052602060002090601f016020900481019282601f10611a785780548555611a2f565b82800160010185558215611a2f57600052602060002091601f016020900482015b82811115611a2f578254825591600101919060010190611a99565b50805460018160011615610100020316600290046000825580601f10611ada5750611af8565b601f016020900490600052602060002090810190611af89190611b69565b50565b828054600181600116156101000203166002900490600052602060002090601f016020900481019282601f10611b3c57805160ff1916838001178555611a2f565b82800160010185558215611a2f579182015b82811115611a2f578251825591602001919060010190611b4e565b5b80821115611a3b5760008155600101611b6a565b60008083601f840112611b8f578182fd5b50813567ffffffffffffffff811115611ba6578182fd5b60208301915083602082850101111561095157600080fd5b600060208284031215611bcf578081fd5b8151610a8b816123a2565b60008060208385031215611bec578081fd5b823567ffffffffffffffff80821115611c03578283fd5b818501915085601f830112611c16578283fd5b813581811115611c24578384fd5b8660208083028501011115611c37578384fd5b60209290920196919550909350505050565b600060208284031215611c5a578081fd5b5035919050565b60008060408385031215611c73578182fd5b823591506020830135611c85816123a2565b809150509250929050565b600080600060608486031215611ca4578081fd5b833592506020840135611cb6816123a2565b91506040840135611cc6816123a2565b809150509250925092565b600080600060608486031215611ce5578283fd5b833592506020840135611cf7816123a2565b915060408401358015158114611cc6578182fd5b600080600060608486031215611d1f578283fd5b505081359360208301359350604090920135919050565b60008060408385031215611d48578182fd5b823591506020830135611c85816123b7565b600080600060608486031215611d6e578283fd5b833592506020840135611cb6816123b7565b600080600060408486031215611d94578283fd5b83359250602084013567ffffffffffffffff811115611db1578283fd5b611dbd86828701611b7e565b9497909650939450505050565b600080600080600060608688031215611de1578081fd5b85359450602086013567ffffffffffffffff80821115611dff578283fd5b611e0b89838a01611b7e565b90965094506040880135915080821115611e23578283fd5b50611e3088828901611b7e565b969995985093965092949392505050565b60008060008060608587031215611e56578182fd5b84359350602085013567ffffffffffffffff811115611e73578283fd5b611e7f87828801611b7e565b9598909750949560400135949350505050565b60008060008060008060808789031215611eaa578384fd5b86359550602087013567ffffffffffffffff80821115611ec8578586fd5b611ed48a838b01611b7e565b9097509550604089013594506060890135915080821115611ef3578283fd5b50611f0089828a01611b7e565b979a9699509497509295939492505050565b60008060408385031215611f24578182fd5b50508035926020909101359150565b60008060008060608587031215611f48578182fd5b8435935060208501359250604085013567ffffffffffffffff811115611f6c578283fd5b611f7887828801611b7e565b95989497509550505050565b600080600060608486031215611f98578081fd5b833592506020808501359250604085013567ffffffffffffffff80821115611fbe578384fd5b818701915087601f830112611fd1578384fd5b813581811115611fdf578485fd5b60405184601f19601f8401168201018181108482111715611ffe578687fd5b60405281815283820185018a1015612014578586fd5b81858501868301378585838301015280955050505050509250925092565b600060208284031215612043578081fd5b8135610a8b816123b7565b60008284528282602086013780602084860101526020601f19601f85011685010190509392505050565b60008151808452612090816020860160208601612372565b601f01601f19169290920160200192915050565b60609190911b7fffffffffffffffffffffffffffffffffffffffff00000000000000000000000016815260140190565b6000828483379101908152919050565b600082516120f6818460208701612372565b9190910192915050565b6001600160a01b0391909116815260200190565b6000602080830181845280855180835260408601915060408482028701019250838701855b8281101561216757603f19888603018452612155858351612078565b94509285019290850190600101612139565b5092979650505050505050565b6000602080830181845280855180835260408601915060408482028701019250838701855b8281101561216757603f198886030184526121b5858351612078565b94509285019290850190600101612199565b901515815260200190565b90815260200190565b918252602082015260400190565b6001600160e01b031991909116815260200190565b60006020825261221260208301848661204e565b949350505050565b600060208252610a8b6020830184612078565b60006040825261224160408301858761204e565b9050826020830152949350505050565b6020808252600d908201527f496e76616c696420696e64657800000000000000000000000000000000000000604082015260600190565b6020808252600c908201527f756e617574686f72697a65640000000000000000000000000000000000000000604082015260600190565b60208082526013908201527f6661696c65642064656c656761746563616c6c00000000000000000000000000604082015260600190565b6000838252604060208301526122126040830184612078565b60008083357fffffffffffffffffffffffffffffffffffffffffffffffffffffffffffffffe1843603018112612343578283fd5b83018035915067ffffffffffffffff82111561235d578283fd5b60200191503681900382131561095157600080fd5b60005b8381101561238d578181015183820152602001612375565b8381111561239c576000848401525b50505050565b6001600160a01b0381168114611af857600080fd5b6001600160e01b031981168114611af857600080fdfea2646970667358221220cfd42690f3ab82330ad83b8ca41da2d586f686e636dc0a46125f854befd5269264736f6c634300060c0033",
  "linkReferences": {},
  "deployedLinkReferences": {}
}