{
  "contracts/vocdoni/vendor/resolver/PublicResolver.sol": {
    "PublicResolver": {
      "abi": [
        {
          "inputs": [
            {
              "internalType": "contract ENS",
              "name": "_ens",
              "type": "address"
            }
          ],
          "stateMutability": "nonpayable",
          "type": "constructor"
        },
        {
          "anonymous": false,
          "inputs": [
            {
              "indexed": true,
              "internalType": "bytes32",
              "name": "node",
              "type": "bytes32"
            },
            {
              "indexed": true,
              "internalType": "uint256",
              "name": "contentType",
              "type": "uint256"
            }
          ],
          "name": "ABIChanged",
          "type": "event"
        },
        {
          "anonymous": false,
          "inputs": [
            {
              "indexed": true,
              "internalType": "bytes32",
              "name": "node",
              "type": "bytes32"
            },
            {
              "indexed": false,
              "internalType": "address",
              "name": "a",
              "type": "address"
            }
          ],
          "name": "AddrChanged",
          "type": "event"
        },
        {
          "anonymous": false,
          "inputs": [
            {
              "indexed": true,
              "internalType": "bytes32",
              "name": "node",
              "type": "bytes32"
            },
            {
              "indexed": false,
              "internalType": "uint256",
              "name": "coinType",
              "type": "uint256"
            },
            {
              "indexed": false,
              "internalType": "bytes",
              "name": "newAddress",
              "type": "bytes"
            }
          ],
          "name": "AddressChanged",
          "type": "event"
        },
        {
          "anonymous": false,
          "inputs": [
            {
              "indexed": true,
              "internalType": "bytes32",
              "name": "node",
              "type": "bytes32"
            },
            {
              "indexed": true,
              "internalType": "address",
              "name": "owner",
              "type": "address"
            },
            {
              "indexed": true,
              "internalType": "address",
              "name": "target",
              "type": "address"
            },
            {
              "indexed": false,
              "internalType": "bool",
              "name": "isAuthorised",
              "type": "bool"
            }
          ],
          "name": "AuthorisationChanged",
          "type": "event"
        },
        {
          "anonymous": false,
          "inputs": [
            {
              "indexed": true,
              "internalType": "bytes32",
              "name": "node",
              "type": "bytes32"
            },
            {
              "indexed": false,
              "internalType": "bytes",
              "name": "hash",
              "type": "bytes"
            }
          ],
          "name": "ContenthashChanged",
          "type": "event"
        },
        {
          "anonymous": false,
          "inputs": [
            {
              "indexed": true,
              "internalType": "bytes32",
              "name": "node",
              "type": "bytes32"
            },
            {
              "indexed": true,
              "internalType": "bytes4",
              "name": "interfaceID",
              "type": "bytes4"
            },
            {
              "indexed": false,
              "internalType": "address",
              "name": "implementer",
              "type": "address"
            }
          ],
          "name": "InterfaceChanged",
          "type": "event"
        },
        {
          "anonymous": false,
          "inputs": [
            {
              "indexed": true,
              "internalType": "bytes32",
              "name": "node",
              "type": "bytes32"
            },
            {
              "indexed": false,
              "internalType": "string",
              "name": "key",
              "type": "string"
            },
            {
              "indexed": false,
              "internalType": "uint256",
              "name": "index",
              "type": "uint256"
            }
          ],
          "name": "ListItemChanged",
          "type": "event"
        },
        {
          "anonymous": false,
          "inputs": [
            {
              "indexed": true,
              "internalType": "bytes32",
              "name": "node",
              "type": "bytes32"
            },
            {
              "indexed": false,
              "internalType": "string",
              "name": "key",
              "type": "string"
            },
            {
              "indexed": false,
              "internalType": "uint256",
              "name": "index",
              "type": "uint256"
            }
          ],
          "name": "ListItemRemoved",
          "type": "event"
        },
        {
          "anonymous": false,
          "inputs": [
            {
              "indexed": true,
              "internalType": "bytes32",
              "name": "node",
              "type": "bytes32"
            },
            {
              "indexed": false,
              "internalType": "string",
              "name": "name",
              "type": "string"
            }
          ],
          "name": "NameChanged",
          "type": "event"
        },
        {
          "anonymous": false,
          "inputs": [
            {
              "indexed": true,
              "internalType": "bytes32",
              "name": "node",
              "type": "bytes32"
            },
            {
              "indexed": false,
              "internalType": "bytes32",
              "name": "x",
              "type": "bytes32"
            },
            {
              "indexed": false,
              "internalType": "bytes32",
              "name": "y",
              "type": "bytes32"
            }
          ],
          "name": "PubkeyChanged",
          "type": "event"
        },
        {
          "anonymous": false,
          "inputs": [
            {
              "indexed": true,
              "internalType": "bytes32",
              "name": "node",
              "type": "bytes32"
            },
            {
              "indexed": true,
              "internalType": "string",
              "name": "indexedKey",
              "type": "string"
            },
            {
              "indexed": false,
              "internalType": "string",
              "name": "key",
              "type": "string"
            }
          ],
          "name": "TextChanged",
          "type": "event"
        },
        {
          "inputs": [
            {
              "internalType": "bytes32",
              "name": "node",
              "type": "bytes32"
            },
            {
              "internalType": "uint256",
              "name": "contentTypes",
              "type": "uint256"
            }
          ],
          "name": "ABI",
          "outputs": [
            {
              "internalType": "uint256",
              "name": "",
              "type": "uint256"
            },
            {
              "internalType": "bytes",
              "name": "",
              "type": "bytes"
            }
          ],
          "stateMutability": "view",
          "type": "function"
        },
        {
          "inputs": [
            {
              "internalType": "bytes32",
              "name": "node",
              "type": "bytes32"
            }
          ],
          "name": "addr",
          "outputs": [
            {
              "internalType": "address payable",
              "name": "",
              "type": "address"
            }
          ],
          "stateMutability": "view",
          "type": "function"
        },
        {
          "inputs": [
            {
              "internalType": "bytes32",
              "name": "node",
              "type": "bytes32"
            },
            {
              "internalType": "uint256",
              "name": "coinType",
              "type": "uint256"
            }
          ],
          "name": "addr",
          "outputs": [
            {
              "internalType": "bytes",
              "name": "",
              "type": "bytes"
            }
          ],
          "stateMutability": "view",
          "type": "function"
        },
        {
          "inputs": [
            {
              "internalType": "bytes32",
              "name": "",
              "type": "bytes32"
            },
            {
              "internalType": "address",
              "name": "",
              "type": "address"
            },
            {
              "internalType": "address",
              "name": "",
              "type": "address"
            }
          ],
          "name": "authorisations",
          "outputs": [
            {
              "internalType": "bool",
              "name": "",
              "type": "bool"
            }
          ],
          "stateMutability": "view",
          "type": "function"
        },
        {
          "inputs": [
            {
              "internalType": "bytes32",
              "name": "node",
              "type": "bytes32"
            }
          ],
          "name": "contenthash",
          "outputs": [
            {
              "internalType": "bytes",
              "name": "",
              "type": "bytes"
            }
          ],
          "stateMutability": "view",
          "type": "function"
        },
        {
          "inputs": [
            {
              "internalType": "bytes32",
              "name": "node",
              "type": "bytes32"
            },
            {
              "internalType": "bytes4",
              "name": "interfaceID",
              "type": "bytes4"
            }
          ],
          "name": "interfaceImplementer",
          "outputs": [
            {
              "internalType": "address",
              "name": "",
              "type": "address"
            }
          ],
          "stateMutability": "view",
          "type": "function"
        },
        {
          "inputs": [
            {
              "internalType": "bytes32",
              "name": "node",
              "type": "bytes32"
            },
            {
              "internalType": "string",
              "name": "key",
              "type": "string"
            }
          ],
          "name": "list",
          "outputs": [
            {
              "internalType": "string[]",
              "name": "",
              "type": "string[]"
            }
          ],
          "stateMutability": "view",
          "type": "function"
        },
        {
          "inputs": [
            {
              "internalType": "bytes32",
              "name": "node",
              "type": "bytes32"
            },
            {
              "internalType": "string",
              "name": "key",
              "type": "string"
            },
            {
              "internalType": "uint256",
              "name": "index",
              "type": "uint256"
            }
          ],
          "name": "listText",
          "outputs": [
            {
              "internalType": "string",
              "name": "",
              "type": "string"
            }
          ],
          "stateMutability": "view",
          "type": "function"
        },
        {
          "inputs": [
            {
              "internalType": "bytes[]",
              "name": "data",
              "type": "bytes[]"
            }
          ],
          "name": "multicall",
          "outputs": [
            {
              "internalType": "bytes[]",
              "name": "results",
              "type": "bytes[]"
            }
          ],
          "stateMutability": "nonpayable",
          "type": "function"
        },
        {
          "inputs": [
            {
              "internalType": "bytes32",
              "name": "node",
              "type": "bytes32"
            }
          ],
          "name": "name",
          "outputs": [
            {
              "internalType": "string",
              "name": "",
              "type": "string"
            }
          ],
          "stateMutability": "view",
          "type": "function"
        },
        {
          "inputs": [
            {
              "internalType": "bytes32",
              "name": "node",
              "type": "bytes32"
            }
          ],
          "name": "pubkey",
          "outputs": [
            {
              "internalType": "bytes32",
              "name": "x",
              "type": "bytes32"
            },
            {
              "internalType": "bytes32",
              "name": "y",
              "type": "bytes32"
            }
          ],
          "stateMutability": "view",
          "type": "function"
        },
        {
          "inputs": [
            {
              "internalType": "bytes32",
              "name": "node",
              "type": "bytes32"
            },
            {
              "internalType": "string",
              "name": "key",
              "type": "string"
            },
            {
              "internalType": "string",
              "name": "value",
              "type": "string"
            }
          ],
          "name": "pushListText",
          "outputs": [],
          "stateMutability": "nonpayable",
          "type": "function"
        },
        {
          "inputs": [
            {
              "internalType": "bytes32",
              "name": "node",
              "type": "bytes32"
            },
            {
              "internalType": "string",
              "name": "key",
              "type": "string"
            },
            {
              "internalType": "uint256",
              "name": "index",
              "type": "uint256"
            }
          ],
          "name": "removeListIndex",
          "outputs": [],
          "stateMutability": "nonpayable",
          "type": "function"
        },
        {
          "inputs": [
            {
              "internalType": "bytes32",
              "name": "node",
              "type": "bytes32"
            },
            {
              "internalType": "uint256",
              "name": "contentType",
              "type": "uint256"
            },
            {
              "internalType": "bytes",
              "name": "data",
              "type": "bytes"
            }
          ],
          "name": "setABI",
          "outputs": [],
          "stateMutability": "nonpayable",
          "type": "function"
        },
        {
          "inputs": [
            {
              "internalType": "bytes32",
              "name": "node",
              "type": "bytes32"
            },
            {
              "internalType": "uint256",
              "name": "coinType",
              "type": "uint256"
            },
            {
              "internalType": "bytes",
              "name": "a",
              "type": "bytes"
            }
          ],
          "name": "setAddr",
          "outputs": [],
          "stateMutability": "nonpayable",
          "type": "function"
        },
        {
          "inputs": [
            {
              "internalType": "bytes32",
              "name": "node",
              "type": "bytes32"
            },
            {
              "internalType": "address",
              "name": "a",
              "type": "address"
            }
          ],
          "name": "setAddr",
          "outputs": [],
          "stateMutability": "nonpayable",
          "type": "function"
        },
        {
          "inputs": [
            {
              "internalType": "bytes32",
              "name": "node",
              "type": "bytes32"
            },
            {
              "internalType": "address",
              "name": "target",
              "type": "address"
            },
            {
              "internalType": "bool",
              "name": "isAuthorised",
              "type": "bool"
            }
          ],
          "name": "setAuthorisation",
          "outputs": [],
          "stateMutability": "nonpayable",
          "type": "function"
        },
        {
          "inputs": [
            {
              "internalType": "bytes32",
              "name": "node",
              "type": "bytes32"
            },
            {
              "internalType": "bytes",
              "name": "hash",
              "type": "bytes"
            }
          ],
          "name": "setContenthash",
          "outputs": [],
          "stateMutability": "nonpayable",
          "type": "function"
        },
        {
          "inputs": [
            {
              "internalType": "bytes32",
              "name": "node",
              "type": "bytes32"
            },
            {
              "internalType": "bytes4",
              "name": "interfaceID",
              "type": "bytes4"
            },
            {
              "internalType": "address",
              "name": "implementer",
              "type": "address"
            }
          ],
          "name": "setInterface",
          "outputs": [],
          "stateMutability": "nonpayable",
          "type": "function"
        },
        {
          "inputs": [
            {
              "internalType": "bytes32",
              "name": "node",
              "type": "bytes32"
            },
            {
              "internalType": "string",
              "name": "key",
              "type": "string"
            },
            {
              "internalType": "uint256",
              "name": "index",
              "type": "uint256"
            },
            {
              "internalType": "string",
              "name": "value",
              "type": "string"
            }
          ],
          "name": "setListText",
          "outputs": [],
          "stateMutability": "nonpayable",
          "type": "function"
        },
        {
          "inputs": [
            {
              "internalType": "bytes32",
              "name": "node",
              "type": "bytes32"
            },
            {
              "internalType": "string",
              "name": "name",
              "type": "string"
            }
          ],
          "name": "setName",
          "outputs": [],
          "stateMutability": "nonpayable",
          "type": "function"
        },
        {
          "inputs": [
            {
              "internalType": "bytes32",
              "name": "node",
              "type": "bytes32"
            },
            {
              "internalType": "bytes32",
              "name": "x",
              "type": "bytes32"
            },
            {
              "internalType": "bytes32",
              "name": "y",
              "type": "bytes32"
            }
          ],
          "name": "setPubkey",
          "outputs": [],
          "stateMutability": "nonpayable",
          "type": "function"
        },
        {
          "inputs": [
            {
              "internalType": "bytes32",
              "name": "node",
              "type": "bytes32"
            },
            {
              "internalType": "string",
              "name": "key",
              "type": "string"
            },
            {
              "internalType": "string",
              "name": "value",
              "type": "string"
            }
          ],
          "name": "setText",
          "outputs": [],
          "stateMutability": "nonpayable",
          "type": "function"
        },
        {
          "inputs": [
            {
              "internalType": "bytes4",
              "name": "interfaceID",
              "type": "bytes4"
            }
          ],
          "name": "supportsInterface",
          "outputs": [
            {
              "internalType": "bool",
              "name": "",
              "type": "bool"
            }
          ],
          "stateMutability": "pure",
          "type": "function"
        },
        {
          "inputs": [
            {
              "internalType": "bytes32",
              "name": "node",
              "type": "bytes32"
            },
            {
              "internalType": "string",
              "name": "key",
              "type": "string"
            }
          ],
          "name": "text",
          "outputs": [
            {
              "internalType": "string",
              "name": "",
              "type": "string"
            }
          ],
          "stateMutability": "view",
          "type": "function"
        }
      ],
      "evm": {
        "bytecode": {
          "linkReferences": {},
          "object": "608060405234801561001057600080fd5b50604051620024973803806200249783398101604081905261003191610056565b600880546001600160a01b0319166001600160a01b0392909216919091179055610084565b600060208284031215610067578081fd5b81516001600160a01b038116811461007d578182fd5b9392505050565b61240380620000946000396000f3fe608060405234801561001057600080fd5b50600436106101a35760003560e01c80636f473720116100ee578063bc1c58d111610097578063e59d895d11610071578063e59d895d1461039f578063f1cb7e06146103b2578063f86bc879146103c5578063fdf720c6146103d8576101a3565b8063bc1c58d114610358578063c86902331461036b578063d5fa2b001461038c576101a3565b80638b95dd71116100c85780638b95dd7114610312578063a2df33e114610325578063ac9650d814610338576101a3565b80636f473720146102cc57806374c756ee146102df57806377372213146102ff576101a3565b8063304e6ade1161015057806359d1d43c1161012a57806359d1d43c14610286578063623195b0146102a6578063691f3431146102b9576101a3565b8063304e6ade1461024d5780633b3b57de146102605780633e9ce79414610273576101a3565b8063124a319c11610181578063124a319c146101f95780632203ab561461021957806329cd62ea1461023a576101a3565b806301ffc9a7146101a8578063043a728d146101d157806310f13a8c146101e6575b600080fd5b6101bb6101b6366004612032565b6103eb565b6040516101c891906121c7565b60405180910390f35b6101e46101df366004611dca565b6103fe565b005b6101e46101f4366004611dca565b6104f2565b61020c610207366004611d36565b6105b2565b6040516101c89190612100565b61022c610227366004611f12565b610837565b6040516101c89291906122f6565b6101e4610248366004611d0b565b610958565b6101e461025b366004611d80565b6109eb565b61020c61026e366004611c49565b610a5d565b6101e4610281366004611cd1565b610a92565b610299610294366004611d80565b610b0c565b6040516101c8919061221a565b6101e46102b4366004611f33565b610bce565b6102996102c7366004611c49565b610c5c565b6101e46102da366004611e41565b610cfd565b6102f26102ed366004611d80565b610e7d565b6040516101c89190612174565b6101e461030d366004611d80565b610f91565b6101e4610320366004611f84565b611003565b6101e4610333366004611e92565b6110db565b61034b610346366004611bda565b6111eb565b6040516101c89190612114565b610299610366366004611c49565b611302565b61037e610379366004611c49565b61136a565b6040516101c89291906121db565b6101e461039a366004611c61565b611384565b6101e46103ad366004611d5a565b6113be565b6102996103c0366004611f12565b611479565b6101bb6103d3366004611c90565b611522565b6102996103e6366004611e41565b611548565b60006103f682611639565b90505b919050565b8461040881611656565b61042d5760405162461bcd60e51b815260040161042490612288565b60405180910390fd5b600085856040516020016104429291906120d4565b60408051601f19818403018152918152815160209283012060008a815260078452828120828252845291822080546001810182559083529290912090925061048c910185856119c1565b5060008781526007602090815260408083208484529091529081902054905188917fad6a325380d85c50dfaa38511cbbbc97c46b9a52e342c8d705bf5515d0ef45b3916104e1918a918a91600019019061222d565b60405180910390a250505050505050565b846104fc81611656565b6105185760405162461bcd60e51b815260040161042490612288565b828260066000898152602001908152602001600020878760405161053d9291906120d4565b9081526040519081900360200190206105579290916119c1565b5084846040516105689291906120d4565b6040518091039020867fd8c9334b1a9c2f9da342a0a2b32629c1a229b6445dad78947f674b44444a755087876040516105a29291906121fe565b60405180910390a3505050505050565b60008281526003602090815260408083206001600160e01b0319851684529091528120546001600160a01b031680156105ec579050610831565b60006105f785610a5d565b90506001600160a01b03811661061257600092505050610831565b60006060826001600160a01b03166301ffc9a760e01b60405160240161063891906121e9565b60408051601f198184030181529181526020820180517bffffffffffffffffffffffffffffffffffffffffffffffffffffffff166301ffc9a760e01b1790525161068291906120e4565b600060405180830381855afa9150503d80600081146106bd576040519150601f19603f3d011682016040523d82523d6000602084013e6106c2565b606091505b50915091508115806106d5575060208151105b80610711575080601f815181106106e857fe5b01602001517fff0000000000000000000000000000000000000000000000000000000000000016155b15610723576000945050505050610831565b826001600160a01b03168660405160240161073e91906121e9565b60408051601f198184030181529181526020820180517bffffffffffffffffffffffffffffffffffffffffffffffffffffffff166301ffc9a760e01b1790525161078891906120e4565b600060405180830381855afa9150503d80600081146107c3576040519150601f19603f3d011682016040523d82523d6000602084013e6107c8565b606091505b5090925090508115806107dc575060208151105b80610818575080601f815181106107ef57fe5b01602001517fff0000000000000000000000000000000000000000000000000000000000000016155b1561082a576000945050505050610831565b5090925050505b92915050565b600082815260208190526040812060609060015b848111610938578085161580159061088357506000818152602083905260409020546002600019610100600184161502019091160415155b15610930576000818152602083815260409182902080548351601f600260001961010060018616150201909316929092049182018490048402810184019094528084528493919283919083018282801561091e5780601f106108f35761010080835404028352916020019161091e565b820191906000526020600020905b81548152906001019060200180831161090157829003601f168201915b50505050509050935093505050610951565b60011b61084b565b5060006040518060200160405280600081525092509250505b9250929050565b8261096281611656565b61097e5760405162461bcd60e51b815260040161042490612288565b6040805180820182528481526020808201858152600088815260059092529083902091518255516001909101555184907f1d6f5e03d3f63eb58751986629a5439baee5079ff04f345becb66e23eb154e46906109dd90869086906121db565b60405180910390a250505050565b826109f581611656565b610a115760405162461bcd60e51b815260040161042490612288565b6000848152600260205260409020610a2a9084846119c1565b50837fe379c1624ed7e714cc0937528a32359d69d5281337765313dba4e081b72d757884846040516109dd9291906121fe565b60006060610a6c83603c611479565b9050805160001415610a825760009150506103f9565b610a8b81611788565b9392505050565b6000838152600960209081526040808320338085529083528184206001600160a01b038716808652935292819020805460ff19168515151790555190919085907fe1c5610a6e0cbe10764ecd182adcef1ec338dc4e199c99c32ce98f38e12791df90610aff9086906121c7565b60405180910390a4505050565b6060600660008581526020019081526020016000208383604051610b319291906120d4565b9081526040805160209281900383018120805460026001821615610100026000190190911604601f81018590048502830185019093528282529092909190830182828015610bc05780601f10610b9557610100808354040283529160200191610bc0565b820191906000526020600020905b815481529060010190602001808311610ba357829003601f168201915b505050505090509392505050565b83610bd881611656565b610bf45760405162461bcd60e51b815260040161042490612288565b6000198401841615610c0557600080fd5b6000858152602081815260408083208784529091529020610c279084846119c1565b50604051849086907faa121bbeef5f32f5961a2a28966e769023910fc9479059ee3495d4c1a696efe390600090a35050505050565b60008181526004602090815260409182902080548351601f6002600019610100600186161502019093169290920491820184900484028101840190945280845260609392830182828015610cf15780601f10610cc657610100808354040283529160200191610cf1565b820191906000526020600020905b815481529060010190602001808311610cd457829003601f168201915b50505050509050919050565b83610d0781611656565b610d235760405162461bcd60e51b815260040161042490612288565b60008484604051602001610d389291906120d4565b60408051601f1981840301815291815281516020928301206000898152600784528281208282529093529120549091508310610d865760405162461bcd60e51b815260040161042490612251565b600086815260076020908152604080832084845290915290208054906000198201828110610db057fe5b600091825260208083208a845260078252604080852087865290925292208054929091019186908110610ddf57fe5b906000526020600020019080546001816001161561010002031660029004610e08929190611a3f565b5060008781526007602090815260408083208584529091529020805480610e2b57fe5b600190038181906000526020600020016000610e479190611ab4565b9055867f5dbbe7a1e616b629a61480b13fd4e89dfe8b604d35802cdf7b0bb03687e3eb498787876040516104e19392919061222d565b606060008383604051602001610e949291906120d4565b60408051601f198184030181528282528051602091820120600089815260078352838120828252835283812080548085028701850190955284865291955090929184015b82821015610f835760008481526020908190208301805460408051601f6002600019610100600187161502019094169390930492830185900485028101850190915281815292830182828015610f6f5780601f10610f4457610100808354040283529160200191610f6f565b820191906000526020600020905b815481529060010190602001808311610f5257829003601f168201915b505050505081526020019060010190610ed8565b505050509150509392505050565b82610f9b81611656565b610fb75760405162461bcd60e51b815260040161042490612288565b6000848152600460205260409020610fd09084846119c1565b50837fb7d29e911041e8d9b843369e890bcb72c9388692ba48b65ac54e7214c4c348f784846040516109dd9291906121fe565b8261100d81611656565b6110295760405162461bcd60e51b815260040161042490612288565b837f65412581168e88a1e60c6459d7f44ae83ad0832e670826c05a4e2476b57af752848460405161105b9291906122f6565b60405180910390a2603c8314156110ad57837f52d7d861f09ab3d26239d492e8968629f95e9e318cf0b73bfddc441522a15fd261109784611788565b6040516110a49190612100565b60405180910390a25b6000848152600160209081526040808320868452825290912083516110d492850190611afb565b5050505050565b856110e581611656565b6111015760405162461bcd60e51b815260040161042490612288565b600086866040516020016111169291906120d4565b60408051601f19818403018152918152815160209283012060008b81526007845282812082825290935291205490915085106111645760405162461bcd60e51b815260040161042490612251565b600088815260076020908152604080832084845290915290208054859185918890811061118d57fe5b9060005260206000200191906111a49291906119c1565b50877fad6a325380d85c50dfaa38511cbbbc97c46b9a52e342c8d705bf5515d0ef45b38888886040516111d99392919061222d565b60405180910390a25050505050505050565b60608167ffffffffffffffff8111801561120457600080fd5b5060405190808252806020026020018201604052801561123857816020015b60608152602001906001900390816112235790505b50905060005b828110156112fb57600060603086868581811061125757fe5b9050602002810190611269919061230f565b6040516112779291906120d4565b600060405180830381855af49150503d80600081146112b2576040519150601f19603f3d011682016040523d82523d6000602084013e6112b7565b606091505b5091509150816112d95760405162461bcd60e51b8152600401610424906122bf565b808484815181106112e657fe5b6020908102919091010152505060010161123e565b5092915050565b600081815260026020818152604092839020805484516001821615610100026000190190911693909304601f81018390048302840183019094528383526060939091830182828015610cf15780601f10610cc657610100808354040283529160200191610cf1565b600090815260056020526040902080546001909101549091565b8161138e81611656565b6113aa5760405162461bcd60e51b815260040161042490612288565b6113b983603c610320856117b0565b505050565b826113c881611656565b6113e45760405162461bcd60e51b815260040161042490612288565b60008481526003602090815260408083206001600160e01b0319871680855292529182902080547fffffffffffffffffffffffff0000000000000000000000000000000000000000166001600160a01b038616179055905185907f7c69f06bea0bdef565b709e93a147836b0063ba2dd89f02d0b7e8d931e6a6daa9061146b908690612100565b60405180910390a350505050565b600082815260016020818152604080842085855282529283902080548451600294821615610100026000190190911693909304601f810183900483028401830190945283835260609390918301828280156115155780601f106114ea57610100808354040283529160200191611515565b820191906000526020600020905b8154815290600101906020018083116114f857829003601f168201915b5050505050905092915050565b600960209081526000938452604080852082529284528284209052825290205460ff1681565b60606000848460405160200161155f9291906120d4565b60408051601f19818403018152918152815160209283012060008981526007845282812082825290935291208054919250908490811061159b57fe5b600091825260209182902001805460408051601f60026000196101006001871615020190941693909304928301859004850281018501909152818152928301828280156116295780601f106115fe57610100808354040283529160200191611629565b820191906000526020600020905b81548152906001019060200180831161160c57829003601f168201915b5050505050915050949350505050565b60006001600160e01b0319821615806103f657506103f6826117e9565b6008546000906001600160a01b031615611758576008546040517f02571be30000000000000000000000000000000000000000000000000000000081526000916001600160a01b0316906302571be3906116b49086906004016121d2565b60206040518083038186803b1580156116cc57600080fd5b505afa1580156116e0573d6000803e3d6000fd5b505050506040513d601f19601f820116820180604052508101906117049190611bbe565b90506001600160a01b038116331480611747575060008381526009602090815260408083206001600160a01b0385168452825280832033845290915290205460ff165b156117565760019150506103f9565b505b813360405160200161176a91906120a4565b60405160208183030381529060405280519060200120149050919050565b6000815160141461179857600080fd5b50602001516c01000000000000000000000000900490565b6040805160148082528183019092526060916020820181803683375050506c010000000000000000000000009290920260208301525090565b60006001600160e01b031982167f59d1d43c0000000000000000000000000000000000000000000000000000000014806103f657506103f68260006001600160e01b031982167fc86902330000000000000000000000000000000000000000000000000000000014806103f657506103f68260006001600160e01b031982167f691f34310000000000000000000000000000000000000000000000000000000014806103f657506103f68260006001600160e01b031982167f124a319c0000000000000000000000000000000000000000000000000000000014806103f657506103f68260006001600160e01b031982167fbc1c58d10000000000000000000000000000000000000000000000000000000014806103f657506103f68260006001600160e01b031982167f3b3b57de00000000000000000000000000000000000000000000000000000000148061196957506001600160e01b031982167ff1cb7e0600000000000000000000000000000000000000000000000000000000145b806103f657506103f68260006001600160e01b031982167f2203ab560000000000000000000000000000000000000000000000000000000014806103f657506301ffc9a760e01b6001600160e01b03198316146103f6565b828054600181600116156101000203166002900490600052602060002090601f016020900481019282601f10611a025782800160ff19823516178555611a2f565b82800160010185558215611a2f579182015b82811115611a2f578235825591602001919060010190611a14565b50611a3b929150611b69565b5090565b828054600181600116156101000203166002900490600052602060002090601f016020900481019282601f10611a785780548555611a2f565b82800160010185558215611a2f57600052602060002091601f016020900482015b82811115611a2f578254825591600101919060010190611a99565b50805460018160011615610100020316600290046000825580601f10611ada5750611af8565b601f016020900490600052602060002090810190611af89190611b69565b50565b828054600181600116156101000203166002900490600052602060002090601f016020900481019282601f10611b3c57805160ff1916838001178555611a2f565b82800160010185558215611a2f579182015b82811115611a2f578251825591602001919060010190611b4e565b5b80821115611a3b5760008155600101611b6a565b60008083601f840112611b8f578182fd5b50813567ffffffffffffffff811115611ba6578182fd5b60208301915083602082850101111561095157600080fd5b600060208284031215611bcf578081fd5b8151610a8b816123a2565b60008060208385031215611bec578081fd5b823567ffffffffffffffff80821115611c03578283fd5b818501915085601f830112611c16578283fd5b813581811115611c24578384fd5b8660208083028501011115611c37578384fd5b60209290920196919550909350505050565b600060208284031215611c5a578081fd5b5035919050565b60008060408385031215611c73578182fd5b823591506020830135611c85816123a2565b809150509250929050565b600080600060608486031215611ca4578081fd5b833592506020840135611cb6816123a2565b91506040840135611cc6816123a2565b809150509250925092565b600080600060608486031215611ce5578283fd5b833592506020840135611cf7816123a2565b915060408401358015158114611cc6578182fd5b600080600060608486031215611d1f578283fd5b505081359360208301359350604090920135919050565b60008060408385031215611d48578182fd5b823591506020830135611c85816123b7565b600080600060608486031215611d6e578283fd5b833592506020840135611cb6816123b7565b600080600060408486031215611d94578283fd5b83359250602084013567ffffffffffffffff811115611db1578283fd5b611dbd86828701611b7e565b9497909650939450505050565b600080600080600060608688031215611de1578081fd5b85359450602086013567ffffffffffffffff80821115611dff578283fd5b611e0b89838a01611b7e565b90965094506040880135915080821115611e23578283fd5b50611e3088828901611b7e565b969995985093965092949392505050565b60008060008060608587031215611e56578182fd5b84359350602085013567ffffffffffffffff811115611e73578283fd5b611e7f87828801611b7e565b9598909750949560400135949350505050565b60008060008060008060808789031215611eaa578384fd5b86359550602087013567ffffffffffffffff80821115611ec8578586fd5b611ed48a838b01611b7e565b9097509550604089013594506060890135915080821115611ef3578283fd5b50611f0089828a01611b7e565b979a9699509497509295939492505050565b60008060408385031215611f24578182fd5b50508035926020909101359150565b60008060008060608587031215611f48578182fd5b8435935060208501359250604085013567ffffffffffffffff811115611f6c578283fd5b611f7887828801611b7e565b95989497509550505050565b600080600060608486031215611f98578081fd5b833592506020808501359250604085013567ffffffffffffffff80821115611fbe578384fd5b818701915087601f830112611fd1578384fd5b813581811115611fdf578485fd5b60405184601f19601f8401168201018181108482111715611ffe578687fd5b60405281815283820185018a1015612014578586fd5b81858501868301378585838301015280955050505050509250925092565b600060208284031215612043578081fd5b8135610a8b816123b7565b60008284528282602086013780602084860101526020601f19601f85011685010190509392505050565b60008151808452612090816020860160208601612372565b601f01601f19169290920160200192915050565b60609190911b7fffffffffffffffffffffffffffffffffffffffff00000000000000000000000016815260140190565b6000828483379101908152919050565b600082516120f6818460208701612372565b9190910192915050565b6001600160a01b0391909116815260200190565b6000602080830181845280855180835260408601915060408482028701019250838701855b8281101561216757603f19888603018452612155858351612078565b94509285019290850190600101612139565b5092979650505050505050565b6000602080830181845280855180835260408601915060408482028701019250838701855b8281101561216757603f198886030184526121b5858351612078565b94509285019290850190600101612199565b901515815260200190565b90815260200190565b918252602082015260400190565b6001600160e01b031991909116815260200190565b60006020825261221260208301848661204e565b949350505050565b600060208252610a8b6020830184612078565b60006040825261224160408301858761204e565b9050826020830152949350505050565b6020808252600d908201527f496e76616c696420696e64657800000000000000000000000000000000000000604082015260600190565b6020808252600c908201527f756e617574686f72697a65640000000000000000000000000000000000000000604082015260600190565b60208082526013908201527f6661696c65642064656c656761746563616c6c00000000000000000000000000604082015260600190565b6000838252604060208301526122126040830184612078565b60008083357fffffffffffffffffffffffffffffffffffffffffffffffffffffffffffffffe1843603018112612343578283fd5b83018035915067ffffffffffffffff82111561235d578283fd5b60200191503681900382131561095157600080fd5b60005b8381101561238d578181015183820152602001612375565b8381111561239c576000848401525b50505050565b6001600160a01b0381168114611af857600080fd5b6001600160e01b031981168114611af857600080fdfea2646970667358221220cfd42690f3ab82330ad83b8ca41da2d586f686e636dc0a46125f854befd5269264736f6c634300060c0033",
          "opcodes": "PUSH1 0x80 PUSH1 0x40 MSTORE CALLVALUE DUP1 ISZERO PUSH2 0x10 JUMPI PUSH1 0x0 DUP1 REVERT JUMPDEST POP PUSH1 0x40 MLOAD PUSH3 0x2497 CODESIZE SUB DUP1 PUSH3 0x2497 DUP4 CODECOPY DUP2 ADD PUSH1 0x40 DUP2 SWAP1 MSTORE PUSH2 0x31 SWAP2 PUSH2 0x56 JUMP JUMPDEST PUSH1 0x8 DUP1 SLOAD PUSH1 0x1 PUSH1 0x1 PUSH1 0xA0 SHL SUB NOT AND PUSH1 0x1 PUSH1 0x1 PUSH1 0xA0 SHL SUB SWAP3 SWAP1 SWAP3 AND SWAP2 SWAP1 SWAP2 OR SWAP1 SSTORE PUSH2 0x84 JUMP JUMPDEST PUSH1 0x0 PUSH1 0x20 DUP3 DUP5 SUB SLT ISZERO PUSH2 0x67 JUMPI DUP1 DUP2 REVERT JUMPDEST DUP2 MLOAD PUSH1 0x1 PUSH1 0x1 PUSH1 0xA0 SHL SUB DUP2 AND DUP2 EQ PUSH2 0x7D JUMPI DUP2 DUP3 REVERT JUMPDEST SWAP4 SWAP3 POP POP POP JUMP JUMPDEST PUSH2 0x2403 DUP1 PUSH3 0x94 PUSH1 0x0 CODECOPY PUSH1 0x0 RETURN INVALID PUSH1 0x80 PUSH1 0x40 MSTORE CALLVALUE DUP1 ISZERO PUSH2 0x10 JUMPI PUSH1 0x0 DUP1 REVERT JUMPDEST POP PUSH1 0x4 CALLDATASIZE LT PUSH2 0x1A3 JUMPI PUSH1 0x0 CALLDATALOAD PUSH1 0xE0 SHR DUP1 PUSH4 0x6F473720 GT PUSH2 0xEE JUMPI DUP1 PUSH4 0xBC1C58D1 GT PUSH2 0x97 JUMPI DUP1 PUSH4 0xE59D895D GT PUSH2 0x71 JUMPI DUP1 PUSH4 0xE59D895D EQ PUSH2 0x39F JUMPI DUP1 PUSH4 0xF1CB7E06 EQ PUSH2 0x3B2 JUMPI DUP1 PUSH4 0xF86BC879 EQ PUSH2 0x3C5 JUMPI DUP1 PUSH4 0xFDF720C6 EQ PUSH2 0x3D8 JUMPI PUSH2 0x1A3 JUMP JUMPDEST DUP1 PUSH4 0xBC1C58D1 EQ PUSH2 0x358 JUMPI DUP1 PUSH4 0xC8690233 EQ PUSH2 0x36B JUMPI DUP1 PUSH4 0xD5FA2B00 EQ PUSH2 0x38C JUMPI PUSH2 0x1A3 JUMP JUMPDEST DUP1 PUSH4 0x8B95DD71 GT PUSH2 0xC8 JUMPI DUP1 PUSH4 0x8B95DD71 EQ PUSH2 0x312 JUMPI DUP1 PUSH4 0xA2DF33E1 EQ PUSH2 0x325 JUMPI DUP1 PUSH4 0xAC9650D8 EQ PUSH2 0x338 JUMPI PUSH2 0x1A3 JUMP JUMPDEST DUP1 PUSH4 0x6F473720 EQ PUSH2 0x2CC JUMPI DUP1 PUSH4 0x74C756EE EQ PUSH2 0x2DF JUMPI DUP1 PUSH4 0x77372213 EQ PUSH2 0x2FF JUMPI PUSH2 0x1A3 JUMP JUMPDEST DUP1 PUSH4 0x304E6ADE GT PUSH2 0x150 JUMPI DUP1 PUSH4 0x59D1D43C GT PUSH2 0x12A JUMPI DUP1 PUSH4 0x59D1D43C EQ PUSH2 0x286 JUMPI DUP1 PUSH4 0x623195B0 EQ PUSH2 0x2A6 JUMPI DUP1 PUSH4 0x691F3431 EQ PUSH2 0x2B9 JUMPI PUSH2 0x1A3 JUMP JUMPDEST DUP1 PUSH4 0x304E6ADE EQ PUSH2 0x24D JUMPI DUP1 PUSH4 0x3B3B57DE EQ PUSH2 0x260 JUMPI DUP1 PUSH4 0x3E9CE794 EQ PUSH2 0x273 JUMPI PUSH2 0x1A3 JUMP JUMPDEST DUP1 PUSH4 0x124A319C GT PUSH2 0x181 JUMPI DUP1 PUSH4 0x124A319C EQ PUSH2 0x1F9 JUMPI DUP1 PUSH4 0x2203AB56 EQ PUSH2 0x219 JUMPI DUP1 PUSH4 0x29CD62EA EQ PUSH2 0x23A JUMPI PUSH2 0x1A3 JUMP JUMPDEST DUP1 PUSH4 0x1FFC9A7 EQ PUSH2 0x1A8 JUMPI DUP1 PUSH4 0x43A728D EQ PUSH2 0x1D1 JUMPI DUP1 PUSH4 0x10F13A8C EQ PUSH2 0x1E6 JUMPI JUMPDEST PUSH1 0x0 DUP1 REVERT JUMPDEST PUSH2 0x1BB PUSH2 0x1B6 CALLDATASIZE PUSH1 0x4 PUSH2 0x2032 JUMP JUMPDEST PUSH2 0x3EB JUMP JUMPDEST PUSH1 0x40 MLOAD PUSH2 0x1C8 SWAP2 SWAP1 PUSH2 0x21C7 JUMP JUMPDEST PUSH1 0x40 MLOAD DUP1 SWAP2 SUB SWAP1 RETURN JUMPDEST PUSH2 0x1E4 PUSH2 0x1DF CALLDATASIZE PUSH1 0x4 PUSH2 0x1DCA JUMP JUMPDEST PUSH2 0x3FE JUMP JUMPDEST STOP JUMPDEST PUSH2 0x1E4 PUSH2 0x1F4 CALLDATASIZE PUSH1 0x4 PUSH2 0x1DCA JUMP JUMPDEST PUSH2 0x4F2 JUMP JUMPDEST PUSH2 0x20C PUSH2 0x207 CALLDATASIZE PUSH1 0x4 PUSH2 0x1D36 JUMP JUMPDEST PUSH2 0x5B2 JUMP JUMPDEST PUSH1 0x40 MLOAD PUSH2 0x1C8 SWAP2 SWAP1 PUSH2 0x2100 JUMP JUMPDEST PUSH2 0x22C PUSH2 0x227 CALLDATASIZE PUSH1 0x4 PUSH2 0x1F12 JUMP JUMPDEST PUSH2 0x837 JUMP JUMPDEST PUSH1 0x40 MLOAD PUSH2 0x1C8 SWAP3 SWAP2 SWAP1 PUSH2 0x22F6 JUMP JUMPDEST PUSH2 0x1E4 PUSH2 0x248 CALLDATASIZE PUSH1 0x4 PUSH2 0x1D0B JUMP JUMPDEST PUSH2 0x958 JUMP JUMPDEST PUSH2 0x1E4 PUSH2 0x25B CALLDATASIZE PUSH1 0x4 PUSH2 0x1D80 JUMP JUMPDEST PUSH2 0x9EB JUMP JUMPDEST PUSH2 0x20C PUSH2 0x26E CALLDATASIZE PUSH1 0x4 PUSH2 0x1C49 JUMP JUMPDEST PUSH2 0xA5D JUMP JUMPDEST PUSH2 0x1E4 PUSH2 0x281 CALLDATASIZE PUSH1 0x4 PUSH2 0x1CD1 JUMP JUMPDEST PUSH2 0xA92 JUMP JUMPDEST PUSH2 0x299 PUSH2 0x294 CALLDATASIZE PUSH1 0x4 PUSH2 0x1D80 JUMP JUMPDEST PUSH2 0xB0C JUMP JUMPDEST PUSH1 0x40 MLOAD PUSH2 0x1C8 SWAP2 SWAP1 PUSH2 0x221A JUMP JUMPDEST PUSH2 0x1E4 PUSH2 0x2B4 CALLDATASIZE PUSH1 0x4 PUSH2 0x1F33 JUMP JUMPDEST PUSH2 0xBCE JUMP JUMPDEST PUSH2 0x299 PUSH2 0x2C7 CALLDATASIZE PUSH1 0x4 PUSH2 0x1C49 JUMP JUMPDEST PUSH2 0xC5C JUMP JUMPDEST PUSH2 0x1E4 PUSH2 0x2DA CALLDATASIZE PUSH1 0x4 PUSH2 0x1E41 JUMP JUMPDEST PUSH2 0xCFD JUMP JUMPDEST PUSH2 0x2F2 PUSH2 0x2ED CALLDATASIZE PUSH1 0x4 PUSH2 0x1D80 JUMP JUMPDEST PUSH2 0xE7D JUMP JUMPDEST PUSH1 0x40 MLOAD PUSH2 0x1C8 SWAP2 SWAP1 PUSH2 0x2174 JUMP JUMPDEST PUSH2 0x1E4 PUSH2 0x30D CALLDATASIZE PUSH1 0x4 PUSH2 0x1D80 JUMP JUMPDEST PUSH2 0xF91 JUMP JUMPDEST PUSH2 0x1E4 PUSH2 0x320 CALLDATASIZE PUSH1 0x4 PUSH2 0x1F84 JUMP JUMPDEST PUSH2 0x1003 JUMP JUMPDEST PUSH2 0x1E4 PUSH2 0x333 CALLDATASIZE PUSH1 0x4 PUSH2 0x1E92 JUMP JUMPDEST PUSH2 0x10DB JUMP JUMPDEST PUSH2 0x34B PUSH2 0x346 CALLDATASIZE PUSH1 0x4 PUSH2 0x1BDA JUMP JUMPDEST PUSH2 0x11EB JUMP JUMPDEST PUSH1 0x40 MLOAD PUSH2 0x1C8 SWAP2 SWAP1 PUSH2 0x2114 JUMP JUMPDEST PUSH2 0x299 PUSH2 0x366 CALLDATASIZE PUSH1 0x4 PUSH2 0x1C49 JUMP JUMPDEST PUSH2 0x1302 JUMP JUMPDEST PUSH2 0x37E PUSH2 0x379 CALLDATASIZE PUSH1 0x4 PUSH2 0x1C49 JUMP JUMPDEST PUSH2 0x136A JUMP JUMPDEST PUSH1 0x40 MLOAD PUSH2 0x1C8 SWAP3 SWAP2 SWAP1 PUSH2 0x21DB JUMP JUMPDEST PUSH2 0x1E4 PUSH2 0x39A CALLDATASIZE PUSH1 0x4 PUSH2 0x1C61 JUMP JUMPDEST PUSH2 0x1384 JUMP JUMPDEST PUSH2 0x1E4 PUSH2 0x3AD CALLDATASIZE PUSH1 0x4 PUSH2 0x1D5A JUMP JUMPDEST PUSH2 0x13BE JUMP JUMPDEST PUSH2 0x299 PUSH2 0x3C0 CALLDATASIZE PUSH1 0x4 PUSH2 0x1F12 JUMP JUMPDEST PUSH2 0x1479 JUMP JUMPDEST PUSH2 0x1BB PUSH2 0x3D3 CALLDATASIZE PUSH1 0x4 PUSH2 0x1C90 JUMP JUMPDEST PUSH2 0x1522 JUMP JUMPDEST PUSH2 0x299 PUSH2 0x3E6 CALLDATASIZE PUSH1 0x4 PUSH2 0x1E41 JUMP JUMPDEST PUSH2 0x1548 JUMP JUMPDEST PUSH1 0x0 PUSH2 0x3F6 DUP3 PUSH2 0x1639 JUMP JUMPDEST SWAP1 POP JUMPDEST SWAP2 SWAP1 POP JUMP JUMPDEST DUP5 PUSH2 0x408 DUP2 PUSH2 0x1656 JUMP JUMPDEST PUSH2 0x42D JUMPI PUSH1 0x40 MLOAD PUSH3 0x461BCD PUSH1 0xE5 SHL DUP2 MSTORE PUSH1 0x4 ADD PUSH2 0x424 SWAP1 PUSH2 0x2288 JUMP JUMPDEST PUSH1 0x40 MLOAD DUP1 SWAP2 SUB SWAP1 REVERT JUMPDEST PUSH1 0x0 DUP6 DUP6 PUSH1 0x40 MLOAD PUSH1 0x20 ADD PUSH2 0x442 SWAP3 SWAP2 SWAP1 PUSH2 0x20D4 JUMP JUMPDEST PUSH1 0x40 DUP1 MLOAD PUSH1 0x1F NOT DUP2 DUP5 SUB ADD DUP2 MSTORE SWAP2 DUP2 MSTORE DUP2 MLOAD PUSH1 0x20 SWAP3 DUP4 ADD KECCAK256 PUSH1 0x0 DUP11 DUP2 MSTORE PUSH1 0x7 DUP5 MSTORE DUP3 DUP2 KECCAK256 DUP3 DUP3 MSTORE DUP5 MSTORE SWAP2 DUP3 KECCAK256 DUP1 SLOAD PUSH1 0x1 DUP2 ADD DUP3 SSTORE SWAP1 DUP4 MSTORE SWAP3 SWAP1 SWAP2 KECCAK256 SWAP1 SWAP3 POP PUSH2 0x48C SWAP2 ADD DUP6 DUP6 PUSH2 0x19C1 JUMP JUMPDEST POP PUSH1 0x0 DUP8 DUP2 MSTORE PUSH1 0x7 PUSH1 0x20 SWAP1 DUP2 MSTORE PUSH1 0x40 DUP1 DUP4 KECCAK256 DUP5 DUP5 MSTORE SWAP1 SWAP2 MSTORE SWAP1 DUP2 SWAP1 KECCAK256 SLOAD SWAP1 MLOAD DUP9 SWAP2 PUSH32 0xAD6A325380D85C50DFAA38511CBBBC97C46B9A52E342C8D705BF5515D0EF45B3 SWAP2 PUSH2 0x4E1 SWAP2 DUP11 SWAP2 DUP11 SWAP2 PUSH1 0x0 NOT ADD SWAP1 PUSH2 0x222D JUMP JUMPDEST PUSH1 0x40 MLOAD DUP1 SWAP2 SUB SWAP1 LOG2 POP POP POP POP POP POP POP JUMP JUMPDEST DUP5 PUSH2 0x4FC DUP2 PUSH2 0x1656 JUMP JUMPDEST PUSH2 0x518 JUMPI PUSH1 0x40 MLOAD PUSH3 0x461BCD PUSH1 0xE5 SHL DUP2 MSTORE PUSH1 0x4 ADD PUSH2 0x424 SWAP1 PUSH2 0x2288 JUMP JUMPDEST DUP3 DUP3 PUSH1 0x6 PUSH1 0x0 DUP10 DUP2 MSTORE PUSH1 0x20 ADD SWAP1 DUP2 MSTORE PUSH1 0x20 ADD PUSH1 0x0 KECCAK256 DUP8 DUP8 PUSH1 0x40 MLOAD PUSH2 0x53D SWAP3 SWAP2 SWAP1 PUSH2 0x20D4 JUMP JUMPDEST SWAP1 DUP2 MSTORE PUSH1 0x40 MLOAD SWAP1 DUP2 SWAP1 SUB PUSH1 0x20 ADD SWAP1 KECCAK256 PUSH2 0x557 SWAP3 SWAP1 SWAP2 PUSH2 0x19C1 JUMP JUMPDEST POP DUP5 DUP5 PUSH1 0x40 MLOAD PUSH2 0x568 SWAP3 SWAP2 SWAP1 PUSH2 0x20D4 JUMP JUMPDEST PUSH1 0x40 MLOAD DUP1 SWAP2 SUB SWAP1 KECCAK256 DUP7 PUSH32 0xD8C9334B1A9C2F9DA342A0A2B32629C1A229B6445DAD78947F674B44444A7550 DUP8 DUP8 PUSH1 0x40 MLOAD PUSH2 0x5A2 SWAP3 SWAP2 SWAP1 PUSH2 0x21FE JUMP JUMPDEST PUSH1 0x40 MLOAD DUP1 SWAP2 SUB SWAP1 LOG3 POP POP POP POP POP POP JUMP JUMPDEST PUSH1 0x0 DUP3 DUP2 MSTORE PUSH1 0x3 PUSH1 0x20 SWAP1 DUP2 MSTORE PUSH1 0x40 DUP1 DUP4 KECCAK256 PUSH1 0x1 PUSH1 0x1 PUSH1 0xE0 SHL SUB NOT DUP6 AND DUP5 MSTORE SWAP1 SWAP2 MSTORE DUP2 KECCAK256 SLOAD PUSH1 0x1 PUSH1 0x1 PUSH1 0xA0 SHL SUB AND DUP1 ISZERO PUSH2 0x5EC JUMPI SWAP1 POP PUSH2 0x831 JUMP JUMPDEST PUSH1 0x0 PUSH2 0x5F7 DUP6 PUSH2 0xA5D JUMP JUMPDEST SWAP1 POP PUSH1 0x1 PUSH1 0x1 PUSH1 0xA0 SHL SUB DUP2 AND PUSH2 0x612 JUMPI PUSH1 0x0 SWAP3 POP POP POP PUSH2 0x831 JUMP JUMPDEST PUSH1 0x0 PUSH1 0x60 DUP3 PUSH1 0x1 PUSH1 0x1 PUSH1 0xA0 SHL SUB AND PUSH4 0x1FFC9A7 PUSH1 0xE0 SHL PUSH1 0x40 MLOAD PUSH1 0x24 ADD PUSH2 0x638 SWAP2 SWAP1 PUSH2 0x21E9 JUMP JUMPDEST PUSH1 0x40 DUP1 MLOAD PUSH1 0x1F NOT DUP2 DUP5 SUB ADD DUP2 MSTORE SWAP2 DUP2 MSTORE PUSH1 0x20 DUP3 ADD DUP1 MLOAD PUSH28 0xFFFFFFFFFFFFFFFFFFFFFFFFFFFFFFFFFFFFFFFFFFFFFFFFFFFFFFFF AND PUSH4 0x1FFC9A7 PUSH1 0xE0 SHL OR SWAP1 MSTORE MLOAD PUSH2 0x682 SWAP2 SWAP1 PUSH2 0x20E4 JUMP JUMPDEST PUSH1 0x0 PUSH1 0x40 MLOAD DUP1 DUP4 SUB DUP2 DUP6 GAS STATICCALL SWAP2 POP POP RETURNDATASIZE DUP1 PUSH1 0x0 DUP2 EQ PUSH2 0x6BD JUMPI PUSH1 0x40 MLOAD SWAP2 POP PUSH1 0x1F NOT PUSH1 0x3F RETURNDATASIZE ADD AND DUP3 ADD PUSH1 0x40 MSTORE RETURNDATASIZE DUP3 MSTORE RETURNDATASIZE PUSH1 0x0 PUSH1 0x20 DUP5 ADD RETURNDATACOPY PUSH2 0x6C2 JUMP JUMPDEST PUSH1 0x60 SWAP2 POP JUMPDEST POP SWAP2 POP SWAP2 POP DUP2 ISZERO DUP1 PUSH2 0x6D5 JUMPI POP PUSH1 0x20 DUP2 MLOAD LT JUMPDEST DUP1 PUSH2 0x711 JUMPI POP DUP1 PUSH1 0x1F DUP2 MLOAD DUP2 LT PUSH2 0x6E8 JUMPI INVALID JUMPDEST ADD PUSH1 0x20 ADD MLOAD PUSH32 0xFF00000000000000000000000000000000000000000000000000000000000000 AND ISZERO JUMPDEST ISZERO PUSH2 0x723 JUMPI PUSH1 0x0 SWAP5 POP POP POP POP POP PUSH2 0x831 JUMP JUMPDEST DUP3 PUSH1 0x1 PUSH1 0x1 PUSH1 0xA0 SHL SUB AND DUP7 PUSH1 0x40 MLOAD PUSH1 0x24 ADD PUSH2 0x73E SWAP2 SWAP1 PUSH2 0x21E9 JUMP JUMPDEST PUSH1 0x40 DUP1 MLOAD PUSH1 0x1F NOT DUP2 DUP5 SUB ADD DUP2 MSTORE SWAP2 DUP2 MSTORE PUSH1 0x20 DUP3 ADD DUP1 MLOAD PUSH28 0xFFFFFFFFFFFFFFFFFFFFFFFFFFFFFFFFFFFFFFFFFFFFFFFFFFFFFFFF AND PUSH4 0x1FFC9A7 PUSH1 0xE0 SHL OR SWAP1 MSTORE MLOAD PUSH2 0x788 SWAP2 SWAP1 PUSH2 0x20E4 JUMP JUMPDEST PUSH1 0x0 PUSH1 0x40 MLOAD DUP1 DUP4 SUB DUP2 DUP6 GAS STATICCALL SWAP2 POP POP RETURNDATASIZE DUP1 PUSH1 0x0 DUP2 EQ PUSH2 0x7C3 JUMPI PUSH1 0x40 MLOAD SWAP2 POP PUSH1 0x1F NOT PUSH1 0x3F RETURNDATASIZE ADD AND DUP3 ADD PUSH1 0x40 MSTORE RETURNDATASIZE DUP3 MSTORE RETURNDATASIZE PUSH1 0x0 PUSH1 0x20 DUP5 ADD RETURNDATACOPY PUSH2 0x7C8 JUMP JUMPDEST PUSH1 0x60 SWAP2 POP JUMPDEST POP SWAP1 SWAP3 POP SWAP1 POP DUP2 ISZERO DUP1 PUSH2 0x7DC JUMPI POP PUSH1 0x20 DUP2 MLOAD LT JUMPDEST DUP1 PUSH2 0x818 JUMPI POP DUP1 PUSH1 0x1F DUP2 MLOAD DUP2 LT PUSH2 0x7EF JUMPI INVALID JUMPDEST ADD PUSH1 0x20 ADD MLOAD PUSH32 0xFF00000000000000000000000000000000000000000000000000000000000000 AND ISZERO JUMPDEST ISZERO PUSH2 0x82A JUMPI PUSH1 0x0 SWAP5 POP POP POP POP POP PUSH2 0x831 JUMP JUMPDEST POP SWAP1 SWAP3 POP POP POP JUMPDEST SWAP3 SWAP2 POP POP JUMP JUMPDEST PUSH1 0x0 DUP3 DUP2 MSTORE PUSH1 0x20 DUP2 SWAP1 MSTORE PUSH1 0x40 DUP2 KECCAK256 PUSH1 0x60 SWAP1 PUSH1 0x1 JUMPDEST DUP5 DUP2 GT PUSH2 0x938 JUMPI DUP1 DUP6 AND ISZERO DUP1 ISZERO SWAP1 PUSH2 0x883 JUMPI POP PUSH1 0x0 DUP2 DUP2 MSTORE PUSH1 0x20 DUP4 SWAP1 MSTORE PUSH1 0x40 SWAP1 KECCAK256 SLOAD PUSH1 0x2 PUSH1 0x0 NOT PUSH2 0x100 PUSH1 0x1 DUP5 AND ISZERO MUL ADD SWAP1 SWAP2 AND DIV ISZERO ISZERO JUMPDEST ISZERO PUSH2 0x930 JUMPI PUSH1 0x0 DUP2 DUP2 MSTORE PUSH1 0x20 DUP4 DUP2 MSTORE PUSH1 0x40 SWAP2 DUP3 SWAP1 KECCAK256 DUP1 SLOAD DUP4 MLOAD PUSH1 0x1F PUSH1 0x2 PUSH1 0x0 NOT PUSH2 0x100 PUSH1 0x1 DUP7 AND ISZERO MUL ADD SWAP1 SWAP4 AND SWAP3 SWAP1 SWAP3 DIV SWAP2 DUP3 ADD DUP5 SWAP1 DIV DUP5 MUL DUP2 ADD DUP5 ADD SWAP1 SWAP5 MSTORE DUP1 DUP5 MSTORE DUP5 SWAP4 SWAP2 SWAP3 DUP4 SWAP2 SWAP1 DUP4 ADD DUP3 DUP3 DUP1 ISZERO PUSH2 0x91E JUMPI DUP1 PUSH1 0x1F LT PUSH2 0x8F3 JUMPI PUSH2 0x100 DUP1 DUP4 SLOAD DIV MUL DUP4 MSTORE SWAP2 PUSH1 0x20 ADD SWAP2 PUSH2 0x91E JUMP JUMPDEST DUP3 ADD SWAP2 SWAP1 PUSH1 0x0 MSTORE PUSH1 0x20 PUSH1 0x0 KECCAK256 SWAP1 JUMPDEST DUP2 SLOAD DUP2 MSTORE SWAP1 PUSH1 0x1 ADD SWAP1 PUSH1 0x20 ADD DUP1 DUP4 GT PUSH2 0x901 JUMPI DUP3 SWAP1 SUB PUSH1 0x1F AND DUP3 ADD SWAP2 JUMPDEST POP POP POP POP POP SWAP1 POP SWAP4 POP SWAP4 POP POP POP PUSH2 0x951 JUMP JUMPDEST PUSH1 0x1 SHL PUSH2 0x84B JUMP JUMPDEST POP PUSH1 0x0 PUSH1 0x40 MLOAD DUP1 PUSH1 0x20 ADD PUSH1 0x40 MSTORE DUP1 PUSH1 0x0 DUP2 MSTORE POP SWAP3 POP SWAP3 POP POP JUMPDEST SWAP3 POP SWAP3 SWAP1 POP JUMP JUMPDEST DUP3 PUSH2 0x962 DUP2 PUSH2 0x1656 JUMP JUMPDEST PUSH2 0x97E JUMPI PUSH1 0x40 MLOAD PUSH3 0x461BCD PUSH1 0xE5 SHL DUP2 MSTORE PUSH1 0x4 ADD PUSH2 0x424 SWAP1 PUSH2 0x2288 JUMP JUMPDEST PUSH1 0x40 DUP1 MLOAD DUP1 DUP3 ADD DUP3 MSTORE DUP5 DUP2 MSTORE PUSH1 0x20 DUP1 DUP3 ADD DUP6 DUP2 MSTORE PUSH1 0x0 DUP9 DUP2 MSTORE PUSH1 0x5 SWAP1 SWAP3 MSTORE SWAP1 DUP4 SWAP1 KECCAK256 SWAP2 MLOAD DUP3 SSTORE MLOAD PUSH1 0x1 SWAP1 SWAP2 ADD SSTORE MLOAD DUP5 SWAP1 PUSH32 0x1D6F5E03D3F63EB58751986629A5439BAEE5079FF04F345BECB66E23EB154E46 SWAP1 PUSH2 0x9DD SWAP1 DUP7 SWAP1 DUP7 SWAP1 PUSH2 0x21DB JUMP JUMPDEST PUSH1 0x40 MLOAD DUP1 SWAP2 SUB SWAP1 LOG2 POP POP POP POP JUMP JUMPDEST DUP3 PUSH2 0x9F5 DUP2 PUSH2 0x1656 JUMP JUMPDEST PUSH2 0xA11 JUMPI PUSH1 0x40 MLOAD PUSH3 0x461BCD PUSH1 0xE5 SHL DUP2 MSTORE PUSH1 0x4 ADD PUSH2 0x424 SWAP1 PUSH2 0x2288 JUMP JUMPDEST PUSH1 0x0 DUP5 DUP2 MSTORE PUSH1 0x2 PUSH1 0x20 MSTORE PUSH1 0x40 SWAP1 KECCAK256 PUSH2 0xA2A SWAP1 DUP5 DUP5 PUSH2 0x19C1 JUMP JUMPDEST POP DUP4 PUSH32 0xE379C1624ED7E714CC0937528A32359D69D5281337765313DBA4E081B72D7578 DUP5 DUP5 PUSH1 0x40 MLOAD PUSH2 0x9DD SWAP3 SWAP2 SWAP1 PUSH2 0x21FE JUMP JUMPDEST PUSH1 0x0 PUSH1 0x60 PUSH2 0xA6C DUP4 PUSH1 0x3C PUSH2 0x1479 JUMP JUMPDEST SWAP1 POP DUP1 MLOAD PUSH1 0x0 EQ ISZERO PUSH2 0xA82 JUMPI PUSH1 0x0 SWAP2 POP POP PUSH2 0x3F9 JUMP JUMPDEST PUSH2 0xA8B DUP2 PUSH2 0x1788 JUMP JUMPDEST SWAP4 SWAP3 POP POP POP JUMP JUMPDEST PUSH1 0x0 DUP4 DUP2 MSTORE PUSH1 0x9 PUSH1 0x20 SWAP1 DUP2 MSTORE PUSH1 0x40 DUP1 DUP4 KECCAK256 CALLER DUP1 DUP6 MSTORE SWAP1 DUP4 MSTORE DUP2 DUP5 KECCAK256 PUSH1 0x1 PUSH1 0x1 PUSH1 0xA0 SHL SUB DUP8 AND DUP1 DUP7 MSTORE SWAP4 MSTORE SWAP3 DUP2 SWAP1 KECCAK256 DUP1 SLOAD PUSH1 0xFF NOT AND DUP6 ISZERO ISZERO OR SWAP1 SSTORE MLOAD SWAP1 SWAP2 SWAP1 DUP6 SWAP1 PUSH32 0xE1C5610A6E0CBE10764ECD182ADCEF1EC338DC4E199C99C32CE98F38E12791DF SWAP1 PUSH2 0xAFF SWAP1 DUP7 SWAP1 PUSH2 0x21C7 JUMP JUMPDEST PUSH1 0x40 MLOAD DUP1 SWAP2 SUB SWAP1 LOG4 POP POP POP JUMP JUMPDEST PUSH1 0x60 PUSH1 0x6 PUSH1 0x0 DUP6 DUP2 MSTORE PUSH1 0x20 ADD SWAP1 DUP2 MSTORE PUSH1 0x20 ADD PUSH1 0x0 KECCAK256 DUP4 DUP4 PUSH1 0x40 MLOAD PUSH2 0xB31 SWAP3 SWAP2 SWAP1 PUSH2 0x20D4 JUMP JUMPDEST SWAP1 DUP2 MSTORE PUSH1 0x40 DUP1 MLOAD PUSH1 0x20 SWAP3 DUP2 SWAP1 SUB DUP4 ADD DUP2 KECCAK256 DUP1 SLOAD PUSH1 0x2 PUSH1 0x1 DUP3 AND ISZERO PUSH2 0x100 MUL PUSH1 0x0 NOT ADD SWAP1 SWAP2 AND DIV PUSH1 0x1F DUP2 ADD DUP6 SWAP1 DIV DUP6 MUL DUP4 ADD DUP6 ADD SWAP1 SWAP4 MSTORE DUP3 DUP3 MSTORE SWAP1 SWAP3 SWAP1 SWAP2 SWAP1 DUP4 ADD DUP3 DUP3 DUP1 ISZERO PUSH2 0xBC0 JUMPI DUP1 PUSH1 0x1F LT PUSH2 0xB95 JUMPI PUSH2 0x100 DUP1 DUP4 SLOAD DIV MUL DUP4 MSTORE SWAP2 PUSH1 0x20 ADD SWAP2 PUSH2 0xBC0 JUMP JUMPDEST DUP3 ADD SWAP2 SWAP1 PUSH1 0x0 MSTORE PUSH1 0x20 PUSH1 0x0 KECCAK256 SWAP1 JUMPDEST DUP2 SLOAD DUP2 MSTORE SWAP1 PUSH1 0x1 ADD SWAP1 PUSH1 0x20 ADD DUP1 DUP4 GT PUSH2 0xBA3 JUMPI DUP3 SWAP1 SUB PUSH1 0x1F AND DUP3 ADD SWAP2 JUMPDEST POP POP POP POP POP SWAP1 POP SWAP4 SWAP3 POP POP POP JUMP JUMPDEST DUP4 PUSH2 0xBD8 DUP2 PUSH2 0x1656 JUMP JUMPDEST PUSH2 0xBF4 JUMPI PUSH1 0x40 MLOAD PUSH3 0x461BCD PUSH1 0xE5 SHL DUP2 MSTORE PUSH1 0x4 ADD PUSH2 0x424 SWAP1 PUSH2 0x2288 JUMP JUMPDEST PUSH1 0x0 NOT DUP5 ADD DUP5 AND ISZERO PUSH2 0xC05 JUMPI PUSH1 0x0 DUP1 REVERT JUMPDEST PUSH1 0x0 DUP6 DUP2 MSTORE PUSH1 0x20 DUP2 DUP2 MSTORE PUSH1 0x40 DUP1 DUP4 KECCAK256 DUP8 DUP5 MSTORE SWAP1 SWAP2 MSTORE SWAP1 KECCAK256 PUSH2 0xC27 SWAP1 DUP5 DUP5 PUSH2 0x19C1 JUMP JUMPDEST POP PUSH1 0x40 MLOAD DUP5 SWAP1 DUP7 SWAP1 PUSH32 0xAA121BBEEF5F32F5961A2A28966E769023910FC9479059EE3495D4C1A696EFE3 SWAP1 PUSH1 0x0 SWAP1 LOG3 POP POP POP POP POP JUMP JUMPDEST PUSH1 0x0 DUP2 DUP2 MSTORE PUSH1 0x4 PUSH1 0x20 SWAP1 DUP2 MSTORE PUSH1 0x40 SWAP2 DUP3 SWAP1 KECCAK256 DUP1 SLOAD DUP4 MLOAD PUSH1 0x1F PUSH1 0x2 PUSH1 0x0 NOT PUSH2 0x100 PUSH1 0x1 DUP7 AND ISZERO MUL ADD SWAP1 SWAP4 AND SWAP3 SWAP1 SWAP3 DIV SWAP2 DUP3 ADD DUP5 SWAP1 DIV DUP5 MUL DUP2 ADD DUP5 ADD SWAP1 SWAP5 MSTORE DUP1 DUP5 MSTORE PUSH1 0x60 SWAP4 SWAP3 DUP4 ADD DUP3 DUP3 DUP1 ISZERO PUSH2 0xCF1 JUMPI DUP1 PUSH1 0x1F LT PUSH2 0xCC6 JUMPI PUSH2 0x100 DUP1 DUP4 SLOAD DIV MUL DUP4 MSTORE SWAP2 PUSH1 0x20 ADD SWAP2 PUSH2 0xCF1 JUMP JUMPDEST DUP3 ADD SWAP2 SWAP1 PUSH1 0x0 MSTORE PUSH1 0x20 PUSH1 0x0 KECCAK256 SWAP1 JUMPDEST DUP2 SLOAD DUP2 MSTORE SWAP1 PUSH1 0x1 ADD SWAP1 PUSH1 0x20 ADD DUP1 DUP4 GT PUSH2 0xCD4 JUMPI DUP3 SWAP1 SUB PUSH1 0x1F AND DUP3 ADD SWAP2 JUMPDEST POP POP POP POP POP SWAP1 POP SWAP2 SWAP1 POP JUMP JUMPDEST DUP4 PUSH2 0xD07 DUP2 PUSH2 0x1656 JUMP JUMPDEST PUSH2 0xD23 JUMPI PUSH1 0x40 MLOAD PUSH3 0x461BCD PUSH1 0xE5 SHL DUP2 MSTORE PUSH1 0x4 ADD PUSH2 0x424 SWAP1 PUSH2 0x2288 JUMP JUMPDEST PUSH1 0x0 DUP5 DUP5 PUSH1 0x40 MLOAD PUSH1 0x20 ADD PUSH2 0xD38 SWAP3 SWAP2 SWAP1 PUSH2 0x20D4 JUMP JUMPDEST PUSH1 0x40 DUP1 MLOAD PUSH1 0x1F NOT DUP2 DUP5 SUB ADD DUP2 MSTORE SWAP2 DUP2 MSTORE DUP2 MLOAD PUSH1 0x20 SWAP3 DUP4 ADD KECCAK256 PUSH1 0x0 DUP10 DUP2 MSTORE PUSH1 0x7 DUP5 MSTORE DUP3 DUP2 KECCAK256 DUP3 DUP3 MSTORE SWAP1 SWAP4 MSTORE SWAP2 KECCAK256 SLOAD SWAP1 SWAP2 POP DUP4 LT PUSH2 0xD86 JUMPI PUSH1 0x40 MLOAD PUSH3 0x461BCD PUSH1 0xE5 SHL DUP2 MSTORE PUSH1 0x4 ADD PUSH2 0x424 SWAP1 PUSH2 0x2251 JUMP JUMPDEST PUSH1 0x0 DUP7 DUP2 MSTORE PUSH1 0x7 PUSH1 0x20 SWAP1 DUP2 MSTORE PUSH1 0x40 DUP1 DUP4 KECCAK256 DUP5 DUP5 MSTORE SWAP1 SWAP2 MSTORE SWAP1 KECCAK256 DUP1 SLOAD SWAP1 PUSH1 0x0 NOT DUP3 ADD DUP3 DUP2 LT PUSH2 0xDB0 JUMPI INVALID JUMPDEST PUSH1 0x0 SWAP2 DUP3 MSTORE PUSH1 0x20 DUP1 DUP4 KECCAK256 DUP11 DUP5 MSTORE PUSH1 0x7 DUP3 MSTORE PUSH1 0x40 DUP1 DUP6 KECCAK256 DUP8 DUP7 MSTORE SWAP1 SWAP3 MSTORE SWAP3 KECCAK256 DUP1 SLOAD SWAP3 SWAP1 SWAP2 ADD SWAP2 DUP7 SWAP1 DUP2 LT PUSH2 0xDDF JUMPI INVALID JUMPDEST SWAP1 PUSH1 0x0 MSTORE PUSH1 0x20 PUSH1 0x0 KECCAK256 ADD SWAP1 DUP1 SLOAD PUSH1 0x1 DUP2 PUSH1 0x1 AND ISZERO PUSH2 0x100 MUL SUB AND PUSH1 0x2 SWAP1 DIV PUSH2 0xE08 SWAP3 SWAP2 SWAP1 PUSH2 0x1A3F JUMP JUMPDEST POP PUSH1 0x0 DUP8 DUP2 MSTORE PUSH1 0x7 PUSH1 0x20 SWAP1 DUP2 MSTORE PUSH1 0x40 DUP1 DUP4 KECCAK256 DUP6 DUP5 MSTORE SWAP1 SWAP2 MSTORE SWAP1 KECCAK256 DUP1 SLOAD DUP1 PUSH2 0xE2B JUMPI INVALID JUMPDEST PUSH1 0x1 SWAP1 SUB DUP2 DUP2 SWAP1 PUSH1 0x0 MSTORE PUSH1 0x20 PUSH1 0x0 KECCAK256 ADD PUSH1 0x0 PUSH2 0xE47 SWAP2 SWAP1 PUSH2 0x1AB4 JUMP JUMPDEST SWAP1 SSTORE DUP7 PUSH32 0x5DBBE7A1E616B629A61480B13FD4E89DFE8B604D35802CDF7B0BB03687E3EB49 DUP8 DUP8 DUP8 PUSH1 0x40 MLOAD PUSH2 0x4E1 SWAP4 SWAP3 SWAP2 SWAP1 PUSH2 0x222D JUMP JUMPDEST PUSH1 0x60 PUSH1 0x0 DUP4 DUP4 PUSH1 0x40 MLOAD PUSH1 0x20 ADD PUSH2 0xE94 SWAP3 SWAP2 SWAP1 PUSH2 0x20D4 JUMP JUMPDEST PUSH1 0x40 DUP1 MLOAD PUSH1 0x1F NOT DUP2 DUP5 SUB ADD DUP2 MSTORE DUP3 DUP3 MSTORE DUP1 MLOAD PUSH1 0x20 SWAP2 DUP3 ADD KECCAK256 PUSH1 0x0 DUP10 DUP2 MSTORE PUSH1 0x7 DUP4 MSTORE DUP4 DUP2 KECCAK256 DUP3 DUP3 MSTORE DUP4 MSTORE DUP4 DUP2 KECCAK256 DUP1 SLOAD DUP1 DUP6 MUL DUP8 ADD DUP6 ADD SWAP1 SWAP6 MSTORE DUP5 DUP7 MSTORE SWAP2 SWAP6 POP SWAP1 SWAP3 SWAP2 DUP5 ADD JUMPDEST DUP3 DUP3 LT ISZERO PUSH2 0xF83 JUMPI PUSH1 0x0 DUP5 DUP2 MSTORE PUSH1 0x20 SWAP1 DUP2 SWAP1 KECCAK256 DUP4 ADD DUP1 SLOAD PUSH1 0x40 DUP1 MLOAD PUSH1 0x1F PUSH1 0x2 PUSH1 0x0 NOT PUSH2 0x100 PUSH1 0x1 DUP8 AND ISZERO MUL ADD SWAP1 SWAP5 AND SWAP4 SWAP1 SWAP4 DIV SWAP3 DUP4 ADD DUP6 SWAP1 DIV DUP6 MUL DUP2 ADD DUP6 ADD SWAP1 SWAP2 MSTORE DUP2 DUP2 MSTORE SWAP3 DUP4 ADD DUP3 DUP3 DUP1 ISZERO PUSH2 0xF6F JUMPI DUP1 PUSH1 0x1F LT PUSH2 0xF44 JUMPI PUSH2 0x100 DUP1 DUP4 SLOAD DIV MUL DUP4 MSTORE SWAP2 PUSH1 0x20 ADD SWAP2 PUSH2 0xF6F JUMP JUMPDEST DUP3 ADD SWAP2 SWAP1 PUSH1 0x0 MSTORE PUSH1 0x20 PUSH1 0x0 KECCAK256 SWAP1 JUMPDEST DUP2 SLOAD DUP2 MSTORE SWAP1 PUSH1 0x1 ADD SWAP1 PUSH1 0x20 ADD DUP1 DUP4 GT PUSH2 0xF52 JUMPI DUP3 SWAP1 SUB PUSH1 0x1F AND DUP3 ADD SWAP2 JUMPDEST POP POP POP POP POP DUP2 MSTORE PUSH1 0x20 ADD SWAP1 PUSH1 0x1 ADD SWAP1 PUSH2 0xED8 JUMP JUMPDEST POP POP POP POP SWAP2 POP POP SWAP4 SWAP3 POP POP POP JUMP JUMPDEST DUP3 PUSH2 0xF9B DUP2 PUSH2 0x1656 JUMP JUMPDEST PUSH2 0xFB7 JUMPI PUSH1 0x40 MLOAD PUSH3 0x461BCD PUSH1 0xE5 SHL DUP2 MSTORE PUSH1 0x4 ADD PUSH2 0x424 SWAP1 PUSH2 0x2288 JUMP JUMPDEST PUSH1 0x0 DUP5 DUP2 MSTORE PUSH1 0x4 PUSH1 0x20 MSTORE PUSH1 0x40 SWAP1 KECCAK256 PUSH2 0xFD0 SWAP1 DUP5 DUP5 PUSH2 0x19C1 JUMP JUMPDEST POP DUP4 PUSH32 0xB7D29E911041E8D9B843369E890BCB72C9388692BA48B65AC54E7214C4C348F7 DUP5 DUP5 PUSH1 0x40 MLOAD PUSH2 0x9DD SWAP3 SWAP2 SWAP1 PUSH2 0x21FE JUMP JUMPDEST DUP3 PUSH2 0x100D DUP2 PUSH2 0x1656 JUMP JUMPDEST PUSH2 0x1029 JUMPI PUSH1 0x40 MLOAD PUSH3 0x461BCD PUSH1 0xE5 SHL DUP2 MSTORE PUSH1 0x4 ADD PUSH2 0x424 SWAP1 PUSH2 0x2288 JUMP JUMPDEST DUP4 PUSH32 0x65412581168E88A1E60C6459D7F44AE83AD0832E670826C05A4E2476B57AF752 DUP5 DUP5 PUSH1 0x40 MLOAD PUSH2 0x105B SWAP3 SWAP2 SWAP1 PUSH2 0x22F6 JUMP JUMPDEST PUSH1 0x40 MLOAD DUP1 SWAP2 SUB SWAP1 LOG2 PUSH1 0x3C DUP4 EQ ISZERO PUSH2 0x10AD JUMPI DUP4 PUSH32 0x52D7D861F09AB3D26239D492E8968629F95E9E318CF0B73BFDDC441522A15FD2 PUSH2 0x1097 DUP5 PUSH2 0x1788 JUMP JUMPDEST PUSH1 0x40 MLOAD PUSH2 0x10A4 SWAP2 SWAP1 PUSH2 0x2100 JUMP JUMPDEST PUSH1 0x40 MLOAD DUP1 SWAP2 SUB SWAP1 LOG2 JUMPDEST PUSH1 0x0 DUP5 DUP2 MSTORE PUSH1 0x1 PUSH1 0x20 SWAP1 DUP2 MSTORE PUSH1 0x40 DUP1 DUP4 KECCAK256 DUP7 DUP5 MSTORE DUP3 MSTORE SWAP1 SWAP2 KECCAK256 DUP4 MLOAD PUSH2 0x10D4 SWAP3 DUP6 ADD SWAP1 PUSH2 0x1AFB JUMP JUMPDEST POP POP POP POP POP JUMP JUMPDEST DUP6 PUSH2 0x10E5 DUP2 PUSH2 0x1656 JUMP JUMPDEST PUSH2 0x1101 JUMPI PUSH1 0x40 MLOAD PUSH3 0x461BCD PUSH1 0xE5 SHL DUP2 MSTORE PUSH1 0x4 ADD PUSH2 0x424 SWAP1 PUSH2 0x2288 JUMP JUMPDEST PUSH1 0x0 DUP7 DUP7 PUSH1 0x40 MLOAD PUSH1 0x20 ADD PUSH2 0x1116 SWAP3 SWAP2 SWAP1 PUSH2 0x20D4 JUMP JUMPDEST PUSH1 0x40 DUP1 MLOAD PUSH1 0x1F NOT DUP2 DUP5 SUB ADD DUP2 MSTORE SWAP2 DUP2 MSTORE DUP2 MLOAD PUSH1 0x20 SWAP3 DUP4 ADD KECCAK256 PUSH1 0x0 DUP12 DUP2 MSTORE PUSH1 0x7 DUP5 MSTORE DUP3 DUP2 KECCAK256 DUP3 DUP3 MSTORE SWAP1 SWAP4 MSTORE SWAP2 KECCAK256 SLOAD SWAP1 SWAP2 POP DUP6 LT PUSH2 0x1164 JUMPI PUSH1 0x40 MLOAD PUSH3 0x461BCD PUSH1 0xE5 SHL DUP2 MSTORE PUSH1 0x4 ADD PUSH2 0x424 SWAP1 PUSH2 0x2251 JUMP JUMPDEST PUSH1 0x0 DUP9 DUP2 MSTORE PUSH1 0x7 PUSH1 0x20 SWAP1 DUP2 MSTORE PUSH1 0x40 DUP1 DUP4 KECCAK256 DUP5 DUP5 MSTORE SWAP1 SWAP2 MSTORE SWAP1 KECCAK256 DUP1 SLOAD DUP6 SWAP2 DUP6 SWAP2 DUP9 SWAP1 DUP2 LT PUSH2 0x118D JUMPI INVALID JUMPDEST SWAP1 PUSH1 0x0 MSTORE PUSH1 0x20 PUSH1 0x0 KECCAK256 ADD SWAP2 SWAP1 PUSH2 0x11A4 SWAP3 SWAP2 SWAP1 PUSH2 0x19C1 JUMP JUMPDEST POP DUP8 PUSH32 0xAD6A325380D85C50DFAA38511CBBBC97C46B9A52E342C8D705BF5515D0EF45B3 DUP9 DUP9 DUP9 PUSH1 0x40 MLOAD PUSH2 0x11D9 SWAP4 SWAP3 SWAP2 SWAP1 PUSH2 0x222D JUMP JUMPDEST PUSH1 0x40 MLOAD DUP1 SWAP2 SUB SWAP1 LOG2 POP POP POP POP POP POP POP POP JUMP JUMPDEST PUSH1 0x60 DUP2 PUSH8 0xFFFFFFFFFFFFFFFF DUP2 GT DUP1 ISZERO PUSH2 0x1204 JUMPI PUSH1 0x0 DUP1 REVERT JUMPDEST POP PUSH1 0x40 MLOAD SWAP1 DUP1 DUP3 MSTORE DUP1 PUSH1 0x20 MUL PUSH1 0x20 ADD DUP3 ADD PUSH1 0x40 MSTORE DUP1 ISZERO PUSH2 0x1238 JUMPI DUP2 PUSH1 0x20 ADD JUMPDEST PUSH1 0x60 DUP2 MSTORE PUSH1 0x20 ADD SWAP1 PUSH1 0x1 SWAP1 SUB SWAP1 DUP2 PUSH2 0x1223 JUMPI SWAP1 POP JUMPDEST POP SWAP1 POP PUSH1 0x0 JUMPDEST DUP3 DUP2 LT ISZERO PUSH2 0x12FB JUMPI PUSH1 0x0 PUSH1 0x60 ADDRESS DUP7 DUP7 DUP6 DUP2 DUP2 LT PUSH2 0x1257 JUMPI INVALID JUMPDEST SWAP1 POP PUSH1 0x20 MUL DUP2 ADD SWAP1 PUSH2 0x1269 SWAP2 SWAP1 PUSH2 0x230F JUMP JUMPDEST PUSH1 0x40 MLOAD PUSH2 0x1277 SWAP3 SWAP2 SWAP1 PUSH2 0x20D4 JUMP JUMPDEST PUSH1 0x0 PUSH1 0x40 MLOAD DUP1 DUP4 SUB DUP2 DUP6 GAS DELEGATECALL SWAP2 POP POP RETURNDATASIZE DUP1 PUSH1 0x0 DUP2 EQ PUSH2 0x12B2 JUMPI PUSH1 0x40 MLOAD SWAP2 POP PUSH1 0x1F NOT PUSH1 0x3F RETURNDATASIZE ADD AND DUP3 ADD PUSH1 0x40 MSTORE RETURNDATASIZE DUP3 MSTORE RETURNDATASIZE PUSH1 0x0 PUSH1 0x20 DUP5 ADD RETURNDATACOPY PUSH2 0x12B7 JUMP JUMPDEST PUSH1 0x60 SWAP2 POP JUMPDEST POP SWAP2 POP SWAP2 POP DUP2 PUSH2 0x12D9 JUMPI PUSH1 0x40 MLOAD PUSH3 0x461BCD PUSH1 0xE5 SHL DUP2 MSTORE PUSH1 0x4 ADD PUSH2 0x424 SWAP1 PUSH2 0x22BF JUMP JUMPDEST DUP1 DUP5 DUP5 DUP2 MLOAD DUP2 LT PUSH2 0x12E6 JUMPI INVALID JUMPDEST PUSH1 0x20 SWAP1 DUP2 MUL SWAP2 SWAP1 SWAP2 ADD ADD MSTORE POP POP PUSH1 0x1 ADD PUSH2 0x123E JUMP JUMPDEST POP SWAP3 SWAP2 POP POP JUMP JUMPDEST PUSH1 0x0 DUP2 DUP2 MSTORE PUSH1 0x2 PUSH1 0x20 DUP2 DUP2 MSTORE PUSH1 0x40 SWAP3 DUP4 SWAP1 KECCAK256 DUP1 SLOAD DUP5 MLOAD PUSH1 0x1 DUP3 AND ISZERO PUSH2 0x100 MUL PUSH1 0x0 NOT ADD SWAP1 SWAP2 AND SWAP4 SWAP1 SWAP4 DIV PUSH1 0x1F DUP2 ADD DUP4 SWAP1 DIV DUP4 MUL DUP5 ADD DUP4 ADD SWAP1 SWAP5 MSTORE DUP4 DUP4 MSTORE PUSH1 0x60 SWAP4 SWAP1 SWAP2 DUP4 ADD DUP3 DUP3 DUP1 ISZERO PUSH2 0xCF1 JUMPI DUP1 PUSH1 0x1F LT PUSH2 0xCC6 JUMPI PUSH2 0x100 DUP1 DUP4 SLOAD DIV MUL DUP4 MSTORE SWAP2 PUSH1 0x20 ADD SWAP2 PUSH2 0xCF1 JUMP JUMPDEST PUSH1 0x0 SWAP1 DUP2 MSTORE PUSH1 0x5 PUSH1 0x20 MSTORE PUSH1 0x40 SWAP1 KECCAK256 DUP1 SLOAD PUSH1 0x1 SWAP1 SWAP2 ADD SLOAD SWAP1 SWAP2 JUMP JUMPDEST DUP2 PUSH2 0x138E DUP2 PUSH2 0x1656 JUMP JUMPDEST PUSH2 0x13AA JUMPI PUSH1 0x40 MLOAD PUSH3 0x461BCD PUSH1 0xE5 SHL DUP2 MSTORE PUSH1 0x4 ADD PUSH2 0x424 SWAP1 PUSH2 0x2288 JUMP JUMPDEST PUSH2 0x13B9 DUP4 PUSH1 0x3C PUSH2 0x320 DUP6 PUSH2 0x17B0 JUMP JUMPDEST POP POP POP JUMP JUMPDEST DUP3 PUSH2 0x13C8 DUP2 PUSH2 0x1656 JUMP JUMPDEST PUSH2 0x13E4 JUMPI PUSH1 0x40 MLOAD PUSH3 0x461BCD PUSH1 0xE5 SHL DUP2 MSTORE PUSH1 0x4 ADD PUSH2 0x424 SWAP1 PUSH2 0x2288 JUMP JUMPDEST PUSH1 0x0 DUP5 DUP2 MSTORE PUSH1 0x3 PUSH1 0x20 SWAP1 DUP2 MSTORE PUSH1 0x40 DUP1 DUP4 KECCAK256 PUSH1 0x1 PUSH1 0x1 PUSH1 0xE0 SHL SUB NOT DUP8 AND DUP1 DUP6 MSTORE SWAP3 MSTORE SWAP2 DUP3 SWAP1 KECCAK256 DUP1 SLOAD PUSH32 0xFFFFFFFFFFFFFFFFFFFFFFFF0000000000000000000000000000000000000000 AND PUSH1 0x1 PUSH1 0x1 PUSH1 0xA0 SHL SUB DUP7 AND OR SWAP1 SSTORE SWAP1 MLOAD DUP6 SWAP1 PUSH32 0x7C69F06BEA0BDEF565B709E93A147836B0063BA2DD89F02D0B7E8D931E6A6DAA SWAP1 PUSH2 0x146B SWAP1 DUP7 SWAP1 PUSH2 0x2100 JUMP JUMPDEST PUSH1 0x40 MLOAD DUP1 SWAP2 SUB SWAP1 LOG3 POP POP POP POP JUMP JUMPDEST PUSH1 0x0 DUP3 DUP2 MSTORE PUSH1 0x1 PUSH1 0x20 DUP2 DUP2 MSTORE PUSH1 0x40 DUP1 DUP5 KECCAK256 DUP6 DUP6 MSTORE DUP3 MSTORE SWAP3 DUP4 SWAP1 KECCAK256 DUP1 SLOAD DUP5 MLOAD PUSH1 0x2 SWAP5 DUP3 AND ISZERO PUSH2 0x100 MUL PUSH1 0x0 NOT ADD SWAP1 SWAP2 AND SWAP4 SWAP1 SWAP4 DIV PUSH1 0x1F DUP2 ADD DUP4 SWAP1 DIV DUP4 MUL DUP5 ADD DUP4 ADD SWAP1 SWAP5 MSTORE DUP4 DUP4 MSTORE PUSH1 0x60 SWAP4 SWAP1 SWAP2 DUP4 ADD DUP3 DUP3 DUP1 ISZERO PUSH2 0x1515 JUMPI DUP1 PUSH1 0x1F LT PUSH2 0x14EA JUMPI PUSH2 0x100 DUP1 DUP4 SLOAD DIV MUL DUP4 MSTORE SWAP2 PUSH1 0x20 ADD SWAP2 PUSH2 0x1515 JUMP JUMPDEST DUP3 ADD SWAP2 SWAP1 PUSH1 0x0 MSTORE PUSH1 0x20 PUSH1 0x0 KECCAK256 SWAP1 JUMPDEST DUP2 SLOAD DUP2 MSTORE SWAP1 PUSH1 0x1 ADD SWAP1 PUSH1 0x20 ADD DUP1 DUP4 GT PUSH2 0x14F8 JUMPI DUP3 SWAP1 SUB PUSH1 0x1F AND DUP3 ADD SWAP2 JUMPDEST POP POP POP POP POP SWAP1 POP SWAP3 SWAP2 POP POP JUMP JUMPDEST PUSH1 0x9 PUSH1 0x20 SWAP1 DUP2 MSTORE PUSH1 0x0 SWAP4 DUP5 MSTORE PUSH1 0x40 DUP1 DUP6 KECCAK256 DUP3 MSTORE SWAP3 DUP5 MSTORE DUP3 DUP5 KECCAK256 SWAP1 MSTORE DUP3 MSTORE SWAP1 KECCAK256 SLOAD PUSH1 0xFF AND DUP2 JUMP JUMPDEST PUSH1 0x60 PUSH1 0x0 DUP5 DUP5 PUSH1 0x40 MLOAD PUSH1 0x20 ADD PUSH2 0x155F SWAP3 SWAP2 SWAP1 PUSH2 0x20D4 JUMP JUMPDEST PUSH1 0x40 DUP1 MLOAD PUSH1 0x1F NOT DUP2 DUP5 SUB ADD DUP2 MSTORE SWAP2 DUP2 MSTORE DUP2 MLOAD PUSH1 0x20 SWAP3 DUP4 ADD KECCAK256 PUSH1 0x0 DUP10 DUP2 MSTORE PUSH1 0x7 DUP5 MSTORE DUP3 DUP2 KECCAK256 DUP3 DUP3 MSTORE SWAP1 SWAP4 MSTORE SWAP2 KECCAK256 DUP1 SLOAD SWAP2 SWAP3 POP SWAP1 DUP5 SWAP1 DUP2 LT PUSH2 0x159B JUMPI INVALID JUMPDEST PUSH1 0x0 SWAP2 DUP3 MSTORE PUSH1 0x20 SWAP2 DUP3 SWAP1 KECCAK256 ADD DUP1 SLOAD PUSH1 0x40 DUP1 MLOAD PUSH1 0x1F PUSH1 0x2 PUSH1 0x0 NOT PUSH2 0x100 PUSH1 0x1 DUP8 AND ISZERO MUL ADD SWAP1 SWAP5 AND SWAP4 SWAP1 SWAP4 DIV SWAP3 DUP4 ADD DUP6 SWAP1 DIV DUP6 MUL DUP2 ADD DUP6 ADD SWAP1 SWAP2 MSTORE DUP2 DUP2 MSTORE SWAP3 DUP4 ADD DUP3 DUP3 DUP1 ISZERO PUSH2 0x1629 JUMPI DUP1 PUSH1 0x1F LT PUSH2 0x15FE JUMPI PUSH2 0x100 DUP1 DUP4 SLOAD DIV MUL DUP4 MSTORE SWAP2 PUSH1 0x20 ADD SWAP2 PUSH2 0x1629 JUMP JUMPDEST DUP3 ADD SWAP2 SWAP1 PUSH1 0x0 MSTORE PUSH1 0x20 PUSH1 0x0 KECCAK256 SWAP1 JUMPDEST DUP2 SLOAD DUP2 MSTORE SWAP1 PUSH1 0x1 ADD SWAP1 PUSH1 0x20 ADD DUP1 DUP4 GT PUSH2 0x160C JUMPI DUP3 SWAP1 SUB PUSH1 0x1F AND DUP3 ADD SWAP2 JUMPDEST POP POP POP POP POP SWAP2 POP POP SWAP5 SWAP4 POP POP POP POP JUMP JUMPDEST PUSH1 0x0 PUSH1 0x1 PUSH1 0x1 PUSH1 0xE0 SHL SUB NOT DUP3 AND ISZERO DUP1 PUSH2 0x3F6 JUMPI POP PUSH2 0x3F6 DUP3 PUSH2 0x17E9 JUMP JUMPDEST PUSH1 0x8 SLOAD PUSH1 0x0 SWAP1 PUSH1 0x1 PUSH1 0x1 PUSH1 0xA0 SHL SUB AND ISZERO PUSH2 0x1758 JUMPI PUSH1 0x8 SLOAD PUSH1 0x40 MLOAD PUSH32 0x2571BE300000000000000000000000000000000000000000000000000000000 DUP2 MSTORE PUSH1 0x0 SWAP2 PUSH1 0x1 PUSH1 0x1 PUSH1 0xA0 SHL SUB AND SWAP1 PUSH4 0x2571BE3 SWAP1 PUSH2 0x16B4 SWAP1 DUP7 SWAP1 PUSH1 0x4 ADD PUSH2 0x21D2 JUMP JUMPDEST PUSH1 0x20 PUSH1 0x40 MLOAD DUP1 DUP4 SUB DUP2 DUP7 DUP1 EXTCODESIZE ISZERO DUP1 ISZERO PUSH2 0x16CC JUMPI PUSH1 0x0 DUP1 REVERT JUMPDEST POP GAS STATICCALL ISZERO DUP1 ISZERO PUSH2 0x16E0 JUMPI RETURNDATASIZE PUSH1 0x0 DUP1 RETURNDATACOPY RETURNDATASIZE PUSH1 0x0 REVERT JUMPDEST POP POP POP POP PUSH1 0x40 MLOAD RETURNDATASIZE PUSH1 0x1F NOT PUSH1 0x1F DUP3 ADD AND DUP3 ADD DUP1 PUSH1 0x40 MSTORE POP DUP2 ADD SWAP1 PUSH2 0x1704 SWAP2 SWAP1 PUSH2 0x1BBE JUMP JUMPDEST SWAP1 POP PUSH1 0x1 PUSH1 0x1 PUSH1 0xA0 SHL SUB DUP2 AND CALLER EQ DUP1 PUSH2 0x1747 JUMPI POP PUSH1 0x0 DUP4 DUP2 MSTORE PUSH1 0x9 PUSH1 0x20 SWAP1 DUP2 MSTORE PUSH1 0x40 DUP1 DUP4 KECCAK256 PUSH1 0x1 PUSH1 0x1 PUSH1 0xA0 SHL SUB DUP6 AND DUP5 MSTORE DUP3 MSTORE DUP1 DUP4 KECCAK256 CALLER DUP5 MSTORE SWAP1 SWAP2 MSTORE SWAP1 KECCAK256 SLOAD PUSH1 0xFF AND JUMPDEST ISZERO PUSH2 0x1756 JUMPI PUSH1 0x1 SWAP2 POP POP PUSH2 0x3F9 JUMP JUMPDEST POP JUMPDEST DUP2 CALLER PUSH1 0x40 MLOAD PUSH1 0x20 ADD PUSH2 0x176A SWAP2 SWAP1 PUSH2 0x20A4 JUMP JUMPDEST PUSH1 0x40 MLOAD PUSH1 0x20 DUP2 DUP4 SUB SUB DUP2 MSTORE SWAP1 PUSH1 0x40 MSTORE DUP1 MLOAD SWAP1 PUSH1 0x20 ADD KECCAK256 EQ SWAP1 POP SWAP2 SWAP1 POP JUMP JUMPDEST PUSH1 0x0 DUP2 MLOAD PUSH1 0x14 EQ PUSH2 0x1798 JUMPI PUSH1 0x0 DUP1 REVERT JUMPDEST POP PUSH1 0x20 ADD MLOAD PUSH13 0x1000000000000000000000000 SWAP1 DIV SWAP1 JUMP JUMPDEST PUSH1 0x40 DUP1 MLOAD PUSH1 0x14 DUP1 DUP3 MSTORE DUP2 DUP4 ADD SWAP1 SWAP3 MSTORE PUSH1 0x60 SWAP2 PUSH1 0x20 DUP3 ADD DUP2 DUP1 CALLDATASIZE DUP4 CALLDATACOPY POP POP POP PUSH13 0x1000000000000000000000000 SWAP3 SWAP1 SWAP3 MUL PUSH1 0x20 DUP4 ADD MSTORE POP SWAP1 JUMP JUMPDEST PUSH1 0x0 PUSH1 0x1 PUSH1 0x1 PUSH1 0xE0 SHL SUB NOT DUP3 AND PUSH32 0x59D1D43C00000000000000000000000000000000000000000000000000000000 EQ DUP1 PUSH2 0x3F6 JUMPI POP PUSH2 0x3F6 DUP3 PUSH1 0x0 PUSH1 0x1 PUSH1 0x1 PUSH1 0xE0 SHL SUB NOT DUP3 AND PUSH32 0xC869023300000000000000000000000000000000000000000000000000000000 EQ DUP1 PUSH2 0x3F6 JUMPI POP PUSH2 0x3F6 DUP3 PUSH1 0x0 PUSH1 0x1 PUSH1 0x1 PUSH1 0xE0 SHL SUB NOT DUP3 AND PUSH32 0x691F343100000000000000000000000000000000000000000000000000000000 EQ DUP1 PUSH2 0x3F6 JUMPI POP PUSH2 0x3F6 DUP3 PUSH1 0x0 PUSH1 0x1 PUSH1 0x1 PUSH1 0xE0 SHL SUB NOT DUP3 AND PUSH32 0x124A319C00000000000000000000000000000000000000000000000000000000 EQ DUP1 PUSH2 0x3F6 JUMPI POP PUSH2 0x3F6 DUP3 PUSH1 0x0 PUSH1 0x1 PUSH1 0x1 PUSH1 0xE0 SHL SUB NOT DUP3 AND PUSH32 0xBC1C58D100000000000000000000000000000000000000000000000000000000 EQ DUP1 PUSH2 0x3F6 JUMPI POP PUSH2 0x3F6 DUP3 PUSH1 0x0 PUSH1 0x1 PUSH1 0x1 PUSH1 0xE0 SHL SUB NOT DUP3 AND PUSH32 0x3B3B57DE00000000000000000000000000000000000000000000000000000000 EQ DUP1 PUSH2 0x1969 JUMPI POP PUSH1 0x1 PUSH1 0x1 PUSH1 0xE0 SHL SUB NOT DUP3 AND PUSH32 0xF1CB7E0600000000000000000000000000000000000000000000000000000000 EQ JUMPDEST DUP1 PUSH2 0x3F6 JUMPI POP PUSH2 0x3F6 DUP3 PUSH1 0x0 PUSH1 0x1 PUSH1 0x1 PUSH1 0xE0 SHL SUB NOT DUP3 AND PUSH32 0x2203AB5600000000000000000000000000000000000000000000000000000000 EQ DUP1 PUSH2 0x3F6 JUMPI POP PUSH4 0x1FFC9A7 PUSH1 0xE0 SHL PUSH1 0x1 PUSH1 0x1 PUSH1 0xE0 SHL SUB NOT DUP4 AND EQ PUSH2 0x3F6 JUMP JUMPDEST DUP3 DUP1 SLOAD PUSH1 0x1 DUP2 PUSH1 0x1 AND ISZERO PUSH2 0x100 MUL SUB AND PUSH1 0x2 SWAP1 DIV SWAP1 PUSH1 0x0 MSTORE PUSH1 0x20 PUSH1 0x0 KECCAK256 SWAP1 PUSH1 0x1F ADD PUSH1 0x20 SWAP1 DIV DUP2 ADD SWAP3 DUP3 PUSH1 0x1F LT PUSH2 0x1A02 JUMPI DUP3 DUP1 ADD PUSH1 0xFF NOT DUP3 CALLDATALOAD AND OR DUP6 SSTORE PUSH2 0x1A2F JUMP JUMPDEST DUP3 DUP1 ADD PUSH1 0x1 ADD DUP6 SSTORE DUP3 ISZERO PUSH2 0x1A2F JUMPI SWAP2 DUP3 ADD JUMPDEST DUP3 DUP2 GT ISZERO PUSH2 0x1A2F JUMPI DUP3 CALLDATALOAD DUP3 SSTORE SWAP2 PUSH1 0x20 ADD SWAP2 SWAP1 PUSH1 0x1 ADD SWAP1 PUSH2 0x1A14 JUMP JUMPDEST POP PUSH2 0x1A3B SWAP3 SWAP2 POP PUSH2 0x1B69 JUMP JUMPDEST POP SWAP1 JUMP JUMPDEST DUP3 DUP1 SLOAD PUSH1 0x1 DUP2 PUSH1 0x1 AND ISZERO PUSH2 0x100 MUL SUB AND PUSH1 0x2 SWAP1 DIV SWAP1 PUSH1 0x0 MSTORE PUSH1 0x20 PUSH1 0x0 KECCAK256 SWAP1 PUSH1 0x1F ADD PUSH1 0x20 SWAP1 DIV DUP2 ADD SWAP3 DUP3 PUSH1 0x1F LT PUSH2 0x1A78 JUMPI DUP1 SLOAD DUP6 SSTORE PUSH2 0x1A2F JUMP JUMPDEST DUP3 DUP1 ADD PUSH1 0x1 ADD DUP6 SSTORE DUP3 ISZERO PUSH2 0x1A2F JUMPI PUSH1 0x0 MSTORE PUSH1 0x20 PUSH1 0x0 KECCAK256 SWAP2 PUSH1 0x1F ADD PUSH1 0x20 SWAP1 DIV DUP3 ADD JUMPDEST DUP3 DUP2 GT ISZERO PUSH2 0x1A2F JUMPI DUP3 SLOAD DUP3 SSTORE SWAP2 PUSH1 0x1 ADD SWAP2 SWAP1 PUSH1 0x1 ADD SWAP1 PUSH2 0x1A99 JUMP JUMPDEST POP DUP1 SLOAD PUSH1 0x1 DUP2 PUSH1 0x1 AND ISZERO PUSH2 0x100 MUL SUB AND PUSH1 0x2 SWAP1 DIV PUSH1 0x0 DUP3 SSTORE DUP1 PUSH1 0x1F LT PUSH2 0x1ADA JUMPI POP PUSH2 0x1AF8 JUMP JUMPDEST PUSH1 0x1F ADD PUSH1 0x20 SWAP1 DIV SWAP1 PUSH1 0x0 MSTORE PUSH1 0x20 PUSH1 0x0 KECCAK256 SWAP1 DUP2 ADD SWAP1 PUSH2 0x1AF8 SWAP2 SWAP1 PUSH2 0x1B69 JUMP JUMPDEST POP JUMP JUMPDEST DUP3 DUP1 SLOAD PUSH1 0x1 DUP2 PUSH1 0x1 AND ISZERO PUSH2 0x100 MUL SUB AND PUSH1 0x2 SWAP1 DIV SWAP1 PUSH1 0x0 MSTORE PUSH1 0x20 PUSH1 0x0 KECCAK256 SWAP1 PUSH1 0x1F ADD PUSH1 0x20 SWAP1 DIV DUP2 ADD SWAP3 DUP3 PUSH1 0x1F LT PUSH2 0x1B3C JUMPI DUP1 MLOAD PUSH1 0xFF NOT AND DUP4 DUP1 ADD OR DUP6 SSTORE PUSH2 0x1A2F JUMP JUMPDEST DUP3 DUP1 ADD PUSH1 0x1 ADD DUP6 SSTORE DUP3 ISZERO PUSH2 0x1A2F JUMPI SWAP2 DUP3 ADD JUMPDEST DUP3 DUP2 GT ISZERO PUSH2 0x1A2F JUMPI DUP3 MLOAD DUP3 SSTORE SWAP2 PUSH1 0x20 ADD SWAP2 SWAP1 PUSH1 0x1 ADD SWAP1 PUSH2 0x1B4E JUMP JUMPDEST JUMPDEST DUP1 DUP3 GT ISZERO PUSH2 0x1A3B JUMPI PUSH1 0x0 DUP2 SSTORE PUSH1 0x1 ADD PUSH2 0x1B6A JUMP JUMPDEST PUSH1 0x0 DUP1 DUP4 PUSH1 0x1F DUP5 ADD SLT PUSH2 0x1B8F JUMPI DUP2 DUP3 REVERT JUMPDEST POP DUP2 CALLDATALOAD PUSH8 0xFFFFFFFFFFFFFFFF DUP2 GT ISZERO PUSH2 0x1BA6 JUMPI DUP2 DUP3 REVERT JUMPDEST PUSH1 0x20 DUP4 ADD SWAP2 POP DUP4 PUSH1 0x20 DUP3 DUP6 ADD ADD GT ISZERO PUSH2 0x951 JUMPI PUSH1 0x0 DUP1 REVERT JUMPDEST PUSH1 0x0 PUSH1 0x20 DUP3 DUP5 SUB SLT ISZERO PUSH2 0x1BCF JUMPI DUP1 DUP2 REVERT JUMPDEST DUP2 MLOAD PUSH2 0xA8B DUP2 PUSH2 0x23A2 JUMP JUMPDEST PUSH1 0x0 DUP1 PUSH1 0x20 DUP4 DUP6 SUB SLT ISZERO PUSH2 0x1BEC JUMPI DUP1 DUP2 REVERT JUMPDEST DUP3 CALLDATALOAD PUSH8 0xFFFFFFFFFFFFFFFF DUP1 DUP3 GT ISZERO PUSH2 0x1C03 JUMPI DUP3 DUP4 REVERT JUMPDEST DUP2 DUP6 ADD SWAP2 POP DUP6 PUSH1 0x1F DUP4 ADD SLT PUSH2 0x1C16 JUMPI DUP3 DUP4 REVERT JUMPDEST DUP2 CALLDATALOAD DUP2 DUP2 GT ISZERO PUSH2 0x1C24 JUMPI DUP4 DUP5 REVERT JUMPDEST DUP7 PUSH1 0x20 DUP1 DUP4 MUL DUP6 ADD ADD GT ISZERO PUSH2 0x1C37 JUMPI DUP4 DUP5 REVERT JUMPDEST PUSH1 0x20 SWAP3 SWAP1 SWAP3 ADD SWAP7 SWAP2 SWAP6 POP SWAP1 SWAP4 POP POP POP POP JUMP JUMPDEST PUSH1 0x0 PUSH1 0x20 DUP3 DUP5 SUB SLT ISZERO PUSH2 0x1C5A JUMPI DUP1 DUP2 REVERT JUMPDEST POP CALLDATALOAD SWAP2 SWAP1 POP JUMP JUMPDEST PUSH1 0x0 DUP1 PUSH1 0x40 DUP4 DUP6 SUB SLT ISZERO PUSH2 0x1C73 JUMPI DUP2 DUP3 REVERT JUMPDEST DUP3 CALLDATALOAD SWAP2 POP PUSH1 0x20 DUP4 ADD CALLDATALOAD PUSH2 0x1C85 DUP2 PUSH2 0x23A2 JUMP JUMPDEST DUP1 SWAP2 POP POP SWAP3 POP SWAP3 SWAP1 POP JUMP JUMPDEST PUSH1 0x0 DUP1 PUSH1 0x0 PUSH1 0x60 DUP5 DUP7 SUB SLT ISZERO PUSH2 0x1CA4 JUMPI DUP1 DUP2 REVERT JUMPDEST DUP4 CALLDATALOAD SWAP3 POP PUSH1 0x20 DUP5 ADD CALLDATALOAD PUSH2 0x1CB6 DUP2 PUSH2 0x23A2 JUMP JUMPDEST SWAP2 POP PUSH1 0x40 DUP5 ADD CALLDATALOAD PUSH2 0x1CC6 DUP2 PUSH2 0x23A2 JUMP JUMPDEST DUP1 SWAP2 POP POP SWAP3 POP SWAP3 POP SWAP3 JUMP JUMPDEST PUSH1 0x0 DUP1 PUSH1 0x0 PUSH1 0x60 DUP5 DUP7 SUB SLT ISZERO PUSH2 0x1CE5 JUMPI DUP3 DUP4 REVERT JUMPDEST DUP4 CALLDATALOAD SWAP3 POP PUSH1 0x20 DUP5 ADD CALLDATALOAD PUSH2 0x1CF7 DUP2 PUSH2 0x23A2 JUMP JUMPDEST SWAP2 POP PUSH1 0x40 DUP5 ADD CALLDATALOAD DUP1 ISZERO ISZERO DUP2 EQ PUSH2 0x1CC6 JUMPI DUP2 DUP3 REVERT JUMPDEST PUSH1 0x0 DUP1 PUSH1 0x0 PUSH1 0x60 DUP5 DUP7 SUB SLT ISZERO PUSH2 0x1D1F JUMPI DUP3 DUP4 REVERT JUMPDEST POP POP DUP2 CALLDATALOAD SWAP4 PUSH1 0x20 DUP4 ADD CALLDATALOAD SWAP4 POP PUSH1 0x40 SWAP1 SWAP3 ADD CALLDATALOAD SWAP2 SWAP1 POP JUMP JUMPDEST PUSH1 0x0 DUP1 PUSH1 0x40 DUP4 DUP6 SUB SLT ISZERO PUSH2 0x1D48 JUMPI DUP2 DUP3 REVERT JUMPDEST DUP3 CALLDATALOAD SWAP2 POP PUSH1 0x20 DUP4 ADD CALLDATALOAD PUSH2 0x1C85 DUP2 PUSH2 0x23B7 JUMP JUMPDEST PUSH1 0x0 DUP1 PUSH1 0x0 PUSH1 0x60 DUP5 DUP7 SUB SLT ISZERO PUSH2 0x1D6E JUMPI DUP3 DUP4 REVERT JUMPDEST DUP4 CALLDATALOAD SWAP3 POP PUSH1 0x20 DUP5 ADD CALLDATALOAD PUSH2 0x1CB6 DUP2 PUSH2 0x23B7 JUMP JUMPDEST PUSH1 0x0 DUP1 PUSH1 0x0 PUSH1 0x40 DUP5 DUP7 SUB SLT ISZERO PUSH2 0x1D94 JUMPI DUP3 DUP4 REVERT JUMPDEST DUP4 CALLDATALOAD SWAP3 POP PUSH1 0x20 DUP5 ADD CALLDATALOAD PUSH8 0xFFFFFFFFFFFFFFFF DUP2 GT ISZERO PUSH2 0x1DB1 JUMPI DUP3 DUP4 REVERT JUMPDEST PUSH2 0x1DBD DUP7 DUP3 DUP8 ADD PUSH2 0x1B7E JUMP JUMPDEST SWAP5 SWAP8 SWAP1 SWAP7 POP SWAP4 SWAP5 POP POP POP POP JUMP JUMPDEST PUSH1 0x0 DUP1 PUSH1 0x0 DUP1 PUSH1 0x0 PUSH1 0x60 DUP7 DUP9 SUB SLT ISZERO PUSH2 0x1DE1 JUMPI DUP1 DUP2 REVERT JUMPDEST DUP6 CALLDATALOAD SWAP5 POP PUSH1 0x20 DUP7 ADD CALLDATALOAD PUSH8 0xFFFFFFFFFFFFFFFF DUP1 DUP3 GT ISZERO PUSH2 0x1DFF JUMPI DUP3 DUP4 REVERT JUMPDEST PUSH2 0x1E0B DUP10 DUP4 DUP11 ADD PUSH2 0x1B7E JUMP JUMPDEST SWAP1 SWAP7 POP SWAP5 POP PUSH1 0x40 DUP9 ADD CALLDATALOAD SWAP2 POP DUP1 DUP3 GT ISZERO PUSH2 0x1E23 JUMPI DUP3 DUP4 REVERT JUMPDEST POP PUSH2 0x1E30 DUP9 DUP3 DUP10 ADD PUSH2 0x1B7E JUMP JUMPDEST SWAP7 SWAP10 SWAP6 SWAP9 POP SWAP4 SWAP7 POP SWAP3 SWAP5 SWAP4 SWAP3 POP POP POP JUMP JUMPDEST PUSH1 0x0 DUP1 PUSH1 0x0 DUP1 PUSH1 0x60 DUP6 DUP8 SUB SLT ISZERO PUSH2 0x1E56 JUMPI DUP2 DUP3 REVERT JUMPDEST DUP5 CALLDATALOAD SWAP4 POP PUSH1 0x20 DUP6 ADD CALLDATALOAD PUSH8 0xFFFFFFFFFFFFFFFF DUP2 GT ISZERO PUSH2 0x1E73 JUMPI DUP3 DUP4 REVERT JUMPDEST PUSH2 0x1E7F DUP8 DUP3 DUP9 ADD PUSH2 0x1B7E JUMP JUMPDEST SWAP6 SWAP9 SWAP1 SWAP8 POP SWAP5 SWAP6 PUSH1 0x40 ADD CALLDATALOAD SWAP5 SWAP4 POP POP POP POP JUMP JUMPDEST PUSH1 0x0 DUP1 PUSH1 0x0 DUP1 PUSH1 0x0 DUP1 PUSH1 0x80 DUP8 DUP10 SUB SLT ISZERO PUSH2 0x1EAA JUMPI DUP4 DUP5 REVERT JUMPDEST DUP7 CALLDATALOAD SWAP6 POP PUSH1 0x20 DUP8 ADD CALLDATALOAD PUSH8 0xFFFFFFFFFFFFFFFF DUP1 DUP3 GT ISZERO PUSH2 0x1EC8 JUMPI DUP6 DUP7 REVERT JUMPDEST PUSH2 0x1ED4 DUP11 DUP4 DUP12 ADD PUSH2 0x1B7E JUMP JUMPDEST SWAP1 SWAP8 POP SWAP6 POP PUSH1 0x40 DUP10 ADD CALLDATALOAD SWAP5 POP PUSH1 0x60 DUP10 ADD CALLDATALOAD SWAP2 POP DUP1 DUP3 GT ISZERO PUSH2 0x1EF3 JUMPI DUP3 DUP4 REVERT JUMPDEST POP PUSH2 0x1F00 DUP10 DUP3 DUP11 ADD PUSH2 0x1B7E JUMP JUMPDEST SWAP8 SWAP11 SWAP7 SWAP10 POP SWAP5 SWAP8 POP SWAP3 SWAP6 SWAP4 SWAP5 SWAP3 POP POP POP JUMP JUMPDEST PUSH1 0x0 DUP1 PUSH1 0x40 DUP4 DUP6 SUB SLT ISZERO PUSH2 0x1F24 JUMPI DUP2 DUP3 REVERT JUMPDEST POP POP DUP1 CALLDATALOAD SWAP3 PUSH1 0x20 SWAP1 SWAP2 ADD CALLDATALOAD SWAP2 POP JUMP JUMPDEST PUSH1 0x0 DUP1 PUSH1 0x0 DUP1 PUSH1 0x60 DUP6 DUP8 SUB SLT ISZERO PUSH2 0x1F48 JUMPI DUP2 DUP3 REVERT JUMPDEST DUP5 CALLDATALOAD SWAP4 POP PUSH1 0x20 DUP6 ADD CALLDATALOAD SWAP3 POP PUSH1 0x40 DUP6 ADD CALLDATALOAD PUSH8 0xFFFFFFFFFFFFFFFF DUP2 GT ISZERO PUSH2 0x1F6C JUMPI DUP3 DUP4 REVERT JUMPDEST PUSH2 0x1F78 DUP8 DUP3 DUP9 ADD PUSH2 0x1B7E JUMP JUMPDEST SWAP6 SWAP9 SWAP5 SWAP8 POP SWAP6 POP POP POP POP JUMP JUMPDEST PUSH1 0x0 DUP1 PUSH1 0x0 PUSH1 0x60 DUP5 DUP7 SUB SLT ISZERO PUSH2 0x1F98 JUMPI DUP1 DUP2 REVERT JUMPDEST DUP4 CALLDATALOAD SWAP3 POP PUSH1 0x20 DUP1 DUP6 ADD CALLDATALOAD SWAP3 POP PUSH1 0x40 DUP6 ADD CALLDATALOAD PUSH8 0xFFFFFFFFFFFFFFFF DUP1 DUP3 GT ISZERO PUSH2 0x1FBE JUMPI DUP4 DUP5 REVERT JUMPDEST DUP2 DUP8 ADD SWAP2 POP DUP8 PUSH1 0x1F DUP4 ADD SLT PUSH2 0x1FD1 JUMPI DUP4 DUP5 REVERT JUMPDEST DUP2 CALLDATALOAD DUP2 DUP2 GT ISZERO PUSH2 0x1FDF JUMPI DUP5 DUP6 REVERT JUMPDEST PUSH1 0x40 MLOAD DUP5 PUSH1 0x1F NOT PUSH1 0x1F DUP5 ADD AND DUP3 ADD ADD DUP2 DUP2 LT DUP5 DUP3 GT OR ISZERO PUSH2 0x1FFE JUMPI DUP7 DUP8 REVERT JUMPDEST PUSH1 0x40 MSTORE DUP2 DUP2 MSTORE DUP4 DUP3 ADD DUP6 ADD DUP11 LT ISZERO PUSH2 0x2014 JUMPI DUP6 DUP7 REVERT JUMPDEST DUP2 DUP6 DUP6 ADD DUP7 DUP4 ADD CALLDATACOPY DUP6 DUP6 DUP4 DUP4 ADD ADD MSTORE DUP1 SWAP6 POP POP POP POP POP POP SWAP3 POP SWAP3 POP SWAP3 JUMP JUMPDEST PUSH1 0x0 PUSH1 0x20 DUP3 DUP5 SUB SLT ISZERO PUSH2 0x2043 JUMPI DUP1 DUP2 REVERT JUMPDEST DUP2 CALLDATALOAD PUSH2 0xA8B DUP2 PUSH2 0x23B7 JUMP JUMPDEST PUSH1 0x0 DUP3 DUP5 MSTORE DUP3 DUP3 PUSH1 0x20 DUP7 ADD CALLDATACOPY DUP1 PUSH1 0x20 DUP5 DUP7 ADD ADD MSTORE PUSH1 0x20 PUSH1 0x1F NOT PUSH1 0x1F DUP6 ADD AND DUP6 ADD ADD SWAP1 POP SWAP4 SWAP3 POP POP POP JUMP JUMPDEST PUSH1 0x0 DUP2 MLOAD DUP1 DUP5 MSTORE PUSH2 0x2090 DUP2 PUSH1 0x20 DUP7 ADD PUSH1 0x20 DUP7 ADD PUSH2 0x2372 JUMP JUMPDEST PUSH1 0x1F ADD PUSH1 0x1F NOT AND SWAP3 SWAP1 SWAP3 ADD PUSH1 0x20 ADD SWAP3 SWAP2 POP POP JUMP JUMPDEST PUSH1 0x60 SWAP2 SWAP1 SWAP2 SHL PUSH32 0xFFFFFFFFFFFFFFFFFFFFFFFFFFFFFFFFFFFFFFFF000000000000000000000000 AND DUP2 MSTORE PUSH1 0x14 ADD SWAP1 JUMP JUMPDEST PUSH1 0x0 DUP3 DUP5 DUP4 CALLDATACOPY SWAP2 ADD SWAP1 DUP2 MSTORE SWAP2 SWAP1 POP JUMP JUMPDEST PUSH1 0x0 DUP3 MLOAD PUSH2 0x20F6 DUP2 DUP5 PUSH1 0x20 DUP8 ADD PUSH2 0x2372 JUMP JUMPDEST SWAP2 SWAP1 SWAP2 ADD SWAP3 SWAP2 POP POP JUMP JUMPDEST PUSH1 0x1 PUSH1 0x1 PUSH1 0xA0 SHL SUB SWAP2 SWAP1 SWAP2 AND DUP2 MSTORE PUSH1 0x20 ADD SWAP1 JUMP JUMPDEST PUSH1 0x0 PUSH1 0x20 DUP1 DUP4 ADD DUP2 DUP5 MSTORE DUP1 DUP6 MLOAD DUP1 DUP4 MSTORE PUSH1 0x40 DUP7 ADD SWAP2 POP PUSH1 0x40 DUP5 DUP3 MUL DUP8 ADD ADD SWAP3 POP DUP4 DUP8 ADD DUP6 JUMPDEST DUP3 DUP2 LT ISZERO PUSH2 0x2167 JUMPI PUSH1 0x3F NOT DUP9 DUP7 SUB ADD DUP5 MSTORE PUSH2 0x2155 DUP6 DUP4 MLOAD PUSH2 0x2078 JUMP JUMPDEST SWAP5 POP SWAP3 DUP6 ADD SWAP3 SWAP1 DUP6 ADD SWAP1 PUSH1 0x1 ADD PUSH2 0x2139 JUMP JUMPDEST POP SWAP3 SWAP8 SWAP7 POP POP POP POP POP POP POP JUMP JUMPDEST PUSH1 0x0 PUSH1 0x20 DUP1 DUP4 ADD DUP2 DUP5 MSTORE DUP1 DUP6 MLOAD DUP1 DUP4 MSTORE PUSH1 0x40 DUP7 ADD SWAP2 POP PUSH1 0x40 DUP5 DUP3 MUL DUP8 ADD ADD SWAP3 POP DUP4 DUP8 ADD DUP6 JUMPDEST DUP3 DUP2 LT ISZERO PUSH2 0x2167 JUMPI PUSH1 0x3F NOT DUP9 DUP7 SUB ADD DUP5 MSTORE PUSH2 0x21B5 DUP6 DUP4 MLOAD PUSH2 0x2078 JUMP JUMPDEST SWAP5 POP SWAP3 DUP6 ADD SWAP3 SWAP1 DUP6 ADD SWAP1 PUSH1 0x1 ADD PUSH2 0x2199 JUMP JUMPDEST SWAP1 ISZERO ISZERO DUP2 MSTORE PUSH1 0x20 ADD SWAP1 JUMP JUMPDEST SWAP1 DUP2 MSTORE PUSH1 0x20 ADD SWAP1 JUMP JUMPDEST SWAP2 DUP3 MSTORE PUSH1 0x20 DUP3 ADD MSTORE PUSH1 0x40 ADD SWAP1 JUMP JUMPDEST PUSH1 0x1 PUSH1 0x1 PUSH1 0xE0 SHL SUB NOT SWAP2 SWAP1 SWAP2 AND DUP2 MSTORE PUSH1 0x20 ADD SWAP1 JUMP JUMPDEST PUSH1 0x0 PUSH1 0x20 DUP3 MSTORE PUSH2 0x2212 PUSH1 0x20 DUP4 ADD DUP5 DUP7 PUSH2 0x204E JUMP JUMPDEST SWAP5 SWAP4 POP POP POP POP JUMP JUMPDEST PUSH1 0x0 PUSH1 0x20 DUP3 MSTORE PUSH2 0xA8B PUSH1 0x20 DUP4 ADD DUP5 PUSH2 0x2078 JUMP JUMPDEST PUSH1 0x0 PUSH1 0x40 DUP3 MSTORE PUSH2 0x2241 PUSH1 0x40 DUP4 ADD DUP6 DUP8 PUSH2 0x204E JUMP JUMPDEST SWAP1 POP DUP3 PUSH1 0x20 DUP4 ADD MSTORE SWAP5 SWAP4 POP POP POP POP JUMP JUMPDEST PUSH1 0x20 DUP1 DUP3 MSTORE PUSH1 0xD SWAP1 DUP3 ADD MSTORE PUSH32 0x496E76616C696420696E64657800000000000000000000000000000000000000 PUSH1 0x40 DUP3 ADD MSTORE PUSH1 0x60 ADD SWAP1 JUMP JUMPDEST PUSH1 0x20 DUP1 DUP3 MSTORE PUSH1 0xC SWAP1 DUP3 ADD MSTORE PUSH32 0x756E617574686F72697A65640000000000000000000000000000000000000000 PUSH1 0x40 DUP3 ADD MSTORE PUSH1 0x60 ADD SWAP1 JUMP JUMPDEST PUSH1 0x20 DUP1 DUP3 MSTORE PUSH1 0x13 SWAP1 DUP3 ADD MSTORE PUSH32 0x6661696C65642064656C656761746563616C6C00000000000000000000000000 PUSH1 0x40 DUP3 ADD MSTORE PUSH1 0x60 ADD SWAP1 JUMP JUMPDEST PUSH1 0x0 DUP4 DUP3 MSTORE PUSH1 0x40 PUSH1 0x20 DUP4 ADD MSTORE PUSH2 0x2212 PUSH1 0x40 DUP4 ADD DUP5 PUSH2 0x2078 JUMP JUMPDEST PUSH1 0x0 DUP1 DUP4 CALLDATALOAD PUSH32 0xFFFFFFFFFFFFFFFFFFFFFFFFFFFFFFFFFFFFFFFFFFFFFFFFFFFFFFFFFFFFFFE1 DUP5 CALLDATASIZE SUB ADD DUP2 SLT PUSH2 0x2343 JUMPI DUP3 DUP4 REVERT JUMPDEST DUP4 ADD DUP1 CALLDATALOAD SWAP2 POP PUSH8 0xFFFFFFFFFFFFFFFF DUP3 GT ISZERO PUSH2 0x235D JUMPI DUP3 DUP4 REVERT JUMPDEST PUSH1 0x20 ADD SWAP2 POP CALLDATASIZE DUP2 SWAP1 SUB DUP3 SGT ISZERO PUSH2 0x951 JUMPI PUSH1 0x0 DUP1 REVERT JUMPDEST PUSH1 0x0 JUMPDEST DUP4 DUP2 LT ISZERO PUSH2 0x238D JUMPI DUP2 DUP2 ADD MLOAD DUP4 DUP3 ADD MSTORE PUSH1 0x20 ADD PUSH2 0x2375 JUMP JUMPDEST DUP4 DUP2 GT ISZERO PUSH2 0x239C JUMPI PUSH1 0x0 DUP5 DUP5 ADD MSTORE JUMPDEST POP POP POP POP JUMP JUMPDEST PUSH1 0x1 PUSH1 0x1 PUSH1 0xA0 SHL SUB DUP2 AND DUP2 EQ PUSH2 0x1AF8 JUMPI PUSH1 0x0 DUP1 REVERT JUMPDEST PUSH1 0x1 PUSH1 0x1 PUSH1 0xE0 SHL SUB NOT DUP2 AND DUP2 EQ PUSH2 0x1AF8 JUMPI PUSH1 0x0 DUP1 REVERT INVALID LOG2 PUSH5 0x6970667358 0x22 SLT KECCAK256 0xCF 0xD4 0x26 SWAP1 RETURN 0xAB DUP3 CALLER EXP 0xD8 EXTCODESIZE DUP13 LOG4 SAR LOG2 0xD5 DUP7 0xF6 DUP7 0xE6 CALLDATASIZE 0xDC EXP CHAINID SLT 0x5F DUP6 0x4B 0xEF 0xD5 0x26 SWAP3 PUSH5 0x736F6C6343 STOP MOD 0xC STOP CALLER "
        },
        "methodIdentifiers": {
          "ABI(bytes32,uint256)": "2203ab56",
          "addr(bytes32)": "3b3b57de",
          "addr(bytes32,uint256)": "f1cb7e06",
          "authorisations(bytes32,address,address)": "f86bc879",
          "contenthash(bytes32)": "bc1c58d1",
          "interfaceImplementer(bytes32,bytes4)": "124a319c",
          "list(bytes32,string)": "74c756ee",
          "listText(bytes32,string,uint256)": "fdf720c6",
          "multicall(bytes[])": "ac9650d8",
          "name(bytes32)": "691f3431",
          "pubkey(bytes32)": "c8690233",
          "pushListText(bytes32,string,string)": "043a728d",
          "removeListIndex(bytes32,string,uint256)": "6f473720",
          "setABI(bytes32,uint256,bytes)": "623195b0",
          "setAddr(bytes32,address)": "d5fa2b00",
          "setAddr(bytes32,uint256,bytes)": "8b95dd71",
          "setAuthorisation(bytes32,address,bool)": "3e9ce794",
          "setContenthash(bytes32,bytes)": "304e6ade",
          "setInterface(bytes32,bytes4,address)": "e59d895d",
          "setListText(bytes32,string,uint256,string)": "a2df33e1",
          "setName(bytes32,string)": "77372213",
          "setPubkey(bytes32,bytes32,bytes32)": "29cd62ea",
          "setText(bytes32,string,string)": "10f13a8c",
          "supportsInterface(bytes4)": "01ffc9a7",
          "text(bytes32,string)": "59d1d43c"
        }
      }
    }
  }
}