{
  "_format": "hh-sol-artifact-1",
  "contractName": "Chained",
  "sourceName": "contracts/vocdoni/base.sol",
  "abi": [
    {
      "anonymous": false,
      "inputs": [
        {
          "indexed": false,
          "internalType": "uint256",
          "name": "blockNumber",
          "type": "uint256"
        }
      ],
      "name": "Activated",
      "type": "event"
    },
    {
      "anonymous": false,
      "inputs": [
        {
          "indexed": false,
          "internalType": "uint256",
          "name": "blockNumber",
          "type": "uint256"
        },
        {
          "indexed": false,
          "internalType": "address",
          "name": "successor",
          "type": "address"
        }
      ],
      "name": "ActivatedSuccessor",
      "type": "event"
    },
    {
      "inputs": [],
      "name": "activate",
      "outputs": [],
      "stateMutability": "nonpayable",
      "type": "function"
    },
    {
      "inputs": [
        {
          "internalType": "address",
          "name": "successor",
          "type": "address"
        }
      ],
      "name": "activateSuccessor",
      "outputs": [],
      "stateMutability": "nonpayable",
      "type": "function"
    },
    {
      "inputs": [],
      "name": "activationBlock",
      "outputs": [
        {
          "internalType": "uint256",
          "name": "",
          "type": "uint256"
        }
      ],
      "stateMutability": "view",
      "type": "function"
    },
    {
      "inputs": [],
      "name": "predecessorAddress",
      "outputs": [
        {
          "internalType": "address",
          "name": "",
          "type": "address"
        }
      ],
      "stateMutability": "view",
      "type": "function"
    },
    {
      "inputs": [],
      "name": "successorAddress",
      "outputs": [
        {
          "internalType": "address",
          "name": "",
          "type": "address"
        }
      ],
      "stateMutability": "view",
      "type": "function"
    }
  ],
  "bytecode": "0x608060405234801561001057600080fd5b50600080546001600160a01b031916331790556104e9806100326000396000f3fe608060405234801561001057600080fd5b50600436106100675760003560e01c80631d88c05b116100505780631d88c05b1461009a57806380faa3d2146100a257806381c0de75146100bc57610067565b806308ffce241461006c5780630f15f4c014610090575b600080fd5b6100746100e2565b604080516001600160a01b039092168252519081900360200190f35b6100986100f1565b005b6100746101df565b6100aa6101ee565b60408051918252519081900360200190f35b610098600480360360208110156100d257600080fd5b50356001600160a01b03166101f4565b6001546001600160a01b031681565b6001546001600160a01b03163314610150576040805162461bcd60e51b815260206004820152600c60248201527f556e617574686f72697a65640000000000000000000000000000000000000000604482015290519081900360640190fd5b600354156101a5576040805162461bcd60e51b815260206004820152600e60248201527f416c726561647920616374697665000000000000000000000000000000000000604482015290519081900360640190fd5b43600381905560408051918252517f3ec796be1be7d03bff3a62b9fa594a60e947c1809bced06d929f145308ae57ce9181900360200190a1565b6002546001600160a01b031681565b60035481565b6000546001600160a01b03163314610253576040805162461bcd60e51b815260206004820152601160248201527f6f6e6c79436f6e74726163744f776e6572000000000000000000000000000000604482015290519081900360640190fd5b6000600354116102aa576040805162461bcd60e51b815260206004820152600e60248201527f4d75737420626520616374697665000000000000000000000000000000000000604482015290519081900360640190fd5b6002546001600160a01b031615610308576040805162461bcd60e51b815260206004820152601060248201527f416c726561647920696e61637469766500000000000000000000000000000000604482015290519081900360640190fd5b6001600160a01b038116301415610366576040805162461bcd60e51b815260206004820152600f60248201527f43616e277420626520697473656c660000000000000000000000000000000000604482015290519081900360640190fd5b61036f8161048c565b6103c0576040805162461bcd60e51b815260206004820152600e60248201527f4e6f74206120636f6e7472616374000000000000000000000000000000000000604482015290519081900360640190fd5b6000819050806001600160a01b0316630f15f4c06040518163ffffffff1660e01b8152600401600060405180830381600087803b15801561040057600080fd5b505af1158015610414573d6000803e3d6000fd5b5050600280547fffffffffffffffffffffffff0000000000000000000000000000000000000000166001600160a01b03861690811790915560408051438152602081019290925280517f1f8bdb9825a71b7560200e2279fd4b503ac6814e369318e761928502882ee11a945091829003019150a15050565b6000806001600160a01b0383166104a75760009150506104ae565b5050803b15155b91905056fea2646970667358221220c8f558a2f915ed351729b1bb593031ad2d119ae75c831e435cfdb139cd5f510364736f6c634300060c0033",
  "linkReferences": {},
  "deployedLinkReferences": {}
}