{
  "_format": "hh-sol-artifact-1",
  "contractName": "MerkleDistributor",
  "sourceName": "contracts/govern/govern-token/MerkleDistributor.sol",
  "abi": [
    {
      "inputs": [
        {
          "internalType": "contract ERC20",
          "name": "_token",
          "type": "address"
        },
        {
          "internalType": "bytes32",
          "name": "_merkleRoot",
          "type": "bytes32"
        }
      ],
      "stateMutability": "nonpayable",
      "type": "constructor"
    },
    {
      "anonymous": false,
      "inputs": [
        {
          "indexed": true,
          "internalType": "uint256",
          "name": "index",
          "type": "uint256"
        },
        {
          "indexed": true,
          "internalType": "address",
          "name": "to",
          "type": "address"
        },
        {
          "indexed": false,
          "internalType": "uint256",
          "name": "amount",
          "type": "uint256"
        }
      ],
      "name": "Claimed",
      "type": "event"
    },
    {
      "anonymous": false,
      "inputs": [
        {
          "indexed": true,
          "internalType": "string",
          "name": "key",
          "type": "string"
        }
      ],
      "name": "Initialized",
      "type": "event"
    },
    {
      "inputs": [
        {
          "internalType": "uint256",
          "name": "_index",
          "type": "uint256"
        },
        {
          "internalType": "address",
          "name": "_to",
          "type": "address"
        },
        {
          "internalType": "uint256",
          "name": "_amount",
          "type": "uint256"
        },
        {
          "internalType": "bytes32[]",
          "name": "_merkleProof",
          "type": "bytes32[]"
        }
      ],
      "name": "claim",
      "outputs": [],
      "stateMutability": "nonpayable",
      "type": "function"
    },
    {
      "inputs": [
        {
          "internalType": "string",
          "name": "",
          "type": "string"
        }
      ],
      "name": "initBlocks",
      "outputs": [
        {
          "internalType": "uint256",
          "name": "",
          "type": "uint256"
        }
      ],
      "stateMutability": "view",
      "type": "function"
    },
    {
      "inputs": [
        {
          "internalType": "contract ERC20",
          "name": "_token",
          "type": "address"
        },
        {
          "internalType": "bytes32",
          "name": "_merkleRoot",
          "type": "bytes32"
        }
      ],
      "name": "initialize",
      "outputs": [],
      "stateMutability": "nonpayable",
      "type": "function"
    },
    {
      "inputs": [
        {
          "internalType": "uint256",
          "name": "_index",
          "type": "uint256"
        }
      ],
      "name": "isClaimed",
      "outputs": [
        {
          "internalType": "bool",
          "name": "",
          "type": "bool"
        }
      ],
      "stateMutability": "view",
      "type": "function"
    },
    {
      "inputs": [],
      "name": "merkleRoot",
      "outputs": [
        {
          "internalType": "bytes32",
          "name": "",
          "type": "bytes32"
        }
      ],
      "stateMutability": "view",
      "type": "function"
    },
    {
      "inputs": [],
      "name": "token",
      "outputs": [
        {
          "internalType": "contract ERC20",
          "name": "",
          "type": "address"
        }
      ],
      "stateMutability": "view",
      "type": "function"
    },
    {
      "inputs": [
        {
          "internalType": "uint256",
          "name": "_index",
          "type": "uint256"
        },
        {
          "internalType": "address",
          "name": "_to",
          "type": "address"
        },
        {
          "internalType": "uint256",
          "name": "_amount",
          "type": "uint256"
        },
        {
          "internalType": "bytes32[]",
          "name": "_proof",
          "type": "bytes32[]"
        }
      ],
      "name": "unclaimedBalance",
      "outputs": [
        {
          "internalType": "uint256",
          "name": "",
          "type": "uint256"
        }
      ],
      "stateMutability": "view",
      "type": "function"
    }
  ],
  "bytecode": "0x608060405234801561001057600080fd5b50604051610e10380380610e108339818101604052604081101561003357600080fd5b50805160209091015161004f82826001600160e01b0361005616565b5050610221565b6040518060400160405280600b81526020016a3234b9ba3934b13aba37b960a91b8152506000816040518082805190602001908083835b602083106100ac5780518252601f19909201916020918201910161008d565b51815160209384036101000a600019018019909216911617905292019485525060405193849003019092205415915061011890505760405162461bcd60e51b8152600401808060200182810382526022815260200180610dee6022913960400191505060405180910390fd5b436000826040518082805190602001908083835b6020831061014b5780518252601f19909201916020918201910161012c565b51815160209384036101000a60001901801990921691161790529201948552506040519384900381018420949094555050600180546001600160a01b0319166001600160a01b0387161790556002849055825183928291908401908083835b602083106101c95780518252601f1990920191602091820191016101aa565b5181516020939093036101000a60001901801990911692169190911790526040519201829003822093507f7bc2a48a4a566e237a12186f19d985b0f76afc9d5290601edac19876253670c292506000919050a2505050565b610bbe806102306000396000f3fe608060405234801561001057600080fd5b506004361061007d5760003560e01c80639e34070f1161005b5780639e34070f146101e9578063be13f47c1461021a578063cc1d4cab14610246578063fc0c546a146102ec5761007d565b80632e7ba6ef146100825780632eb4a7ab1461011057806358beca341461012a575b600080fd5b61010e6004803603608081101561009857600080fd5b8135916001600160a01b0360208201351691604082013591908101906080810160608201356401000000008111156100cf57600080fd5b8201836020820111156100e157600080fd5b8035906020019184602083028401116401000000008311171561010357600080fd5b509092509050610310565b005b610118610468565b60408051918252519081900360200190f35b6101186004803603608081101561014057600080fd5b8135916001600160a01b03602082013516916040820135919081019060808101606082013564010000000081111561017757600080fd5b82018360208201111561018957600080fd5b803590602001918460208302840111640100000000831117156101ab57600080fd5b91908080602002602001604051908101604052809392919081815260200183836020028082843760009201919091525092955061046e945050505050565b610206600480360360208110156101ff57600080fd5b50356104aa565b604080519115158252519081900360200190f35b61010e6004803603604081101561023057600080fd5b506001600160a01b0381351690602001356104d0565b6101186004803603602081101561025c57600080fd5b81019060208101813564010000000081111561027757600080fd5b82018360208201111561028957600080fd5b803590602001918460018302840111640100000000831117156102ab57600080fd5b91908080601f0160208091040260200160405190810160405280939291908181526020018383808284376000920191909152509295506106c5945050505050565b6102f46106e2565b604080516001600160a01b039092168252519081900360200190f35b610319856104aa565b1561036b576040805162461bcd60e51b815260206004820152601560248201527f646973743a20616c726561647920636c61696d65640000000000000000000000604482015290519081900360640190fd5b6103aa8585858585808060200260200160405190810160405280939291908181526020018383602002808284376000920191909152506106f192505050565b6103fb576040805162461bcd60e51b815260206004820152601260248201527f646973743a2070726f6f66206661696c65640000000000000000000000000000604482015290519081900360640190fd5b61040485610764565b600154610421906001600160a01b0316858563ffffffff61078b16565b6040805184815290516001600160a01b0386169187917f4ec90e965519d92681267467f775ada5bd214aa92c0dc93d90a5e880ce9ed0269181900360200190a35050505050565b60025481565b6000610479856104aa565b15610486575060006104a2565b610492858585856106f1565b61049d57600061049f565b825b90505b949350505050565b6101008104600090815260036020526040902054600160ff9092169190911b9081161490565b6040518060400160405280600b81526020017f6469737472696275746f720000000000000000000000000000000000000000008152506000816040518082805190602001908083835b602083106105385780518252601f199092019160209182019101610519565b51815160209384036101000a60001901801990921691161790529201948552506040519384900301909220541591506105a490505760405162461bcd60e51b8152600401808060200182810382526022815260200180610b3d6022913960400191505060405180910390fd5b436000826040518082805190602001908083835b602083106105d75780518252601f1990920191602091820191016105b8565b51815160209384036101000a60001901801990921691161790529201948552506040519384900381018420949094555050600180547fffffffffffffffffffffffff0000000000000000000000000000000000000000166001600160a01b0387161790556002849055825183928291908401908083835b6020831061066d5780518252601f19909201916020918201910161064e565b5181516020939093036101000a60001901801990911692169190911790526040519201829003822093507f7bc2a48a4a566e237a12186f19d985b0f76afc9d5290601edac19876253670c292506000919050a2505050565b805160208183018101805160008252928201919093012091525481565b6001546001600160a01b031681565b6040805160208082018790527fffffffffffffffffffffffffffffffffffffffff000000000000000000000000606087901b1682840152605480830186905283518084039091018152607490920190925280519101206002546000919061075a90849083610810565b9695505050505050565b610100810460009081526003602052604090208054600160ff9093169290921b9091179055565b604080516001600160a01b038416602482015260448082018490528251808303909101815260649091019091526020810180517bffffffffffffffffffffffffffffffffffffffffffffffffffffffff167fa9059cbb0000000000000000000000000000000000000000000000000000000017905261080b9084906108bb565b505050565b600081815b85518110156108ae57600086828151811061082c57fe5b6020026020010151905080831161087357828160405160200180838152602001828152602001925050506040516020818303038152906040528051906020012092506108a5565b808360405160200180838152602001828152602001925050506040516020818303038152906040528051906020012092505b50600101610815565b50831490505b9392505050565b6060610910826040518060400160405280602081526020017f5361666545524332303a206c6f772d6c6576656c2063616c6c206661696c6564815250856001600160a01b031661096c9092919063ffffffff16565b80519091501561080b5780806020019051602081101561092f57600080fd5b505161080b5760405162461bcd60e51b815260040180806020018281038252602a815260200180610b5f602a913960400191505060405180910390fd5b60606104a284846000858561098085610a92565b6109d1576040805162461bcd60e51b815260206004820152601d60248201527f416464726573733a2063616c6c20746f206e6f6e2d636f6e7472616374000000604482015290519081900360640190fd5b60006060866001600160a01b031685876040518082805190602001908083835b60208310610a105780518252601f1990920191602091820191016109f1565b6001836020036101000a03801982511681845116808217855250505050505090500191505060006040518083038185875af1925050503d8060008114610a72576040519150601f19603f3d011682016040523d82523d6000602084013e610a77565b606091505b5091509150610a87828286610a98565b979650505050505050565b3b151590565b60608315610aa75750816108b4565b825115610ab75782518084602001fd5b8160405162461bcd60e51b81526004018080602001828103825283818151815260200191508051906020019080838360005b83811015610b01578181015183820152602001610ae9565b50505050905090810190601f168015610b2e5780820380516001836020036101000a031916815260200191505b509250505060405180910390fdfe696e697469616c697a61626c653a20616c726561647920696e697469616c697a65645361666545524332303a204552433230206f7065726174696f6e20646964206e6f742073756363656564a2646970667358221220452e03c41621d0b81f04661c6eddea1952674e2b8b8bc34531b2fd82b90420da64736f6c63430006080033696e697469616c697a61626c653a20616c726561647920696e697469616c697a6564",
  "linkReferences": {},
  "deployedLinkReferences": {}
}