{
  "_format": "hh-sol-artifact-1",
  "contractName": "Results",
  "sourceName": "contracts/vocdoni/results.sol",
  "abi": [
    {
      "inputs": [
        {
          "internalType": "address",
          "name": "genesisAddr",
          "type": "address"
        }
      ],
      "stateMutability": "nonpayable",
      "type": "constructor"
    },
    {
      "anonymous": false,
      "inputs": [
        {
          "indexed": false,
          "internalType": "bytes32",
          "name": "processId",
          "type": "bytes32"
        }
      ],
      "name": "ResultsAvailable",
      "type": "event"
    },
    {
      "inputs": [],
      "name": "genesisAddress",
      "outputs": [
        {
          "internalType": "address",
          "name": "",
          "type": "address"
        }
      ],
      "stateMutability": "view",
      "type": "function"
    },
    {
      "inputs": [
        {
          "internalType": "bytes32",
          "name": "processId",
          "type": "bytes32"
        }
      ],
      "name": "getResults",
      "outputs": [
        {
          "internalType": "uint32[][]",
          "name": "tally",
          "type": "uint32[][]"
        },
        {
          "internalType": "uint32",
          "name": "height",
          "type": "uint32"
        }
      ],
      "stateMutability": "view",
      "type": "function"
    },
    {
      "inputs": [],
      "name": "processesAddress",
      "outputs": [
        {
          "internalType": "address",
          "name": "",
          "type": "address"
        }
      ],
      "stateMutability": "view",
      "type": "function"
    },
    {
      "inputs": [
        {
          "internalType": "address",
          "name": "processesAddr",
          "type": "address"
        }
      ],
      "name": "setProcessesAddress",
      "outputs": [],
      "stateMutability": "nonpayable",
      "type": "function"
    },
    {
      "inputs": [
        {
          "internalType": "bytes32",
          "name": "processId",
          "type": "bytes32"
        },
        {
          "internalType": "uint32[][]",
          "name": "tally",
          "type": "uint32[][]"
        },
        {
          "internalType": "uint32",
          "name": "height",
          "type": "uint32"
        },
        {
          "internalType": "uint32",
          "name": "vochainId",
          "type": "uint32"
        }
      ],
      "name": "setResults",
      "outputs": [],
      "stateMutability": "nonpayable",
      "type": "function"
    }
  ],
  "bytecode": "0x608060405234801561001057600080fd5b50604051610cbb380380610cbb83398101604081905261002f916100c8565b60008054336001600160a01b0319909116179055610057816100a1602090811b61051517901c565b61007c5760405162461bcd60e51b8152600401610073906100f6565b60405180910390fd5b600180546001600160a01b0319166001600160a01b039290921691909117905561012d565b6000806001600160a01b0383166100bc5760009150506100c3565b5050803b15155b919050565b6000602082840312156100d9578081fd5b81516001600160a01b03811681146100ef578182fd5b9392505050565b60208082526013908201527f496e76616c69642067656e657369734164647200000000000000000000000000604082015260600190565b610b7f8061013c6000396000f3fe608060405234801561001057600080fd5b50600436106100675760003560e01c806346475c4c1161005057806346475c4c146100945780636065fb33146100be5780639d455ad6146100d357610067565b8063133baaa51461006c578063358aad2914610081575b600080fd5b61007f61007a3660046106d4565b6100db565b005b61007f61008f36600461073a565b61016d565b6100a76100a2366004610722565b6103da565b6040516100b5929190610882565b60405180910390f35b6100c66104f7565b6040516100b5919061086e565b6100c6610506565b6000546001600160a01b0316331461010e5760405162461bcd60e51b815260040161010590610962565b60405180910390fd5b61011781610515565b6101335760405162461bcd60e51b8152600401610105906109d0565b600280547fffffffffffffffffffffffff0000000000000000000000000000000000000000166001600160a01b0392909216919091179055565b6001546040517f0aa4bac200000000000000000000000000000000000000000000000000000000815282916001600160a01b031690630aa4bac2906101b89084903390600401610ae3565b60206040518083038186803b1580156101d057600080fd5b505afa1580156101e4573d6000803e3d6000fd5b505050506040513d601f19601f820116820180604052508101906102089190610702565b6102245760405162461bcd60e51b815260040161010590610aac565b6002546001600160a01b031661024c5760405162461bcd60e51b815260040161010590610a75565b600085815260036020526040902060010154640100000000900460ff16156102865760405162461bcd60e51b815260040161010590610a07565b60008363ffffffff16116102ac5760405162461bcd60e51b815260040161010590610a3e565b600085815260036020908152604090912085516102cb9287019061053c565b5060008581526003602052604090819020600101805464010000000063ffffffff1990911663ffffffff8716177fffffffffffffffffffffffffffffffffffffffffffffffffffffff00ffffffff1617905560025490517f8de654ba0000000000000000000000000000000000000000000000000000000081526001600160a01b03909116908190638de654ba906103699089906004908101610944565b600060405180830381600087803b15801561038357600080fd5b505af1158015610397573d6000803e3d6000fd5b505050507f5aff397e0d9bfad4e73dfd9c2da1d146ce7fe8cfd1a795dbf6b95b417236fa4c866040516103ca919061093b565b60405180910390a1505050505050565b60008181526003602052604081206001015460609190640100000000900460ff166104175760405162461bcd60e51b815260040161010590610999565b600083815260036020908152604080832060018101548154835181860281018601909452808452919463ffffffff909116938592919084015b828210156104e8576000848152602090819020830180546040805182850281018501909152818152928301828280156104d457602002820191906000526020600020906000905b82829054906101000a900463ffffffff1663ffffffff16815260200190600401906020826003010492830192600103820291508084116104975790505b505050505081526020019060010190610450565b50505050915091509150915091565b6001546001600160a01b031681565b6002546001600160a01b031681565b6000806001600160a01b038316610530576000915050610537565b5050803b15155b919050565b828054828255906000526020600020908101928215610589579160200282015b828111156105895782518051610579918491602090910190610599565b509160200191906001019061055c565b50610595929150610644565b5090565b828054828255906000526020600020906007016008900481019282156106385791602002820160005b8382111561060657835183826101000a81548163ffffffff021916908363ffffffff16021790555092602001926004016020816003010492830192600103026105c2565b80156106365782816101000a81549063ffffffff0219169055600401602081600301049283019260010302610606565b505b50610595929150610661565b80821115610595576000610658828261067d565b50600101610644565b5b8082111561059557805463ffffffff19168155600101610662565b5080546000825560070160089004906000526020600020908101906106a291906106a5565b50565b5b8082111561059557600081556001016106a6565b803563ffffffff811681146106ce57600080fd5b92915050565b6000602082840312156106e5578081fd5b81356001600160a01b03811681146106fb578182fd5b9392505050565b600060208284031215610713578081fd5b815180151581146106fb578182fd5b600060208284031215610733578081fd5b5035919050565b6000806000806080858703121561074f578283fd5b8435935067ffffffffffffffff6020860135111561076b578283fd5b6020850135850186601f820112610780578384fd5b61079261078d8235610b29565b610b02565b81358152602080820191908301865b843581101561083f578a603f8335870101126107bb578788fd5b6107ce61078d6020843588010135610b29565b8235860160208181013580845281840193926040808201939290920201018e10156107f7578a8bfd5b8a5b602086358a010135811015610827576108128f836106ba565b845260209384019391909101906001016107f9565b505085525060209384019391909101906001016107a1565b505080955050505061085486604087016106ba565b915061086386606087016106ba565b905092959194509250565b6001600160a01b0391909116815260200190565b60006040820160408352808551808352606085019150602092506060838202860101838801855b83811015610920578783037fffffffffffffffffffffffffffffffffffffffffffffffffffffffffffffffa0018552815180518085529087019087850190895b8181101561090b57835163ffffffff16835292890192918901916001016108e9565b505095870195935050908501906001016108a9565b505080945050505063ffffffff841681840152509392505050565b90815260200190565b828152604081016005831061095557fe5b8260208301529392505050565b60208082526011908201527f6f6e6c79436f6e74726163744f776e6572000000000000000000000000000000604082015260600190565b60208082526009908201527f4e6f7420666f756e640000000000000000000000000000000000000000000000604082015260600190565b60208082526015908201527f496e76616c69642070726f636573736573416464720000000000000000000000604082015260600190565b6020808252600b908201527f416c726561647920736574000000000000000000000000000000000000000000604082015260600190565b60208082526008908201527f4e6f20766f746573000000000000000000000000000000000000000000000000604082015260600190565b60208082526018908201527f496e76616c69642070726f636573736573416464726573730000000000000000604082015260600190565b6020808252600a908201527f4e6f74206f7261636c6500000000000000000000000000000000000000000000604082015260600190565b63ffffffff9290921682526001600160a01b0316602082015260400190565b60405181810167ffffffffffffffff81118282101715610b2157600080fd5b604052919050565b600067ffffffffffffffff821115610b3f578081fd5b506020908102019056fea2646970667358221220d077c21106bb6f4dc8c8ad894fb157df4358c012e8addc0041fb400bb4e34e0764736f6c634300060c0033",
  "linkReferences": {},
  "deployedLinkReferences": {}
}