{
  "_format": "hh-sol-artifact-1",
  "contractName": "TimelockController",
  "sourceName": "contracts/vocdoni/vendor/openzeppelin/access/TimelockController.sol",
  "abi": [
    {
      "inputs": [
        {
          "internalType": "uint256",
          "name": "minDelay",
          "type": "uint256"
        },
        {
          "internalType": "address[]",
          "name": "proposers",
          "type": "address[]"
        },
        {
          "internalType": "address[]",
          "name": "executors",
          "type": "address[]"
        }
      ],
      "stateMutability": "nonpayable",
      "type": "constructor"
    },
    {
      "anonymous": false,
      "inputs": [
        {
          "indexed": true,
          "internalType": "bytes32",
          "name": "id",
          "type": "bytes32"
        },
        {
          "indexed": true,
          "internalType": "uint256",
          "name": "index",
          "type": "uint256"
        },
        {
          "indexed": false,
          "internalType": "address",
          "name": "target",
          "type": "address"
        },
        {
          "indexed": false,
          "internalType": "uint256",
          "name": "value",
          "type": "uint256"
        },
        {
          "indexed": false,
          "internalType": "bytes",
          "name": "data",
          "type": "bytes"
        }
      ],
      "name": "CallExecuted",
      "type": "event"
    },
    {
      "anonymous": false,
      "inputs": [
        {
          "indexed": true,
          "internalType": "bytes32",
          "name": "id",
          "type": "bytes32"
        },
        {
          "indexed": true,
          "internalType": "uint256",
          "name": "index",
          "type": "uint256"
        },
        {
          "indexed": false,
          "internalType": "address",
          "name": "target",
          "type": "address"
        },
        {
          "indexed": false,
          "internalType": "uint256",
          "name": "value",
          "type": "uint256"
        },
        {
          "indexed": false,
          "internalType": "bytes",
          "name": "data",
          "type": "bytes"
        },
        {
          "indexed": false,
          "internalType": "bytes32",
          "name": "predecessor",
          "type": "bytes32"
        },
        {
          "indexed": false,
          "internalType": "uint256",
          "name": "delay",
          "type": "uint256"
        }
      ],
      "name": "CallScheduled",
      "type": "event"
    },
    {
      "anonymous": false,
      "inputs": [
        {
          "indexed": true,
          "internalType": "bytes32",
          "name": "id",
          "type": "bytes32"
        }
      ],
      "name": "Cancelled",
      "type": "event"
    },
    {
      "anonymous": false,
      "inputs": [
        {
          "indexed": false,
          "internalType": "uint256",
          "name": "oldDuration",
          "type": "uint256"
        },
        {
          "indexed": false,
          "internalType": "uint256",
          "name": "newDuration",
          "type": "uint256"
        }
      ],
      "name": "MinDelayChange",
      "type": "event"
    },
    {
      "anonymous": false,
      "inputs": [
        {
          "indexed": true,
          "internalType": "bytes32",
          "name": "role",
          "type": "bytes32"
        },
        {
          "indexed": true,
          "internalType": "bytes32",
          "name": "previousAdminRole",
          "type": "bytes32"
        },
        {
          "indexed": true,
          "internalType": "bytes32",
          "name": "newAdminRole",
          "type": "bytes32"
        }
      ],
      "name": "RoleAdminChanged",
      "type": "event"
    },
    {
      "anonymous": false,
      "inputs": [
        {
          "indexed": true,
          "internalType": "bytes32",
          "name": "role",
          "type": "bytes32"
        },
        {
          "indexed": true,
          "internalType": "address",
          "name": "account",
          "type": "address"
        },
        {
          "indexed": true,
          "internalType": "address",
          "name": "sender",
          "type": "address"
        }
      ],
      "name": "RoleGranted",
      "type": "event"
    },
    {
      "anonymous": false,
      "inputs": [
        {
          "indexed": true,
          "internalType": "bytes32",
          "name": "role",
          "type": "bytes32"
        },
        {
          "indexed": true,
          "internalType": "address",
          "name": "account",
          "type": "address"
        },
        {
          "indexed": true,
          "internalType": "address",
          "name": "sender",
          "type": "address"
        }
      ],
      "name": "RoleRevoked",
      "type": "event"
    },
    {
      "inputs": [],
      "name": "DEFAULT_ADMIN_ROLE",
      "outputs": [
        {
          "internalType": "bytes32",
          "name": "",
          "type": "bytes32"
        }
      ],
      "stateMutability": "view",
      "type": "function"
    },
    {
      "inputs": [],
      "name": "EXECUTOR_ROLE",
      "outputs": [
        {
          "internalType": "bytes32",
          "name": "",
          "type": "bytes32"
        }
      ],
      "stateMutability": "view",
      "type": "function"
    },
    {
      "inputs": [],
      "name": "PROPOSER_ROLE",
      "outputs": [
        {
          "internalType": "bytes32",
          "name": "",
          "type": "bytes32"
        }
      ],
      "stateMutability": "view",
      "type": "function"
    },
    {
      "inputs": [],
      "name": "TIMELOCK_ADMIN_ROLE",
      "outputs": [
        {
          "internalType": "bytes32",
          "name": "",
          "type": "bytes32"
        }
      ],
      "stateMutability": "view",
      "type": "function"
    },
    {
      "inputs": [
        {
          "internalType": "bytes32",
          "name": "id",
          "type": "bytes32"
        }
      ],
      "name": "cancel",
      "outputs": [],
      "stateMutability": "nonpayable",
      "type": "function"
    },
    {
      "inputs": [
        {
          "internalType": "address",
          "name": "target",
          "type": "address"
        },
        {
          "internalType": "uint256",
          "name": "value",
          "type": "uint256"
        },
        {
          "internalType": "bytes",
          "name": "data",
          "type": "bytes"
        },
        {
          "internalType": "bytes32",
          "name": "predecessor",
          "type": "bytes32"
        },
        {
          "internalType": "bytes32",
          "name": "salt",
          "type": "bytes32"
        }
      ],
      "name": "execute",
      "outputs": [],
      "stateMutability": "payable",
      "type": "function"
    },
    {
      "inputs": [
        {
          "internalType": "address[]",
          "name": "targets",
          "type": "address[]"
        },
        {
          "internalType": "uint256[]",
          "name": "values",
          "type": "uint256[]"
        },
        {
          "internalType": "bytes[]",
          "name": "datas",
          "type": "bytes[]"
        },
        {
          "internalType": "bytes32",
          "name": "predecessor",
          "type": "bytes32"
        },
        {
          "internalType": "bytes32",
          "name": "salt",
          "type": "bytes32"
        }
      ],
      "name": "executeBatch",
      "outputs": [],
      "stateMutability": "payable",
      "type": "function"
    },
    {
      "inputs": [],
      "name": "getMinDelay",
      "outputs": [
        {
          "internalType": "uint256",
          "name": "duration",
          "type": "uint256"
        }
      ],
      "stateMutability": "view",
      "type": "function"
    },
    {
      "inputs": [
        {
          "internalType": "bytes32",
          "name": "role",
          "type": "bytes32"
        }
      ],
      "name": "getRoleAdmin",
      "outputs": [
        {
          "internalType": "bytes32",
          "name": "",
          "type": "bytes32"
        }
      ],
      "stateMutability": "view",
      "type": "function"
    },
    {
      "inputs": [
        {
          "internalType": "bytes32",
          "name": "role",
          "type": "bytes32"
        },
        {
          "internalType": "uint256",
          "name": "index",
          "type": "uint256"
        }
      ],
      "name": "getRoleMember",
      "outputs": [
        {
          "internalType": "address",
          "name": "",
          "type": "address"
        }
      ],
      "stateMutability": "view",
      "type": "function"
    },
    {
      "inputs": [
        {
          "internalType": "bytes32",
          "name": "role",
          "type": "bytes32"
        }
      ],
      "name": "getRoleMemberCount",
      "outputs": [
        {
          "internalType": "uint256",
          "name": "",
          "type": "uint256"
        }
      ],
      "stateMutability": "view",
      "type": "function"
    },
    {
      "inputs": [
        {
          "internalType": "bytes32",
          "name": "id",
          "type": "bytes32"
        }
      ],
      "name": "getTimestamp",
      "outputs": [
        {
          "internalType": "uint256",
          "name": "timestamp",
          "type": "uint256"
        }
      ],
      "stateMutability": "view",
      "type": "function"
    },
    {
      "inputs": [
        {
          "internalType": "bytes32",
          "name": "role",
          "type": "bytes32"
        },
        {
          "internalType": "address",
          "name": "account",
          "type": "address"
        }
      ],
      "name": "grantRole",
      "outputs": [],
      "stateMutability": "nonpayable",
      "type": "function"
    },
    {
      "inputs": [
        {
          "internalType": "bytes32",
          "name": "role",
          "type": "bytes32"
        },
        {
          "internalType": "address",
          "name": "account",
          "type": "address"
        }
      ],
      "name": "hasRole",
      "outputs": [
        {
          "internalType": "bool",
          "name": "",
          "type": "bool"
        }
      ],
      "stateMutability": "view",
      "type": "function"
    },
    {
      "inputs": [
        {
          "internalType": "address",
          "name": "target",
          "type": "address"
        },
        {
          "internalType": "uint256",
          "name": "value",
          "type": "uint256"
        },
        {
          "internalType": "bytes",
          "name": "data",
          "type": "bytes"
        },
        {
          "internalType": "bytes32",
          "name": "predecessor",
          "type": "bytes32"
        },
        {
          "internalType": "bytes32",
          "name": "salt",
          "type": "bytes32"
        }
      ],
      "name": "hashOperation",
      "outputs": [
        {
          "internalType": "bytes32",
          "name": "hash",
          "type": "bytes32"
        }
      ],
      "stateMutability": "pure",
      "type": "function"
    },
    {
      "inputs": [
        {
          "internalType": "address[]",
          "name": "targets",
          "type": "address[]"
        },
        {
          "internalType": "uint256[]",
          "name": "values",
          "type": "uint256[]"
        },
        {
          "internalType": "bytes[]",
          "name": "datas",
          "type": "bytes[]"
        },
        {
          "internalType": "bytes32",
          "name": "predecessor",
          "type": "bytes32"
        },
        {
          "internalType": "bytes32",
          "name": "salt",
          "type": "bytes32"
        }
      ],
      "name": "hashOperationBatch",
      "outputs": [
        {
          "internalType": "bytes32",
          "name": "hash",
          "type": "bytes32"
        }
      ],
      "stateMutability": "pure",
      "type": "function"
    },
    {
      "inputs": [
        {
          "internalType": "bytes32",
          "name": "id",
          "type": "bytes32"
        }
      ],
      "name": "isOperation",
      "outputs": [
        {
          "internalType": "bool",
          "name": "pending",
          "type": "bool"
        }
      ],
      "stateMutability": "view",
      "type": "function"
    },
    {
      "inputs": [
        {
          "internalType": "bytes32",
          "name": "id",
          "type": "bytes32"
        }
      ],
      "name": "isOperationDone",
      "outputs": [
        {
          "internalType": "bool",
          "name": "done",
          "type": "bool"
        }
      ],
      "stateMutability": "view",
      "type": "function"
    },
    {
      "inputs": [
        {
          "internalType": "bytes32",
          "name": "id",
          "type": "bytes32"
        }
      ],
      "name": "isOperationPending",
      "outputs": [
        {
          "internalType": "bool",
          "name": "pending",
          "type": "bool"
        }
      ],
      "stateMutability": "view",
      "type": "function"
    },
    {
      "inputs": [
        {
          "internalType": "bytes32",
          "name": "id",
          "type": "bytes32"
        }
      ],
      "name": "isOperationReady",
      "outputs": [
        {
          "internalType": "bool",
          "name": "ready",
          "type": "bool"
        }
      ],
      "stateMutability": "view",
      "type": "function"
    },
    {
      "inputs": [
        {
          "internalType": "bytes32",
          "name": "role",
          "type": "bytes32"
        },
        {
          "internalType": "address",
          "name": "account",
          "type": "address"
        }
      ],
      "name": "renounceRole",
      "outputs": [],
      "stateMutability": "nonpayable",
      "type": "function"
    },
    {
      "inputs": [
        {
          "internalType": "bytes32",
          "name": "role",
          "type": "bytes32"
        },
        {
          "internalType": "address",
          "name": "account",
          "type": "address"
        }
      ],
      "name": "revokeRole",
      "outputs": [],
      "stateMutability": "nonpayable",
      "type": "function"
    },
    {
      "inputs": [
        {
          "internalType": "address",
          "name": "target",
          "type": "address"
        },
        {
          "internalType": "uint256",
          "name": "value",
          "type": "uint256"
        },
        {
          "internalType": "bytes",
          "name": "data",
          "type": "bytes"
        },
        {
          "internalType": "bytes32",
          "name": "predecessor",
          "type": "bytes32"
        },
        {
          "internalType": "bytes32",
          "name": "salt",
          "type": "bytes32"
        },
        {
          "internalType": "uint256",
          "name": "delay",
          "type": "uint256"
        }
      ],
      "name": "schedule",
      "outputs": [],
      "stateMutability": "nonpayable",
      "type": "function"
    },
    {
      "inputs": [
        {
          "internalType": "address[]",
          "name": "targets",
          "type": "address[]"
        },
        {
          "internalType": "uint256[]",
          "name": "values",
          "type": "uint256[]"
        },
        {
          "internalType": "bytes[]",
          "name": "datas",
          "type": "bytes[]"
        },
        {
          "internalType": "bytes32",
          "name": "predecessor",
          "type": "bytes32"
        },
        {
          "internalType": "bytes32",
          "name": "salt",
          "type": "bytes32"
        },
        {
          "internalType": "uint256",
          "name": "delay",
          "type": "uint256"
        }
      ],
      "name": "scheduleBatch",
      "outputs": [],
      "stateMutability": "nonpayable",
      "type": "function"
    },
    {
      "inputs": [
        {
          "internalType": "uint256",
          "name": "newDelay",
          "type": "uint256"
        }
      ],
      "name": "updateDelay",
      "outputs": [],
      "stateMutability": "nonpayable",
      "type": "function"
    },
    {
      "stateMutability": "payable",
      "type": "receive"
    }
  ],
  "bytecode": "0x60806040523480156200001157600080fd5b50604051620020b5380380620020b58339810160408190526200003491620003d1565b6200004f6000805160206200205583398151915280620001b1565b620000796000805160206200207583398151915260008051602062002055833981519152620001b1565b620000a36000805160206200209583398151915260008051602062002055833981519152620001b1565b620000c760008051602062002055833981519152620000c162000203565b62000207565b620000e2600080516020620020558339815191523062000207565b60005b82518110156200012d5762000124600080516020620020758339815191528483815181106200011057fe5b60200260200101516200020760201b60201c565b600101620000e5565b5060005b815181101562000165576200015c600080516020620020958339815191528383815181106200011057fe5b60010162000131565b5060028390556040517f11c24f4ead16507c69ac467fbd5e4eed5fb5c699626d2cc6d66421df253886d590620001a090600090869062000442565b60405180910390a150505062000450565b600082815260208190526040808220600201549051839285917fbd79b86ffe0ab8e8776151514217cd7cacd52c909f66475c3af44e129f0b00ff9190a460009182526020829052604090912060020155565b3390565b62000213828262000217565b5050565b6000828152602081815260409091206200023c91839062000c5762000290821b17901c565b1562000213576200024c62000203565b6001600160a01b0316816001600160a01b0316837f2f8788117e7eff1d82e926ec794901d17c78024a50270940304540a733656f0d60405160405180910390a45050565b6000620002a7836001600160a01b038416620002b0565b90505b92915050565b6000620002be8383620002ff565b620002f657508154600181810184556000848152602080822090930184905584548482528286019093526040902091909155620002aa565b506000620002aa565b60009081526001919091016020526040902054151590565b80516001600160a01b0381168114620002aa57600080fd5b600082601f83011262000340578081fd5b81516001600160401b038082111562000357578283fd5b60208083026040518282820101818110858211171562000375578687fd5b6040528481529450818501925085820181870183018810156200039757600080fd5b600091505b84821015620003c657620003b1888262000317565b8452928201926001919091019082016200039c565b505050505092915050565b600080600060608486031215620003e6578283fd5b835160208501519093506001600160401b038082111562000405578384fd5b62000413878388016200032f565b9350604086015191508082111562000429578283fd5b5062000438868287016200032f565b9150509250925092565b918252602082015260400190565b611bf580620004606000396000f3fe60806040526004361061019a5760003560e01c80638065657f116100e1578063b1c5f4271161008a578063d45c443511610064578063d45c44351461043f578063d547741f1461045f578063e38335e51461047f578063f27a0c9214610492576101a1565b8063b1c5f427146103df578063c4d252f5146103ff578063ca15c8731461041f576101a1565b80639010d07c116100bb5780639010d07c1461037d57806391d14854146103aa578063a217fddf146103ca576101a1565b80638065657f146103285780638f2a0bb0146103485780638f61f4f514610368576101a1565b80632ab0f5291161014357806336568abe1161011d57806336568abe146102c8578063584b153e146102e857806364d6235314610308576101a1565b80632ab0f529146102685780632f2ff15d1461028857806331d50750146102a8576101a1565b8063134008d311610174578063134008d31461020857806313bc9f201461021b578063248a9ca314610248576101a1565b806301d5062a146101a657806307bd0265146101c85780630d3cf6fc146101f3576101a1565b366101a157005b600080fd5b3480156101b257600080fd5b506101c66101c13660046111fc565b6104a7565b005b3480156101d457600080fd5b506101dd610575565b6040516101ea919061165e565b60405180910390f35b3480156101ff57600080fd5b506101dd610599565b6101c6610216366004611190565b6105bd565b34801561022757600080fd5b5061023b6102363660046113c3565b610654565b6040516101ea9190611653565b34801561025457600080fd5b506101dd6102633660046113c3565b610679565b34801561027457600080fd5b5061023b6102833660046113c3565b61068e565b34801561029457600080fd5b506101c66102a33660046113db565b6106a2565b3480156102b457600080fd5b5061023b6102c33660046113c3565b6106ea565b3480156102d457600080fd5b506101c66102e33660046113db565b6106fd565b3480156102f457600080fd5b5061023b6103033660046113c3565b61073f565b34801561031457600080fd5b506101c66103233660046113c3565b61074c565b34801561033457600080fd5b506101dd610343366004611190565b6107ab565b34801561035457600080fd5b506101c6610363366004611315565b6107ea565b34801561037457600080fd5b506101dd610952565b34801561038957600080fd5b5061039d61039836600461140a565b610976565b6040516101ea919061150e565b3480156103b657600080fd5b5061023b6103c53660046113db565b610997565b3480156103d657600080fd5b506101dd6109af565b3480156103eb57600080fd5b506101dd6103fa366004611270565b6109b4565b34801561040b57600080fd5b506101c661041a3660046113c3565b6109f9565b34801561042b57600080fd5b506101dd61043a3660046113c3565b610ab4565b34801561044b57600080fd5b506101dd61045a3660046113c3565b610acb565b34801561046b57600080fd5b506101c661047a3660046113db565b610add565b6101c661048d366004611270565b610b17565b34801561049e57600080fd5b506101dd610c51565b7fb09aa5aeb3702cfd50b6b62bc4532604938f21248a27a1d5ca736082b6819cc16104d4816103c5610c6c565b806104e557506104e5816000610997565b61050a5760405162461bcd60e51b8152600401610501906117db565b60405180910390fd5b600061051a8989898989896107ab565b90506105268184610c70565b6000817f4cf4410cc57040e44862ef0f45f3dd5a5e02db8eb8add648d4b0e236f1d07dca8b8b8b8b8b8a60405161056296959493929190611555565b60405180910390a3505050505050505050565b7fd8aa0f3194971a2a116679f7c2090f6939c8d4e01a2a8d7e41d55e5351469e6381565b7f5f58e3a2316349923ce3780f8d587db2d72378aed66a8261c916544fa6846ca581565b7fd8aa0f3194971a2a116679f7c2090f6939c8d4e01a2a8d7e41d55e5351469e636105ea816103c5610c6c565b806105fb57506105fb816000610997565b6106175760405162461bcd60e51b8152600401610501906117db565b60006106278888888888886107ab565b905061063284610cdd565b6106418160008a8a8a8a610d0d565b61064a81610dd5565b5050505050505050565b60008061066083610acb565b90506001811180156106725750428111155b9392505050565b60009081526020819052604090206002015490565b6000600161069b83610acb565b1492915050565b6000828152602081905260409020600201546106c0906103c5610c6c565b6106dc5760405162461bcd60e51b815260040161050190611721565b6106e68282610e0e565b5050565b6000806106f683610acb565b1192915050565b610705610c6c565b6001600160a01b0316816001600160a01b0316146107355760405162461bcd60e51b815260040161050190611a9d565b6106e68282610e77565b600060016106f683610acb565b33301461076b5760405162461bcd60e51b815260040161050190611a40565b7f11c24f4ead16507c69ac467fbd5e4eed5fb5c699626d2cc6d66421df253886d56002548260405161079e929190611b57565b60405180910390a1600255565b60008686868686866040516020016107c896959493929190611555565b6040516020818303038152906040528051906020012090509695505050505050565b7fb09aa5aeb3702cfd50b6b62bc4532604938f21248a27a1d5ca736082b6819cc1610817816103c5610c6c565b806108285750610828816000610997565b6108445760405162461bcd60e51b8152600401610501906117db565b8887146108635760405162461bcd60e51b81526004016105019061177e565b8885146108825760405162461bcd60e51b81526004016105019061177e565b60006108948b8b8b8b8b8b8b8b6109b4565b90506108a08184610c70565b60005b8a8110156109445780827f4cf4410cc57040e44862ef0f45f3dd5a5e02db8eb8add648d4b0e236f1d07dca8e8e858181106108da57fe5b90506020020160208101906108ef9190611175565b8d8d868181106108fb57fe5b905060200201358c8c8781811061090e57fe5b90506020028101906109209190611b65565b8c8b60405161093496959493929190611555565b60405180910390a36001016108a3565b505050505050505050505050565b7fb09aa5aeb3702cfd50b6b62bc4532604938f21248a27a1d5ca736082b6819cc181565b600082815260208190526040812061098e9083610ee0565b90505b92915050565b600082815260208190526040812061098e9083610eec565b600081565b600088888888888888886040516020016109d5989796959493929190611593565b60405160208183030381529060405280519060200120905098975050505050505050565b7fb09aa5aeb3702cfd50b6b62bc4532604938f21248a27a1d5ca736082b6819cc1610a26816103c5610c6c565b80610a375750610a37816000610997565b610a535760405162461bcd60e51b8152600401610501906117db565b610a5c8261073f565b610a785760405162461bcd60e51b8152600401610501906119e3565b6000828152600160205260408082208290555183917fbaa1eb22f2a492ba1a5fea61b8df4d27c6c8b5f3971e63bb58fa14ff72eedb7091a25050565b600081815260208190526040812061099190610f01565b60009081526001602052604090205490565b600082815260208190526040902060020154610afb906103c5610c6c565b6107355760405162461bcd60e51b81526004016105019061186f565b7fd8aa0f3194971a2a116679f7c2090f6939c8d4e01a2a8d7e41d55e5351469e63610b44816103c5610c6c565b80610b555750610b55816000610997565b610b715760405162461bcd60e51b8152600401610501906117db565b878614610b905760405162461bcd60e51b81526004016105019061177e565b878414610baf5760405162461bcd60e51b81526004016105019061177e565b6000610bc18a8a8a8a8a8a8a8a6109b4565b9050610bcc84610cdd565b60005b89811015610c3b57610c3382828d8d85818110610be857fe5b9050602002016020810190610bfd9190611175565b8c8c86818110610c0957fe5b905060200201358b8b87818110610c1c57fe5b9050602002810190610c2e9190611b65565b610d0d565b600101610bcf565b50610c4581610dd5565b50505050505050505050565b60025490565b600061098e836001600160a01b038416610f0c565b3390565b610c79826106ea565b15610c965760405162461bcd60e51b815260040161050190611929565b610c9e610c51565b811015610cbd5760405162461bcd60e51b8152600401610501906118cc565b610cc74282610f56565b6000928352600160205260409092209190915550565b801580610cee5750610cee8161068e565b610d0a5760405162461bcd60e51b8152600401610501906116c4565b50565b6000846001600160a01b0316848484604051610d2a9291906114fe565b60006040518083038185875af1925050503d8060008114610d67576040519150601f19603f3d011682016040523d82523d6000602084013e610d6c565b606091505b5050905080610d8d5760405162461bcd60e51b815260040161050190611afa565b85877fc2617efa69bab66782fa219543714338489c4e9e178271560a91b82c3f612b5887878787604051610dc49493929190611522565b60405180910390a350505050505050565b610dde81610654565b610dfa5760405162461bcd60e51b815260040161050190611986565b600090815260016020819052604090912055565b6000828152602081905260409020610e269082610c57565b156106e657610e33610c6c565b6001600160a01b0316816001600160a01b0316837f2f8788117e7eff1d82e926ec794901d17c78024a50270940304540a733656f0d60405160405180910390a45050565b6000828152602081905260409020610e8f9082610f7b565b156106e657610e9c610c6c565b6001600160a01b0316816001600160a01b0316837ff6391f5c32d9c69d2a47ea670b442974b53935d1edc7fd64eb21e047a839171b60405160405180910390a45050565b600061098e8383610f90565b600061098e836001600160a01b038416610fd5565b600061099182610fed565b6000610f188383610fd5565b610f4e57508154600181810184556000848152602080822090930184905584548482528286019093526040902091909155610991565b506000610991565b60008282018381101561098e5760405162461bcd60e51b815260040161050190611838565b600061098e836001600160a01b038416610ff1565b81546000908210610fb35760405162461bcd60e51b815260040161050190611667565b826000018281548110610fc257fe5b9060005260206000200154905092915050565b60009081526001919091016020526040902054151590565b5490565b600081815260018301602052604081205480156110cb5783547fffffffffffffffffffffffffffffffffffffffffffffffffffffffffffffffff808301919081019060009087908390811061104257fe5b906000526020600020015490508087600001848154811061105f57fe5b60009182526020808320909101929092558281526001898101909252604090209084019055865487908061108f57fe5b60019003818190600052602060002001600090559055866001016000878152602001908152602001600020600090556001945050505050610991565b6000915050610991565b80356001600160a01b038116811461099157600080fd5b60008083601f8401126110fd578182fd5b50813567ffffffffffffffff811115611114578182fd5b602083019150836020808302850101111561112e57600080fd5b9250929050565b60008083601f840112611146578182fd5b50813567ffffffffffffffff81111561115d578182fd5b60208301915083602082850101111561112e57600080fd5b600060208284031215611186578081fd5b61098e83836110d5565b60008060008060008060a087890312156111a8578182fd5b86356111b381611baa565b955060208701359450604087013567ffffffffffffffff8111156111d5578283fd5b6111e189828a01611135565b979a9699509760608101359660809091013595509350505050565b600080600080600080600060c0888a031215611216578081fd5b61122089896110d5565b965060208801359550604088013567ffffffffffffffff811115611242578182fd5b61124e8a828b01611135565b989b979a50986060810135976080820135975060a09091013595509350505050565b60008060008060008060008060a0898b03121561128b578081fd5b883567ffffffffffffffff808211156112a2578283fd5b6112ae8c838d016110ec565b909a50985060208b01359150808211156112c6578283fd5b6112d28c838d016110ec565b909850965060408b01359150808211156112ea578283fd5b506112f78b828c016110ec565b999c989b509699959896976060870135966080013595509350505050565b600080600080600080600080600060c08a8c031215611332578081fd5b893567ffffffffffffffff80821115611349578283fd5b6113558d838e016110ec565b909b50995060208c013591508082111561136d578283fd5b6113798d838e016110ec565b909950975060408c0135915080821115611391578283fd5b5061139e8c828d016110ec565b9a9d999c50979a969997986060880135976080810135975060a0013595509350505050565b6000602082840312156113d4578081fd5b5035919050565b600080604083850312156113ed578182fd5b8235915060208301356113ff81611baa565b809150509250929050565b6000806040838503121561141c578182fd5b50508035926020909101359150565b818352602080840193600091908185020181018584845b878110156114a95782840389528135601e19883603018112611462578687fd5b8701803567ffffffffffffffff81111561147a578788fd5b803603891315611488578788fd5b61149586828985016114b6565b9a87019a9550505090840190600101611442565b5091979650505050505050565b600082845282826020860137806020848601015260207fffffffffffffffffffffffffffffffffffffffffffffffffffffffffffffffe0601f85011685010190509392505050565b6000828483379101908152919050565b6001600160a01b0391909116815260200190565b60006001600160a01b03861682528460208301526060604083015261154b6060830184866114b6565b9695505050505050565b60006001600160a01b038816825286602083015260a0604083015261157e60a0830186886114b6565b60608301949094525060800152949350505050565b60a0808252810188905260008960c08301825b8b8110156115d65760208084016001600160a01b036115c582876110d5565b1684529350909101906001016115a6565b5083810360208501528881527f07ffffffffffffffffffffffffffffffffffffffffffffffffffffffffffffff89111561160e578283fd5b602089029150818a6020830137016020818101838152848303909101604085015261163a81888a61142b565b6060850196909652505050608001529695505050505050565b901515815260200190565b90815260200190565b60208082526022908201527f456e756d657261626c655365743a20696e646578206f7574206f6620626f756e60408201527f6473000000000000000000000000000000000000000000000000000000000000606082015260800190565b60208082526026908201527f54696d656c6f636b436f6e74726f6c6c65723a206d697373696e67206465706560408201527f6e64656e63790000000000000000000000000000000000000000000000000000606082015260800190565b6020808252602f908201527f416363657373436f6e74726f6c3a2073656e646572206d75737420626520616e60408201527f2061646d696e20746f206772616e740000000000000000000000000000000000606082015260800190565b60208082526023908201527f54696d656c6f636b436f6e74726f6c6c65723a206c656e677468206d69736d6160408201527f7463680000000000000000000000000000000000000000000000000000000000606082015260800190565b6020808252602e908201527f54696d656c6f636b436f6e74726f6c6c65723a2073656e64657220726571756960408201527f726573207065726d697373696f6e000000000000000000000000000000000000606082015260800190565b6020808252601b908201527f536166654d6174683a206164646974696f6e206f766572666c6f770000000000604082015260600190565b60208082526030908201527f416363657373436f6e74726f6c3a2073656e646572206d75737420626520616e60408201527f2061646d696e20746f207265766f6b6500000000000000000000000000000000606082015260800190565b60208082526026908201527f54696d656c6f636b436f6e74726f6c6c65723a20696e73756666696369656e7460408201527f2064656c61790000000000000000000000000000000000000000000000000000606082015260800190565b6020808252602f908201527f54696d656c6f636b436f6e74726f6c6c65723a206f7065726174696f6e20616c60408201527f7265616479207363686564756c65640000000000000000000000000000000000606082015260800190565b6020808252602a908201527f54696d656c6f636b436f6e74726f6c6c65723a206f7065726174696f6e20697360408201527f206e6f7420726561647900000000000000000000000000000000000000000000606082015260800190565b60208082526031908201527f54696d656c6f636b436f6e74726f6c6c65723a206f7065726174696f6e20636160408201527f6e6e6f742062652063616e63656c6c6564000000000000000000000000000000606082015260800190565b6020808252602b908201527f54696d656c6f636b436f6e74726f6c6c65723a2063616c6c6572206d7573742060408201527f62652074696d656c6f636b000000000000000000000000000000000000000000606082015260800190565b6020808252602f908201527f416363657373436f6e74726f6c3a2063616e206f6e6c792072656e6f756e636560408201527f20726f6c657320666f722073656c660000000000000000000000000000000000606082015260800190565b60208082526033908201527f54696d656c6f636b436f6e74726f6c6c65723a20756e6465726c79696e67207460408201527f72616e73616374696f6e20726576657274656400000000000000000000000000606082015260800190565b918252602082015260400190565b6000808335601e19843603018112611b7b578283fd5b83018035915067ffffffffffffffff821115611b95578283fd5b60200191503681900382131561112e57600080fd5b6001600160a01b0381168114610d0a57600080fdfea2646970667358221220f0f209211d5810d73f8a24b1e780722c8ad696de44caf28cc620983f582d02f464736f6c634300060c00335f58e3a2316349923ce3780f8d587db2d72378aed66a8261c916544fa6846ca5b09aa5aeb3702cfd50b6b62bc4532604938f21248a27a1d5ca736082b6819cc1d8aa0f3194971a2a116679f7c2090f6939c8d4e01a2a8d7e41d55e5351469e63",
  "linkReferences": {},
  "deployedLinkReferences": {}
}