{
  "_format": "hh-sol-artifact-1",
  "contractName": "GovernToken",
  "sourceName": "contracts/govern/govern-token/GovernToken.sol",
  "abi": [
    {
      "inputs": [
        {
          "internalType": "address",
          "name": "_initialMinter",
          "type": "address"
        },
        {
          "internalType": "string",
          "name": "_name",
          "type": "string"
        },
        {
          "internalType": "string",
          "name": "_symbol",
          "type": "string"
        },
        {
          "internalType": "uint8",
          "name": "_decimals",
          "type": "uint8"
        }
      ],
      "stateMutability": "nonpayable",
      "type": "constructor"
    },
    {
      "anonymous": false,
      "inputs": [
        {
          "indexed": true,
          "internalType": "address",
          "name": "owner",
          "type": "address"
        },
        {
          "indexed": true,
          "internalType": "address",
          "name": "spender",
          "type": "address"
        },
        {
          "indexed": false,
          "internalType": "uint256",
          "name": "value",
          "type": "uint256"
        }
      ],
      "name": "Approval",
      "type": "event"
    },
    {
      "anonymous": false,
      "inputs": [
        {
          "indexed": true,
          "internalType": "address",
          "name": "authorizer",
          "type": "address"
        },
        {
          "indexed": true,
          "internalType": "bytes32",
          "name": "nonce",
          "type": "bytes32"
        }
      ],
      "name": "AuthorizationUsed",
      "type": "event"
    },
    {
      "anonymous": false,
      "inputs": [
        {
          "indexed": true,
          "internalType": "address",
          "name": "minter",
          "type": "address"
        }
      ],
      "name": "ChangeMinter",
      "type": "event"
    },
    {
      "anonymous": false,
      "inputs": [
        {
          "indexed": true,
          "internalType": "string",
          "name": "key",
          "type": "string"
        }
      ],
      "name": "Initialized",
      "type": "event"
    },
    {
      "anonymous": false,
      "inputs": [
        {
          "indexed": true,
          "internalType": "address",
          "name": "from",
          "type": "address"
        },
        {
          "indexed": true,
          "internalType": "address",
          "name": "to",
          "type": "address"
        },
        {
          "indexed": false,
          "internalType": "uint256",
          "name": "value",
          "type": "uint256"
        }
      ],
      "name": "Transfer",
      "type": "event"
    },
    {
      "inputs": [],
      "name": "PERMIT_TYPEHASH",
      "outputs": [
        {
          "internalType": "bytes32",
          "name": "",
          "type": "bytes32"
        }
      ],
      "stateMutability": "view",
      "type": "function"
    },
    {
      "inputs": [],
      "name": "TRANSFER_WITH_AUTHORIZATION_TYPEHASH",
      "outputs": [
        {
          "internalType": "bytes32",
          "name": "",
          "type": "bytes32"
        }
      ],
      "stateMutability": "view",
      "type": "function"
    },
    {
      "inputs": [
        {
          "internalType": "address",
          "name": "",
          "type": "address"
        },
        {
          "internalType": "address",
          "name": "",
          "type": "address"
        }
      ],
      "name": "allowance",
      "outputs": [
        {
          "internalType": "uint256",
          "name": "",
          "type": "uint256"
        }
      ],
      "stateMutability": "view",
      "type": "function"
    },
    {
      "inputs": [
        {
          "internalType": "address",
          "name": "spender",
          "type": "address"
        },
        {
          "internalType": "uint256",
          "name": "value",
          "type": "uint256"
        }
      ],
      "name": "approve",
      "outputs": [
        {
          "internalType": "bool",
          "name": "",
          "type": "bool"
        }
      ],
      "stateMutability": "nonpayable",
      "type": "function"
    },
    {
      "inputs": [
        {
          "internalType": "address",
          "name": "",
          "type": "address"
        },
        {
          "internalType": "bytes32",
          "name": "",
          "type": "bytes32"
        }
      ],
      "name": "authorizationState",
      "outputs": [
        {
          "internalType": "bool",
          "name": "",
          "type": "bool"
        }
      ],
      "stateMutability": "view",
      "type": "function"
    },
    {
      "inputs": [
        {
          "internalType": "address",
          "name": "",
          "type": "address"
        }
      ],
      "name": "balanceOf",
      "outputs": [
        {
          "internalType": "uint256",
          "name": "",
          "type": "uint256"
        }
      ],
      "stateMutability": "view",
      "type": "function"
    },
    {
      "inputs": [
        {
          "internalType": "uint256",
          "name": "value",
          "type": "uint256"
        }
      ],
      "name": "burn",
      "outputs": [
        {
          "internalType": "bool",
          "name": "",
          "type": "bool"
        }
      ],
      "stateMutability": "nonpayable",
      "type": "function"
    },
    {
      "inputs": [
        {
          "internalType": "address",
          "name": "newMinter",
          "type": "address"
        }
      ],
      "name": "changeMinter",
      "outputs": [],
      "stateMutability": "nonpayable",
      "type": "function"
    },
    {
      "inputs": [],
      "name": "decimals",
      "outputs": [
        {
          "internalType": "uint8",
          "name": "",
          "type": "uint8"
        }
      ],
      "stateMutability": "view",
      "type": "function"
    },
    {
      "inputs": [],
      "name": "getChainId",
      "outputs": [
        {
          "internalType": "uint256",
          "name": "chainId",
          "type": "uint256"
        }
      ],
      "stateMutability": "pure",
      "type": "function"
    },
    {
      "inputs": [],
      "name": "getDomainSeparator",
      "outputs": [
        {
          "internalType": "bytes32",
          "name": "",
          "type": "bytes32"
        }
      ],
      "stateMutability": "view",
      "type": "function"
    },
    {
      "inputs": [
        {
          "internalType": "string",
          "name": "",
          "type": "string"
        }
      ],
      "name": "initBlocks",
      "outputs": [
        {
          "internalType": "uint256",
          "name": "",
          "type": "uint256"
        }
      ],
      "stateMutability": "view",
      "type": "function"
    },
    {
      "inputs": [
        {
          "internalType": "address",
          "name": "_initialMinter",
          "type": "address"
        },
        {
          "internalType": "string",
          "name": "_name",
          "type": "string"
        },
        {
          "internalType": "string",
          "name": "_symbol",
          "type": "string"
        },
        {
          "internalType": "uint8",
          "name": "_decimals",
          "type": "uint8"
        }
      ],
      "name": "initialize",
      "outputs": [],
      "stateMutability": "nonpayable",
      "type": "function"
    },
    {
      "inputs": [
        {
          "internalType": "address",
          "name": "to",
          "type": "address"
        },
        {
          "internalType": "uint256",
          "name": "value",
          "type": "uint256"
        }
      ],
      "name": "mint",
      "outputs": [
        {
          "internalType": "bool",
          "name": "",
          "type": "bool"
        }
      ],
      "stateMutability": "nonpayable",
      "type": "function"
    },
    {
      "inputs": [],
      "name": "minter",
      "outputs": [
        {
          "internalType": "address",
          "name": "",
          "type": "address"
        }
      ],
      "stateMutability": "view",
      "type": "function"
    },
    {
      "inputs": [],
      "name": "name",
      "outputs": [
        {
          "internalType": "string",
          "name": "",
          "type": "string"
        }
      ],
      "stateMutability": "view",
      "type": "function"
    },
    {
      "inputs": [
        {
          "internalType": "address",
          "name": "",
          "type": "address"
        }
      ],
      "name": "nonces",
      "outputs": [
        {
          "internalType": "uint256",
          "name": "",
          "type": "uint256"
        }
      ],
      "stateMutability": "view",
      "type": "function"
    },
    {
      "inputs": [
        {
          "internalType": "address",
          "name": "owner",
          "type": "address"
        },
        {
          "internalType": "address",
          "name": "spender",
          "type": "address"
        },
        {
          "internalType": "uint256",
          "name": "value",
          "type": "uint256"
        },
        {
          "internalType": "uint256",
          "name": "deadline",
          "type": "uint256"
        },
        {
          "internalType": "uint8",
          "name": "v",
          "type": "uint8"
        },
        {
          "internalType": "bytes32",
          "name": "r",
          "type": "bytes32"
        },
        {
          "internalType": "bytes32",
          "name": "s",
          "type": "bytes32"
        }
      ],
      "name": "permit",
      "outputs": [],
      "stateMutability": "nonpayable",
      "type": "function"
    },
    {
      "inputs": [],
      "name": "symbol",
      "outputs": [
        {
          "internalType": "string",
          "name": "",
          "type": "string"
        }
      ],
      "stateMutability": "view",
      "type": "function"
    },
    {
      "inputs": [],
      "name": "totalSupply",
      "outputs": [
        {
          "internalType": "uint256",
          "name": "",
          "type": "uint256"
        }
      ],
      "stateMutability": "view",
      "type": "function"
    },
    {
      "inputs": [
        {
          "internalType": "address",
          "name": "to",
          "type": "address"
        },
        {
          "internalType": "uint256",
          "name": "value",
          "type": "uint256"
        }
      ],
      "name": "transfer",
      "outputs": [
        {
          "internalType": "bool",
          "name": "",
          "type": "bool"
        }
      ],
      "stateMutability": "nonpayable",
      "type": "function"
    },
    {
      "inputs": [
        {
          "internalType": "address",
          "name": "from",
          "type": "address"
        },
        {
          "internalType": "address",
          "name": "to",
          "type": "address"
        },
        {
          "internalType": "uint256",
          "name": "value",
          "type": "uint256"
        }
      ],
      "name": "transferFrom",
      "outputs": [
        {
          "internalType": "bool",
          "name": "",
          "type": "bool"
        }
      ],
      "stateMutability": "nonpayable",
      "type": "function"
    },
    {
      "inputs": [
        {
          "internalType": "address",
          "name": "from",
          "type": "address"
        },
        {
          "internalType": "address",
          "name": "to",
          "type": "address"
        },
        {
          "internalType": "uint256",
          "name": "value",
          "type": "uint256"
        },
        {
          "internalType": "uint256",
          "name": "validAfter",
          "type": "uint256"
        },
        {
          "internalType": "uint256",
          "name": "validBefore",
          "type": "uint256"
        },
        {
          "internalType": "bytes32",
          "name": "nonce",
          "type": "bytes32"
        },
        {
          "internalType": "uint8",
          "name": "v",
          "type": "uint8"
        },
        {
          "internalType": "bytes32",
          "name": "r",
          "type": "bytes32"
        },
        {
          "internalType": "bytes32",
          "name": "s",
          "type": "bytes32"
        }
      ],
      "name": "transferWithAuthorization",
      "outputs": [],
      "stateMutability": "nonpayable",
      "type": "function"
    }
  ],
  "bytecode": "0x60806040523480156200001157600080fd5b5060405162001b8d38038062001b8d833981810160405260808110156200003757600080fd5b8151602083018051604051929492938301929190846401000000008211156200005f57600080fd5b9083019060208201858111156200007557600080fd5b82516401000000008111828201881017156200009057600080fd5b82525081516020918201929091019080838360005b83811015620000bf578181015183820152602001620000a5565b50505050905090810190601f168015620000ed5780820380516001836020036101000a031916815260200191505b50604052602001805160405193929190846401000000008211156200011157600080fd5b9083019060208201858111156200012757600080fd5b82516401000000008111828201881017156200014257600080fd5b82525081516020918201929091019080838360005b838110156200017157818101518382015260200162000157565b50505050905090810190601f1680156200019f5780820380516001836020036101000a031916815260200191505b50604052602001519150620001c29050848484846001600160e01b03620001cc16565b50505050620004be565b604051806040016040528060058152602001643a37b5b2b760d91b8152506000816040518082805190602001908083835b602083106200021e5780518252601f199092019160209182019101620001fd565b51815160209384036101000a60001901801990921691161790529201948552506040519384900301909220541591506200028c90505760405162461bcd60e51b815260040180806020018281038252602281526020018062001b6b6022913960400191505060405180910390fd5b436000826040518082805190602001908083835b60208310620002c15780518252601f199092019160209182019101620002a0565b51815160209384036101000a600019018019909216911617905292019485525060405193849003019092209290925550620002fe905085620003c7565b83516200031390600190602087019062000419565b5082516200032990600290602086019062000419565b506003805460ff191660ff84161790556040518151829190819060208401908083835b602083106200036d5780518252601f1990920191602091820191016200034c565b5181516020939093036101000a60001901801990911692169190911790526040519201829003822093507f7bc2a48a4a566e237a12186f19d985b0f76afc9d5290601edac19876253670c292506000919050a25050505050565b60038054610100600160a81b0319166101006001600160a01b038416908102919091179091556040517fc87aeafc6e4ae6202adf4f08a76769119ae93cc129c0e0cbac08a118bc18e1ce90600090a250565b828054600181600116156101000203166002900490600052602060002090601f016020900481019282601f106200045c57805160ff19168380011785556200048c565b828001600101855582156200048c579182015b828111156200048c5782518255916020019190600101906200046f565b506200049a9291506200049e565b5090565b620004bb91905b808211156200049a5760008155600101620004a5565b90565b61169d80620004ce6000396000f3fe608060405234801561001057600080fd5b506004361061018d5760003560e01c806370a08231116100e3578063d505accf1161008c578063e94a010211610066578063e94a01021461056e578063ed24911d1461059a578063f6d2ee86146105a25761018d565b8063d505accf14610490578063dd62ed3e146104e1578063e3ee160e1461050f5761018d565b8063a0cc6a68116100bd578063a0cc6a68146103b6578063a9059cbb146103be578063cc1d4cab146103ea5761018d565b806370a08231146103625780637ecebe001461038857806395d89b41146103ae5761018d565b80632c4d4d18116101455780633408e4701161011f5780633408e4701461031157806340c10f191461031957806342966c68146103455761018d565b80632c4d4d18146102c357806330adf81f146102eb578063313ce567146102f35761018d565b8063095ea7b311610176578063095ea7b31461023357806318160ddd1461027357806323b872dd1461028d5761018d565b806306fdde0314610192578063075461721461020f575b600080fd5b61019a6106e4565b6040805160208082528351818301528351919283929083019185019080838360005b838110156101d45781810151838201526020016101bc565b50505050905090810190601f1680156102015780820380516001836020036101000a031916815260200191505b509250505060405180910390f35b610217610771565b604080516001600160a01b039092168252519081900360200190f35b61025f6004803603604081101561024957600080fd5b506001600160a01b038135169060200135610785565b604080519115158252519081900360200190f35b61027b61079b565b60408051918252519081900360200190f35b61025f600480360360608110156102a357600080fd5b506001600160a01b038135811691602081013590911690604001356107a1565b6102e9600480360360208110156102d957600080fd5b50356001600160a01b0316610819565b005b61027b610889565b6102fb6108ad565b6040805160ff9092168252519081900360200190f35b61027b6108b6565b61025f6004803603604081101561032f57600080fd5b506001600160a01b0381351690602001356108ba565b61025f6004803603602081101561035b57600080fd5b503561092b565b61027b6004803603602081101561037857600080fd5b50356001600160a01b031661093f565b61027b6004803603602081101561039e57600080fd5b50356001600160a01b0316610951565b61019a610963565b61027b6109bb565b61025f600480360360408110156103d457600080fd5b506001600160a01b0381351690602001356109df565b61027b6004803603602081101561040057600080fd5b81019060208101813564010000000081111561041b57600080fd5b82018360208201111561042d57600080fd5b8035906020019184600183028401116401000000008311171561044f57600080fd5b91908080601f0160208091040260200160405190810160405280939291908181526020018383808284376000920191909152509295506109ec945050505050565b6102e9600480360360e08110156104a657600080fd5b506001600160a01b03813581169160208101359091169060408101359060608101359060ff6080820135169060a08101359060c00135610a09565b61027b600480360360408110156104f757600080fd5b506001600160a01b0381358116916020013516610b09565b6102e9600480360361012081101561052657600080fd5b506001600160a01b03813581169160208101359091169060408101359060608101359060808101359060a08101359060ff60c0820135169060e0810135906101000135610b26565b61025f6004803603604081101561058457600080fd5b506001600160a01b038135169060200135610d3a565b61027b610d5a565b6102e9600480360360808110156105b857600080fd5b6001600160a01b0382351691908101906040810160208201356401000000008111156105e357600080fd5b8201836020820111156105f557600080fd5b8035906020019184600183028401116401000000008311171561061757600080fd5b91908080601f016020809104026020016040519081016040528093929190818152602001838380828437600092019190915250929594936020810193503591505064010000000081111561066a57600080fd5b82018360208201111561067c57600080fd5b8035906020019184600183028401116401000000008311171561069e57600080fd5b91908080601f0160208091040260200160405190810160405280939291908181526020018383808284376000920191909152509295505050903560ff169150610e6e9050565b60018054604080516020600284861615610100026000190190941693909304601f810184900484028201840190925281815292918301828280156107695780601f1061073e57610100808354040283529160200191610769565b820191906000526020600020905b81548152906001019060200180831161074c57829003601f168201915b505050505081565b60035461010090046001600160a01b031681565b6000610792338484611073565b50600192915050565b60045481565b6001600160a01b03831660009081526006602090815260408083203384529091528120546000198114610803576107de818463ffffffff6110d516565b6001600160a01b03861660009081526006602090815260408083203384529091529020555b61080e858585611132565b506001949350505050565b60035461010090046001600160a01b0316331461087d576040805162461bcd60e51b815260206004820152601160248201527f746f6b656e3a206e6f74206d696e746572000000000000000000000000000000604482015290519081900360640190fd5b6108868161125e565b50565b7f6e71edae12b1b97f4d1f60370fef10105fa2faae0126114a169c64845d6126c981565b60035460ff1681565b4690565b60035460009061010090046001600160a01b03163314610921576040805162461bcd60e51b815260206004820152601160248201527f746f6b656e3a206e6f74206d696e746572000000000000000000000000000000604482015290519081900360640190fd5b61079283836112c7565b6000610937338361135e565b506001919050565b60056020526000908152604090205481565b60076020526000908152604090205481565b6002805460408051602060018416156101000260001901909316849004601f810184900484028201840190925281815292918301828280156107695780601f1061073e57610100808354040283529160200191610769565b7f7c7c6cdb67a18743f49ec6fa9b35f50d52ed05cbed4cc592e13b44501c1a226781565b6000610792338484611132565b805160208183018101805160008252928201919093012091525481565b42841015610a5e576040805162461bcd60e51b815260206004820152601360248201527f746f6b656e3a2061757468206578706972656400000000000000000000000000604482015290519081900360640190fd5b6001600160a01b0380881660008181526007602090815260409182902080546001810190915582517f6e71edae12b1b97f4d1f60370fef10105fa2faae0126114a169c64845d6126c98184015280840194909452938a1660608401526080830189905260a083019390935260c08083018890528151808403909101815260e090920190528051910120610af488828686866113fb565b610aff888888611073565b5050505050505050565b600660209081526000928352604080842090915290825290205481565b854211610b7a576040805162461bcd60e51b815260206004820152601060248201527f746f6b656e3a2061757468207761697400000000000000000000000000000000604482015290519081900360640190fd5b844210610bce576040805162461bcd60e51b815260206004820152601360248201527f746f6b656e3a2061757468206578706972656400000000000000000000000000604482015290519081900360640190fd5b6001600160a01b038916600090815260086020908152604080832087845290915290205460ff1615610c47576040805162461bcd60e51b815260206004820152601060248201527f746f6b656e3a2061757468207573656400000000000000000000000000000000604482015290519081900360640190fd5b604080517f7c7c6cdb67a18743f49ec6fa9b35f50d52ed05cbed4cc592e13b44501c1a22676020808301919091526001600160a01b03808d16838501528b166060830152608082018a905260a0820189905260c0820188905260e0808301889052835180840390910181526101009092019092528051910120610ccd8a828686866113fb565b6001600160a01b038a166000818152600860209081526040808320898452909152808220805460ff19166001179055518792917f98de503528ee59b575ef0c0a2576a82497bfc029a5685b209e9ec333479b10a591a3610d2e8a8a8a611132565b50505050505050505050565b600860209081526000928352604080842090915290825290205460ff1681565b60007f8b73c3c69bb8fe3d512ecc4cf759cc79239f7b179b0ffacaa9a75d522b39400f60001b60016040516020018082805460018160011615610100020316600290048015610de05780601f10610dbe576101008083540402835291820191610de0565b820191906000526020600020905b815481529060010190602001808311610dcc575b5050915050604051602081830303815290604052805190602001207fc89efdaa54c0f20c7adf612882df0950f5a951637e0307cdcb4c672f298b8bc660001b610e276108b6565b6040805160208082019690965280820194909452606084019290925260808301523060a0808401919091528151808403909101815260c09092019052805191012090505b90565b6040518060400160405280600581526020017f746f6b656e0000000000000000000000000000000000000000000000000000008152506000816040518082805190602001908083835b60208310610ed65780518252601f199092019160209182019101610eb7565b51815160209384036101000a6000190180199092169116179052920194855250604051938490030190922054159150610f4290505760405162461bcd60e51b81526004018080602001828103825260228152602001806116466022913960400191505060405180910390fd5b436000826040518082805190602001908083835b60208310610f755780518252601f199092019160209182019101610f56565b51815160209384036101000a600019018019909216911617905292019485525060405193849003019092209290925550610fb090508561125e565b8351610fc39060019060208701906115ad565b508251610fd79060029060208601906115ad565b506003805460ff191660ff84161790556040518151829190819060208401908083835b602083106110195780518252601f199092019160209182019101610ffa565b5181516020939093036101000a60001901801990911692169190911790526040519201829003822093507f7bc2a48a4a566e237a12186f19d985b0f76afc9d5290601edac19876253670c292506000919050a25050505050565b6001600160a01b03808416600081815260066020908152604080832094871680845294825291829020859055815185815291517f8c5be1e5ebec7d5bd14f71427d1e84f3dd0314c0f7b2291e5b200ac8c7c3b9259281900390910190a3505050565b60008282111561112c576040805162461bcd60e51b815260206004820152601e60248201527f536166654d6174683a207375627472616374696f6e206f766572666c6f770000604482015290519081900360640190fd5b50900390565b6001600160a01b038216301480159061115357506001600160a01b03821615155b6111a4576040805162461bcd60e51b815260206004820152600d60248201527f746f6b656e3a2062616420746f00000000000000000000000000000000000000604482015290519081900360640190fd5b6001600160a01b0383166000908152600560205260409020546111cd908263ffffffff6110d516565b6001600160a01b038085166000908152600560205260408082209390935590841681522054611202908263ffffffff61154c16565b6001600160a01b0380841660008181526005602090815260409182902094909455805185815290519193928716927fddf252ad1be2c89b69c2b068fc378daa952ba7f163c4a11628f55a4df523b3ef92918290030190a3505050565b600380547fffffffffffffffffffffff0000000000000000000000000000000000000000ff166101006001600160a01b038416908102919091179091556040517fc87aeafc6e4ae6202adf4f08a76769119ae93cc129c0e0cbac08a118bc18e1ce90600090a250565b6004546112da908263ffffffff61154c16565b6004556001600160a01b038216600090815260056020526040902054611306908263ffffffff61154c16565b6001600160a01b03831660008181526005602090815260408083209490945583518581529351929391927fddf252ad1be2c89b69c2b068fc378daa952ba7f163c4a11628f55a4df523b3ef9281900390910190a35050565b6001600160a01b038216600090815260056020526040902054611387908263ffffffff6110d516565b6001600160a01b0383166000908152600560205260409020556004546113b3908263ffffffff6110d516565b6004556040805182815290516000916001600160a01b038516917fddf252ad1be2c89b69c2b068fc378daa952ba7f163c4a11628f55a4df523b3ef9181900360200190a35050565b6000611405610d5a565b8560405160200180807f190100000000000000000000000000000000000000000000000000000000000081525060020183815260200182815260200192505050604051602081830303815290604052805190602001209050600060018286868660405160008152602001604052604051808581526020018460ff1660ff1681526020018381526020018281526020019450505050506020604051602081039080840390855afa1580156114bc573d6000803e3d6000fd5b5050604051601f1901519150506001600160a01b038116158015906114f25750866001600160a01b0316816001600160a01b0316145b611543576040805162461bcd60e51b815260206004820152600e60248201527f746f6b656e3a2062616420736967000000000000000000000000000000000000604482015290519081900360640190fd5b50505050505050565b6000828201838110156115a6576040805162461bcd60e51b815260206004820152601b60248201527f536166654d6174683a206164646974696f6e206f766572666c6f770000000000604482015290519081900360640190fd5b9392505050565b828054600181600116156101000203166002900490600052602060002090601f016020900481019282601f106115ee57805160ff191683800117855561161b565b8280016001018555821561161b579182015b8281111561161b578251825591602001919060010190611600565b5061162792915061162b565b5090565b610e6b91905b80821115611627576000815560010161163156fe696e697469616c697a61626c653a20616c726561647920696e697469616c697a6564a2646970667358221220c347f59ce57c2afaf9f4935c087a5562bf54095ef98ae89758b1c835886caf0564736f6c63430006080033696e697469616c697a61626c653a20616c726561647920696e697469616c697a6564",
  "linkReferences": {},
  "deployedLinkReferences": {}
}