{
  "_format": "hh-sol-artifact-1",
  "contractName": "GovernMinter",
  "sourceName": "contracts/govern/govern-token/GovernMinter.sol",
  "abi": [
    {
      "inputs": [
        {
          "internalType": "contract GovernToken",
          "name": "_token",
          "type": "address"
        },
        {
          "internalType": "address",
          "name": "_initialMinter",
          "type": "address"
        },
        {
          "internalType": "contract MerkleDistributor",
          "name": "_distributorBase",
          "type": "address"
        }
      ],
      "stateMutability": "nonpayable",
      "type": "constructor"
    },
    {
      "anonymous": false,
      "inputs": [
        {
          "indexed": true,
          "internalType": "bytes4",
          "name": "role",
          "type": "bytes4"
        },
        {
          "indexed": true,
          "internalType": "address",
          "name": "actor",
          "type": "address"
        }
      ],
      "name": "Frozen",
      "type": "event"
    },
    {
      "anonymous": false,
      "inputs": [
        {
          "indexed": true,
          "internalType": "bytes4",
          "name": "role",
          "type": "bytes4"
        },
        {
          "indexed": true,
          "internalType": "address",
          "name": "actor",
          "type": "address"
        },
        {
          "indexed": true,
          "internalType": "address",
          "name": "who",
          "type": "address"
        },
        {
          "indexed": false,
          "internalType": "contract IACLOracle",
          "name": "oracle",
          "type": "address"
        }
      ],
      "name": "Granted",
      "type": "event"
    },
    {
      "anonymous": false,
      "inputs": [
        {
          "indexed": true,
          "internalType": "string",
          "name": "key",
          "type": "string"
        }
      ],
      "name": "Initialized",
      "type": "event"
    },
    {
      "anonymous": false,
      "inputs": [
        {
          "indexed": true,
          "internalType": "address",
          "name": "distributor",
          "type": "address"
        },
        {
          "indexed": true,
          "internalType": "bytes32",
          "name": "merkleRoot",
          "type": "bytes32"
        },
        {
          "indexed": false,
          "internalType": "uint256",
          "name": "totalAmount",
          "type": "uint256"
        },
        {
          "indexed": false,
          "internalType": "bytes",
          "name": "tree",
          "type": "bytes"
        },
        {
          "indexed": false,
          "internalType": "bytes",
          "name": "context",
          "type": "bytes"
        }
      ],
      "name": "MintedMerkle",
      "type": "event"
    },
    {
      "anonymous": false,
      "inputs": [
        {
          "indexed": true,
          "internalType": "address",
          "name": "to",
          "type": "address"
        },
        {
          "indexed": false,
          "internalType": "uint256",
          "name": "amount",
          "type": "uint256"
        },
        {
          "indexed": false,
          "internalType": "bytes",
          "name": "context",
          "type": "bytes"
        }
      ],
      "name": "MintedSingle",
      "type": "event"
    },
    {
      "anonymous": false,
      "inputs": [
        {
          "indexed": true,
          "internalType": "bytes4",
          "name": "role",
          "type": "bytes4"
        },
        {
          "indexed": true,
          "internalType": "address",
          "name": "actor",
          "type": "address"
        },
        {
          "indexed": true,
          "internalType": "address",
          "name": "who",
          "type": "address"
        }
      ],
      "name": "Revoked",
      "type": "event"
    },
    {
      "inputs": [],
      "name": "ROOT_ROLE",
      "outputs": [
        {
          "internalType": "bytes4",
          "name": "",
          "type": "bytes4"
        }
      ],
      "stateMutability": "view",
      "type": "function"
    },
    {
      "inputs": [
        {
          "components": [
            {
              "internalType": "enum ACLData.BulkOp",
              "name": "op",
              "type": "uint8"
            },
            {
              "internalType": "bytes4",
              "name": "role",
              "type": "bytes4"
            },
            {
              "internalType": "address",
              "name": "who",
              "type": "address"
            }
          ],
          "internalType": "struct ACLData.BulkItem[]",
          "name": "items",
          "type": "tuple[]"
        }
      ],
      "name": "bulk",
      "outputs": [],
      "stateMutability": "nonpayable",
      "type": "function"
    },
    {
      "inputs": [],
      "name": "distributorBase",
      "outputs": [
        {
          "internalType": "address",
          "name": "",
          "type": "address"
        }
      ],
      "stateMutability": "view",
      "type": "function"
    },
    {
      "inputs": [
        {
          "internalType": "address",
          "name": "_newMinter",
          "type": "address"
        }
      ],
      "name": "eject",
      "outputs": [],
      "stateMutability": "nonpayable",
      "type": "function"
    },
    {
      "inputs": [
        {
          "internalType": "bytes4",
          "name": "_role",
          "type": "bytes4"
        }
      ],
      "name": "freeze",
      "outputs": [],
      "stateMutability": "nonpayable",
      "type": "function"
    },
    {
      "inputs": [
        {
          "internalType": "bytes4",
          "name": "_role",
          "type": "bytes4"
        },
        {
          "internalType": "address",
          "name": "_who",
          "type": "address"
        }
      ],
      "name": "grant",
      "outputs": [],
      "stateMutability": "nonpayable",
      "type": "function"
    },
    {
      "inputs": [
        {
          "internalType": "bytes4",
          "name": "_role",
          "type": "bytes4"
        },
        {
          "internalType": "address",
          "name": "_who",
          "type": "address"
        },
        {
          "internalType": "contract IACLOracle",
          "name": "_oracle",
          "type": "address"
        }
      ],
      "name": "grantWithOracle",
      "outputs": [],
      "stateMutability": "nonpayable",
      "type": "function"
    },
    {
      "inputs": [
        {
          "internalType": "string",
          "name": "",
          "type": "string"
        }
      ],
      "name": "initBlocks",
      "outputs": [
        {
          "internalType": "uint256",
          "name": "",
          "type": "uint256"
        }
      ],
      "stateMutability": "view",
      "type": "function"
    },
    {
      "inputs": [
        {
          "internalType": "contract GovernToken",
          "name": "_token",
          "type": "address"
        },
        {
          "internalType": "address",
          "name": "_initialMinter",
          "type": "address"
        },
        {
          "internalType": "contract MerkleDistributor",
          "name": "_distributorBase",
          "type": "address"
        }
      ],
      "name": "initialize",
      "outputs": [],
      "stateMutability": "nonpayable",
      "type": "function"
    },
    {
      "inputs": [
        {
          "internalType": "bytes4",
          "name": "_role",
          "type": "bytes4"
        }
      ],
      "name": "isFrozen",
      "outputs": [
        {
          "internalType": "bool",
          "name": "",
          "type": "bool"
        }
      ],
      "stateMutability": "view",
      "type": "function"
    },
    {
      "inputs": [
        {
          "internalType": "bytes32",
          "name": "_merkleRoot",
          "type": "bytes32"
        },
        {
          "internalType": "uint256",
          "name": "_totalAmount",
          "type": "uint256"
        },
        {
          "internalType": "bytes",
          "name": "_tree",
          "type": "bytes"
        },
        {
          "internalType": "bytes",
          "name": "_context",
          "type": "bytes"
        }
      ],
      "name": "merkleMint",
      "outputs": [
        {
          "internalType": "contract MerkleDistributor",
          "name": "distributor",
          "type": "address"
        }
      ],
      "stateMutability": "nonpayable",
      "type": "function"
    },
    {
      "inputs": [
        {
          "internalType": "address",
          "name": "_to",
          "type": "address"
        },
        {
          "internalType": "uint256",
          "name": "_amount",
          "type": "uint256"
        },
        {
          "internalType": "bytes",
          "name": "_context",
          "type": "bytes"
        }
      ],
      "name": "mint",
      "outputs": [],
      "stateMutability": "nonpayable",
      "type": "function"
    },
    {
      "inputs": [
        {
          "internalType": "bytes4",
          "name": "_role",
          "type": "bytes4"
        },
        {
          "internalType": "address",
          "name": "_who",
          "type": "address"
        }
      ],
      "name": "revoke",
      "outputs": [],
      "stateMutability": "nonpayable",
      "type": "function"
    },
    {
      "inputs": [
        {
          "internalType": "bytes4",
          "name": "",
          "type": "bytes4"
        },
        {
          "internalType": "address",
          "name": "",
          "type": "address"
        }
      ],
      "name": "roles",
      "outputs": [
        {
          "internalType": "address",
          "name": "",
          "type": "address"
        }
      ],
      "stateMutability": "view",
      "type": "function"
    },
    {
      "inputs": [],
      "name": "token",
      "outputs": [
        {
          "internalType": "contract GovernToken",
          "name": "",
          "type": "address"
        }
      ],
      "stateMutability": "view",
      "type": "function"
    },
    {
      "inputs": [
        {
          "internalType": "bytes4",
          "name": "_role",
          "type": "bytes4"
        },
        {
          "internalType": "address",
          "name": "_sender",
          "type": "address"
        },
        {
          "internalType": "bytes",
          "name": "_data",
          "type": "bytes"
        }
      ],
      "name": "willPerform",
      "outputs": [
        {
          "internalType": "bool",
          "name": "",
          "type": "bool"
        }
      ],
      "stateMutability": "nonpayable",
      "type": "function"
    }
  ],
  "bytecode": "0x60806040523480156200001157600080fd5b506040516200201b3803806200201b8339810160408190526200003491620003e9565b81806000604051620000469062000478565b90815260200160405180910390205460001415620000725762000072816001600160e01b036200009416565b506200008b90508383836001600160e01b036200016e16565b50505062000544565b604051806040016040528060038152602001621858db60ea1b815250600081604051620000c291906200043c565b908152602001604051809103902054600014620000fc5760405162461bcd60e51b8152600401620000f390620004c0565b60405180910390fd5b436000826040516200010f91906200043c565b908152604051908190036020019020556200013b63161b7d8160e21b836001600160e01b03620002b216565b806040516200014b91906200043c565b6040519081900381209060008051602062001ffb83398151915290600090a25050565b8160006040516200017f9062000478565b90815260200160405180910390205460001415620001ab57620001ab816001600160e01b036200009416565b6040518060400160405280600681526020016536b4b73a32b960d11b815250600081604051620001dc91906200043c565b9081526020016040518091039020546000146200020d5760405162461bcd60e51b8152600401620000f390620004c0565b436000826040516200022091906200043c565b90815260405190819003602001902055600280546001600160a01b038088166001600160a01b03199283161790925560038054928616929091169190911790556200027c63472eb0df60e01b856001600160e01b03620002b216565b806040516200028c91906200043c565b6040519081900381209060008051602062001ffb83398151915290600090a25050505050565b620002c9828260026001600160e01b03620002cd16565b5050565b620002e1836001600160e01b03620003b716565b15620003015760405162461bcd60e51b8152600401620000f3906200049b565b6001600160a01b038216600114156200032e5760405162461bcd60e51b8152600401620000f39062000502565b6001600160e01b0319831660008181526001602090815260408083206001600160a01b03878116808652919093529281902080546001600160a01b0319169286169290921790915551909133917fc62063b81f7036fd97a0dc546516e99f11004d2d76ca0fddd3866346c86e709190620003aa90869062000487565b60405180910390a4505050565b6001600160e01b0319166000908152600160208181526040808420838552909152909120546001600160a01b03161490565b600080600060608486031215620003fe578283fd5b83516200040b816200052b565b60208501519093506200041e816200052b565b604085015190925062000431816200052b565b809150509250925092565b60008251815b818110156200045e576020818601810151858301520162000442565b818111156200046d5782828501525b509190910192915050565b621858db60ea1b815260030190565b6001600160a01b0391909116815260200190565b6020808252600b908201526a30b1b61d10333937bd32b760a91b604082015260600190565b60208082526022908201527f696e697469616c697a61626c653a20616c726561647920696e697469616c697a604082015261195960f21b606082015260800190565b6020808252600f908201526e61636c3a2062616420667265657a6560881b604082015260600190565b6001600160a01b03811681146200054157600080fd5b50565b611aa780620005546000396000f3fe608060405234801561001057600080fd5b50600436106101005760003560e01c8063a157a10d11610097578063cc1d4cab11610066578063cc1d4cab14610210578063d3feb83014610230578063ec8528f914610243578063fc0c546a1461024b57610100565b8063a157a10d146101c4578063a2157227146101d7578063bdf9a726146101ea578063c0c53b8b146101fd57610100565b80637e8c7f08116100d35780637e8c7f0814610169578063901d13e21461017e57806394d008ef1461019157806396fc8abd146101a457610100565b8063097c8108146101055780631c47671b1461012e578063495a9825146101435780635884973414610156575b600080fd5b610118610113366004611590565b610253565b60405161012591906117d2565b60405180910390f35b61014161013c3660046113ec565b610457565b005b61011861015136600461153c565b61057e565b610141610164366004611558565b6105b4565b610171610624565b60405161012591906117dd565b61014161018c366004611376565b61062f565b61014161019f366004611392565b610714565b6101b76101b2366004611558565b61087d565b60405161012591906117a5565b6101416101d2366004611558565b6108a3565b6101416101e53660046115f0565b610913565b6101416101f836600461153c565b61098a565b61014161020b36600461163a565b6109fd565b61022361021e366004611659565b610b6d565b6040516101259190611970565b6101b761023e3660046114bc565b610b8a565b6101b7610d98565b6101b7610da7565b6001600160e01b0319831660009081526001602090815260408083203384529091528120546001600160a01b0316801561034d576001600160a01b038116600214156102a3576001915050610450565b6040517f097c81080000000000000000000000000000000000000000000000000000000081526001600160a01b0382169063097c8108906102ec908890889088906004016117f2565b602060405180830381600087803b15801561030657600080fd5b505af115801561031a573d6000803e3d6000fd5b505050506040513d601f19601f8201168201806040525081019061033e919061149c565b1561034d576001915050610450565b6001600160e01b0319851660009081526001602090815260408083206001600160a01b03808552925290912054168015610449576001600160a01b0381166002141561039e57600192505050610450565b6040517f097c81080000000000000000000000000000000000000000000000000000000081526001600160a01b0382169063097c8108906103e7908990899089906004016117f2565b602060405180830381600087803b15801561040157600080fd5b505af1158015610415573d6000803e3d6000fd5b505050506040513d601f19601f82011682018060405250810190610439919061149c565b1561044957600192505050610450565b6000925050505b9392505050565b60408051602036601f810182900482028301820190935282825263161b7d8160e21b926104a192849233926000918190840183828082843760009201919091525061025392505050565b6104c65760405162461bcd60e51b81526004016104bd90611837565b60405180910390fd5b60005b8251811015610579576104da611260565b8382815181106104e657fe5b60200260200101519050600060028111156104fd57fe5b8151600281111561050a57fe5b14156105275761052281602001518260400151610db6565b610570565b60018151600281111561053657fe5b141561054e5761052281602001518260400151610dc2565b60028151600281111561055d57fe5b1415610570576105708160200151610e60565b506001016104c9565b505050565b6001600160e01b031981166000908152600160208181526040808420838552909152909120546001600160a01b0316145b919050565b60408051602036601f810182900482028301820190935282825263161b7d8160e21b926105fe92849233926000918190840183828082843760009201919091525061025392505050565b61061a5760405162461bcd60e51b81526004016104bd90611837565b6105798383610dc2565b63161b7d8160e21b81565b63901d13e260e01b61067981336000368080601f01602080910402602001604051908101604052809392919081815260200183838082843760009201919091525061025392505050565b6106955760405162461bcd60e51b81526004016104bd90611837565b6002546040517f2c4d4d180000000000000000000000000000000000000000000000000000000081526001600160a01b0390911690632c4d4d18906106de9085906004016117a5565b600060405180830381600087803b1580156106f857600080fd5b505af115801561070c573d6000803e3d6000fd5b505050505050565b60408051602036601f81018290048202830182019093528282527f472eb0df000000000000000000000000000000000000000000000000000000009261077792849233926000918190840183828082843760009201919091525061025392505050565b6107935760405162461bcd60e51b81526004016104bd90611837565b6002546040517f40c10f190000000000000000000000000000000000000000000000000000000081526001600160a01b03909116906340c10f19906107de90889088906004016117b9565b602060405180830381600087803b1580156107f857600080fd5b505af115801561080c573d6000803e3d6000fd5b505050506040513d601f19601f82011682018060405250810190610830919061149c565b50846001600160a01b03167ff8e46b9f2ac39b0277e905f82e86502779203bea0700bf987d3707e11636a39d85858560405161086e93929190611979565b60405180910390a25050505050565b60016020908152600092835260408084209091529082529020546001600160a01b031681565b60408051602036601f810182900482028301820190935282825263161b7d8160e21b926108ed92849233926000918190840183828082843760009201919091525061025392505050565b6109095760405162461bcd60e51b81526004016104bd90611837565b6105798383610db6565b60408051602036601f810182900482028301820190935282825263161b7d8160e21b9261095d92849233926000918190840183828082843760009201919091525061025392505050565b6109795760405162461bcd60e51b81526004016104bd90611837565b610984848484610ef4565b50505050565b60408051602036601f810182900482028301820190935282825263161b7d8160e21b926109d492849233926000918190840183828082843760009201919091525061025392505050565b6109f05760405162461bcd60e51b81526004016104bd90611837565b6109f982610e60565b5050565b816000604051610a0c9061177c565b90815260200160405180910390205460001415610a2c57610a2c81610fd8565b6040518060400160405280600681526020017f6d696e7465720000000000000000000000000000000000000000000000000000815250600081604051610a729190611760565b908152602001604051809103902054600014610aa05760405162461bcd60e51b81526004016104bd906118a5565b43600082604051610ab19190611760565b90815260405190819003602001902055600280546001600160a01b0380881673ffffffffffffffffffffffffffffffffffffffff19928316179092556003805492861692909116919091179055610b287f472eb0df0000000000000000000000000000000000000000000000000000000085610db6565b80604051610b369190611760565b604051908190038120907f7bc2a48a4a566e237a12186f19d985b0f76afc9d5290601edac19876253670c290600090a25050505050565b805160208183018101805160008252928201919093012091525481565b600063d3feb83060e01b6394d008ef60e01b18610bdf81336000368080601f01602080910402602001604051908101604052809392919081815260200183838082843760009201919091525061025392505050565b610bfb5760405162461bcd60e51b81526004016104bd90611837565b600254604051600091610ca3917fbe13f47c0000000000000000000000000000000000000000000000000000000091610c44916001600160a01b03909116908d906024016117b9565b60408051601f198184030181529190526020810180517bffffffffffffffffffffffffffffffffffffffffffffffffffffffff166001600160e01b0319909316929092179091526003546001600160a01b03169063ffffffff6110c016565b6002546040517f40c10f190000000000000000000000000000000000000000000000000000000081529192506001600160a01b0316906340c10f1990610cef9084908c906004016117b9565b602060405180830381600087803b158015610d0957600080fd5b505af1158015610d1d573d6000803e3d6000fd5b505050506040513d601f19601f82011682018060405250810190610d41919061149c565b5088816001600160a01b03167ff5eb12d9e3fbc57fd00a7246b6bb142b1c5f6e7cdd9f9f17efd5c2163440e0f48a8a8a8a8a604051610d84959493929190611993565b60405180910390a398975050505050505050565b6003546001600160a01b031681565b6002546001600160a01b031681565b6109f982826002610ef4565b610dcb8261057e565b15610de85760405162461bcd60e51b81526004016104bd9061186e565b6001600160e01b0319821660008181526001602090815260408083206001600160a01b0386168085529252808320805473ffffffffffffffffffffffffffffffffffffffff19169055519092339290917f682f2c466c1e9f6883eb72cbced01373e1cb18b05ae5c8bc04dc73d73e29f8cd9190a45050565b610e698161057e565b15610e865760405162461bcd60e51b81526004016104bd9061186e565b6001600160e01b031981166000818152600160208181526040808420838552909152808320805473ffffffffffffffffffffffffffffffffffffffff1916909217909155513392917f049c6b8b07a879425742523fa80f8ffb25e39ad518c93a5896a0df19518397e591a350565b610efd8361057e565b15610f1a5760405162461bcd60e51b81526004016104bd9061186e565b6001600160a01b03821660011415610f445760405162461bcd60e51b81526004016104bd90611902565b6001600160e01b0319831660008181526001602090815260408083206001600160a01b038781168086529190935292819020805473ffffffffffffffffffffffffffffffffffffffff19169286169290921790915551909133917fc62063b81f7036fd97a0dc546516e99f11004d2d76ca0fddd3866346c86e709190610fcb9086906117a5565b60405180910390a4505050565b6040518060400160405280600381526020017f61636c000000000000000000000000000000000000000000000000000000000081525060008160405161101e9190611760565b90815260200160405180910390205460001461104c5760405162461bcd60e51b81526004016104bd906118a5565b4360008260405161105d9190611760565b9081526040519081900360200190205561107e63161b7d8160e21b83610db6565b8060405161108c9190611760565b604051908190038120907f7bc2a48a4a566e237a12186f19d985b0f76afc9d5290601edac19876253670c290600090a25050565b60006110cb83611161565b905060006060826001600160a01b0316846040516110e99190611760565b6000604051808303816000865af19150503d8060008114611126576040519150601f19603f3d011682016040523d82523d6000602084013e61112b565b606091505b50915091508161113a826111a7565b906111585760405162461bcd60e51b81526004016104bd9190611824565b50505092915050565b6000606061116e836111e8565b90506037602082016000f091506001600160a01b0382166111a15760405162461bcd60e51b81526004016104bd90611939565b50919050565b60606044825110156111c857506040805160208101909152600081526105af565b600482019150818060200190518101906111e29190611694565b92915050565b604080516037808252606082810190935260208201818036833750507f3d602d80600a3d3981f3363d3d373d3d3d363d7300000000000000000000000060208301525060609290921b6034830152507f5af43d82803e903d91602b57fd5bf30000000000000000000000000000000000604882015290565b6040805160608101909152806000815260006020820181905260409091015290565b60008083601f840112611293578182fd5b50813567ffffffffffffffff8111156112aa578182fd5b6020830191508360208285010111156112c257600080fd5b9250929050565b600082601f8301126112d9578081fd5b81356112ec6112e7826119f3565b6119cc565b915080825283602082850101111561130357600080fd5b8060208401602084013760009082016020015292915050565b60006060828403121561132d578081fd5b61133760606119cc565b905081356003811061134857600080fd5b8152602082013561135881611a5b565b6020820152604082013561136b81611a43565b604082015292915050565b600060208284031215611387578081fd5b813561045081611a43565b600080600080606085870312156113a7578283fd5b84356113b281611a43565b935060208501359250604085013567ffffffffffffffff8111156113d4578283fd5b6113e087828801611282565b95989497509550505050565b600060208083850312156113fe578182fd5b823567ffffffffffffffff80821115611415578384fd5b81850186601f820112611426578485fd5b8035925081831115611436578485fd5b61144384858502016119cc565b83815284810192508185016060808602840187018a1015611462578788fd5b8793505b8584101561148e576114788a8361131c565b8552938601936001939093019290810190611466565b509098975050505050505050565b6000602082840312156114ad578081fd5b81518015158114610450578182fd5b600080600080600080608087890312156114d4578182fd5b8635955060208701359450604087013567ffffffffffffffff808211156114f9578384fd5b6115058a838b01611282565b9096509450606089013591508082111561151d578384fd5b5061152a89828a01611282565b979a9699509497509295939492505050565b60006020828403121561154d578081fd5b813561045081611a5b565b6000806040838503121561156a578182fd5b823561157581611a5b565b9150602083013561158581611a43565b809150509250929050565b6000806000606084860312156115a4578283fd5b83356115af81611a5b565b925060208401356115bf81611a43565b9150604084013567ffffffffffffffff8111156115da578182fd5b6115e6868287016112c9565b9150509250925092565b600080600060608486031215611604578081fd5b833561160f81611a5b565b9250602084013561161f81611a43565b9150604084013561162f81611a43565b809150509250925092565b60008060006060848603121561164e578081fd5b833561160f81611a43565b60006020828403121561166a578081fd5b813567ffffffffffffffff811115611680578182fd5b61168c848285016112c9565b949350505050565b6000602082840312156116a5578081fd5b815167ffffffffffffffff8111156116bb578182fd5b80830184601f8201126116cc578283fd5b805191506116dc6112e7836119f3565b8281528560208484010111156116f0578384fd5b611701836020830160208501611a17565b95945050505050565b60008284528282602086013780602084860101526020601f19601f85011685010190509392505050565b6000815180845261174c816020860160208601611a17565b601f01601f19169290920160200192915050565b60008251611772818460208701611a17565b9190910192915050565b7f61636c0000000000000000000000000000000000000000000000000000000000815260030190565b6001600160a01b0391909116815260200190565b6001600160a01b03929092168252602082015260400190565b901515815260200190565b6001600160e01b031991909116815260200190565b60006001600160e01b0319851682526001600160a01b0384166020830152606060408301526117016060830184611734565b6000602082526104506020830184611734565b60208082526009908201527f61636c3a20617574680000000000000000000000000000000000000000000000604082015260600190565b6020808252600b908201527f61636c3a2066726f7a656e000000000000000000000000000000000000000000604082015260600190565b60208082526022908201527f696e697469616c697a61626c653a20616c726561647920696e697469616c697a60408201527f6564000000000000000000000000000000000000000000000000000000000000606082015260800190565b6020808252600f908201527f61636c3a2062616420667265657a650000000000000000000000000000000000604082015260600190565b60208082526019908201527f70726f78792d666163746f72793a206261642063726561746500000000000000604082015260600190565b90815260200190565b60008482526040602083015261170160408301848661170a565b6000868252606060208301526119ad60608301868861170a565b82810360408401526119c081858761170a565b98975050505050505050565b60405181810167ffffffffffffffff811182821017156119eb57600080fd5b604052919050565b600067ffffffffffffffff821115611a09578081fd5b50601f01601f191660200190565b60005b83811015611a32578181015183820152602001611a1a565b838111156109845750506000910152565b6001600160a01b0381168114611a5857600080fd5b50565b6001600160e01b031981168114611a5857600080fdfea2646970667358221220abd2818399b7b7bfd2a06d4697c20cc6e27a25a5f27df3b42f9bc910ec616cd164736f6c634300060800337bc2a48a4a566e237a12186f19d985b0f76afc9d5290601edac19876253670c2",
  "linkReferences": {},
  "deployedLinkReferences": {}
}