{
  "_format": "hh-sol-artifact-1",
  "contractName": "GovernBaseFactory",
  "sourceName": "contracts/govern/GovernBaseFactory.sol",
  "abi": [
    {
      "inputs": [
        {
          "internalType": "contract GovernRegistry",
          "name": "_registry",
          "type": "address"
        },
        {
          "internalType": "contract GovernFactory",
          "name": "_governFactory",
          "type": "address"
        },
        {
          "internalType": "contract GovernQueueFactory",
          "name": "_queueFactory",
          "type": "address"
        },
        {
          "internalType": "contract GovernTokenFactory",
          "name": "_tokenFactory",
          "type": "address"
        }
      ],
      "stateMutability": "nonpayable",
      "type": "constructor"
    },
    {
      "inputs": [],
      "name": "governFactory",
      "outputs": [
        {
          "internalType": "contract GovernFactory",
          "name": "",
          "type": "address"
        }
      ],
      "stateMutability": "view",
      "type": "function"
    },
    {
      "inputs": [
        {
          "internalType": "string",
          "name": "_name",
          "type": "string"
        },
        {
          "internalType": "contract IERC20",
          "name": "_token",
          "type": "address"
        },
        {
          "internalType": "string",
          "name": "_tokenName",
          "type": "string"
        },
        {
          "internalType": "string",
          "name": "_tokenSymbol",
          "type": "string"
        },
        {
          "internalType": "bool",
          "name": "_useProxies",
          "type": "bool"
        }
      ],
      "name": "newGovernWithoutConfig",
      "outputs": [
        {
          "internalType": "contract Govern",
          "name": "govern",
          "type": "address"
        },
        {
          "internalType": "contract GovernQueue",
          "name": "queue",
          "type": "address"
        }
      ],
      "stateMutability": "nonpayable",
      "type": "function"
    },
    {
      "inputs": [],
      "name": "queueFactory",
      "outputs": [
        {
          "internalType": "contract GovernQueueFactory",
          "name": "",
          "type": "address"
        }
      ],
      "stateMutability": "view",
      "type": "function"
    },
    {
      "inputs": [],
      "name": "registry",
      "outputs": [
        {
          "internalType": "contract GovernRegistry",
          "name": "",
          "type": "address"
        }
      ],
      "stateMutability": "view",
      "type": "function"
    },
    {
      "inputs": [],
      "name": "tokenFactory",
      "outputs": [
        {
          "internalType": "contract GovernTokenFactory",
          "name": "",
          "type": "address"
        }
      ],
      "stateMutability": "view",
      "type": "function"
    }
  ],
  "bytecode": "0x608060405234801561001057600080fd5b50604051610de2380380610de283398101604081905261002f91610083565b600080546001600160a01b03199081166001600160a01b03958616179091556001805482169385169390931790925560028054831691841691909117905560038054909116929091169190911790556100f9565b60008060008060808587031215610098578384fd5b84516100a3816100e1565b60208601519094506100b4816100e1565b60408601519093506100c5816100e1565b60608601519092506100d6816100e1565b939692955090935050565b6001600160a01b03811681146100f657600080fd5b50565b610cda806101086000396000f3fe608060405234801561001057600080fd5b50600436106100675760003560e01c8063894095161161005057806389409516146100925780639fd39b7d1461009a578063e77772fe146100bb57610067565b80636ca4110e1461006c5780637b1039991461008a575b600080fd5b6100746100c3565b6040516100819190610b57565b60405180910390f35b6100746100d2565b6100746100e1565b6100ad6100a836600461091e565b6100f0565b604051610081929190610b84565b610074610761565b6001546001600160a01b031681565b6003546001600160a01b031681565b6000546001600160a01b031681565b60008060008361010157600061012b565b8a8a604051602001610114929190610a22565b604051602081830303815290604052805190602001205b6001549091506001600160a01b031663a0b19f4a30610148610770565b846040518463ffffffff1660e01b815260040161016793929190610a32565b602060405180830381600087803b15801561018157600080fd5b505af1158015610195573d6000803e3d6000fd5b505050506040513d601f19601f820116820180604052508101906101b991906108c9565b6000546040517fad921bf40000000000000000000000000000000000000000000000000000000081529193506001600160a01b03169063ad921bf4906102059085908590600401610b6b565b602060405180830381600087803b15801561021f57600080fd5b505af1158015610233573d6000803e3d6000fd5b505050506040513d601f19601f8201168201806040525081019061025791906108c9565b92506001600160a01b03891661031e576002546040517f20a820200000000000000000000000000000000000000000000000000000000081526001600160a01b03909116906320a82020906102c99086908c908c908c908c906012903390670de0b6b3a7640000908f90600401610bed565b6040805180830381600087803b1580156102e257600080fd5b505af11580156102f6573d6000803e3d6000fd5b505050506040513d601f19601f8201168201806040525081019061031a91906108e5565b5098505b600360009054906101000a90046001600160a01b03166001600160a01b0316630b90502884848c8f8f6040518663ffffffff1660e01b8152600401610367959493929190610b9e565b600060405180830381600087803b15801561038157600080fd5b505af1158015610395573d6000803e3d6000fd5b505060408051600680825260e08201909252606093509150816020015b6103ba6107c7565b8152602001906001900390816103b257905050604080516060810190915290915080600081527f977d89640000000000000000000000000000000000000000000000000000000060208201526001600160a01b036040909101528151829060009061042157fe5b6020908102919091010152604080516060810190915280600081527f3a139c710000000000000000000000000000000000000000000000000000000060208201526001600160a01b0360409091015281518290600190811061047f57fe5b6020908102919091010152604080516060810190915280600081527f705761580000000000000000000000000000000000000000000000000000000060208201526001600160a01b036040909101528151829060029081106104dd57fe5b6020908102919091010152604080516060810190915280600081527f728967610000000000000000000000000000000000000000000000000000000060208201526001600160a01b03861660409091015281518290600390811061053d57fe5b602090810291909101015260408051606081019091528060018152602001846001600160a01b0316637e8c7f086040518163ffffffff1660e01b815260040160206040518083038186803b15801561059457600080fd5b505afa1580156105a8573d6000803e3d6000fd5b505050506040513d601f19601f820116820180604052508101906105cc9190610882565b7fffffffff000000000000000000000000000000000000000000000000000000001681523060209091015281518290600490811061060657fe5b602090810291909101015260408051606081019091528060028152602001846001600160a01b0316637e8c7f086040518163ffffffff1660e01b815260040160206040518083038186803b15801561065d57600080fd5b505afa158015610671573d6000803e3d6000fd5b505050506040513d601f19601f820116820180604052508101906106959190610882565b7fffffffff0000000000000000000000000000000000000000000000000000000016815260006020909101528151829060059081106106d057fe5b60209081029190910101526040517f1c47671b0000000000000000000000000000000000000000000000000000000081526001600160a01b03841690631c47671b90610720908490600401610ac9565b600060405180830381600087803b15801561073a57600080fd5b505af115801561074e573d6000803e3d6000fd5b5050505050509850989650505050505050565b6002546001600160a01b031681565b6107786107e9565b610780610824565b6040518060a001604052806000815260200182815260200182815260200160006001600160a01b031681526020016040518060200160405280600081525081525091505090565b6040805160608101909152806000815260006020820181905260409091015290565b6040518060a0016040528060008152602001610803610824565b8152602001610810610824565b815260006020820152606060409091015290565b604080518082019091526000808252602082015290565b60008083601f84011261084c578182fd5b50813567ffffffffffffffff811115610863578182fd5b60208301915083602082850101111561087b57600080fd5b9250929050565b600060208284031215610893578081fd5b81517fffffffff00000000000000000000000000000000000000000000000000000000811681146108c2578182fd5b9392505050565b6000602082840312156108da578081fd5b81516108c281610c8c565b600080604083850312156108f7578081fd5b825161090281610c8c565b602084015190925061091381610c8c565b809150509250929050565b60008060008060008060008060a0898b031215610939578384fd5b883567ffffffffffffffff80821115610950578586fd5b61095c8c838d0161083b565b909a50985060208b0135915061097182610c8c565b90965060408a01359080821115610986578586fd5b6109928c838d0161083b565b909750955060608b01359150808211156109aa578485fd5b506109b78b828c0161083b565b909450925050608089013580151581146109cf578182fd5b809150509295985092959890939650565b60008284528282602086013780602084860101526020601f19601f85011685010190509392505050565b80516001600160a01b03168252602090810151910152565b6000828483379101908152919050565b60006001600160a01b03808616835260606020840152845160608401526020850151610a616080850182610a0a565b506040850151610a7460c0850182610a0a565b50606085015116610100830152608084015160e06101208401528051610a9e816101408601610c53565b610aac828260208601610c5c565b601f19601f83011681019350505050826040830152949350505050565b602080825282518282018190526000919060409081850190868401855b82811015610b4a578151805160038110610afc57fe5b8552808701517fffffffff0000000000000000000000000000000000000000000000000000000016878601528501516001600160a01b03168585015260609093019290850190600101610ae6565b5091979650505050505050565b6001600160a01b0391909116815260200190565b6001600160a01b03929092168252602082015260400190565b6001600160a01b0392831681529116602082015260400190565b60006001600160a01b038088168352808716602084015280861660408401525060a06060830152610bd360a0830184866109e0565b828103608090930192909252815260200195945050505050565b60006001600160a01b03808c16835260e06020840152610c1160e084018b8d6109e0565b8381036040850152610c24818a8c6109e0565b60ff9890981660608501525094909416608082015260a0810192909252151560c0909101525095945050505050565b90815260200190565b60005b83811015610c77578181015183820152602001610c5f565b83811115610c86576000848401525b50505050565b6001600160a01b0381168114610ca157600080fd5b5056fea26469706673582212209008fe13e73c2c076aa27f6b589461058b93c13b68b6a19ba30025af12aee92f64736f6c63430006080033",
  "linkReferences": {},
  "deployedLinkReferences": {}
}