{
  "_format": "hh-sol-artifact-1",
  "contractName": "Processes",
  "sourceName": "contracts/vocdoni/processes.sol",
  "abi": [
    {
      "inputs": [
        {
          "internalType": "address",
          "name": "predecessor",
          "type": "address"
        },
        {
          "internalType": "address",
          "name": "namespace",
          "type": "address"
        },
        {
          "internalType": "address",
          "name": "resultsAddr",
          "type": "address"
        },
        {
          "internalType": "address",
          "name": "tokenStorageProof",
          "type": "address"
        },
        {
          "internalType": "uint32",
          "name": "ethereumChainId",
          "type": "uint32"
        },
        {
          "internalType": "uint256",
          "name": "procPrice",
          "type": "uint256"
        }
      ],
      "stateMutability": "nonpayable",
      "type": "constructor"
    },
    {
      "anonymous": false,
      "inputs": [
        {
          "indexed": false,
          "internalType": "uint256",
          "name": "blockNumber",
          "type": "uint256"
        }
      ],
      "name": "Activated",
      "type": "event"
    },
    {
      "anonymous": false,
      "inputs": [
        {
          "indexed": false,
          "internalType": "uint256",
          "name": "blockNumber",
          "type": "uint256"
        },
        {
          "indexed": false,
          "internalType": "address",
          "name": "successor",
          "type": "address"
        }
      ],
      "name": "ActivatedSuccessor",
      "type": "event"
    },
    {
      "anonymous": false,
      "inputs": [
        {
          "indexed": false,
          "internalType": "bytes32",
          "name": "processId",
          "type": "bytes32"
        },
        {
          "indexed": false,
          "internalType": "uint32",
          "name": "namespace",
          "type": "uint32"
        }
      ],
      "name": "CensusUpdated",
      "type": "event"
    },
    {
      "anonymous": false,
      "inputs": [
        {
          "indexed": false,
          "internalType": "bytes32",
          "name": "processId",
          "type": "bytes32"
        },
        {
          "indexed": false,
          "internalType": "uint32",
          "name": "namespace",
          "type": "uint32"
        }
      ],
      "name": "NewProcess",
      "type": "event"
    },
    {
      "anonymous": false,
      "inputs": [
        {
          "indexed": false,
          "internalType": "uint256",
          "name": "processPrice",
          "type": "uint256"
        }
      ],
      "name": "ProcessPriceUpdated",
      "type": "event"
    },
    {
      "anonymous": false,
      "inputs": [
        {
          "indexed": false,
          "internalType": "bytes32",
          "name": "processId",
          "type": "bytes32"
        },
        {
          "indexed": false,
          "internalType": "uint32",
          "name": "namespace",
          "type": "uint32"
        },
        {
          "indexed": false,
          "internalType": "uint8",
          "name": "newIndex",
          "type": "uint8"
        }
      ],
      "name": "QuestionIndexUpdated",
      "type": "event"
    },
    {
      "anonymous": false,
      "inputs": [
        {
          "indexed": false,
          "internalType": "bytes32",
          "name": "processId",
          "type": "bytes32"
        },
        {
          "indexed": false,
          "internalType": "uint32",
          "name": "namespace",
          "type": "uint32"
        },
        {
          "indexed": false,
          "internalType": "enum IProcessStore.Status",
          "name": "status",
          "type": "uint8"
        }
      ],
      "name": "StatusUpdated",
      "type": "event"
    },
    {
      "anonymous": false,
      "inputs": [
        {
          "indexed": false,
          "internalType": "address",
          "name": "to",
          "type": "address"
        },
        {
          "indexed": false,
          "internalType": "uint256",
          "name": "amount",
          "type": "uint256"
        }
      ],
      "name": "Withdraw",
      "type": "event"
    },
    {
      "inputs": [],
      "name": "activate",
      "outputs": [],
      "stateMutability": "nonpayable",
      "type": "function"
    },
    {
      "inputs": [
        {
          "internalType": "address",
          "name": "successor",
          "type": "address"
        }
      ],
      "name": "activateSuccessor",
      "outputs": [],
      "stateMutability": "nonpayable",
      "type": "function"
    },
    {
      "inputs": [],
      "name": "activationBlock",
      "outputs": [
        {
          "internalType": "uint256",
          "name": "",
          "type": "uint256"
        }
      ],
      "stateMutability": "view",
      "type": "function"
    },
    {
      "inputs": [],
      "name": "ethChainId",
      "outputs": [
        {
          "internalType": "uint32",
          "name": "",
          "type": "uint32"
        }
      ],
      "stateMutability": "view",
      "type": "function"
    },
    {
      "inputs": [
        {
          "internalType": "bytes32",
          "name": "processId",
          "type": "bytes32"
        }
      ],
      "name": "get",
      "outputs": [
        {
          "internalType": "uint8[3]",
          "name": "mode_envelopeType_censusOrigin",
          "type": "uint8[3]"
        },
        {
          "internalType": "address",
          "name": "entityAddress",
          "type": "address"
        },
        {
          "internalType": "string[3]",
          "name": "metadata_censusRoot_censusUri",
          "type": "string[3]"
        },
        {
          "internalType": "uint32[2]",
          "name": "startBlock_blockCount",
          "type": "uint32[2]"
        },
        {
          "internalType": "enum IProcessStore.Status",
          "name": "status",
          "type": "uint8"
        },
        {
          "internalType": "uint8[5]",
          "name": "questionIndex_questionCount_maxCount_maxValue_maxVoteOverwrites",
          "type": "uint8[5]"
        },
        {
          "internalType": "uint16[2]",
          "name": "maxTotalCost_costExponent",
          "type": "uint16[2]"
        },
        {
          "internalType": "uint256",
          "name": "evmBlockHeight",
          "type": "uint256"
        }
      ],
      "stateMutability": "view",
      "type": "function"
    },
    {
      "inputs": [
        {
          "internalType": "bytes32",
          "name": "processId",
          "type": "bytes32"
        }
      ],
      "name": "getCreationInstance",
      "outputs": [
        {
          "internalType": "address",
          "name": "",
          "type": "address"
        }
      ],
      "stateMutability": "view",
      "type": "function"
    },
    {
      "inputs": [
        {
          "internalType": "address",
          "name": "entityAddress",
          "type": "address"
        }
      ],
      "name": "getEntityProcessCount",
      "outputs": [
        {
          "internalType": "uint256",
          "name": "",
          "type": "uint256"
        }
      ],
      "stateMutability": "view",
      "type": "function"
    },
    {
      "inputs": [
        {
          "internalType": "address",
          "name": "entityAddress",
          "type": "address"
        }
      ],
      "name": "getNextProcessId",
      "outputs": [
        {
          "internalType": "bytes32",
          "name": "",
          "type": "bytes32"
        }
      ],
      "stateMutability": "view",
      "type": "function"
    },
    {
      "inputs": [
        {
          "internalType": "bytes32",
          "name": "processId",
          "type": "bytes32"
        }
      ],
      "name": "getParamsSignature",
      "outputs": [
        {
          "internalType": "bytes32",
          "name": "",
          "type": "bytes32"
        }
      ],
      "stateMutability": "view",
      "type": "function"
    },
    {
      "inputs": [
        {
          "internalType": "address",
          "name": "entityAddress",
          "type": "address"
        },
        {
          "internalType": "uint256",
          "name": "processCountIndex",
          "type": "uint256"
        },
        {
          "internalType": "uint32",
          "name": "namespaceIdNum",
          "type": "uint32"
        },
        {
          "internalType": "uint32",
          "name": "ethereumChainId",
          "type": "uint32"
        }
      ],
      "name": "getProcessId",
      "outputs": [
        {
          "internalType": "bytes32",
          "name": "",
          "type": "bytes32"
        }
      ],
      "stateMutability": "pure",
      "type": "function"
    },
    {
      "inputs": [
        {
          "internalType": "bytes32",
          "name": "processId",
          "type": "bytes32"
        }
      ],
      "name": "incrementQuestionIndex",
      "outputs": [],
      "stateMutability": "nonpayable",
      "type": "function"
    },
    {
      "inputs": [],
      "name": "namespaceAddress",
      "outputs": [
        {
          "internalType": "address",
          "name": "",
          "type": "address"
        }
      ],
      "stateMutability": "view",
      "type": "function"
    },
    {
      "inputs": [],
      "name": "namespaceId",
      "outputs": [
        {
          "internalType": "uint32",
          "name": "",
          "type": "uint32"
        }
      ],
      "stateMutability": "view",
      "type": "function"
    },
    {
      "inputs": [
        {
          "internalType": "uint8[3]",
          "name": "mode_envelopeType_censusOrigin",
          "type": "uint8[3]"
        },
        {
          "internalType": "address",
          "name": "tokenContractAddress",
          "type": "address"
        },
        {
          "internalType": "string[3]",
          "name": "metadata_censusRoot_censusUri",
          "type": "string[3]"
        },
        {
          "internalType": "uint32[2]",
          "name": "startBlock_blockCount",
          "type": "uint32[2]"
        },
        {
          "internalType": "uint8[4]",
          "name": "questionCount_maxCount_maxValue_maxVoteOverwrites",
          "type": "uint8[4]"
        },
        {
          "internalType": "uint16[2]",
          "name": "maxTotalCost_costExponent",
          "type": "uint16[2]"
        },
        {
          "internalType": "uint256",
          "name": "evmBlockHeight",
          "type": "uint256"
        },
        {
          "internalType": "bytes32",
          "name": "paramsSignature",
          "type": "bytes32"
        }
      ],
      "name": "newProcess",
      "outputs": [],
      "stateMutability": "payable",
      "type": "function"
    },
    {
      "inputs": [],
      "name": "predecessorAddress",
      "outputs": [
        {
          "internalType": "address",
          "name": "",
          "type": "address"
        }
      ],
      "stateMutability": "view",
      "type": "function"
    },
    {
      "inputs": [],
      "name": "processPrice",
      "outputs": [
        {
          "internalType": "uint256",
          "name": "",
          "type": "uint256"
        }
      ],
      "stateMutability": "view",
      "type": "function"
    },
    {
      "inputs": [],
      "name": "resultsAddress",
      "outputs": [
        {
          "internalType": "address",
          "name": "",
          "type": "address"
        }
      ],
      "stateMutability": "view",
      "type": "function"
    },
    {
      "inputs": [
        {
          "internalType": "bytes32",
          "name": "processId",
          "type": "bytes32"
        },
        {
          "internalType": "string",
          "name": "censusRoot",
          "type": "string"
        },
        {
          "internalType": "string",
          "name": "censusUri",
          "type": "string"
        }
      ],
      "name": "setCensus",
      "outputs": [],
      "stateMutability": "nonpayable",
      "type": "function"
    },
    {
      "inputs": [
        {
          "internalType": "uint256",
          "name": "newPrice",
          "type": "uint256"
        }
      ],
      "name": "setProcessPrice",
      "outputs": [],
      "stateMutability": "nonpayable",
      "type": "function"
    },
    {
      "inputs": [
        {
          "internalType": "bytes32",
          "name": "processId",
          "type": "bytes32"
        },
        {
          "internalType": "enum IProcessStore.Status",
          "name": "newStatus",
          "type": "uint8"
        }
      ],
      "name": "setStatus",
      "outputs": [],
      "stateMutability": "nonpayable",
      "type": "function"
    },
    {
      "inputs": [],
      "name": "successorAddress",
      "outputs": [
        {
          "internalType": "address",
          "name": "",
          "type": "address"
        }
      ],
      "stateMutability": "view",
      "type": "function"
    },
    {
      "inputs": [],
      "name": "tokenStorageProofAddress",
      "outputs": [
        {
          "internalType": "address",
          "name": "",
          "type": "address"
        }
      ],
      "stateMutability": "view",
      "type": "function"
    },
    {
      "inputs": [
        {
          "internalType": "address payable",
          "name": "to",
          "type": "address"
        },
        {
          "internalType": "uint256",
          "name": "amount",
          "type": "uint256"
        }
      ],
      "name": "withdraw",
      "outputs": [],
      "stateMutability": "nonpayable",
      "type": "function"
    }
  ],
  "bytecode": "0x60806040523480156200001157600080fd5b50604051620043223803806200432283398101604081905262000034916200037d565b60008054336001600160a01b03199091161790556200005f866200020b602090811b620019c417901c565b62000075856200032160201b62001ad31760201c565b6200009d5760405162461bcd60e51b815260040162000094906200041e565b60405180910390fd5b620000b3846200032160201b62001ad31760201c565b620000d25760405162461bcd60e51b81526004016200009490620004ab565b620000e8836200032160201b62001ad31760201c565b620001075760405162461bcd60e51b8152600401620000949062000528565b846001600160a01b0316631aa3a0086040518163ffffffff1660e01b8152600401602060405180830381600087803b1580156200014357600080fd5b505af115801562000158573d6000803e3d6000fd5b505050506040513d601f19601f820116820180604052508101906200017e9190620003f9565b60048054600580546001600160a01b03199081166001600160a01b03998a1617909155600680549091169688169690961790955563ffffffff60201b1990941664010000000063ffffffff9283160217600160401b600160e01b0319166801000000000000000096909516959095029390931763ffffffff19169316929092179091556007555062000596565b6000546001600160a01b03163314620002385760405162461bcd60e51b8152600401620000949062000449565b6001546001600160a01b031615620002645760405162461bcd60e51b815260040162000094906200055f565b60035415620002875760405162461bcd60e51b81526004016200009490620004fd565b6001600160a01b0381161562000319576001600160a01b038116301415620002c35760405162461bcd60e51b81526004016200009490620004d4565b620002d9816200032160201b62001ad31760201c565b620002f85760405162461bcd60e51b8152600401620000949062000474565b600180546001600160a01b0319166001600160a01b0383161790556200031e565b436003555b50565b6000806001600160a01b0383166200033e57600091505062000345565b5050803b15155b919050565b80516001600160a01b03811681146200036257600080fd5b92915050565b805163ffffffff811681146200036257600080fd5b60008060008060008060c0878903121562000396578182fd5b620003a288886200034a565b9550620003b388602089016200034a565b9450620003c488604089016200034a565b9350620003d588606089016200034a565b9250620003e6886080890162000368565b915060a087015190509295509295509295565b6000602082840312156200040b578081fd5b62000417838362000368565b9392505050565b602080825260119082015270496e76616c6964206e616d65737061636560781b604082015260600190565b60208082526011908201527037b7363ca1b7b73a3930b1ba27bbb732b960791b604082015260600190565b60208082526013908201527f496e76616c6964207072656465636573736f7200000000000000000000000000604082015260600190565b6020808252600f908201526e496e76616c696420726573756c747360881b604082015260600190565b6020808252600f908201526e21b0b713ba1031329034ba39b2b63360891b604082015260600190565b602080825260119082015270105b1c9958591e481858dd1a5d985d1959607a1b604082015260600190565b60208082526019908201527f496e76616c696420746f6b656e53746f7261676550726f6f6600000000000000604082015260600190565b60208082526019908201527f416c7265616479206861732061207072656465636573736f7200000000000000604082015260600190565b613d7c80620005a66000396000f3fe6080604052600436106101805760003560e01c806374da4adb116100d6578063c876091f1161007f578063f2bcb15e11610059578063f2bcb15e146103db578063f3fef3a3146103fb578063f630cd631461041b57610180565b8063c876091f14610393578063cab7f4f6146103a8578063ec4696ca146103c857610180565b80638de654ba116100b05780638de654ba1461031f5780638eaa6ac01461033f578063ac17d1f41461037357610180565b806374da4adb146102ca57806380faa3d2146102ea57806381c0de75146102ff57610180565b8063317daac5116101385780634332787211610112578063433278721461027557806368141f2c146102955780636ca886f2146102b557610180565b8063317daac51461021e57806334a2cdbc1461023e57806334e088d61461025357610180565b80631795010d116101695780631795010d146101c75780631d88c05b146101e7578063270cd753146101fc57610180565b806308ffce24146101855780630f15f4c0146101b0575b600080fd5b34801561019157600080fd5b5061019a610430565b6040516101a79190613018565b60405180910390f35b3480156101bc57600080fd5b506101c561043f565b005b3480156101d357600080fd5b506101c56101e2366004612e58565b6104d0565b3480156101f357600080fd5b5061019a61078b565b34801561020857600080fd5b5061021161079a565b6040516101a791906130e1565b34801561022a57600080fd5b50610211610239366004612df9565b6107a0565b34801561024a57600080fd5b5061019a6108a7565b34801561025f57600080fd5b506102686108c2565b6040516101a79190613c44565b34801561028157600080fd5b5061019a610290366004612df9565b6108d6565b3480156102a157600080fd5b506102116102b0366004612b2a565b6109c3565b3480156102c157600080fd5b5061019a6109fa565b3480156102d657600080fd5b506101c56102e5366004612df9565b610a09565b3480156102f657600080fd5b50610211610ca9565b34801561030b57600080fd5b506101c561031a366004612b2a565b610caf565b34801561032b57600080fd5b506101c561033a366004612e29565b610e3b565b34801561034b57600080fd5b5061035f61035a366004612df9565b61120e565b6040516101a7989796959493929190613045565b34801561037f57600080fd5b5061021161038e366004612b8d565b61164d565b34801561039f57600080fd5b5061019a611686565b3480156103b457600080fd5b506101c56103c3366004612df9565b611695565b6101c56103d6366004612bdf565b61170f565b3480156103e757600080fd5b506102116103f6366004612b2a565b61181a565b34801561040757600080fd5b506101c5610416366004612b62565b6118d7565b34801561042757600080fd5b506102686119b8565b6001546001600160a01b031681565b6001546001600160a01b031633146104725760405162461bcd60e51b815260040161046990613223565b60405180910390fd5b600354156104925760405162461bcd60e51b815260040161046990613871565b4360038190556040517f3ec796be1be7d03bff3a62b9fa594a60e947c1809bced06d929f145308ae57ce916104c6916130e1565b60405180910390a1565b60006003541180156104eb57506002546001600160a01b0316155b6105075760405162461bcd60e51b8152600401610469906136a4565b60008251116105285760405162461bcd60e51b8152600401610469906136db565b60008151116105495760405162461bcd60e51b8152600401610469906139e1565b600083815260096020526040902054630100000090046001600160a01b03166105ac576001546001600160a01b03166105945760405162461bcd60e51b8152600401610469906132c8565b60405162461bcd60e51b8152600401610469906138a8565b600083815260096020526040902054630100000090046001600160a01b031633146105e95760405162461bcd60e51b815260040161046990613412565b600083815260096020526040812060049081015460ff169081111561060a57fe5b148061063657506003600084815260096020526040902060049081015460ff169081111561063457fe5b145b6106525760405162461bcd60e51b815260040161046990613638565b6000838152600960205260409020546004166106805760405162461bcd60e51b8152600401610469906138df565b60008381526009602052604090205462010000900460ff16600181600f8111156106a657fe5b14806106bd5750600281600f8111156106bb57fe5b145b806106d35750600381600f8111156106d157fe5b145b6106ef5760405162461bcd60e51b815260040161046990613af4565b6000848152600960209081526040909120845161071492600290920191860190612696565b506000848152600960209081526040909120835161073a92600390920191850190612696565b506004546040517fb290b721dc95d65b8ca629743f4f2e385523708862c8237aa6601dd9a99c238e9161077d918791640100000000900463ffffffff16906130ea565b60405180910390a150505050565b6002546001600160a01b031681565b60075481565b600081815260096020526040812054630100000090046001600160a01b031661088e576001546001600160a01b03166107eb5760405162461bcd60e51b8152600401610469906132c8565b6001546040517f317daac50000000000000000000000000000000000000000000000000000000081526001600160a01b0390911690819063317daac5906108369086906004016130e1565b60206040518083038186803b15801561084e57600080fd5b505afa158015610862573d6000803e3d6000fd5b505050506040513d601f19601f820116820180604052508101906108869190612e11565b9150506108a2565b506000818152600960205260409020600601545b919050565b6004546801000000000000000090046001600160a01b031681565b600454640100000000900463ffffffff1681565b600081815260096020526040812054630100000090046001600160a01b03166109bc576001546001600160a01b03166109215760405162461bcd60e51b8152600401610469906132c8565b6001546040517f433278720000000000000000000000000000000000000000000000000000000081526001600160a01b0390911690819063433278729061096c9086906004016130e1565b60206040518083038186803b15801561098457600080fd5b505afa158015610998573d6000803e3d6000fd5b505050506040513d601f19601f820116820180604052508101906108869190612b46565b5030919050565b6000806109cf8361181a565b6004549091506109f3908490839063ffffffff64010000000082048116911661164d565b9392505050565b6005546001600160a01b031681565b600081815260096020526040902054630100000090046001600160a01b0316610a54576001546001600160a01b03166105945760405162461bcd60e51b8152600401610469906132c8565b600081815260096020526040902054630100000090046001600160a01b03163314610a915760405162461bcd60e51b815260040161046990613412565b600081815260096020526040812060049081015460ff1690811115610ab257fe5b14610acf5760405162461bcd60e51b815260040161046990613a18565b6000818152600960205260409020546101009004600116610b025760405162461bcd60e51b815260040161046990613336565b60008181526009602052604090205462010000900460ff16600181600f811115610b2857fe5b1480610b3f5750600281600f811115610b3d57fe5b145b80610b555750600381600f811115610b5357fe5b145b610b715760405162461bcd60e51b815260040161046990613af4565b600082815260096020526040812060040154610b9690610100900460ff166001611af6565b60008481526009602052604090206004015490915060ff6201000090910481169082161015610c3457600083815260096020526040908190206004908101805461ff00191661010060ff8616021790555490517fc3c879bd28e24bfa8df84d17ef3cae71077c3610e6167d435cc7e669e4a6b97c91610c27918691640100000000900463ffffffff16908590613128565b60405180910390a1610ca4565b600083815260096020526040902060040180546001919060ff1916828002179055506004546040517f55ab39d22f8c4c97fce480c015b739838aa5b8a4ad0a528159669842a7087b0191610c9b918691640100000000900463ffffffff16906001906130fe565b60405180910390a15b505050565b60035481565b6000546001600160a01b03163314610cd95760405162461bcd60e51b81526004016104699061325a565b600060035411610cfb5760405162461bcd60e51b815260040161046990613b88565b6002546001600160a01b031615610d245760405162461bcd60e51b8152600401610469906133a4565b6001600160a01b038116301415610d4d5760405162461bcd60e51b815260040161046990613593565b610d5681611ad3565b610d725760405162461bcd60e51b8152600401610469906137dd565b6000819050806001600160a01b0316630f15f4c06040518163ffffffff1660e01b8152600401600060405180830381600087803b158015610db257600080fd5b505af1158015610dc6573d6000803e3d6000fd5b5050600280547fffffffffffffffffffffffff0000000000000000000000000000000000000000166001600160a01b03861617905550506040517f1f8bdb9825a71b7560200e2279fd4b503ac6814e369318e761928502882ee11a90610e2f9043908590613c2d565b60405180910390a15050565b600082815260096020526040902054630100000090046001600160a01b0316610e86576001546001600160a01b03166105945760405162461bcd60e51b8152600401610469906132c8565b60008281526009602052604090206004015460055460ff909116906001600160a01b0316331415610fb7576002816004811115610ebf57fe5b1415610edd5760405162461bcd60e51b815260040161046990613712565b6004816004811115610eeb57fe5b1415610f095760405162461bcd60e51b8152600401610469906135ca565b6004826004811115610f1757fe5b14610f345760405162461bcd60e51b8152600401610469906133db565b600083815260096020526040902060049081018054849260ff19909116906001908490811115610f6057fe5b02179055506004546040517f55ab39d22f8c4c97fce480c015b739838aa5b8a4ad0a528159669842a7087b0191610fa9918691640100000000900463ffffffff169086906130fe565b60405180910390a15061120a565b600083815260096020526040902054630100000090046001600160a01b03163314610ff45760405162461bcd60e51b815260040161046990613412565b600382600481111561100257fe5b60ff1611156110235760405162461bcd60e51b815260040161046990613bbf565b60008381526009602052604090205462010000900460ff16600181600f81111561104957fe5b14806110605750600281600f81111561105e57fe5b145b806110765750600381600f81111561107457fe5b145b6110925760405162461bcd60e51b815260040161046990613af4565b60008260048111156110a057fe5b141580156110ba575060038260048111156110b757fe5b14155b156110d75760405162461bcd60e51b815260040161046990613638565b60038260048111156110e557fe5b14156111315760008481526009602052604090205460021661112c57600083600481111561110f57fe5b1461112c5760405162461bcd60e51b815260040161046990613480565b61115f565b60008481526009602052604090205460021661115f5760405162461bcd60e51b815260040161046990613480565b81600481111561116b57fe5b83600481111561117757fe5b14156111955760405162461bcd60e51b815260040161046990613a4f565b600084815260096020526040902060049081018054859260ff199091169060019084908111156111c157fe5b02179055506004546040517f55ab39d22f8c4c97fce480c015b739838aa5b8a4ad0a528159669842a7087b019161077d918791640100000000900463ffffffff169087906130fe565b5050565b611216612714565b6000611220612732565b611228612759565b6000611232612777565b61123a612759565b600088815260096020526040812054630100000090046001600160a01b031661133a576001546001600160a01b03166112855760405162461bcd60e51b8152600401610469906132c8565b6001546040517f8eaa6ac00000000000000000000000000000000000000000000000000000000081526001600160a01b03909116908190638eaa6ac0906112d0908d906004016130e1565b60006040518083038186803b1580156112e857600080fd5b505afa1580156112fc573d6000803e3d6000fd5b505050506040513d6000823e601f3d908101601f191682016040526113249190810190612cd7565b9850985098509850985098509850985050611642565b6000898152600960209081526040918290208251606081018452815460ff80821683526101008204811694830194909452919390929083019162010000900416600f81111561138557fe5b60ff169052815460408051600180860180546020600261010094831615949094026000190190911692909204601f81018390049092028301608090810190945260608301828152959e5063010000009094046001600160a01b03169c5090938493909290919084018282801561143c5780601f106114115761010080835404028352916020019161143c565b820191906000526020600020905b81548152906001019060200180831161141f57829003601f168201915b5050509183525050600283810180546040805160206001841615610100026000190190931694909404601f810183900483028501830190915280845293810193908301828280156114ce5780601f106114a3576101008083540402835291602001916114ce565b820191906000526020600020905b8154815290600101906020018083116114b157829003601f168201915b505050918352505060038301805460408051602060026001851615610100026000190190941693909304601f81018490048402820184019092528181529382019392918301828280156115625780601f1061153757610100808354040283529160200191611562565b820191906000526020600020905b81548152906001019060200180831161154557829003601f168201915b505050919092525050604080518082018252835463ffffffff77010000000000000000000000000000000000000000000000820481168352600160d81b909104166020808301919091526004850154835160a081018552610100820460ff90811682526201000083048116828501526301000000830481168287015264010000000083048116606083015265010000000000830481166080830152855180870190965261ffff66010000000000008404811687526801000000000000000084041693860193909352600590960154949b5091995016965091945090925090505b919395975091939597565b6000848484846040516020016116669493929190612fa9565b604051602081830303815290604052805190602001209050949350505050565b6006546001600160a01b031681565b6000546001600160a01b031633146116bf5760405162461bcd60e51b81526004016104699061325a565b6007548114156116ce5761170c565b60078190556040517f340b7835e5cad9e69cc8bf06b0b3c3e729f0fe4fd314932f4e4284d6ffc03a71906117039083906130e1565b60405180910390a15b50565b600060035411801561172a57506002546001600160a01b0316155b6117465760405162461bcd60e51b8152600401610469906136a4565b6007543410156117685760405162461bcd60e51b815260040161046990613525565b604088015160009060ff16600f81111561177e57fe5b9050600181600f81111561178e57fe5b14806117a55750600281600f8111156117a357fe5b145b806117bb5750600381600f8111156117b957fe5b145b156117d3576117ce898888888887611b2a565b61180f565b600b81600f8111156117e157fe5b14156117f7576117ce89888a8989898989611fe1565b60405162461bcd60e51b8152600401610469906134ee565b505050505050505050565b6001600160a01b03811660009081526008602052604081205461189a576001546001600160a01b031661184f575060006108a2565b6001546040517ff2bcb15e0000000000000000000000000000000000000000000000000000000081526001600160a01b0390911690819063f2bcb15e90610836908690600401613018565b6001600160a01b0382166000908152600860205260409020805460001981019081106118c257fe5b60009182526020909120015460010192915050565b6000546001600160a01b031633146119015760405162461bcd60e51b81526004016104699061325a565b8061190b5761120a565b80471161192a5760405162461bcd60e51b81526004016104699061336d565b6001600160a01b0382166119505760405162461bcd60e51b8152600401610469906131b5565b6040516001600160a01b0383169082156108fc029083906000818181858888f19350505050158015611986573d6000803e3d6000fd5b507f884edad9ce6fa2440d8a54cc123490eb96d2768479d49ff9c7366125a94243648282604051610e2f92919061302c565b60045463ffffffff1681565b6000546001600160a01b031633146119ee5760405162461bcd60e51b81526004016104699061325a565b6001546001600160a01b031615611a175760405162461bcd60e51b815260040161046990613bf6565b60035415611a375760405162461bcd60e51b815260040161046990613973565b6001600160a01b03811615611acc576001600160a01b038116301415611a6f5760405162461bcd60e51b815260040161046990613593565b611a7881611ad3565b611a945760405162461bcd60e51b8152600401610469906134b7565b600180547fffffffffffffffffffffffff0000000000000000000000000000000000000000166001600160a01b03831617905561170c565b4360035550565b6000806001600160a01b038316611aee5760009150506108a2565b50503b151590565b600082820160ff8085169082161015611b215760405162461bcd60e51b815260040161046990613a86565b90505b92915050565b85516001811615611b5957845163ffffffff16611b595760405162461bcd60e51b815260040161046990613916565b60028116611b8857602085015163ffffffff16611b885760405162461bcd60e51b81526004016104699061366f565b855151611ba75760405162461bcd60e51b815260040161046990613449565b602086015151611bc95760405162461bcd60e51b8152600401610469906137a6565b604086015151611beb5760405162461bcd60e51b815260040161046990613291565b835160ff16611c0c5760405162461bcd60e51b8152600401610469906131ec565b602084015160ff1615801590611c2d57506064846001602002015160ff1611155b611c495760405162461bcd60e51b815260040161046990613abd565b604084015160ff16611c6d5760405162461bcd60e51b815260040161046990613601565b6000611c783361181a565b3360009081526008602052604081208054600181018083559394509283908110611c9e57fe5b6000918252602082200184815591506001851615611cbe57506000611cc2565b5060035b600454600090611ce6903390879063ffffffff64010000000082048116911661164d565b60008181526009602052604081209192508d906020020151815460ff191660ff9091161781558c60016020020151815460ff9091166101000261ff00199091161781558c6002602002015160ff16600f811115611d3f57fe5b8154829062ff000019166201000083600f811115611d5957fe5b021790555080548b516020808e015163ffffffff908116600160d81b02921677010000000000000000000000000000000000000000000000027fffffffffffffffffff0000000000000000000000000000000000000000ffffff90931633630100000002177fffffffffff00000000ffffffffffffffffffffffffffffffffffffffffffffff16929092177fff00000000ffffffffffffffffffffffffffffffffffffffffffffffffffffff161782558c518051611e1d9260018501920190612696565b506020808d01518051611e369260028501920190612696565b5060408c01518051611e52916003840191602090910190612696565b50828160040160006101000a81548160ff02191690836004811115611e7357fe5b0217905550896000602002015160048201805460ff909216620100000262ff000019909216919091179055896001602002015160048201805460ff90921663010000000263ff00000019909216919091179055896002602002015160048201805460ff9092166401000000000264ff0000000019909216919091179055896003602002015160048201805460ff909216650100000000000265ff000000000019909216919091179055886000602002015160048201805461ffff90921666010000000000000267ffff0000000000001990921691909117905588600160200201516004808301805461ffff909316680100000000000000000269ffff0000000000000000199093169290921790915560068201899055546040517f3b1cc0fc696cbe654bd83494847cc7890f2ae0e05a79dfbd6c1892061fbf340491611fca91859163ffffffff64010000000090910416906130ea565b60405180910390a150505050505050505050505050565b8751600181166120035760405162461bcd60e51b815260040161046990613749565b60028116156120245760405162461bcd60e51b815260040161046990613b2b565b855163ffffffff166120485760405162461bcd60e51b81526004016104699061355c565b602086015163ffffffff1661206f5760405162461bcd60e51b81526004016104699061317e565b6040890151600f60ff90911611156120995760405162461bcd60e51b815260040161046990613147565b60048116156120ba5760405162461bcd60e51b815260040161046990613814565b6001600160a01b03871633148015906120db57506001600160a01b03871615155b6120f75760405162461bcd60e51b8152600401610469906139aa565b6006546040517fc3c5a5470000000000000000000000000000000000000000000000000000000081526001600160a01b039091169063c3c5a54790612140908a90600401613018565b60206040518083038186803b15801561215857600080fd5b505afa15801561216c573d6000803e3d6000fd5b505050506040513d601f19601f820116820180604052508101906121909190612dd9565b6121ac5760405162461bcd60e51b8152600401610469906132ff565b6040517f70a082310000000000000000000000000000000000000000000000000000000081526000906001600160a01b038916906370a08231906121f4903390600401613018565b60206040518083038186803b15801561220c57600080fd5b505afa158015612220573d6000803e3d6000fd5b505050506040513d601f19601f820116820180604052508101906122449190612e11565b9050600081116122665760405162461bcd60e51b815260040161046990613525565b8851516122855760405162461bcd60e51b815260040161046990613449565b6020890151516122a75760405162461bcd60e51b8152600401610469906137a6565b855160ff166122c85760405162461bcd60e51b8152600401610469906131ec565b602086015160ff16158015906122e957506064866001602002015160ff1611155b6123055760405162461bcd60e51b815260040161046990613abd565b604086015160ff166123295760405162461bcd60e51b815260040161046990613601565b60006123348961181a565b6001600160a01b038a166000908152600860205260408120805460018101808355939450928390811061236357fe5b60009182526020822001848155600454909250612394908d90869063ffffffff64010000000082048116911661164d565b60008181526009602052604081209192508f906020020151815460ff191660ff9091161781558e60016020020151815460ff9091166101000261ff00199091161781558e6002602002015160ff16600f8111156123ed57fe5b8154829062ff000019166201000083600f81111561240757fe5b02179055506020808f015180516124249260028501920190612696565b5080547fffffffffffffffffff0000000000000000000000000000000000000000ffffff1663010000006001600160a01b038f16021781558b60006020020151815463ffffffff90911677010000000000000000000000000000000000000000000000027fffffffffff00000000ffffffffffffffffffffffffffffffffffffffffffffff9091161781558b60016020020151815463ffffffff909116600160d81b027fff00000000ffffffffffffffffffffffffffffffffffffffffffffffffffffff9091161781558d6000602002015181600101908051906020019061250d929190612696565b506004810180546000919060ff191660018302179055508a6000602002015160048201805460ff909216620100000262ff0000199092169190911790558a6001602002015160048201805460ff90921663010000000263ff000000199092169190911790558a6002602002015160048201805460ff9092166401000000000264ff00000000199092169190911790558a6003602002015160048201805460ff909216650100000000000265ff000000000019909216919091179055896000602002015160048201805461ffff90921666010000000000000267ffff0000000000001990921691909117905589600160200201516004808301805461ffff909316680100000000000000000269ffff00000000000000001990931692909217909155600582018a905560068201899055546040517f3b1cc0fc696cbe654bd83494847cc7890f2ae0e05a79dfbd6c1892061fbf34049161267d91859163ffffffff64010000000090910416906130ea565b60405180910390a1505050505050505050505050505050565b828054600181600116156101000203166002900490600052602060002090601f016020900481019282601f106126d757805160ff1916838001178555612704565b82800160010185558215612704579182015b828111156127045782518255916020019190600101906126e9565b50612710929150612795565b5090565b60405180606001604052806003906020820280368337509192915050565b60405180606001604052806003905b60608152602001906001900390816127415790505090565b60405180604001604052806002906020820280368337509192915050565b6040518060a001604052806005906020820280368337509192915050565b5b808211156127105760008155600101612796565b8035611b2481613cf3565b8051611b2481613cf3565b600082601f8301126127d0578081fd5b6127da6060613c55565b9050808260005b600381101561280c576127f78683358701612ad1565b835260209283019291909101906001016127e1565b50505092915050565b6000601f8381840112612826578182fd5b6128306060613c55565b9150818360005b60038110156128a05781518601878582011261285257600080fd5b805161286561286082613c99565b613c55565b81815260208a8184860101111561287b57600080fd5b61288a83828401838701613cbd565b9086529485019493909301925050600101612837565b5050505092915050565b600082601f8301126128ba578081fd5b6128c46040613c55565b90508082846040850111156128d857600080fd5b60005b600281101561280c5781356128ef81613d15565b835260209283019291909101906001016128db565b600082601f830112612914578081fd5b61291e6040613c55565b905080828460408501111561293257600080fd5b60005b600281101561280c57815161294981613d15565b83526020928301929190910190600101612935565b600082601f83011261296e578081fd5b6129786040613c55565b905080828460408501111561298c57600080fd5b60005b600281101561280c5781356129a381613d25565b8352602092830192919091019060010161298f565b600082601f8301126129c8578081fd5b6129d26040613c55565b90508082846040850111156129e657600080fd5b60005b600281101561280c5781516129fd81613d25565b835260209283019291909101906001016129e9565b600082601f830112612a22578081fd5b612a2c6080613c55565b9050808284608085011115612a4057600080fd5b60005b600481101561280c578135612a5781613d37565b83526020928301929190910190600101612a43565b600082601f830112612a7c578081fd5b612a8660a0613c55565b905080828460a085011115612a9a57600080fd5b60005b600581101561280c578151612ab181613d37565b83526020928301929190910190600101612a9d565b8051611b2481613d08565b600082601f830112612ae1578081fd5b8135612aef61286082613c99565b9150808252836020828501011115612b0657600080fd5b8060208401602084013760009082016020015292915050565b8051611b2481613d37565b600060208284031215612b3b578081fd5b8135611b2181613cf3565b600060208284031215612b57578081fd5b8151611b2181613cf3565b60008060408385031215612b74578081fd5b8235612b7f81613cf3565b946020939093013593505050565b60008060008060808587031215612ba2578182fd5b8435612bad81613cf3565b9350602085013592506040850135612bc481613d25565b91506060850135612bd481613d25565b939692955090935050565b6000806000806000806000806101e0898b031215612bfb578586fd5b89601f8a0112612c09578586fd5b612c136060613c55565b808a60608c018d811115612c2557898afd5b895b6003811015612c50578235612c3b81613d37565b85526020948501949290920191600101612c27565b50829b50612c5e8e826127aa565b9a5050505050608089013567ffffffffffffffff811115612c7d578687fd5b612c898b828c016127c0565b965050612c998a60a08b0161295e565b9450612ca88a60e08b01612a12565b9350612cb88a6101608b016128aa565b92506101a089013591506101c089013590509295985092959890939650565b600080600080600080600080610200898b031215612cf3578182fd5b89601f8a0112612d01578182fd5b612d0e6128606003613c7c565b808a60608c018d811115612d20578586fd5b855b6003811015612d4a57612d358f84612b1f565b85526020948501949290920191600101612d22565b50829b50612d588e826127b5565b9a5050505050608089015167ffffffffffffffff811115612d77578283fd5b612d838b828c01612815565b965050612d938a60a08b016129b8565b9450612da28a60e08b01612ac6565b9350612db28a6101008b01612a6c565b9250612dc28a6101a08b01612904565b91506101e089015190509295985092959890939650565b600060208284031215612dea578081fd5b81518015158114611b21578182fd5b600060208284031215612e0a578081fd5b5035919050565b600060208284031215612e22578081fd5b5051919050565b60008060408385031215612e3b578182fd5b823591506020830135612e4d81613d08565b809150509250929050565b600080600060608486031215612e6c578081fd5b83359250602084013567ffffffffffffffff80821115612e8a578283fd5b612e9687838801612ad1565b93506040860135915080821115612eab578283fd5b50612eb886828701612ad1565b9150509250925092565b6000826060810183835b6003811015612f15578383038752815180518085526020612ef282828801838601613cbd565b98890198601f91909101601f191694909401840193929092019150600101612ecc565b509095945050505050565b8060005b6002811015612f4757815161ffff16845260209384019390910190600101612f24565b50505050565b8060005b6002811015612f4757815163ffffffff16845260209384019390910190600101612f51565b8060005b6005811015612f4757815160ff16845260209384019390910190600101612f7a565b612fa581613ce9565b9052565b60609490941b7fffffffffffffffffffffffffffffffffffffffff000000000000000000000000168452601484019290925260e090811b7fffffffff00000000000000000000000000000000000000000000000000000000908116603485015291901b166038820152603c0190565b6001600160a01b0391909116815260200190565b6001600160a01b03929092168252602082015260400190565b6000610200828b835b600381101561307057815160ff1683526020928301929091019060010161304e565b5050506001600160a01b038a1660608401528060808401526130948184018a612ec2565b9150506130a460a0830188612f4d565b6130b160e0830187612f9c565b6130bf610100830186612f76565b6130cd6101a0830185612f20565b826101e08301529998505050505050505050565b90815260200190565b91825263ffffffff16602082015260400190565b83815263ffffffff831660208201526060810161311a83613ce9565b826040830152949350505050565b92835263ffffffff91909116602083015260ff16604082015260600190565b6020808252601b908201527f496e76616c69642063656e737573206f726967696e2076616c75650000000000604082015260600190565b60208082526012908201527f496e76616c696420626c6f636b436f756e740000000000000000000000000000604082015260600190565b6020808252600f908201527f496e76616c696420616464726573730000000000000000000000000000000000604082015260600190565b60208082526010908201527f4e6f207175657374696f6e436f756e7400000000000000000000000000000000604082015260600190565b6020808252600c908201527f556e617574686f72697a65640000000000000000000000000000000000000000604082015260600190565b60208082526011908201527f6f6e6c79436f6e74726163744f776e6572000000000000000000000000000000604082015260600190565b6020808252600c908201527f4e6f2063656e7375735572690000000000000000000000000000000000000000604082015260600190565b60208082526009908201527f4e6f7420666f756e640000000000000000000000000000000000000000000000604082015260600190565b60208082526014908201527f546f6b656e206e6f742072656769737465726564000000000000000000000000604082015260600190565b60208082526012908201527f50726f63657373206e6f742073657269616c0000000000000000000000000000604082015260600190565b60208082526010908201527f4e6f7420656e6f7567682066756e647300000000000000000000000000000000604082015260600190565b60208082526010908201527f416c726561647920696e61637469766500000000000000000000000000000000604082015260600190565b60208082526014908201527f4e6f7420726573756c747320636f6e7472616374000000000000000000000000604082015260600190565b6020808252600e908201527f496e76616c696420656e74697479000000000000000000000000000000000000604082015260600190565b6020808252600b908201527f4e6f206d65746164617461000000000000000000000000000000000000000000604082015260600190565b60208082526011908201527f4e6f7420696e7465727275707469626c65000000000000000000000000000000604082015260600190565b60208082526013908201527f496e76616c6964207072656465636573736f7200000000000000000000000000604082015260600190565b60208082526019908201527f556e737570706f727465642063656e737573206f726967696e00000000000000604082015260600190565b60208082526012908201527f496e73756666696369656e742066756e64730000000000000000000000000000604082015260600190565b60208082526013908201527f496e76616c696420737461727420626c6f636b00000000000000000000000000604082015260600190565b6020808252600f908201527f43616e277420626520697473656c660000000000000000000000000000000000604082015260600190565b6020808252600b908201527f416c726561647920736574000000000000000000000000000000000000000000604082015260600190565b6020808252600b908201527f4e6f206d617856616c7565000000000000000000000000000000000000000000604082015260600190565b60208082526012908201527f50726f63657373207465726d696e617465640000000000000000000000000000604082015260600190565b6020808252818101527f556e696e7465727275707469626c65206e6565647320626c6f636b436f756e74604082015260600190565b60208082526008908201527f496e616374697665000000000000000000000000000000000000000000000000604082015260600190565b6020808252600e908201527f4e6f2043656e73757320526f6f74000000000000000000000000000000000000604082015260600190565b60208082526008908201527f43616e63656c6564000000000000000000000000000000000000000000000000604082015260600190565b60208082526025908201527f4175746f207374617274206973206e6565646564206f6e2045564d2070726f6360408201527f6573736573000000000000000000000000000000000000000000000000000000606082015260800190565b6020808252600d908201527f4e6f2063656e737573526f6f7400000000000000000000000000000000000000604082015260600190565b6020808252600e908201527f4e6f74206120636f6e7472616374000000000000000000000000000000000000604082015260600190565b6020808252602b908201527f44796e616d69632063656e737573206e6f7420616c6c6f776564206f6e20455660408201527f4d2070726f636573736573000000000000000000000000000000000000000000606082015260800190565b6020808252600e908201527f416c726561647920616374697665000000000000000000000000000000000000604082015260600190565b6020808252601d908201527f4e6f7420666f756e643a20547279206f6e207072656465636573736f72000000604082015260600190565b60208082526010908201527f526561642d6f6e6c792063656e73757300000000000000000000000000000000604082015260600190565b60208082526021908201527f4175746f207374617274207265717569726573206120737461727420626c6f6360408201527f6b00000000000000000000000000000000000000000000000000000000000000606082015260800190565b60208082526011908201527f416c726561647920616374697661746564000000000000000000000000000000604082015260600190565b60208082526015908201527f496e76616c696420746f6b656e20616464726573730000000000000000000000604082015260600190565b6020808252600d908201527f4e6f2043656e7375732055524900000000000000000000000000000000000000604082015260600190565b60208082526011908201527f50726f63657373206e6f74207265616479000000000000000000000000000000604082015260600190565b6020808252600b908201527f4d75737420646966666572000000000000000000000000000000000000000000604082015260600190565b60208082526008908201527f6f766572666c6f77000000000000000000000000000000000000000000000000604082015260600190565b60208082526010908201527f496e76616c6964206d6178436f756e7400000000000000000000000000000000604082015260600190565b6020808252600d908201527f4e6f74206f66662d636861696e00000000000000000000000000000000000000604082015260600190565b6020808252602a908201527f496e7465727275707469626c65206e6f7420616c6c6f776564206f6e2045564d60408201527f2070726f63657373657300000000000000000000000000000000000000000000606082015260800190565b6020808252600e908201527f4d75737420626520616374697665000000000000000000000000000000000000604082015260600190565b60208082526013908201527f496e76616c69642073746174757320636f646500000000000000000000000000604082015260600190565b60208082526019908201527f416c7265616479206861732061207072656465636573736f7200000000000000604082015260600190565b9182526001600160a01b0316602082015260400190565b63ffffffff91909116815260200190565b60405181810167ffffffffffffffff81118282101715613c7457600080fd5b604052919050565b600067ffffffffffffffff821115613c92578081fd5b5060200290565b600067ffffffffffffffff821115613caf578081fd5b50601f01601f191660200190565b60005b83811015613cd8578181015183820152602001613cc0565b83811115612f475750506000910152565b6005811061170c57fe5b6001600160a01b038116811461170c57600080fd5b6005811061170c57600080fd5b61ffff8116811461170c57600080fd5b63ffffffff8116811461170c57600080fd5b60ff8116811461170c57600080fdfea2646970667358221220edc59658bff1d0fe28a96a346b149d6533cbacb8227db6bd6eb9dae4b42d401964736f6c634300060c0033",
  "linkReferences": {},
  "deployedLinkReferences": {}
}