{
  "_format": "hh-sol-artifact-1",
  "contractName": "Govern",
  "sourceName": "contracts/govern/Govern.sol",
  "abi": [
    {
      "inputs": [
        {
          "internalType": "address",
          "name": "_initialExecutor",
          "type": "address"
        }
      ],
      "stateMutability": "nonpayable",
      "type": "constructor"
    },
    {
      "anonymous": false,
      "inputs": [
        {
          "indexed": true,
          "internalType": "address",
          "name": "sender",
          "type": "address"
        },
        {
          "indexed": false,
          "internalType": "uint256",
          "name": "value",
          "type": "uint256"
        }
      ],
      "name": "ETHDeposited",
      "type": "event"
    },
    {
      "anonymous": false,
      "inputs": [
        {
          "indexed": true,
          "internalType": "address",
          "name": "actor",
          "type": "address"
        },
        {
          "components": [
            {
              "internalType": "address",
              "name": "to",
              "type": "address"
            },
            {
              "internalType": "uint256",
              "name": "value",
              "type": "uint256"
            },
            {
              "internalType": "bytes",
              "name": "data",
              "type": "bytes"
            }
          ],
          "indexed": false,
          "internalType": "struct ERC3000Data.Action[]",
          "name": "actions",
          "type": "tuple[]"
        },
        {
          "indexed": false,
          "internalType": "bytes32",
          "name": "memo",
          "type": "bytes32"
        },
        {
          "indexed": false,
          "internalType": "bytes32",
          "name": "failureMap",
          "type": "bytes32"
        },
        {
          "indexed": false,
          "internalType": "bytes[]",
          "name": "execResults",
          "type": "bytes[]"
        }
      ],
      "name": "Executed",
      "type": "event"
    },
    {
      "anonymous": false,
      "inputs": [
        {
          "indexed": true,
          "internalType": "bytes4",
          "name": "role",
          "type": "bytes4"
        },
        {
          "indexed": true,
          "internalType": "address",
          "name": "actor",
          "type": "address"
        }
      ],
      "name": "Frozen",
      "type": "event"
    },
    {
      "anonymous": false,
      "inputs": [
        {
          "indexed": true,
          "internalType": "bytes4",
          "name": "role",
          "type": "bytes4"
        },
        {
          "indexed": true,
          "internalType": "address",
          "name": "actor",
          "type": "address"
        },
        {
          "indexed": true,
          "internalType": "address",
          "name": "who",
          "type": "address"
        },
        {
          "indexed": false,
          "internalType": "contract IACLOracle",
          "name": "oracle",
          "type": "address"
        }
      ],
      "name": "Granted",
      "type": "event"
    },
    {
      "anonymous": false,
      "inputs": [
        {
          "indexed": true,
          "internalType": "string",
          "name": "key",
          "type": "string"
        }
      ],
      "name": "Initialized",
      "type": "event"
    },
    {
      "anonymous": false,
      "inputs": [
        {
          "indexed": true,
          "internalType": "bytes4",
          "name": "sig",
          "type": "bytes4"
        },
        {
          "indexed": false,
          "internalType": "bytes",
          "name": "data",
          "type": "bytes"
        }
      ],
      "name": "ReceivedCallback",
      "type": "event"
    },
    {
      "anonymous": false,
      "inputs": [
        {
          "indexed": false,
          "internalType": "bytes4",
          "name": "sig",
          "type": "bytes4"
        },
        {
          "indexed": false,
          "internalType": "bytes4",
          "name": "magicNumber",
          "type": "bytes4"
        }
      ],
      "name": "RegisteredCallback",
      "type": "event"
    },
    {
      "anonymous": false,
      "inputs": [
        {
          "indexed": false,
          "internalType": "bytes4",
          "name": "interfaceId",
          "type": "bytes4"
        }
      ],
      "name": "RegisteredStandard",
      "type": "event"
    },
    {
      "anonymous": false,
      "inputs": [
        {
          "indexed": true,
          "internalType": "bytes4",
          "name": "role",
          "type": "bytes4"
        },
        {
          "indexed": true,
          "internalType": "address",
          "name": "actor",
          "type": "address"
        },
        {
          "indexed": true,
          "internalType": "address",
          "name": "who",
          "type": "address"
        }
      ],
      "name": "Revoked",
      "type": "event"
    },
    {
      "stateMutability": "nonpayable",
      "type": "fallback"
    },
    {
      "inputs": [],
      "name": "ROOT_ROLE",
      "outputs": [
        {
          "internalType": "bytes4",
          "name": "",
          "type": "bytes4"
        }
      ],
      "stateMutability": "view",
      "type": "function"
    },
    {
      "inputs": [
        {
          "components": [
            {
              "internalType": "enum ACLData.BulkOp",
              "name": "op",
              "type": "uint8"
            },
            {
              "internalType": "bytes4",
              "name": "role",
              "type": "bytes4"
            },
            {
              "internalType": "address",
              "name": "who",
              "type": "address"
            }
          ],
          "internalType": "struct ACLData.BulkItem[]",
          "name": "items",
          "type": "tuple[]"
        }
      ],
      "name": "bulk",
      "outputs": [],
      "stateMutability": "nonpayable",
      "type": "function"
    },
    {
      "inputs": [
        {
          "components": [
            {
              "internalType": "address",
              "name": "to",
              "type": "address"
            },
            {
              "internalType": "uint256",
              "name": "value",
              "type": "uint256"
            },
            {
              "internalType": "bytes",
              "name": "data",
              "type": "bytes"
            }
          ],
          "internalType": "struct ERC3000Data.Action[]",
          "name": "actions",
          "type": "tuple[]"
        },
        {
          "internalType": "bytes32",
          "name": "allowFailuresMap",
          "type": "bytes32"
        },
        {
          "internalType": "bytes32",
          "name": "memo",
          "type": "bytes32"
        }
      ],
      "name": "exec",
      "outputs": [
        {
          "internalType": "bytes32",
          "name": "",
          "type": "bytes32"
        },
        {
          "internalType": "bytes[]",
          "name": "",
          "type": "bytes[]"
        }
      ],
      "stateMutability": "nonpayable",
      "type": "function"
    },
    {
      "inputs": [
        {
          "internalType": "bytes4",
          "name": "_role",
          "type": "bytes4"
        }
      ],
      "name": "freeze",
      "outputs": [],
      "stateMutability": "nonpayable",
      "type": "function"
    },
    {
      "inputs": [
        {
          "internalType": "bytes4",
          "name": "_role",
          "type": "bytes4"
        },
        {
          "internalType": "address",
          "name": "_who",
          "type": "address"
        }
      ],
      "name": "grant",
      "outputs": [],
      "stateMutability": "nonpayable",
      "type": "function"
    },
    {
      "inputs": [
        {
          "internalType": "bytes4",
          "name": "_role",
          "type": "bytes4"
        },
        {
          "internalType": "address",
          "name": "_who",
          "type": "address"
        },
        {
          "internalType": "contract IACLOracle",
          "name": "_oracle",
          "type": "address"
        }
      ],
      "name": "grantWithOracle",
      "outputs": [],
      "stateMutability": "nonpayable",
      "type": "function"
    },
    {
      "inputs": [
        {
          "internalType": "string",
          "name": "",
          "type": "string"
        }
      ],
      "name": "initBlocks",
      "outputs": [
        {
          "internalType": "uint256",
          "name": "",
          "type": "uint256"
        }
      ],
      "stateMutability": "view",
      "type": "function"
    },
    {
      "inputs": [
        {
          "internalType": "address",
          "name": "_initialExecutor",
          "type": "address"
        }
      ],
      "name": "initialize",
      "outputs": [],
      "stateMutability": "nonpayable",
      "type": "function"
    },
    {
      "inputs": [
        {
          "internalType": "bytes4",
          "name": "_role",
          "type": "bytes4"
        }
      ],
      "name": "isFrozen",
      "outputs": [
        {
          "internalType": "bool",
          "name": "",
          "type": "bool"
        }
      ],
      "stateMutability": "view",
      "type": "function"
    },
    {
      "inputs": [
        {
          "internalType": "bytes32",
          "name": "_hash",
          "type": "bytes32"
        },
        {
          "internalType": "bytes",
          "name": "_signature",
          "type": "bytes"
        }
      ],
      "name": "isValidSignature",
      "outputs": [
        {
          "internalType": "bytes4",
          "name": "",
          "type": "bytes4"
        }
      ],
      "stateMutability": "view",
      "type": "function"
    },
    {
      "inputs": [
        {
          "internalType": "bytes4",
          "name": "_interfaceId",
          "type": "bytes4"
        },
        {
          "internalType": "bytes4",
          "name": "_callbackSig",
          "type": "bytes4"
        },
        {
          "internalType": "bytes4",
          "name": "_magicNumber",
          "type": "bytes4"
        }
      ],
      "name": "registerStandardAndCallback",
      "outputs": [],
      "stateMutability": "nonpayable",
      "type": "function"
    },
    {
      "inputs": [
        {
          "internalType": "bytes4",
          "name": "_role",
          "type": "bytes4"
        },
        {
          "internalType": "address",
          "name": "_who",
          "type": "address"
        }
      ],
      "name": "revoke",
      "outputs": [],
      "stateMutability": "nonpayable",
      "type": "function"
    },
    {
      "inputs": [
        {
          "internalType": "bytes4",
          "name": "",
          "type": "bytes4"
        },
        {
          "internalType": "address",
          "name": "",
          "type": "address"
        }
      ],
      "name": "roles",
      "outputs": [
        {
          "internalType": "address",
          "name": "",
          "type": "address"
        }
      ],
      "stateMutability": "view",
      "type": "function"
    },
    {
      "inputs": [
        {
          "internalType": "contract ERC1271",
          "name": "_signatureValidator",
          "type": "address"
        }
      ],
      "name": "setSignatureValidator",
      "outputs": [],
      "stateMutability": "nonpayable",
      "type": "function"
    },
    {
      "inputs": [
        {
          "internalType": "bytes4",
          "name": "_interfaceId",
          "type": "bytes4"
        }
      ],
      "name": "supportsInterface",
      "outputs": [
        {
          "internalType": "bool",
          "name": "",
          "type": "bool"
        }
      ],
      "stateMutability": "view",
      "type": "function"
    },
    {
      "inputs": [
        {
          "internalType": "bytes4",
          "name": "_role",
          "type": "bytes4"
        },
        {
          "internalType": "address",
          "name": "_sender",
          "type": "address"
        },
        {
          "internalType": "bytes",
          "name": "_data",
          "type": "bytes"
        }
      ],
      "name": "willPerform",
      "outputs": [
        {
          "internalType": "bool",
          "name": "",
          "type": "bool"
        }
      ],
      "stateMutability": "nonpayable",
      "type": "function"
    },
    {
      "stateMutability": "payable",
      "type": "receive"
    }
  ],
  "bytecode": "0x60806040523480156200001157600080fd5b50604051620023b9380380620023b9833981016040819052620000349162000483565b308060026040516200004690620004ef565b90815260200160405180910390205460001415620000725762000072816001600160e01b036200009016565b50620000899050816001600160e01b036200016a16565b50620005b7565b604051806040016040528060038152602001621858db60ea1b815250600281604051620000be9190620004b3565b908152602001604051809103902054600014620000f85760405162461bcd60e51b8152600401620000ef906200054c565b60405180910390fd5b436002826040516200010b9190620004b3565b908152604051908190036020019020556200013763161b7d8160e21b836001600160e01b03620002ea16565b80604051620001479190620004b3565b604051908190038120906000805160206200239983398151915290600090a25050565b3060026040516200017b90620004ef565b90815260200160405180910390205460001415620001a757620001a7816001600160e01b036200009016565b6040518060400160405280600681526020016533b7bb32b93760d11b815250600281604051620001d89190620004b3565b908152602001604051809103902054600014620002095760405162461bcd60e51b8152600401620000ef906200054c565b436002826040516200021c9190620004b3565b90815260405190819003602001902055620002486330b616bf60e21b846001600160e01b03620002ea16565b6200026463a43e253360e01b306001600160e01b03620002ea16565b62000280633e2ab0d960e01b306001600160e01b03620002ea16565b6200029b6330b616bf60e21b6001600160e01b036200030516565b620002b6630b135d3f60e11b6001600160e01b036200030516565b80604051620002c69190620004b3565b604051908190038120906000805160206200239983398151915290600090a2505050565b62000301828260026001600160e01b036200036616565b5050565b6001600160e01b0319811660009081526020819052604090819020805460ff19166001179055517fbf5e1f87f5ab65b58074cd29244d7c487a948983cda4b932e0f966b62bd34aca906200035b908390620004fe565b60405180910390a150565b6200037a836001600160e01b036200045016565b156200039a5760405162461bcd60e51b8152600401620000ef9062000527565b6001600160a01b03821660011415620003c75760405162461bcd60e51b8152600401620000ef906200058e565b6001600160e01b0319831660008181526003602090815260408083206001600160a01b03878116808652919093529281902080546001600160a01b0319169286169290921790915551909133917fc62063b81f7036fd97a0dc546516e99f11004d2d76ca0fddd3866346c86e7091906200044390869062000513565b60405180910390a4505050565b6001600160e01b031916600090815260036020908152604080832060018085529252909120546001600160a01b03161490565b60006020828403121562000495578081fd5b81516001600160a01b0381168114620004ac578182fd5b9392505050565b60008251815b81811015620004d55760208186018101518583015201620004b9565b81811115620004e45782828501525b509190910192915050565b621858db60ea1b815260030190565b6001600160e01b031991909116815260200190565b6001600160a01b0391909116815260200190565b6020808252600b908201526a30b1b61d10333937bd32b760a91b604082015260600190565b60208082526022908201527f696e697469616c697a61626c653a20616c726561647920696e697469616c697a604082015261195960f21b606082015260800190565b6020808252600f908201526e61636c3a2062616420667265657a6560881b604082015260600190565b611dd280620005c76000396000f3fe6080604052600436106100f75760003560e01c806396fc8abd1161008a578063bdf9a72611610059578063bdf9a72614610340578063c2d85afc14610360578063c4d66de81461038e578063cc1d4cab146103ae5761013f565b806396fc8abd146102b3578063a157a10d146102e0578063a215722714610300578063a43e2533146103205761013f565b80633e2ab0d9116100c65780633e2ab0d91461023e578063495a98251461025e578063588497341461027e5780637e8c7f081461029e5761013f565b806301ffc9a71461019b578063097c8108146101d15780631626ba7e146101f15780631c47671b1461021e5761013f565b3661013f57336001600160a01b03167f6c703791f399558807424f489ccd811c72b4ff0b74af547264fad7c646776df0346040516101359190611ce5565b60405180910390a2005b34801561014b57600080fd5b506101996000356001600160e01b0319166000368080601f0160208091040260200160405190810160405280939291908181526020018383808284376000920191909152506103db92505050565b005b3480156101a757600080fd5b506101bb6101b636600461174e565b61047c565b6040516101c89190611a83565b60405180910390f35b3480156101dd57600080fd5b506101bb6101ec3660046117be565b6104ae565b3480156101fd57600080fd5b5061021161020c366004611709565b6106b2565b6040516101c89190611ac0565b34801561022a57600080fd5b5061019961023936600461160a565b610767565b34801561024a57600080fd5b5061019961025936600461154c565b610885565b34801561026a57600080fd5b506101bb61027936600461174e565b61091b565b34801561028a57600080fd5b50610199610299366004611786565b61094e565b3480156102aa57600080fd5b506102116109be565b3480156102bf57600080fd5b506102d36102ce366004611786565b6109c9565b6040516101c891906119a6565b3480156102ec57600080fd5b506101996102fb366004611786565b6109ef565b34801561030c57600080fd5b5061019961031b36600461181e565b610a5f565b34801561032c57600080fd5b5061019961033b366004611868565b610ad6565b34801561034c57600080fd5b5061019961035b36600461174e565b610b47565b34801561036c57600080fd5b5061038061037b366004611568565b610bba565b6040516101c8929190611a8e565b34801561039a57600080fd5b506101996103a936600461154c565b610e15565b3480156103ba57600080fd5b506103ce6103c93660046118a7565b610fec565b6040516101c89190611ce5565b6001600160e01b031982166000908152600160205260409020548061041b5760405162461bcd60e51b815260040161041290611bac565b60405180910390fd5b827bffffffffffffffffffffffffffffffffffffffffffffffffffffffff19167f2fdd9b4034d8eef4c469308919f66095e03b482447321a73e21479292fba6d378360405161046a9190611b2b565b60405180910390a28060005260206000f35b6001600160e01b0319811660009081526020819052604081205460ff16806104a857506104a882611009565b92915050565b6001600160e01b0319831660009081526003602090815260408083203384529091528120546001600160a01b031680156105a8576001600160a01b038116600214156104fe5760019150506106ab565b6040517f097c81080000000000000000000000000000000000000000000000000000000081526001600160a01b0382169063097c81089061054790889088908890600401611ad5565b602060405180830381600087803b15801561056157600080fd5b505af1158015610575573d6000803e3d6000fd5b505050506040513d601f19601f8201168201806040525081019061059991906116e9565b156105a85760019150506106ab565b6001600160e01b0319851660009081526003602090815260408083206001600160a01b038085529252909120541680156106a4576001600160a01b038116600214156105f9576001925050506106ab565b6040517f097c81080000000000000000000000000000000000000000000000000000000081526001600160a01b0382169063097c81089061064290899089908990600401611ad5565b602060405180830381600087803b15801561065c57600080fd5b505af1158015610670573d6000803e3d6000fd5b505050506040513d601f19601f8201168201806040525081019061069491906116e9565b156106a4576001925050506106ab565b6000925050505b9392505050565b6004546000906001600160a01b03166106cd575060006104a8565b600480546040517f1626ba7e0000000000000000000000000000000000000000000000000000000081526001600160a01b0390911691631626ba7e91610717918791879101611aa7565b60206040518083038186803b15801561072f57600080fd5b505afa158015610743573d6000803e3d6000fd5b505050506040513d601f19601f820116820180604052508101906106ab919061176a565b60408051602036601f810182900482028301820190935282825263161b7d8160e21b926107b19284923392600091819084018382808284376000920191909152506104ae92505050565b6107cd5760405162461bcd60e51b815260040161041290611b3e565b60005b8251811015610880576107e161145b565b8382815181106107ed57fe5b602002602001015190506000600281111561080457fe5b8151600281111561081157fe5b141561082e5761082981602001518260400151611048565b610877565b60018151600281111561083d57fe5b14156108555761082981602001518260400151611054565b60028151600281111561086457fe5b14156108775761087781602001516110f2565b506001016107d0565b505050565b633e2ab0d960e01b6108cf81336000368080601f0160208091040260200160405190810160405280939291908181526020018383808284376000920191909152506104ae92505050565b6108eb5760405162461bcd60e51b815260040161041290611b3e565b506004805473ffffffffffffffffffffffffffffffffffffffff19166001600160a01b0392909216919091179055565b6001600160e01b031916600090815260036020908152604080832060018085529252909120546001600160a01b03161490565b60408051602036601f810182900482028301820190935282825263161b7d8160e21b926109989284923392600091819084018382808284376000920191909152506104ae92505050565b6109b45760405162461bcd60e51b815260040161041290611b3e565b6108808383611054565b63161b7d8160e21b81565b60036020908152600092835260408084209091529082529020546001600160a01b031681565b60408051602036601f810182900482028301820190935282825263161b7d8160e21b92610a399284923392600091819084018382808284376000920191909152506104ae92505050565b610a555760405162461bcd60e51b815260040161041290611b3e565b6108808383611048565b60408051602036601f810182900482028301820190935282825263161b7d8160e21b92610aa99284923392600091819084018382808284376000920191909152506104ae92505050565b610ac55760405162461bcd60e51b815260040161041290611b3e565b610ad0848484611187565b50505050565b63a43e253360e01b610b2081336000368080601f0160208091040260200160405190810160405280939291908181526020018383808284376000920191909152506104ae92505050565b610b3c5760405162461bcd60e51b815260040161041290611b3e565b610ad084848461126b565b60408051602036601f810182900482028301820190935282825263161b7d8160e21b92610b919284923392600091819084018382808284376000920191909152506104ae92505050565b610bad5760405162461bcd60e51b815260040161041290611b3e565b610bb6826110f2565b5050565b6000606063c2d85afc60e01b610c0881336000368080601f0160208091040260200160405190810160405280939291908181526020018383808284376000920191909152506104ae92505050565b610c245760405162461bcd60e51b815260040161041290611b3e565b61010086511115610c475760405162461bcd60e51b815260040161041290611c77565b6060865167ffffffffffffffff81118015610c6157600080fd5b50604051908082528060200260200182016040528015610c9557816020015b6060815260200190600190039081610c805790505b5090506000805b8851811015610dc157600060608a8381518110610cb557fe5b6020026020010151600001516001600160a01b03168b8481518110610cd657fe5b6020026020010151602001518c8581518110610cee57fe5b602002602001015160400151604051610d079190611961565b60006040518083038185875af1925050503d8060008114610d44576040519150601f19603f3d011682016040523d82523d6000602084013e610d49565b606091505b50915091508180610d655750610d658a8463ffffffff61127e16565b610d815760405162461bcd60e51b815260040161041290611c40565b81610d9b57610d96848463ffffffff61128b16565b610d9d565b835b935080858481518110610dac57fe5b60209081029190910101525050600101610c9c565b50336001600160a01b03167f589db18161c9dc190c7fc0cc0c319eeb589c1ba890be60089f1ee76b4bfb01ea89888486604051610e0194939291906119ba565b60405180910390a297909650945050505050565b306002604051610e249061197d565b90815260200160405180910390205460001415610e4457610e4481611298565b6040518060400160405280600681526020017f676f7665726e0000000000000000000000000000000000000000000000000000815250600281604051610e8a9190611961565b908152602001604051809103902054600014610eb85760405162461bcd60e51b815260040161041290611be3565b43600282604051610ec99190611961565b90815260405190819003602001902055610f037fc2d85afc0000000000000000000000000000000000000000000000000000000084611048565b610f2d7fa43e25330000000000000000000000000000000000000000000000000000000030611048565b610f577f3e2ab0d90000000000000000000000000000000000000000000000000000000030611048565b610f807fc2d85afc00000000000000000000000000000000000000000000000000000000611380565b610fa97f1626ba7e00000000000000000000000000000000000000000000000000000000611380565b80604051610fb79190611961565b604051908190038120907f7bc2a48a4a566e237a12186f19d985b0f76afc9d5290601edac19876253670c290600090a2505050565b805160208183018101805160028252928201919093012091525481565b60006001600160e01b031982167f01ffc9a70000000000000000000000000000000000000000000000000000000014806104a857505060014214919050565b610bb682826002611187565b61105d8261091b565b1561107a5760405162461bcd60e51b815260040161041290611b75565b6001600160e01b0319821660008181526003602090815260408083206001600160a01b0386168085529252808320805473ffffffffffffffffffffffffffffffffffffffff19169055519092339290917f682f2c466c1e9f6883eb72cbced01373e1cb18b05ae5c8bc04dc73d73e29f8cd9190a45050565b6110fb8161091b565b156111185760405162461bcd60e51b815260040161041290611b75565b6001600160e01b03198116600081815260036020908152604080832060018085529252808320805473ffffffffffffffffffffffffffffffffffffffff1916909217909155513392917f049c6b8b07a879425742523fa80f8ffb25e39ad518c93a5896a0df19518397e591a350565b6111908361091b565b156111ad5760405162461bcd60e51b815260040161041290611b75565b6001600160a01b038216600114156111d75760405162461bcd60e51b815260040161041290611cae565b6001600160e01b0319831660008181526003602090815260408083206001600160a01b038781168086529190935292819020805473ffffffffffffffffffffffffffffffffffffffff19169286169290921790915551909133917fc62063b81f7036fd97a0dc546516e99f11004d2d76ca0fddd3866346c86e70919061125e9086906119a6565b60405180910390a4505050565b61127483611380565b61088082826113fd565b60ff161c60019081161490565b600160ff919091161b1890565b6040518060400160405280600381526020017f61636c00000000000000000000000000000000000000000000000000000000008152506002816040516112de9190611961565b90815260200160405180910390205460001461130c5760405162461bcd60e51b815260040161041290611be3565b4360028260405161131d9190611961565b9081526040519081900360200190205561133e63161b7d8160e21b83611048565b8060405161134c9190611961565b604051908190038120907f7bc2a48a4a566e237a12186f19d985b0f76afc9d5290601edac19876253670c290600090a25050565b6001600160e01b031981166000908152602081905260409081902080547fffffffffffffffffffffffffffffffffffffffffffffffffffffffffffffff00166001179055517fbf5e1f87f5ab65b58074cd29244d7c487a948983cda4b932e0f966b62bd34aca906113f2908390611ac0565b60405180910390a150565b6001600160e01b031982811660009081526001602052604090819020918316909155517f93d5961296b43c7ce4028f69e1b1469851106225a65d1a7f87fe48edf7f100d89061144f9084908490611b10565b60405180910390a15050565b6040805160608101909152806000815260006020820181905260409091015290565b600082601f83011261148d578081fd5b813567ffffffffffffffff8111156114a3578182fd5b6114b66020601f19601f84011601611cee565b91508082528360208285010111156114cd57600080fd5b8060208401602084013760009082016020015292915050565b6000606082840312156114f7578081fd5b6115016060611cee565b9050813561150e81611d61565b815260208281013590820152604082013567ffffffffffffffff81111561153457600080fd5b6115408482850161147d565b60408301525092915050565b60006020828403121561155d578081fd5b81356106ab81611d61565b60008060006060848603121561157c578182fd5b833567ffffffffffffffff811115611592578283fd5b80850186601f8201126115a3578384fd5b803591506115b86115b383611d15565b611cee565b82815260208082019190838101875b868110156115f0576115de8c8484358901016114e6565b855293820193908201906001016115c7565b50919a908901359950604090980135979650505050505050565b6000602080838503121561161c578182fd5b823567ffffffffffffffff811115611632578283fd5b80840185601f820112611643578384fd5b803591506116536115b383611d15565b828152838101908285016060808602850187018a1015611671578788fd5b8794505b858510156116db5780828b03121561168b578788fd5b61169481611cee565b823561169f81611d8f565b8152828801356116ae81611d79565b818901526040838101356116c181611d61565b908201528452600194909401939286019290810190611675565b509098975050505050505050565b6000602082840312156116fa578081fd5b815180151581146106ab578182fd5b6000806040838503121561171b578182fd5b82359150602083013567ffffffffffffffff811115611738578182fd5b6117448582860161147d565b9150509250929050565b60006020828403121561175f578081fd5b81356106ab81611d79565b60006020828403121561177b578081fd5b81516106ab81611d79565b60008060408385031215611798578182fd5b82356117a381611d79565b915060208301356117b381611d61565b809150509250929050565b6000806000606084860312156117d2578283fd5b83356117dd81611d79565b925060208401356117ed81611d61565b9150604084013567ffffffffffffffff811115611808578182fd5b6118148682870161147d565b9150509250925092565b600080600060608486031215611832578081fd5b833561183d81611d79565b9250602084013561184d81611d61565b9150604084013561185d81611d61565b809150509250925092565b60008060006060848603121561187c578081fd5b833561188781611d79565b9250602084013561189781611d79565b9150604084013561185d81611d79565b6000602082840312156118b8578081fd5b813567ffffffffffffffff8111156118ce578182fd5b6118da8482850161147d565b949350505050565b6000815180845260208085018081965082840281019150828601855b85811015611928578284038952611916848351611935565b988501989350908401906001016118fe565b5091979650505050505050565b6000815180845261194d816020860160208601611d35565b601f01601f19169290920160200192915050565b60008251611973818460208701611d35565b9190910192915050565b7f61636c0000000000000000000000000000000000000000000000000000000000815260030190565b6001600160a01b0391909116815260200190565b6000608082016080835280875180835260a0850191506020925060a0838202860101838a01855b83811015611a56577fffffffffffffffffffffffffffffffffffffffffffffffffffffffffffffff60888403018552815160606001600160a01b03825116855287820151888601526040808301518282880152611a4083880182611935565b988a0198965050509287019250506001016119e1565b505088848701528760408701528581036060870152611a7581886118e2565b9a9950505050505050505050565b901515815260200190565b6000838252604060208301526118da60408301846118e2565b6000838252604060208301526118da6040830184611935565b6001600160e01b031991909116815260200190565b60006001600160e01b0319851682526001600160a01b038416602083015260606040830152611b076060830184611935565b95945050505050565b6001600160e01b031992831681529116602082015260400190565b6000602082526106ab6020830184611935565b60208082526009908201527f61636c3a20617574680000000000000000000000000000000000000000000000604082015260600190565b6020808252600b908201527f61636c3a2066726f7a656e000000000000000000000000000000000000000000604082015260600190565b6020808252601d908201527f616461702d6572633136353a20756e6b6e6f776e2063616c6c6261636b000000604082015260600190565b60208082526022908201527f696e697469616c697a61626c653a20616c726561647920696e697469616c697a60408201527f6564000000000000000000000000000000000000000000000000000000000000606082015260800190565b6020808252600c908201527f676f7665726e3a2063616c6c0000000000000000000000000000000000000000604082015260600190565b60208082526010908201527f676f7665726e3a20746f6f206d616e7900000000000000000000000000000000604082015260600190565b6020808252600f908201527f61636c3a2062616420667265657a650000000000000000000000000000000000604082015260600190565b90815260200190565b60405181810167ffffffffffffffff81118282101715611d0d57600080fd5b604052919050565b600067ffffffffffffffff821115611d2b578081fd5b5060209081020190565b60005b83811015611d50578181015183820152602001611d38565b83811115610ad05750506000910152565b6001600160a01b0381168114611d7657600080fd5b50565b6001600160e01b031981168114611d7657600080fd5b60038110611d7657600080fdfea26469706673582212209422613448c2ab8f3dec7ea3692622c89411d5b308346836c4648321faf2e86264736f6c634300060800337bc2a48a4a566e237a12186f19d985b0f76afc9d5290601edac19876253670c2",
  "linkReferences": {},
  "deployedLinkReferences": {}
}