{
  "_format": "hh-sol-artifact-1",
  "contractName": "Initializable",
  "sourceName": "@aragon/govern-contract-utils/contracts/initializable/Initializable.sol",
  "abi": [
    {
      "anonymous": false,
      "inputs": [
        {
          "indexed": true,
          "internalType": "string",
          "name": "key",
          "type": "string"
        }
      ],
      "name": "Initialized",
      "type": "event"
    },
    {
      "inputs": [
        {
          "internalType": "string",
          "name": "",
          "type": "string"
        }
      ],
      "name": "initBlocks",
      "outputs": [
        {
          "internalType": "uint256",
          "name": "",
          "type": "uint256"
        }
      ],
      "stateMutability": "view",
      "type": "function"
    }
  ],
  "bytecode": "0x608060405234801561001057600080fd5b50610132806100206000396000f3fe6080604052348015600f57600080fd5b506004361060285760003560e01c8063cc1d4cab14602d575b600080fd5b60cd60048036036020811015604157600080fd5b810190602081018135640100000000811115605b57600080fd5b820183602082011115606c57600080fd5b80359060200191846001830284011164010000000083111715608d57600080fd5b91908080601f01602080910402602001604051908101604052809392919081815260200183838082843760009201919091525092955060df945050505050565b60408051918252519081900360200190f35b80516020818301810180516000825292820191909301209152548156fea264697066735822122084a34fffe6f185d93802ded11ddb3ecc272dff49c37cfe4e3b4663125791752664736f6c63430006080033",
  "linkReferences": {},
  "deployedLinkReferences": {}
}