{
  "_format": "hh-sol-artifact-1",
  "contractName": "TokenStorageProof",
  "sourceName": "contracts/vocdoni/token-storage-proof.sol",
  "abi": [
    {
      "anonymous": false,
      "inputs": [
        {
          "indexed": true,
          "internalType": "address",
          "name": "token",
          "type": "address"
        },
        {
          "indexed": true,
          "internalType": "address",
          "name": "registrar",
          "type": "address"
        }
      ],
      "name": "TokenRegistered",
      "type": "event"
    },
    {
      "inputs": [
        {
          "internalType": "address",
          "name": "tokenAddress",
          "type": "address"
        }
      ],
      "name": "getBalanceMappingPosition",
      "outputs": [
        {
          "internalType": "uint256",
          "name": "",
          "type": "uint256"
        }
      ],
      "stateMutability": "view",
      "type": "function"
    },
    {
      "inputs": [
        {
          "internalType": "address",
          "name": "holder",
          "type": "address"
        },
        {
          "internalType": "uint256",
          "name": "balanceMappingPosition",
          "type": "uint256"
        }
      ],
      "name": "getHolderBalanceSlot",
      "outputs": [
        {
          "internalType": "bytes32",
          "name": "",
          "type": "bytes32"
        }
      ],
      "stateMutability": "pure",
      "type": "function"
    },
    {
      "inputs": [
        {
          "internalType": "address",
          "name": "ercTokenAddress",
          "type": "address"
        }
      ],
      "name": "isRegistered",
      "outputs": [
        {
          "internalType": "bool",
          "name": "",
          "type": "bool"
        }
      ],
      "stateMutability": "view",
      "type": "function"
    },
    {
      "inputs": [
        {
          "internalType": "address",
          "name": "tokenAddress",
          "type": "address"
        },
        {
          "internalType": "uint256",
          "name": "balanceMappingPosition",
          "type": "uint256"
        },
        {
          "internalType": "uint256",
          "name": "blockNumber",
          "type": "uint256"
        },
        {
          "internalType": "bytes",
          "name": "blockHeaderRLP",
          "type": "bytes"
        },
        {
          "internalType": "bytes",
          "name": "accountStateProof",
          "type": "bytes"
        },
        {
          "internalType": "bytes",
          "name": "storageProof",
          "type": "bytes"
        }
      ],
      "name": "registerToken",
      "outputs": [],
      "stateMutability": "nonpayable",
      "type": "function"
    },
    {
      "inputs": [
        {
          "internalType": "uint256",
          "name": "",
          "type": "uint256"
        }
      ],
      "name": "tokenAddresses",
      "outputs": [
        {
          "internalType": "address",
          "name": "",
          "type": "address"
        }
      ],
      "stateMutability": "view",
      "type": "function"
    },
    {
      "inputs": [],
      "name": "tokenCount",
      "outputs": [
        {
          "internalType": "uint32",
          "name": "",
          "type": "uint32"
        }
      ],
      "stateMutability": "view",
      "type": "function"
    },
    {
      "inputs": [
        {
          "internalType": "address",
          "name": "",
          "type": "address"
        }
      ],
      "name": "tokens",
      "outputs": [
        {
          "internalType": "uint256",
          "name": "balanceMappingPosition",
          "type": "uint256"
        },
        {
          "internalType": "bool",
          "name": "registered",
          "type": "bool"
        }
      ],
      "stateMutability": "view",
      "type": "function"
    }
  ],
  "bytecode": "0x60806040526002805463ffffffff1916905534801561001d57600080fd5b50611ca98061002d6000396000f3fe608060405234801561001057600080fd5b506004361061007d5760003560e01c80639f181b5e1161005b5780639f181b5e146102b8578063c3c5a547146102d9578063e486033914610313578063e5df8b84146103525761007d565b80632815a86a146100825780632fcd10a2146100ba5780634ccdd506146100e6575b600080fd5b6100a86004803603602081101561009857600080fd5b50356001600160a01b031661038b565b60408051918252519081900360200190f35b6100a8600480360360408110156100d057600080fd5b506001600160a01b038135169060200135610475565b6102b6600480360360c08110156100fc57600080fd5b6001600160a01b03823516916020810135916040820135919081019060808101606082013564010000000081111561013357600080fd5b82018360208201111561014557600080fd5b8035906020019184600183028401116401000000008311171561016757600080fd5b91908080601f01602080910402602001604051908101604052809392919081815260200183838082843760009201919091525092959493602081019350359150506401000000008111156101ba57600080fd5b8201836020820111156101cc57600080fd5b803590602001918460018302840111640100000000831117156101ee57600080fd5b91908080601f016020809104026020016040519081016040528093929190818152602001838380828437600092019190915250929594936020810193503591505064010000000081111561024157600080fd5b82018360208201111561025357600080fd5b8035906020019184600183028401116401000000008311171561027557600080fd5b91908080601f0160208091040260200160405190810160405280939291908181526020018383808284376000920191909152509295506104ad945050505050565b005b6102c0610890565b6040805163ffffffff9092168252519081900360200190f35b6102ff600480360360208110156102ef57600080fd5b50356001600160a01b031661089c565b604080519115158252519081900360200190f35b6103396004803603602081101561032957600080fd5b50356001600160a01b031661094b565b6040805192835290151560208301528051918290030190f35b61036f6004803603602081101561036857600080fd5b5035610967565b604080516001600160a01b039092168252519081900360200190f35b60408051808201909152600f81527f494e56414c49445f41444452455353000000000000000000000000000000000060208201526000906001600160a01b0383166104545760405162461bcd60e51b81526004018080602001828103825283818151815260200191508051906020019080838360005b83811015610419578181015183820152602001610401565b50505050905090810190601f1680156104465780820380516001836020036101000a031916815260200191505b509250505060405180910390fd5b50506001600160a01b0381166000908152602081905260409020545b919050565b604080516001600160a01b03939093166020808501919091528382019290925280518084038201815260609093019052815191012090565b6104b68661098e565b6040518060400160405280600e81526020017f4e4f545f415f434f4e5452414354000000000000000000000000000000000000815250906105385760405162461bcd60e51b8152602060048201818152835160248401528351909283926044909101919085019080838360008315610419578181015183820152602001610401565b506105428661089c565b156040518060400160405280601281526020017f414c52454144595f524547495354455245440000000000000000000000000000815250906105c55760405162461bcd60e51b8152602060048201818152835160248401528351909283926044909101919085019080838360008315610419578181015183820152602001610401565b50604080517f70a08231000000000000000000000000000000000000000000000000000000008152336004820152905187916000916001600160a01b038416916370a08231916024808301926020929190829003018186803b15801561062a57600080fd5b505afa15801561063e573d6000803e3d6000fd5b505050506040513d602081101561065457600080fd5b505160408051808201909152601081527f4e4f545f454e4f5547485f46554e4453000000000000000000000000000000006020820152909150816106d95760405162461bcd60e51b8152602060048201818152835160248401528351909283926044909101919085019080838360008315610419578181015183820152602001610401565b5060006106e8898888886109b1565b905060006106f83386848c610adb565b9050600081116040518060400160405280601081526020017f4e4f545f454e4f5547485f46554e445300000000000000000000000000000000815250906107805760405162461bcd60e51b8152602060048201818152835160248401528351909283926044909101919085019080838360008315610419578181015183820152602001610401565b506001600160a01b038a16600081815260208190526040808220600180820180547fffffffffffffffffffffffffffffffffffffffffffffffffffffffffffffff0016821790558d8255805480820182558185527fb10e2d527612073b26eecdfd717e6a320cf44b4afac2b0732d9fcbe2b7fa0cf60180547fffffffffffffffffffffffff00000000000000000000000000000000000000001686179055600280547fffffffffffffffffffffffffffffffffffffffffffffffffffffffff00000000811663ffffffff9182169093011691909117905590519092339290917f487c37289624c10056468f1f98ebffbad01edce11374975179672e32e2543bf09190a35050505050505050505050565b60025463ffffffff1681565b60408051808201909152600f81527f494e56414c49445f41444452455353000000000000000000000000000000000060208201526000906001600160a01b0383166109285760405162461bcd60e51b8152602060048201818152835160248401528351909283926044909101919085019080838360008315610419578181015183820152602001610401565b50506001600160a01b031660009081526020819052604090206001015460ff1690565b6000602081905290815260409020805460019091015460ff1682565b6001818154811061097457fe5b6000918252602090912001546001600160a01b0316905081565b6000806001600160a01b0383166109a9576000915050610470565b50503b151590565b60408051808201909152601781527f424c4f434b484153485f4e4f545f415641494c41424c45000000000000000000602082015260009084409081610a375760405162461bcd60e51b8152602060048201818152835160248401528351909283926044909101919085019080838360008315610419578181015183820152602001610401565b50604080517fffffffffffffffffffffffffffffffffffffffff000000000000000000000000606089901b1660208083019190915282518083036014018152603490920190925280519101206000610a8f8684610bba565b90506060610a9e868385610cda565b9050610ace610ab4610aaf836112f7565b61133c565b80516002908110610ac157fe5b6020026020010151611452565b9998505050505050505050565b60408051808201909152601881527f554e50524f4345535345445f53544f524147455f524f4f540000000000000000602082015260009083610b5e5760405162461bcd60e51b8152602060048201818152835160248401528351909283926044909101919085019080838360008315610419578181015183820152602001610401565b506000610b6b8684610475565b60408051602080820184905282518083038201815291830190925280519101209091506060610b9b878784610cda565b9050610bae610ba9826112f7565b611452565b98975050505050505050565b6000607b8351116040518060400160405280601481526020017f494e56414c49445f424c4f434b5f48454144455200000000000000000000000081525090610c435760405162461bcd60e51b8152602060048201818152835160248401528351909283926044909101919085019080838360008315610419578181015183820152602001610401565b50818380519060200120146040518060400160405280601481526020017f494e56414c49445f424c4f434b5f48454144455200000000000000000000000081525090610cd05760405162461bcd60e51b8152602060048201818152835160248401528351909283926044909101919085019080838360008315610419578181015183820152602001610401565b505050607b015190565b604080516020808252818301909252606091829190602082018180368337019050509050826020820152610d0f816000611480565b90506060610d1f610aaf876112f7565b9050606060006060610d2f611bb5565b6000855160001415610dcd577f56e81f171bcc55a6ff8345e692c0f86e5b48e01b996cadc001622fb5e363b4218a14610daf576040805162461bcd60e51b815260206004820152600f60248201527f42616420656d7074792070726f6f660000000000000000000000000000000000604482015290519081900360640190fd5b505060408051600081526020810190915295506112f0945050505050565b60005b86518110156112e757610df5878281518110610de857fe5b60200260200101516115ef565b955080158015610e0b5750855160208701208b14155b15610e5d576040805162461bcd60e51b815260206004820152601460248201527f6261642066697273742070726f6f662070617274000000000000000000000000604482015290519081900360640190fd5b8015801590610e745750610e708661165d565b8514155b15610ec6576040805162461bcd60e51b815260206004820152600860248201527f6261642068617368000000000000000000000000000000000000000000000000604482015290519081900360640190fd5b610ee2878281518110610ed557fe5b602002602001015161133c565b93508351600214156111045760006060610f17610f1287600081518110610f0557fe5b6020026020010151611711565b611793565b90925090506000610f29858c846118c2565b905080850194508151811015610fbe5760018a5103841015610f7c5760405162461bcd60e51b8152600401808060200182810382526026815260200180611bd06026913960400191505060405180910390fd5b6000805b506040519080825280601f01601f191660200182016040528015610fab576020820181803683370190505b509b5050505050505050505050506112f0565b82156110605760018a510384101561101d576040805162461bcd60e51b815260206004820152601c60248201527f6c656166206d75737420636f6d65206c61737420696e2070726f6f6600000000604482015290519081900360640190fd5b8a5185101561102e57600080610f80565b8660018151811061103b57fe5b6020026020010151955061104e86611711565b9b5050505050505050505050506112f0565b60018a51038414156110a35760405162461bcd60e51b8152600401808060200182810382526026815260200180611c4e6026913960400191505060405180910390fd5b6110c0876001815181106110b357fe5b6020026020010151611967565b6110e2576110d487600181518110610f0557fe5b8051906020012097506110fc565b6110f287600181518110610de857fe5b8051906020012097505b5050506112df565b8351601114156112df578751821461126857600088838151811061112457fe5b01602001516001939093019260f81c9050601081106111745760405162461bcd60e51b815260040180806020018281038252602e815260200180611bf6602e913960400191505060405180910390fd5b611193858260ff168151811061118657fe5b6020026020010151611993565b1561121057600188510382146111f0576040805162461bcd60e51b815260206004820152601d60248201527f6c656166206e6f646573206f6e6c79206174206c617374206c6576656c000000604482015290519081900360640190fd5b505060408051600081526020810190915297506112f09650505050505050565b611222858260ff16815181106110b357fe5b61124657611238858260ff1681518110610f0557fe5b805190602001209550611262565b611258858260ff1681518110610de857fe5b8051906020012095505b506112df565b600187510381146112c0576040805162461bcd60e51b815260206004820152601760248201527f73686f756c64206265206174206c617374206c6576656c000000000000000000604482015290519081900360640190fd5b6112d084601081518110610f0557fe5b985050505050505050506112f0565b600101610dd0565b50505050505050505b9392505050565b6112ff611bb5565b815161131f57506040805180820190915260008082526020820152610470565b506040805180820190915281518152602082810190820152919050565b606061134782611967565b6113825760405162461bcd60e51b815260040180806020018281038252602a815260200180611c24602a913960400191505060405180910390fd5b600061138d836119b6565b90508067ffffffffffffffff811180156113a657600080fd5b506040519080825280602002602001820160405280156113e057816020015b6113cd611bb5565b8152602001906001900390816113c55790505b50915060006113f28460200151611a03565b60208501510190506000805b838110156114495761140f83611a8a565b915060405180604001604052808381526020018481525085828151811061143257fe5b6020908102919091010152918101916001016113fe565b50505050919050565b6000806114628360200151611a03565b83516020948501518201519190039093036101000a90920492915050565b6060600083511161149057600080fd5b8251600202808311156114a257600080fd5b8290038067ffffffffffffffff811180156114bc57600080fd5b506040519080825280601f01601f1916602001820160405280156114e7576020820181803683370190505b5091506000835b8285018110156115dc576002810661156a57600486600283048151811061151157fe5b602001015160f81c60f81b60f81c60ff16901c600f1660f81b84838151811061153657fe5b60200101907effffffffffffffffffffffffffffffffffffffffffffffffffffffffffffff1916908160001a9053506115d0565b600086600283048151811061157b57fe5b602001015160f81c60f81b60f81c60ff16901c600f1660f81b8483815181106115a057fe5b60200101907effffffffffffffffffffffffffffffffffffffffffffffffffffffffffffff1916908160001a9053505b600191820191016114ee565b50825181146115e757fe5b505092915050565b606080826000015167ffffffffffffffff8111801561160d57600080fd5b506040519080825280601f01601f191660200182016040528015611638576020820181803683370190505b50905060008160200190506116568460200151828660000151611b56565b5092915050565b6000602082511015611676575080516020820120610470565b816040516020018082805190602001908083835b602083106116a95780518252601f19909201916020918201910161168a565b6001836020036101000a0380198251168184511680821785525050505050509050019150506040516020818303038152906040528051906020012060405160200180828152602001915050604051602081830303815290604052805190602001209050610470565b606060006117228360200151611a03565b835190915081900360608167ffffffffffffffff8111801561174357600080fd5b506040519080825280601f01601f19166020018201604052801561176e576020820181803683370190505b509050600081602001905061178a848760200151018285611b56565b50949350505050565b6000606060008351116117ed576040805162461bcd60e51b815260206004820152600560248201527f456d707479000000000000000000000000000000000000000000000000000000604482015290519081900360640190fd5b60006004846000815181106117fe57fe5b60209101015160f81c901c600f16905060008161182157506000925060026118ac565b816001141561183657506000925060016118ac565b816002141561184b57506001925060026118ac565b816003141561185f575060019250826118ac565b6040805162461bcd60e51b815260206004820152601460248201527f6661696c6564206465636f64696e672054726965000000000000000000000000604482015290519081900360640190fd5b836118b78683611480565b935093505050915091565b6000805b83518582011080156118d85750825181105b1561195f578281815181106118e957fe5b602001015160f81c60f81b7effffffffffffffffffffffffffffffffffffffffffffffffffffffffffffff1916848683018151811061192457fe5b01602001517fff0000000000000000000000000000000000000000000000000000000000000016146119575790506112f0565b6001016118c6565b949350505050565b6020810151805160009190821a9060c082101561198957600092505050610470565b5060019392505050565b80516000906001146119a757506000610470565b50602001515160001a60801490565b6000806000905060006119cc8460200151611a03565b602085015185519181019250015b808210156119fa576119eb82611a8a565b600190930192909101906119da565b50909392505050565b8051600090811a6080811015611a1d576000915050610470565b60b8811080611a38575060c08110801590611a38575060f881105b15611a47576001915050610470565b60c0811015611a79577fffffffffffffffffffffffffffffffffffffffffffffffffffffffffffffff4a019050610470565b60f519019050610470565b50919050565b8051600090811a6080811015611aa4576001915050610470565b60b8811015611ad6577fffffffffffffffffffffffffffffffffffffffffffffffffffffffffffffff81019050610470565b60c0811015611b035760b78103600184019350806020036101000a84510460018201810193505050611a84565b60f8811015611b35577fffffffffffffffffffffffffffffffffffffffffffffffffffffffffffffff41019050610470565b60019290920151602083900360f7016101000a900490910160f51901919050565b5b60208110611b76578251825260209283019290910190601f1901611b57565b915181516020939093036101000a7fffffffffffffffffffffffffffffffffffffffffffffffffffffffffffffffff0180199091169216919091179052565b60405180604001604052806000815260200160008152509056fe646976657267656e74206e6f6465206d75737420636f6d65206c61737420696e2070726f6f666966206272616e6368206e6f6465206561636820656c656d656e742068617320746f2062652061206e6962626c6543616e6e6f7420636f6e7665727420746f206c6973742061206e6f6e2d6c69737420524c504974656d2e657874656e73696f6e206e6f64652063616e6e6f74206265206174206c617374206c6576656ca264697066735822122071a0c64b9cc186c0f9118963a984012ea51df12017607837dd2da4456f5bd7c864736f6c634300060c0033",
  "linkReferences": {},
  "deployedLinkReferences": {}
}