{
  "_format": "hh-sol-artifact-1",
  "contractName": "ACL",
  "sourceName": "@aragon/govern-contract-utils/contracts/acl/ACL.sol",
  "abi": [
    {
      "inputs": [
        {
          "internalType": "address",
          "name": "_initialRoot",
          "type": "address"
        }
      ],
      "stateMutability": "nonpayable",
      "type": "constructor"
    },
    {
      "anonymous": false,
      "inputs": [
        {
          "indexed": true,
          "internalType": "bytes4",
          "name": "role",
          "type": "bytes4"
        },
        {
          "indexed": true,
          "internalType": "address",
          "name": "actor",
          "type": "address"
        }
      ],
      "name": "Frozen",
      "type": "event"
    },
    {
      "anonymous": false,
      "inputs": [
        {
          "indexed": true,
          "internalType": "bytes4",
          "name": "role",
          "type": "bytes4"
        },
        {
          "indexed": true,
          "internalType": "address",
          "name": "actor",
          "type": "address"
        },
        {
          "indexed": true,
          "internalType": "address",
          "name": "who",
          "type": "address"
        },
        {
          "indexed": false,
          "internalType": "contract IACLOracle",
          "name": "oracle",
          "type": "address"
        }
      ],
      "name": "Granted",
      "type": "event"
    },
    {
      "anonymous": false,
      "inputs": [
        {
          "indexed": true,
          "internalType": "string",
          "name": "key",
          "type": "string"
        }
      ],
      "name": "Initialized",
      "type": "event"
    },
    {
      "anonymous": false,
      "inputs": [
        {
          "indexed": true,
          "internalType": "bytes4",
          "name": "role",
          "type": "bytes4"
        },
        {
          "indexed": true,
          "internalType": "address",
          "name": "actor",
          "type": "address"
        },
        {
          "indexed": true,
          "internalType": "address",
          "name": "who",
          "type": "address"
        }
      ],
      "name": "Revoked",
      "type": "event"
    },
    {
      "inputs": [],
      "name": "ROOT_ROLE",
      "outputs": [
        {
          "internalType": "bytes4",
          "name": "",
          "type": "bytes4"
        }
      ],
      "stateMutability": "view",
      "type": "function"
    },
    {
      "inputs": [
        {
          "components": [
            {
              "internalType": "enum ACLData.BulkOp",
              "name": "op",
              "type": "uint8"
            },
            {
              "internalType": "bytes4",
              "name": "role",
              "type": "bytes4"
            },
            {
              "internalType": "address",
              "name": "who",
              "type": "address"
            }
          ],
          "internalType": "struct ACLData.BulkItem[]",
          "name": "items",
          "type": "tuple[]"
        }
      ],
      "name": "bulk",
      "outputs": [],
      "stateMutability": "nonpayable",
      "type": "function"
    },
    {
      "inputs": [
        {
          "internalType": "bytes4",
          "name": "_role",
          "type": "bytes4"
        }
      ],
      "name": "freeze",
      "outputs": [],
      "stateMutability": "nonpayable",
      "type": "function"
    },
    {
      "inputs": [
        {
          "internalType": "bytes4",
          "name": "_role",
          "type": "bytes4"
        },
        {
          "internalType": "address",
          "name": "_who",
          "type": "address"
        }
      ],
      "name": "grant",
      "outputs": [],
      "stateMutability": "nonpayable",
      "type": "function"
    },
    {
      "inputs": [
        {
          "internalType": "bytes4",
          "name": "_role",
          "type": "bytes4"
        },
        {
          "internalType": "address",
          "name": "_who",
          "type": "address"
        },
        {
          "internalType": "contract IACLOracle",
          "name": "_oracle",
          "type": "address"
        }
      ],
      "name": "grantWithOracle",
      "outputs": [],
      "stateMutability": "nonpayable",
      "type": "function"
    },
    {
      "inputs": [
        {
          "internalType": "string",
          "name": "",
          "type": "string"
        }
      ],
      "name": "initBlocks",
      "outputs": [
        {
          "internalType": "uint256",
          "name": "",
          "type": "uint256"
        }
      ],
      "stateMutability": "view",
      "type": "function"
    },
    {
      "inputs": [
        {
          "internalType": "bytes4",
          "name": "_role",
          "type": "bytes4"
        }
      ],
      "name": "isFrozen",
      "outputs": [
        {
          "internalType": "bool",
          "name": "",
          "type": "bool"
        }
      ],
      "stateMutability": "view",
      "type": "function"
    },
    {
      "inputs": [
        {
          "internalType": "bytes4",
          "name": "_role",
          "type": "bytes4"
        },
        {
          "internalType": "address",
          "name": "_who",
          "type": "address"
        }
      ],
      "name": "revoke",
      "outputs": [],
      "stateMutability": "nonpayable",
      "type": "function"
    },
    {
      "inputs": [
        {
          "internalType": "bytes4",
          "name": "",
          "type": "bytes4"
        },
        {
          "internalType": "address",
          "name": "",
          "type": "address"
        }
      ],
      "name": "roles",
      "outputs": [
        {
          "internalType": "address",
          "name": "",
          "type": "address"
        }
      ],
      "stateMutability": "view",
      "type": "function"
    },
    {
      "inputs": [
        {
          "internalType": "bytes4",
          "name": "_role",
          "type": "bytes4"
        },
        {
          "internalType": "address",
          "name": "_sender",
          "type": "address"
        },
        {
          "internalType": "bytes",
          "name": "_data",
          "type": "bytes"
        }
      ],
      "name": "willPerform",
      "outputs": [
        {
          "internalType": "bool",
          "name": "",
          "type": "bool"
        }
      ],
      "stateMutability": "nonpayable",
      "type": "function"
    }
  ],
  "bytecode": "0x60806040523480156200001157600080fd5b50604051620011e6380380620011e683398101604081905262000034916200029b565b806000604051620000459062000307565b90815260200160405180910390205460001415620000715762000071816001600160e01b036200007916565b5050620003ba565b604051806040016040528060038152602001621858db60ea1b815250600081604051620000a79190620002cb565b908152602001604051809103902054600014620000e15760405162461bcd60e51b8152600401620000d8906200034f565b60405180910390fd5b43600082604051620000f49190620002cb565b908152604051908190036020019020556200012063161b7d8160e21b836001600160e01b036200016416565b80604051620001309190620002cb565b604051908190038120907f7bc2a48a4a566e237a12186f19d985b0f76afc9d5290601edac19876253670c290600090a25050565b6200017b828260026001600160e01b036200017f16565b5050565b62000193836001600160e01b036200026916565b15620001b35760405162461bcd60e51b8152600401620000d8906200032a565b6001600160a01b03821660011415620001e05760405162461bcd60e51b8152600401620000d89062000391565b6001600160e01b0319831660008181526001602090815260408083206001600160a01b03878116808652919093529281902080546001600160a01b0319169286169290921790915551909133917fc62063b81f7036fd97a0dc546516e99f11004d2d76ca0fddd3866346c86e7091906200025c90869062000316565b60405180910390a4505050565b6001600160e01b0319166000908152600160208181526040808420838552909152909120546001600160a01b03161490565b600060208284031215620002ad578081fd5b81516001600160a01b0381168114620002c4578182fd5b9392505050565b60008251815b81811015620002ed5760208186018101518583015201620002d1565b81811115620002fc5782828501525b509190910192915050565b621858db60ea1b815260030190565b6001600160a01b0391909116815260200190565b6020808252600b908201526a30b1b61d10333937bd32b760a91b604082015260600190565b60208082526022908201527f696e697469616c697a61626c653a20616c726561647920696e697469616c697a604082015261195960f21b606082015260800190565b6020808252600f908201526e61636c3a2062616420667265657a6560881b604082015260600190565b610e1c80620003ca6000396000f3fe608060405234801561001057600080fd5b50600436106100be5760003560e01c806396fc8abd11610076578063a21572271161005b578063a21572271461016f578063bdf9a72614610182578063cc1d4cab14610195576100be565b806396fc8abd1461013c578063a157a10d1461015c576100be565b8063495a9825116100a7578063495a98251461010157806358849734146101145780637e8c7f0814610127576100be565b8063097c8108146100c35780631c47671b146100ec575b600080fd5b6100d66100d1366004610b55565b6101b5565b6040516100e39190610c4e565b60405180910390f35b6100ff6100fa366004610a31565b6103b9565b005b6100d661010f366004610b01565b6104e0565b6100ff610122366004610b1d565b610512565b61012f610582565b6040516100e39190610c59565b61014f61014a366004610b1d565b61058d565b6040516100e39190610c3a565b6100ff61016a366004610b1d565b6105b3565b6100ff61017d366004610bb5565b610623565b6100ff610190366004610b01565b61069a565b6101a86101a3366004610bff565b61070d565b6040516100e39190610d88565b6001600160e01b0319831660009081526001602090815260408083203384529091528120546001600160a01b031680156102af576001600160a01b038116600214156102055760019150506103b2565b6040517f097c81080000000000000000000000000000000000000000000000000000000081526001600160a01b0382169063097c81089061024e90889088908890600401610c6e565b602060405180830381600087803b15801561026857600080fd5b505af115801561027c573d6000803e3d6000fd5b505050506040513d601f19601f820116820180604052508101906102a09190610ae1565b156102af5760019150506103b2565b6001600160e01b0319851660009081526001602090815260408083206001600160a01b038085529252909120541680156103ab576001600160a01b03811660021415610300576001925050506103b2565b6040517f097c81080000000000000000000000000000000000000000000000000000000081526001600160a01b0382169063097c81089061034990899089908990600401610c6e565b602060405180830381600087803b15801561036357600080fd5b505af1158015610377573d6000803e3d6000fd5b505050506040513d601f19601f8201168201806040525081019061039b9190610ae1565b156103ab576001925050506103b2565b6000925050505b9392505050565b60408051602036601f810182900482028301820190935282825263161b7d8160e21b926104039284923392600091819084018382808284376000920191909152506101b592505050565b6104285760405162461bcd60e51b815260040161041f90610ce3565b60405180910390fd5b60005b82518110156104db5761043c61094c565b83828151811061044857fe5b602002602001015190506000600281111561045f57fe5b8151600281111561046c57fe5b1415610489576104848160200151826040015161072a565b6104d2565b60018151600281111561049857fe5b14156104b05761048481602001518260400151610736565b6002815160028111156104bf57fe5b14156104d2576104d281602001516107d4565b5060010161042b565b505050565b6001600160e01b0319166000908152600160208181526040808420838552909152909120546001600160a01b03161490565b60408051602036601f810182900482028301820190935282825263161b7d8160e21b9261055c9284923392600091819084018382808284376000920191909152506101b592505050565b6105785760405162461bcd60e51b815260040161041f90610ce3565b6104db8383610736565b63161b7d8160e21b81565b60016020908152600092835260408084209091529082529020546001600160a01b031681565b60408051602036601f810182900482028301820190935282825263161b7d8160e21b926105fd9284923392600091819084018382808284376000920191909152506101b592505050565b6106195760405162461bcd60e51b815260040161041f90610ce3565b6104db838361072a565b60408051602036601f810182900482028301820190935282825263161b7d8160e21b9261066d9284923392600091819084018382808284376000920191909152506101b592505050565b6106895760405162461bcd60e51b815260040161041f90610ce3565b610694848484610868565b50505050565b60408051602036601f810182900482028301820190935282825263161b7d8160e21b926106e49284923392600091819084018382808284376000920191909152506101b592505050565b6107005760405162461bcd60e51b815260040161041f90610ce3565b610709826107d4565b5050565b805160208183018101805160008252928201919093012091525481565b61070982826002610868565b61073f826104e0565b1561075c5760405162461bcd60e51b815260040161041f90610d1a565b6001600160e01b0319821660008181526001602090815260408083206001600160a01b0386168085529252808320805473ffffffffffffffffffffffffffffffffffffffff19169055519092339290917f682f2c466c1e9f6883eb72cbced01373e1cb18b05ae5c8bc04dc73d73e29f8cd9190a45050565b6107dd816104e0565b156107fa5760405162461bcd60e51b815260040161041f90610d1a565b6001600160e01b031981166000818152600160208181526040808420838552909152808320805473ffffffffffffffffffffffffffffffffffffffff1916909217909155513392917f049c6b8b07a879425742523fa80f8ffb25e39ad518c93a5896a0df19518397e591a350565b610871836104e0565b1561088e5760405162461bcd60e51b815260040161041f90610d1a565b6001600160a01b038216600114156108b85760405162461bcd60e51b815260040161041f90610d51565b6001600160e01b0319831660008181526001602090815260408083206001600160a01b038781168086529190935292819020805473ffffffffffffffffffffffffffffffffffffffff19169286169290921790915551909133917fc62063b81f7036fd97a0dc546516e99f11004d2d76ca0fddd3866346c86e70919061093f908690610c3a565b60405180910390a4505050565b6040805160608101909152806000815260006020820181905260409091015290565b600082601f83011261097e578081fd5b813567ffffffffffffffff811115610994578182fd5b6109a76020601f19601f84011601610d91565b91508082528360208285010111156109be57600080fd5b8060208401602084013760009082016020015292915050565b6000606082840312156109e8578081fd5b6109f26060610d91565b9050813560038110610a0357600080fd5b81526020820135610a1381610dd0565b60208201526040820135610a2681610db8565b604082015292915050565b60006020808385031215610a43578182fd5b823567ffffffffffffffff80821115610a5a578384fd5b81850186601f820112610a6b578485fd5b8035925081831115610a7b578485fd5b610a888485850201610d91565b83815284810192508185016060808602840187018a1015610aa7578788fd5b8793505b85841015610ad357610abd8a836109d7565b8552938601936001939093019290810190610aab565b509098975050505050505050565b600060208284031215610af2578081fd5b815180151581146103b2578182fd5b600060208284031215610b12578081fd5b81356103b281610dd0565b60008060408385031215610b2f578081fd5b8235610b3a81610dd0565b91506020830135610b4a81610db8565b809150509250929050565b600080600060608486031215610b69578081fd5b8335610b7481610dd0565b92506020840135610b8481610db8565b9150604084013567ffffffffffffffff811115610b9f578182fd5b610bab8682870161096e565b9150509250925092565b600080600060608486031215610bc9578283fd5b8335610bd481610dd0565b92506020840135610be481610db8565b91506040840135610bf481610db8565b809150509250925092565b600060208284031215610c10578081fd5b813567ffffffffffffffff811115610c26578182fd5b610c328482850161096e565b949350505050565b6001600160a01b0391909116815260200190565b901515815260200190565b6001600160e01b031991909116815260200190565b60006001600160e01b03198516825260206001600160a01b03851681840152606060408401528351806060850152825b81811015610cba57858101830151858201608001528201610c9e565b81811115610ccb5783608083870101525b50601f01601f19169290920160800195945050505050565b60208082526009908201527f61636c3a20617574680000000000000000000000000000000000000000000000604082015260600190565b6020808252600b908201527f61636c3a2066726f7a656e000000000000000000000000000000000000000000604082015260600190565b6020808252600f908201527f61636c3a2062616420667265657a650000000000000000000000000000000000604082015260600190565b90815260200190565b60405181810167ffffffffffffffff81118282101715610db057600080fd5b604052919050565b6001600160a01b0381168114610dcd57600080fd5b50565b6001600160e01b031981168114610dcd57600080fdfea26469706673582212206e9b36266a69e3b5fcdef35a8de8c9be960f8ed68acf1af45e261441b18f1b9664736f6c63430006080033",
  "linkReferences": {},
  "deployedLinkReferences": {}
}