{
  "_format": "hh-sol-artifact-1",
  "contractName": "Genesis",
  "sourceName": "contracts/vocdoni/genesis.sol",
  "abi": [
    {
      "anonymous": false,
      "inputs": [
        {
          "indexed": false,
          "internalType": "uint32",
          "name": "chainId",
          "type": "uint32"
        }
      ],
      "name": "ChainRegistered",
      "type": "event"
    },
    {
      "anonymous": false,
      "inputs": [
        {
          "indexed": false,
          "internalType": "uint32",
          "name": "chainId",
          "type": "uint32"
        }
      ],
      "name": "GenesisUpdated",
      "type": "event"
    },
    {
      "anonymous": false,
      "inputs": [
        {
          "indexed": false,
          "internalType": "uint32",
          "name": "chainId",
          "type": "uint32"
        },
        {
          "indexed": false,
          "internalType": "address",
          "name": "oracleAddress",
          "type": "address"
        }
      ],
      "name": "OracleAdded",
      "type": "event"
    },
    {
      "anonymous": false,
      "inputs": [
        {
          "indexed": false,
          "internalType": "uint32",
          "name": "chainId",
          "type": "uint32"
        },
        {
          "indexed": false,
          "internalType": "address",
          "name": "oracleAddress",
          "type": "address"
        }
      ],
      "name": "OracleRemoved",
      "type": "event"
    },
    {
      "anonymous": false,
      "inputs": [
        {
          "indexed": false,
          "internalType": "uint32",
          "name": "chainId",
          "type": "uint32"
        },
        {
          "indexed": false,
          "internalType": "bytes",
          "name": "validatorPublicKey",
          "type": "bytes"
        }
      ],
      "name": "ValidatorAdded",
      "type": "event"
    },
    {
      "anonymous": false,
      "inputs": [
        {
          "indexed": false,
          "internalType": "uint32",
          "name": "chainId",
          "type": "uint32"
        },
        {
          "indexed": false,
          "internalType": "bytes",
          "name": "validatorPublicKey",
          "type": "bytes"
        }
      ],
      "name": "ValidatorRemoved",
      "type": "event"
    },
    {
      "inputs": [
        {
          "internalType": "uint32",
          "name": "chainId",
          "type": "uint32"
        },
        {
          "internalType": "address",
          "name": "oracleAddress",
          "type": "address"
        }
      ],
      "name": "addOracle",
      "outputs": [],
      "stateMutability": "nonpayable",
      "type": "function"
    },
    {
      "inputs": [
        {
          "internalType": "uint32",
          "name": "chainId",
          "type": "uint32"
        },
        {
          "internalType": "bytes",
          "name": "validatorPublicKey",
          "type": "bytes"
        }
      ],
      "name": "addValidator",
      "outputs": [],
      "stateMutability": "nonpayable",
      "type": "function"
    },
    {
      "inputs": [
        {
          "internalType": "uint32",
          "name": "chainId",
          "type": "uint32"
        }
      ],
      "name": "get",
      "outputs": [
        {
          "internalType": "string",
          "name": "genesis",
          "type": "string"
        },
        {
          "internalType": "bytes[]",
          "name": "validators",
          "type": "bytes[]"
        },
        {
          "internalType": "address[]",
          "name": "oracles",
          "type": "address[]"
        }
      ],
      "stateMutability": "view",
      "type": "function"
    },
    {
      "inputs": [],
      "name": "getChainCount",
      "outputs": [
        {
          "internalType": "uint32",
          "name": "",
          "type": "uint32"
        }
      ],
      "stateMutability": "view",
      "type": "function"
    },
    {
      "inputs": [
        {
          "internalType": "uint32",
          "name": "chainId",
          "type": "uint32"
        },
        {
          "internalType": "address",
          "name": "oracleAddress",
          "type": "address"
        }
      ],
      "name": "isOracle",
      "outputs": [
        {
          "internalType": "bool",
          "name": "",
          "type": "bool"
        }
      ],
      "stateMutability": "view",
      "type": "function"
    },
    {
      "inputs": [
        {
          "internalType": "uint32",
          "name": "chainId",
          "type": "uint32"
        },
        {
          "internalType": "bytes",
          "name": "validatorPublicKey",
          "type": "bytes"
        }
      ],
      "name": "isValidator",
      "outputs": [
        {
          "internalType": "bool",
          "name": "",
          "type": "bool"
        }
      ],
      "stateMutability": "view",
      "type": "function"
    },
    {
      "inputs": [
        {
          "internalType": "string",
          "name": "genesis",
          "type": "string"
        },
        {
          "internalType": "bytes[]",
          "name": "validatorList",
          "type": "bytes[]"
        },
        {
          "internalType": "address[]",
          "name": "oracleList",
          "type": "address[]"
        }
      ],
      "name": "newChain",
      "outputs": [
        {
          "internalType": "uint32",
          "name": "newChainId",
          "type": "uint32"
        }
      ],
      "stateMutability": "nonpayable",
      "type": "function"
    },
    {
      "inputs": [
        {
          "internalType": "uint32",
          "name": "chainId",
          "type": "uint32"
        },
        {
          "internalType": "uint256",
          "name": "idx",
          "type": "uint256"
        },
        {
          "internalType": "address",
          "name": "oracleAddress",
          "type": "address"
        }
      ],
      "name": "removeOracle",
      "outputs": [],
      "stateMutability": "nonpayable",
      "type": "function"
    },
    {
      "inputs": [
        {
          "internalType": "uint32",
          "name": "chainId",
          "type": "uint32"
        },
        {
          "internalType": "uint256",
          "name": "idx",
          "type": "uint256"
        },
        {
          "internalType": "bytes",
          "name": "validatorPublicKey",
          "type": "bytes"
        }
      ],
      "name": "removeValidator",
      "outputs": [],
      "stateMutability": "nonpayable",
      "type": "function"
    },
    {
      "inputs": [
        {
          "internalType": "uint32",
          "name": "chainId",
          "type": "uint32"
        },
        {
          "internalType": "string",
          "name": "newGenesis",
          "type": "string"
        }
      ],
      "name": "setGenesis",
      "outputs": [],
      "stateMutability": "nonpayable",
      "type": "function"
    }
  ],
  "bytecode": "0x608060405234801561001057600080fd5b50600080546001600160a01b0319163317905561173f806100326000396000f3fe608060405234801561001057600080fd5b50600436106100bd5760003560e01c8063bb99d77a11610076578063d32954a51161005b578063d32954a514610161578063d4f5215214610174578063d8a26e3a14610187576100bd565b8063bb99d77a14610139578063d25d23bd1461014c576100bd565b806360d6c264116100a757806360d6c2641461010057806374af92a2146101135780639c8ea8cc14610126576100bd565b80623fcf71146100c25780630aa4bac2146100d7575b600080fd5b6100d56100d0366004611348565b6101a9565b005b6100ea6100e53660046112aa565b610392565b6040516100f79190611426565b60405180910390f35b6100d561010e3660046112de565b6103c9565b6100ea6101213660046112de565b6104f1565b6100d5610134366004611385565b610535565b6100d56101473660046112aa565b610770565b610154610889565b6040516100f79190611629565b6100d561016f36600461132b565b610895565b6101546101823660046111bc565b610a10565b61019a61019536600461128e565b610bd1565b6040516100f793929190611431565b6000546001600160a01b031633146101dc5760405162461bcd60e51b81526004016101d3906114df565b60405180910390fd5b60025463ffffffff908116908416106102075760405162461bcd60e51b81526004016101d390611516565b63ffffffff8316600090815260016020526040902060028101548084106102405760405162461bcd60e51b81526004016101d39061154d565b826001600160a01b031682600201858154811061025957fe5b6000918252602090912001546001600160a01b03161461028b5760405162461bcd60e51b81526004016101d390611584565b81600201600182038154811061029d57fe5b6000918252602090912001546002830180546001600160a01b0390921691869081106102c557fe5b9060005260206000200160006101000a8154816001600160a01b0302191690836001600160a01b031602179055508160020180548061030057fe5b600082815260208082208301600019908101805473ffffffffffffffffffffffffffffffffffffffff191690559092019092556001600160a01b0385168252600484019052604090819020805460ff19169055517f4b8171862540a056f44154d626c1390fed806ee806026247dc8c19f47b09acbe90610383908790869061163a565b60405180910390a15050505050565b63ffffffff821660009081526001602090815260408083206001600160a01b038516845260040190915290205460ff165b92915050565b6000546001600160a01b031633146103f35760405162461bcd60e51b81526004016101d3906114df565b60025463ffffffff9081169083161061041e5760405162461bcd60e51b81526004016101d390611516565b61042882826104f1565b156104455760405162461bcd60e51b81526004016101d3906115f2565b63ffffffff82166000908152600160208181526040832080830180549384018155845292819020845161047f939190910191850190610e53565b5060018160030183604051610494919061140a565b908152604051908190036020018120805492151560ff19909316929092179091557f3d8adf342e55e97b1f85be8e952d2b473ec50bb2004821559c2b440f0a589e4e906104e49085908590611659565b60405180910390a1505050565b63ffffffff8216600090815260016020526040808220905160039091019061051a90849061140a565b9081526040519081900360200190205460ff16905092915050565b6000546001600160a01b0316331461055f5760405162461bcd60e51b81526004016101d3906114df565b60025463ffffffff9081169084161061058a5760405162461bcd60e51b81526004016101d390611516565b63ffffffff83166000908152600160208190526040909120908101548084106105c55760405162461bcd60e51b81526004016101d39061154d565b6106708260010185815481106105d757fe5b600091825260209182902001805460408051601f60026000196101006001871615020190941693909304928301859004850281018501909152818152928301828280156106655780601f1061063a57610100808354040283529160200191610665565b820191906000526020600020905b81548152906001019060200180831161064857829003601f168201915b505050505084610de7565b61068c5760405162461bcd60e51b81526004016101d390611584565b81600101600182038154811061069e57fe5b906000526020600020018260010185815481106106b757fe5b9060005260206000200190805460018160011615610100020316600290046106e0929190610ed1565b50816001018054806106ee57fe5b60019003818190600052602060002001600061070a9190610f46565b905560008260030184604051610720919061140a565b908152604051908190036020018120805492151560ff19909316929092179091557f7436794ad809d5819bbcbd64a94846c7da193b8280de35e7ce59d3b7b4e6bbe1906103839087908690611659565b6000546001600160a01b0316331461079a5760405162461bcd60e51b81526004016101d3906114df565b60025463ffffffff908116908316106107c55760405162461bcd60e51b81526004016101d390611516565b6107cf8282610392565b156107ec5760405162461bcd60e51b81526004016101d3906115f2565b63ffffffff82166000908152600160208181526040808420600281018054808601825590865283862001805473ffffffffffffffffffffffffffffffffffffffff19166001600160a01b03881690811790915585526004810190925292839020805460ff191690921790915590517f572d29453222865ac78ef8d936cb20aba9368900deb6db64997c1482fe2b30c9906104e4908590859061163a565b60025463ffffffff1690565b6000546001600160a01b031633146108bf5760405162461bcd60e51b81526004016101d3906114df565b60025463ffffffff908116908316106108ea5760405162461bcd60e51b81526004016101d390611516565b63ffffffff821660009081526001602081815260409283902080548451600294821615610100026000190190911693909304601f81018390048302840183019094528383526109919390918301828280156109865780601f1061095b57610100808354040283529160200191610986565b820191906000526020600020905b81548152906001019060200180831161096957829003601f168201915b505050505082610e40565b156109ae5760405162461bcd60e51b81526004016101d3906115bb565b63ffffffff8216600090815260016020908152604090912082516109d492840190610e53565b507f87f64dce9746fc7da2e672b4aacc82ad148ed5900411894ddcbe532618fa89fb82604051610a049190611629565b60405180910390a15050565b600080546001600160a01b03163314610a3b5760405162461bcd60e51b81526004016101d3906114df565b60025463ffffffff16600090815260016020908152604090912085519091610a67918391880190610e53565b508351610a7d9060018301906020870190610f8d565b508251610a939060028301906020860190610fe6565b5060005b8451811015610aef57600182600301868381518110610ab257fe5b6020026020010151604051610ac7919061140a565b908152604051908190036020019020805491151560ff19909216919091179055600101610a97565b5060005b8351811015610b4a576001826004016000868481518110610b1057fe5b6020908102919091018101516001600160a01b03168252810191909152604001600020805460ff1916911515919091179055600101610af3565b506002546040517fced3baa88aa65d52234f5717c8b053dc44bb9df530b1f6784809640ed322b7e991610b859163ffffffff90911690611629565b60405180910390a15050600280547fffffffffffffffffffffffffffffffffffffffffffffffffffffffff000000008116600163ffffffff928316908101909216179091559392505050565b6002546060908190819063ffffffff90811690851610610c035760405162461bcd60e51b81526004016101d390611516565b63ffffffff8416600090815260016020818152604092839020805484516002828616156101000260001901909216829004601f810185900485028201850190965285815291949385019390850192859190830182828015610ca55780601f10610c7a57610100808354040283529160200191610ca5565b820191906000526020600020905b815481529060010190602001808311610c8857829003601f168201915b5050505050925081805480602002602001604051908101604052809291908181526020016000905b82821015610d785760008481526020908190208301805460408051601f6002600019610100600187161502019094169390930492830185900485028101850190915281815292830182828015610d645780601f10610d3957610100808354040283529160200191610d64565b820191906000526020600020905b815481529060010190602001808311610d4757829003601f168201915b505050505081526020019060010190610ccd565b50505050915080805480602002602001604051908101604052809291908181526020018280548015610dd357602002820191906000526020600020905b81546001600160a01b03168152600190910190602001808311610db5575b505050505090509250925092509193909250565b600081604051602001610dfa919061140a565b6040516020818303038152906040528051906020012083604051602001610e21919061140a565b6040516020818303038152906040528051906020012014905092915050565b6000610e4c8383610de7565b9392505050565b828054600181600116156101000203166002900490600052602060002090601f016020900481019282601f10610e9457805160ff1916838001178555610ec1565b82800160010185558215610ec1579182015b82811115610ec1578251825591602001919060010190610ea6565b50610ecd929150611054565b5090565b828054600181600116156101000203166002900490600052602060002090601f016020900481019282601f10610f0a5780548555610ec1565b82800160010185558215610ec157600052602060002091601f016020900482015b82811115610ec1578254825591600101919060010190610f2b565b50805460018160011615610100020316600290046000825580601f10610f6c5750610f8a565b601f016020900490600052602060002090810190610f8a9190611054565b50565b828054828255906000526020600020908101928215610fda579160200282015b82811115610fda5782518051610fca918491602090910190610e53565b5091602001919060010190610fad565b50610ecd929150611069565b828054828255906000526020600020908101928215611048579160200282015b82811115611048578251825473ffffffffffffffffffffffffffffffffffffffff19166001600160a01b03909116178255602090920191600190910190611006565b50610ecd929150611086565b5b80821115610ecd5760008155600101611055565b80821115610ecd57600061107d8282610f46565b50600101611069565b5b80821115610ecd57805473ffffffffffffffffffffffffffffffffffffffff19168155600101611087565b80356001600160a01b03811681146103c357600080fd5b600082601f8301126110d9578081fd5b81356110ec6110e7826116a7565b611680565b81815291506020808301908481018184028601820187101561110d57600080fd5b60005b848110156111345761112288836110b2565b84529282019290820190600101611110565b505050505092915050565b600082601f83011261114f578081fd5b813567ffffffffffffffff811115611165578182fd5b6111786020601f19601f84011601611680565b915080825283602082850101111561118f57600080fd5b8060208401602084013760009082016020015292915050565b803563ffffffff811681146103c357600080fd5b6000806000606084860312156111d0578283fd5b833567ffffffffffffffff808211156111e7578485fd5b6111f38783880161113f565b9450602091508186013581811115611209578485fd5b8601601f81018813611219578485fd5b80356112276110e7826116a7565b81815284810190838601885b8481101561125c5761124a8d89843589010161113f565b84529287019290870190600101611233565b50909750505050604087013592505080821115611277578283fd5b50611284868287016110c9565b9150509250925092565b60006020828403121561129f578081fd5b8135610e4c816116f7565b600080604083850312156112bc578182fd5b6112c684846111a8565b91506112d584602085016110b2565b90509250929050565b600080604083850312156112f0578182fd5b6112fa84846111a8565b9150602083013567ffffffffffffffff811115611315578182fd5b6113218582860161113f565b9150509250929050565b6000806040838503121561133d578182fd5b82356112fa816116f7565b60008060006060848603121561135c578283fd5b61136685856111a8565b92506020840135915061137c85604086016110b2565b90509250925092565b600080600060608486031215611399578283fd5b6113a385856111a8565b925060208401359150604084013567ffffffffffffffff8111156113c5578182fd5b6112848682870161113f565b6001600160a01b03169052565b600081518084526113f68160208601602086016116c7565b601f01601f19169290920160200192915050565b6000825161141c8184602087016116c7565b9190910192915050565b901515815260200190565b60006060825261144460608301866113de565b602083820381850152818651808452828401915082838202850101838901865b8381101561149257601f198784030185526114808383516113de565b94860194925090850190600101611464565b5050868103604088015287518082529084019450915050818601845b828110156114d1576114c18583516113d1565b93830193908301906001016114ae565b509298975050505050505050565b60208082526011908201527f6f6e6c79436f6e74726163744f776e6572000000000000000000000000000000604082015260600190565b60208082526009908201527f4e6f7420666f756e640000000000000000000000000000000000000000000000604082015260600190565b6020808252600d908201527f496e76616c696420696e64657800000000000000000000000000000000000000604082015260600190565b60208082526012908201527f496e6465782d6b6579206d69736d617463680000000000000000000000000000604082015260600190565b6020808252600b908201527f4d75737420646966666572000000000000000000000000000000000000000000604082015260600190565b6020808252600f908201527f416c72656164792070726573656e740000000000000000000000000000000000604082015260600190565b63ffffffff91909116815260200190565b63ffffffff9290921682526001600160a01b0316602082015260400190565b600063ffffffff841682526040602083015261167860408301846113de565b949350505050565b60405181810167ffffffffffffffff8111828210171561169f57600080fd5b604052919050565b600067ffffffffffffffff8211156116bd578081fd5b5060209081020190565b60005b838110156116e25781810151838201526020016116ca565b838111156116f1576000848401525b50505050565b63ffffffff81168114610f8a57600080fdfea26469706673582212206b4906d15e64ae1d76ecf27f7601bdbc81854766ff7fbc2305e1ea447f2ae96e64736f6c634300060c0033",
  "linkReferences": {},
  "deployedLinkReferences": {}
}