{
  "_format": "hh-sol-artifact-1",
  "contractName": "GovernTokenFactory",
  "sourceName": "contracts/govern/govern-token/GovernTokenFactory.sol",
  "abi": [
    {
      "inputs": [],
      "stateMutability": "nonpayable",
      "type": "constructor"
    },
    {
      "anonymous": false,
      "inputs": [
        {
          "indexed": false,
          "internalType": "contract GovernToken",
          "name": "token",
          "type": "address"
        },
        {
          "indexed": false,
          "internalType": "contract GovernMinter",
          "name": "minter",
          "type": "address"
        }
      ],
      "name": "CreatedToken",
      "type": "event"
    },
    {
      "inputs": [],
      "name": "distributorBase",
      "outputs": [
        {
          "internalType": "address",
          "name": "",
          "type": "address"
        }
      ],
      "stateMutability": "view",
      "type": "function"
    },
    {
      "inputs": [],
      "name": "minterBase",
      "outputs": [
        {
          "internalType": "address",
          "name": "",
          "type": "address"
        }
      ],
      "stateMutability": "view",
      "type": "function"
    },
    {
      "inputs": [
        {
          "internalType": "contract IERC3000Executor",
          "name": "_governExecutor",
          "type": "address"
        },
        {
          "internalType": "string",
          "name": "_tokenName",
          "type": "string"
        },
        {
          "internalType": "string",
          "name": "_tokenSymbol",
          "type": "string"
        },
        {
          "internalType": "uint8",
          "name": "_tokenDecimals",
          "type": "uint8"
        },
        {
          "internalType": "address",
          "name": "_mintAddr",
          "type": "address"
        },
        {
          "internalType": "uint256",
          "name": "_mintAmount",
          "type": "uint256"
        },
        {
          "internalType": "bool",
          "name": "_useProxies",
          "type": "bool"
        }
      ],
      "name": "newToken",
      "outputs": [
        {
          "internalType": "contract GovernToken",
          "name": "token",
          "type": "address"
        },
        {
          "internalType": "contract GovernMinter",
          "name": "minter",
          "type": "address"
        }
      ],
      "stateMutability": "nonpayable",
      "type": "function"
    },
    {
      "inputs": [],
      "name": "tokenBase",
      "outputs": [
        {
          "internalType": "address",
          "name": "",
          "type": "address"
        }
      ],
      "stateMutability": "view",
      "type": "function"
    }
  ],
  "bytecode": "0x60806040523480156200001157600080fd5b50620000256001600160e01b036200002b16565b620004e9565b600080546040516001600160a01b0390911691906200004a9062000312565b62000057929190620004ad565b604051809103906000f08015801562000074573d6000803e3d6000fd5b50600260006101000a8154816001600160a01b0302191690836001600160a01b03160217905550600080620000f56040518060400160405280601081526020016f476f7665726e546f6b656e206261736560801b8152506040518060400160405280600381526020016223aa2160e91b81525060006200027860201b60201c565b604051630589a9a360e31b815291935091506001600160a01b03831690632c4d4d189062000128908490600401620003ba565b600060405180830381600087803b1580156200014357600080fd5b505af115801562000158573d6000803e3d6000fd5b50506040516394d008ef60e01b81526001600160a01b03841692506394d008ef91506200018d903390600190600401620003ce565b600060405180830381600087803b158015620001a857600080fd5b505af1158015620001bd573d6000803e3d6000fd5b5050604051630d3feb8360e41b81526001600160a01b038416925063d3feb8309150620001f39060009060019060040162000457565b602060405180830381600087803b1580156200020e57600080fd5b505af115801562000223573d6000803e3d6000fd5b505050506040513d601f19601f820116820180604052508101906200024991906200033c565b50600080546001600160a01b039384166001600160a01b03199182161790915560018054929093169116179055565b600080308585856040516200028d9062000320565b6200029c949392919062000408565b604051809103906000f080158015620002b9573d6000803e3d6000fd5b50600254604051919350839130916001600160a01b031690620002dc906200032e565b620002ea93929190620004c6565b604051809103906000f08015801562000307573d6000803e3d6000fd5b509050935093915050565b610e108062004faf83390190565b611b8d8062005dbf83390190565b61201b806200794c83390190565b6000602082840312156200034e578081fd5b81516001600160a01b038116811462000365578182fd5b9392505050565b60008151808452815b81811015620003935760208185018101518683018201520162000375565b81811115620003a55782602083870101525b50601f01601f19169290920160200192915050565b6001600160a01b0391909116815260200190565b6001600160a01b039290921682526020820152606060408201819052600990820152681d195cdd081b5a5b9d60ba1b608082015260a00190565b6001600160a01b03851681526080602082018190526000906200042e908301866200036c565b82810360408401526200044281866200036c565b91505060ff8316606083015295945050505050565b9182526020820152608060408201819052600790820152666e6f207472656560c81b60a082015260c0606082018190526010908201526f1d195cdd081b595c9adb19481b5a5b9d60821b60e08201526101000190565b6001600160a01b03929092168252602082015260400190565b6001600160a01b0393841681529183166020830152909116604082015260600190565b614ab680620004f96000396000f3fe60806040523480156200001157600080fd5b5060043610620000525760003560e01c806320a820201462000057578063943e9ec01462000087578063b61daaee14620000a0578063ec8528f914620000aa575b600080fd5b6200006e6200006836600462000a89565b620000b4565b6040516200007e92919062000e26565b60405180910390f35b62000091620006da565b6040516200007e919062000c72565b62000091620006e9565b62000091620006f8565b600080826200013f57620001348a8a8080601f01602080910402602001604051908101604052809392919081815260200183838082843760009201919091525050604080516020601f8e018190048102820181019092528c815292508c91508b90819084018382808284376000920191909152508b925062000707915050565b9092509050620002a9565b620001e063f6d2ee8660e01b308c8c8c8c8c604051602401620001689695949392919062000c86565b60408051601f198184030181529190526020810180517bffffffffffffffffffffffffffffffffffffffffffffffffffffffff167fffffffff00000000000000000000000000000000000000000000000000000000909316929092179091526000546001600160a01b03169063ffffffff620007a116565b600254604051919350620002a6917fc0c53b8b00000000000000000000000000000000000000000000000000000000916200022e91869130916001600160a01b039091169060240162000e03565b60408051601f198184030181529190526020810180517bffffffffffffffffffffffffffffffffffffffffffffffffffffffff167fffffffff00000000000000000000000000000000000000000000000000000000909316929092179091526001546001600160a01b03169063ffffffff620007a116565b90505b6040517f2c4d4d180000000000000000000000000000000000000000000000000000000081526001600160a01b03831690632c4d4d1890620002f090849060040162000c72565b600060405180830381600087803b1580156200030b57600080fd5b505af115801562000320573d6000803e3d6000fd5b505050506000841115620003ac576040517f94d008ef0000000000000000000000000000000000000000000000000000000081526001600160a01b038216906394d008ef9062000377908890889060040162000d24565b600060405180830381600087803b1580156200039257600080fd5b505af1158015620003a7573d6000803e3d6000fd5b505050505b604080517f7e8c7f0800000000000000000000000000000000000000000000000000000000815290517f472eb0df00000000000000000000000000000000000000000000000000000000916000916001600160a01b03851691637e8c7f08916004808301926020929190829003018186803b1580156200042b57600080fd5b505afa15801562000440573d6000803e3d6000fd5b505050506040513d601f19601f8201168201806040525081019062000466919062000a40565b60408051600480825260a0820190925291925060609190816020015b6200048c62000994565b815260200190600190039081620004825790505060408051606081019091529091508060008152602001847bffffffffffffffffffffffffffffffffffffffffffffffffffffffff191681526020018f6001600160a01b031681525081600081518110620004f657fe5b602090810291909101015260408051606081019091528060008152602001837bffffffffffffffffffffffffffffffffffffffffffffffffffffffff191681526020018f6001600160a01b0316815250816001815181106200055457fe5b6020908102919091010152604080516060810190915280600181527fffffffff000000000000000000000000000000000000000000000000000000008516602082015230604090910152815182906002908110620005ae57fe5b6020908102919091010152604080516060810190915280600181527fffffffff0000000000000000000000000000000000000000000000000000000084166020820152306040909101528151829060039081106200060857fe5b60209081029190910101526040517f1c47671b0000000000000000000000000000000000000000000000000000000081526001600160a01b03851690631c47671b906200065a90849060040162000d72565b600060405180830381600087803b1580156200067557600080fd5b505af11580156200068a573d6000803e3d6000fd5b505050507ffe9b7e0ffd2aefb4b399a5f4f1ab280b9056cdbc69e80eaafa903f3301f66a528585604051620006c192919062000e26565b60405180910390a1505050995099975050505050505050565b6001546001600160a01b031681565b6000546001600160a01b031681565b6002546001600160a01b031681565b600080308585856040516200071c90620009b6565b6200072b949392919062000cd7565b604051809103906000f08015801562000748573d6000803e3d6000fd5b50600254604051919350839130916001600160a01b0316906200076b90620009c4565b620007799392919062000e03565b604051809103906000f08015801562000796573d6000803e3d6000fd5b509050935093915050565b6000620007ae8362000870565b905060006060826001600160a01b031684604051620007ce919062000c54565b6000604051808303816000865af19150503d80600081146200080d576040519150601f19603f3d011682016040523d82523d6000602084013e62000812565b606091505b5091509150816200082382620008d5565b9062000867576040517f08c379a00000000000000000000000000000000000000000000000000000000081526004016200085e919062000e40565b60405180910390fd5b50505092915050565b600060606200087f836200091c565b90506037602082016000f091506001600160a01b038216620008cf576040517f08c379a00000000000000000000000000000000000000000000000000000000081526004016200085e9062000e55565b50919050565b6060604482511015620008f8575060408051602081019091526000815262000917565b6004820191508180602001905181019062000914919062000b59565b90505b919050565b604080516037808252606082810190935260208201818036833750507f3d602d80600a3d3981f3363d3d373d3d3d363d7300000000000000000000000060208301525060609290921b6034830152507f5af43d82803e903d91602b57fd5bf30000000000000000000000000000000000604882015290565b6040805160608101909152806000815260006020820181905260409091015290565b611b8d8062000ed983390190565b61201b8062002a6683390190565b8035620009df8162000ebf565b92915050565b80358015158114620009df57600080fd5b60008083601f84011262000a08578182fd5b50813567ffffffffffffffff81111562000a20578182fd5b60208301915083602082850101111562000a3957600080fd5b9250929050565b60006020828403121562000a52578081fd5b81517fffffffff000000000000000000000000000000000000000000000000000000008116811462000a82578182fd5b9392505050565b600080600080600080600080600060e08a8c03121562000aa7578485fd5b893562000ab48162000ebf565b985060208a013567ffffffffffffffff8082111562000ad1578687fd5b62000adf8d838e01620009f6565b909a50985060408c013591508082111562000af8578687fd5b5062000b078c828d01620009f6565b90975095505060608a013560ff8116811462000b21578485fd5b935062000b328b60808c01620009d2565b925060a08a0135915062000b4a8b60c08c01620009e5565b90509295985092959850929598565b60006020828403121562000b6b578081fd5b815167ffffffffffffffff8082111562000b83578283fd5b81840185601f82011262000b95578384fd5b805192508183111562000ba6578384fd5b6040516020601f19601f860116820101818110848211171562000bc7578586fd5b60405283815281840160200187101562000bdf578485fd5b62000bf284602083016020850162000e8c565b9695505050505050565b60008284528282602086013780602084860101526020601f19601f85011685010190509392505050565b6000815180845262000c4081602086016020860162000e8c565b601f01601f19169290920160200192915050565b6000825162000c6881846020870162000e8c565b9190910192915050565b6001600160a01b0391909116815260200190565b60006001600160a01b03881682526080602083015262000cab60808301878962000bfc565b828103604084015262000cc081868862000bfc565b91505060ff83166060830152979650505050505050565b60006001600160a01b03861682526080602083015262000cfb608083018662000c26565b828103604084015262000d0f818662000c26565b91505060ff8316606083015295945050505050565b6001600160a01b039290921682526020820152606060408201819052600c908201527f696e697469616c206d696e740000000000000000000000000000000000000000608082015260a00190565b602080825282518282018190526000919060409081850190868401855b8281101562000df657815180516003811062000da757fe5b8552808701517fffffffff0000000000000000000000000000000000000000000000000000000016878601528501516001600160a01b0316858501526060909301929085019060010162000d8f565b5091979650505050505050565b6001600160a01b0393841681529183166020830152909116604082015260600190565b6001600160a01b0392831681529116602082015260400190565b60006020825262000a82602083018462000c26565b60208082526019908201527f70726f78792d666163746f72793a206261642063726561746500000000000000604082015260600190565b60005b8381101562000ea957818101518382015260200162000e8f565b8381111562000eb9576000848401525b50505050565b6001600160a01b038116811462000ed557600080fd5b5056fe60806040523480156200001157600080fd5b5060405162001b8d38038062001b8d833981810160405260808110156200003757600080fd5b8151602083018051604051929492938301929190846401000000008211156200005f57600080fd5b9083019060208201858111156200007557600080fd5b82516401000000008111828201881017156200009057600080fd5b82525081516020918201929091019080838360005b83811015620000bf578181015183820152602001620000a5565b50505050905090810190601f168015620000ed5780820380516001836020036101000a031916815260200191505b50604052602001805160405193929190846401000000008211156200011157600080fd5b9083019060208201858111156200012757600080fd5b82516401000000008111828201881017156200014257600080fd5b82525081516020918201929091019080838360005b838110156200017157818101518382015260200162000157565b50505050905090810190601f1680156200019f5780820380516001836020036101000a031916815260200191505b50604052602001519150620001c29050848484846001600160e01b03620001cc16565b50505050620004be565b604051806040016040528060058152602001643a37b5b2b760d91b8152506000816040518082805190602001908083835b602083106200021e5780518252601f199092019160209182019101620001fd565b51815160209384036101000a60001901801990921691161790529201948552506040519384900301909220541591506200028c90505760405162461bcd60e51b815260040180806020018281038252602281526020018062001b6b6022913960400191505060405180910390fd5b436000826040518082805190602001908083835b60208310620002c15780518252601f199092019160209182019101620002a0565b51815160209384036101000a600019018019909216911617905292019485525060405193849003019092209290925550620002fe905085620003c7565b83516200031390600190602087019062000419565b5082516200032990600290602086019062000419565b506003805460ff191660ff84161790556040518151829190819060208401908083835b602083106200036d5780518252601f1990920191602091820191016200034c565b5181516020939093036101000a60001901801990911692169190911790526040519201829003822093507f7bc2a48a4a566e237a12186f19d985b0f76afc9d5290601edac19876253670c292506000919050a25050505050565b60038054610100600160a81b0319166101006001600160a01b038416908102919091179091556040517fc87aeafc6e4ae6202adf4f08a76769119ae93cc129c0e0cbac08a118bc18e1ce90600090a250565b828054600181600116156101000203166002900490600052602060002090601f016020900481019282601f106200045c57805160ff19168380011785556200048c565b828001600101855582156200048c579182015b828111156200048c5782518255916020019190600101906200046f565b506200049a9291506200049e565b5090565b620004bb91905b808211156200049a5760008155600101620004a5565b90565b61169d80620004ce6000396000f3fe608060405234801561001057600080fd5b506004361061018d5760003560e01c806370a08231116100e3578063d505accf1161008c578063e94a010211610066578063e94a01021461056e578063ed24911d1461059a578063f6d2ee86146105a25761018d565b8063d505accf14610490578063dd62ed3e146104e1578063e3ee160e1461050f5761018d565b8063a0cc6a68116100bd578063a0cc6a68146103b6578063a9059cbb146103be578063cc1d4cab146103ea5761018d565b806370a08231146103625780637ecebe001461038857806395d89b41146103ae5761018d565b80632c4d4d18116101455780633408e4701161011f5780633408e4701461031157806340c10f191461031957806342966c68146103455761018d565b80632c4d4d18146102c357806330adf81f146102eb578063313ce567146102f35761018d565b8063095ea7b311610176578063095ea7b31461023357806318160ddd1461027357806323b872dd1461028d5761018d565b806306fdde0314610192578063075461721461020f575b600080fd5b61019a6106e4565b6040805160208082528351818301528351919283929083019185019080838360005b838110156101d45781810151838201526020016101bc565b50505050905090810190601f1680156102015780820380516001836020036101000a031916815260200191505b509250505060405180910390f35b610217610771565b604080516001600160a01b039092168252519081900360200190f35b61025f6004803603604081101561024957600080fd5b506001600160a01b038135169060200135610785565b604080519115158252519081900360200190f35b61027b61079b565b60408051918252519081900360200190f35b61025f600480360360608110156102a357600080fd5b506001600160a01b038135811691602081013590911690604001356107a1565b6102e9600480360360208110156102d957600080fd5b50356001600160a01b0316610819565b005b61027b610889565b6102fb6108ad565b6040805160ff9092168252519081900360200190f35b61027b6108b6565b61025f6004803603604081101561032f57600080fd5b506001600160a01b0381351690602001356108ba565b61025f6004803603602081101561035b57600080fd5b503561092b565b61027b6004803603602081101561037857600080fd5b50356001600160a01b031661093f565b61027b6004803603602081101561039e57600080fd5b50356001600160a01b0316610951565b61019a610963565b61027b6109bb565b61025f600480360360408110156103d457600080fd5b506001600160a01b0381351690602001356109df565b61027b6004803603602081101561040057600080fd5b81019060208101813564010000000081111561041b57600080fd5b82018360208201111561042d57600080fd5b8035906020019184600183028401116401000000008311171561044f57600080fd5b91908080601f0160208091040260200160405190810160405280939291908181526020018383808284376000920191909152509295506109ec945050505050565b6102e9600480360360e08110156104a657600080fd5b506001600160a01b03813581169160208101359091169060408101359060608101359060ff6080820135169060a08101359060c00135610a09565b61027b600480360360408110156104f757600080fd5b506001600160a01b0381358116916020013516610b09565b6102e9600480360361012081101561052657600080fd5b506001600160a01b03813581169160208101359091169060408101359060608101359060808101359060a08101359060ff60c0820135169060e0810135906101000135610b26565b61025f6004803603604081101561058457600080fd5b506001600160a01b038135169060200135610d3a565b61027b610d5a565b6102e9600480360360808110156105b857600080fd5b6001600160a01b0382351691908101906040810160208201356401000000008111156105e357600080fd5b8201836020820111156105f557600080fd5b8035906020019184600183028401116401000000008311171561061757600080fd5b91908080601f016020809104026020016040519081016040528093929190818152602001838380828437600092019190915250929594936020810193503591505064010000000081111561066a57600080fd5b82018360208201111561067c57600080fd5b8035906020019184600183028401116401000000008311171561069e57600080fd5b91908080601f0160208091040260200160405190810160405280939291908181526020018383808284376000920191909152509295505050903560ff169150610e6e9050565b60018054604080516020600284861615610100026000190190941693909304601f810184900484028201840190925281815292918301828280156107695780601f1061073e57610100808354040283529160200191610769565b820191906000526020600020905b81548152906001019060200180831161074c57829003601f168201915b505050505081565b60035461010090046001600160a01b031681565b6000610792338484611073565b50600192915050565b60045481565b6001600160a01b03831660009081526006602090815260408083203384529091528120546000198114610803576107de818463ffffffff6110d516565b6001600160a01b03861660009081526006602090815260408083203384529091529020555b61080e858585611132565b506001949350505050565b60035461010090046001600160a01b0316331461087d576040805162461bcd60e51b815260206004820152601160248201527f746f6b656e3a206e6f74206d696e746572000000000000000000000000000000604482015290519081900360640190fd5b6108868161125e565b50565b7f6e71edae12b1b97f4d1f60370fef10105fa2faae0126114a169c64845d6126c981565b60035460ff1681565b4690565b60035460009061010090046001600160a01b03163314610921576040805162461bcd60e51b815260206004820152601160248201527f746f6b656e3a206e6f74206d696e746572000000000000000000000000000000604482015290519081900360640190fd5b61079283836112c7565b6000610937338361135e565b506001919050565b60056020526000908152604090205481565b60076020526000908152604090205481565b6002805460408051602060018416156101000260001901909316849004601f810184900484028201840190925281815292918301828280156107695780601f1061073e57610100808354040283529160200191610769565b7f7c7c6cdb67a18743f49ec6fa9b35f50d52ed05cbed4cc592e13b44501c1a226781565b6000610792338484611132565b805160208183018101805160008252928201919093012091525481565b42841015610a5e576040805162461bcd60e51b815260206004820152601360248201527f746f6b656e3a2061757468206578706972656400000000000000000000000000604482015290519081900360640190fd5b6001600160a01b0380881660008181526007602090815260409182902080546001810190915582517f6e71edae12b1b97f4d1f60370fef10105fa2faae0126114a169c64845d6126c98184015280840194909452938a1660608401526080830189905260a083019390935260c08083018890528151808403909101815260e090920190528051910120610af488828686866113fb565b610aff888888611073565b5050505050505050565b600660209081526000928352604080842090915290825290205481565b854211610b7a576040805162461bcd60e51b815260206004820152601060248201527f746f6b656e3a2061757468207761697400000000000000000000000000000000604482015290519081900360640190fd5b844210610bce576040805162461bcd60e51b815260206004820152601360248201527f746f6b656e3a2061757468206578706972656400000000000000000000000000604482015290519081900360640190fd5b6001600160a01b038916600090815260086020908152604080832087845290915290205460ff1615610c47576040805162461bcd60e51b815260206004820152601060248201527f746f6b656e3a2061757468207573656400000000000000000000000000000000604482015290519081900360640190fd5b604080517f7c7c6cdb67a18743f49ec6fa9b35f50d52ed05cbed4cc592e13b44501c1a22676020808301919091526001600160a01b03808d16838501528b166060830152608082018a905260a0820189905260c0820188905260e0808301889052835180840390910181526101009092019092528051910120610ccd8a828686866113fb565b6001600160a01b038a166000818152600860209081526040808320898452909152808220805460ff19166001179055518792917f98de503528ee59b575ef0c0a2576a82497bfc029a5685b209e9ec333479b10a591a3610d2e8a8a8a611132565b50505050505050505050565b600860209081526000928352604080842090915290825290205460ff1681565b60007f8b73c3c69bb8fe3d512ecc4cf759cc79239f7b179b0ffacaa9a75d522b39400f60001b60016040516020018082805460018160011615610100020316600290048015610de05780601f10610dbe576101008083540402835291820191610de0565b820191906000526020600020905b815481529060010190602001808311610dcc575b5050915050604051602081830303815290604052805190602001207fc89efdaa54c0f20c7adf612882df0950f5a951637e0307cdcb4c672f298b8bc660001b610e276108b6565b6040805160208082019690965280820194909452606084019290925260808301523060a0808401919091528151808403909101815260c09092019052805191012090505b90565b6040518060400160405280600581526020017f746f6b656e0000000000000000000000000000000000000000000000000000008152506000816040518082805190602001908083835b60208310610ed65780518252601f199092019160209182019101610eb7565b51815160209384036101000a6000190180199092169116179052920194855250604051938490030190922054159150610f4290505760405162461bcd60e51b81526004018080602001828103825260228152602001806116466022913960400191505060405180910390fd5b436000826040518082805190602001908083835b60208310610f755780518252601f199092019160209182019101610f56565b51815160209384036101000a600019018019909216911617905292019485525060405193849003019092209290925550610fb090508561125e565b8351610fc39060019060208701906115ad565b508251610fd79060029060208601906115ad565b506003805460ff191660ff84161790556040518151829190819060208401908083835b602083106110195780518252601f199092019160209182019101610ffa565b5181516020939093036101000a60001901801990911692169190911790526040519201829003822093507f7bc2a48a4a566e237a12186f19d985b0f76afc9d5290601edac19876253670c292506000919050a25050505050565b6001600160a01b03808416600081815260066020908152604080832094871680845294825291829020859055815185815291517f8c5be1e5ebec7d5bd14f71427d1e84f3dd0314c0f7b2291e5b200ac8c7c3b9259281900390910190a3505050565b60008282111561112c576040805162461bcd60e51b815260206004820152601e60248201527f536166654d6174683a207375627472616374696f6e206f766572666c6f770000604482015290519081900360640190fd5b50900390565b6001600160a01b038216301480159061115357506001600160a01b03821615155b6111a4576040805162461bcd60e51b815260206004820152600d60248201527f746f6b656e3a2062616420746f00000000000000000000000000000000000000604482015290519081900360640190fd5b6001600160a01b0383166000908152600560205260409020546111cd908263ffffffff6110d516565b6001600160a01b038085166000908152600560205260408082209390935590841681522054611202908263ffffffff61154c16565b6001600160a01b0380841660008181526005602090815260409182902094909455805185815290519193928716927fddf252ad1be2c89b69c2b068fc378daa952ba7f163c4a11628f55a4df523b3ef92918290030190a3505050565b600380547fffffffffffffffffffffff0000000000000000000000000000000000000000ff166101006001600160a01b038416908102919091179091556040517fc87aeafc6e4ae6202adf4f08a76769119ae93cc129c0e0cbac08a118bc18e1ce90600090a250565b6004546112da908263ffffffff61154c16565b6004556001600160a01b038216600090815260056020526040902054611306908263ffffffff61154c16565b6001600160a01b03831660008181526005602090815260408083209490945583518581529351929391927fddf252ad1be2c89b69c2b068fc378daa952ba7f163c4a11628f55a4df523b3ef9281900390910190a35050565b6001600160a01b038216600090815260056020526040902054611387908263ffffffff6110d516565b6001600160a01b0383166000908152600560205260409020556004546113b3908263ffffffff6110d516565b6004556040805182815290516000916001600160a01b038516917fddf252ad1be2c89b69c2b068fc378daa952ba7f163c4a11628f55a4df523b3ef9181900360200190a35050565b6000611405610d5a565b8560405160200180807f190100000000000000000000000000000000000000000000000000000000000081525060020183815260200182815260200192505050604051602081830303815290604052805190602001209050600060018286868660405160008152602001604052604051808581526020018460ff1660ff1681526020018381526020018281526020019450505050506020604051602081039080840390855afa1580156114bc573d6000803e3d6000fd5b5050604051601f1901519150506001600160a01b038116158015906114f25750866001600160a01b0316816001600160a01b0316145b611543576040805162461bcd60e51b815260206004820152600e60248201527f746f6b656e3a2062616420736967000000000000000000000000000000000000604482015290519081900360640190fd5b50505050505050565b6000828201838110156115a6576040805162461bcd60e51b815260206004820152601b60248201527f536166654d6174683a206164646974696f6e206f766572666c6f770000000000604482015290519081900360640190fd5b9392505050565b828054600181600116156101000203166002900490600052602060002090601f016020900481019282601f106115ee57805160ff191683800117855561161b565b8280016001018555821561161b579182015b8281111561161b578251825591602001919060010190611600565b5061162792915061162b565b5090565b610e6b91905b80821115611627576000815560010161163156fe696e697469616c697a61626c653a20616c726561647920696e697469616c697a6564a2646970667358221220c347f59ce57c2afaf9f4935c087a5562bf54095ef98ae89758b1c835886caf0564736f6c63430006080033696e697469616c697a61626c653a20616c726561647920696e697469616c697a656460806040523480156200001157600080fd5b506040516200201b3803806200201b8339810160408190526200003491620003e9565b81806000604051620000469062000478565b90815260200160405180910390205460001415620000725762000072816001600160e01b036200009416565b506200008b90508383836001600160e01b036200016e16565b50505062000544565b604051806040016040528060038152602001621858db60ea1b815250600081604051620000c291906200043c565b908152602001604051809103902054600014620000fc5760405162461bcd60e51b8152600401620000f390620004c0565b60405180910390fd5b436000826040516200010f91906200043c565b908152604051908190036020019020556200013b63161b7d8160e21b836001600160e01b03620002b216565b806040516200014b91906200043c565b6040519081900381209060008051602062001ffb83398151915290600090a25050565b8160006040516200017f9062000478565b90815260200160405180910390205460001415620001ab57620001ab816001600160e01b036200009416565b6040518060400160405280600681526020016536b4b73a32b960d11b815250600081604051620001dc91906200043c565b9081526020016040518091039020546000146200020d5760405162461bcd60e51b8152600401620000f390620004c0565b436000826040516200022091906200043c565b90815260405190819003602001902055600280546001600160a01b038088166001600160a01b03199283161790925560038054928616929091169190911790556200027c63472eb0df60e01b856001600160e01b03620002b216565b806040516200028c91906200043c565b6040519081900381209060008051602062001ffb83398151915290600090a25050505050565b620002c9828260026001600160e01b03620002cd16565b5050565b620002e1836001600160e01b03620003b716565b15620003015760405162461bcd60e51b8152600401620000f3906200049b565b6001600160a01b038216600114156200032e5760405162461bcd60e51b8152600401620000f39062000502565b6001600160e01b0319831660008181526001602090815260408083206001600160a01b03878116808652919093529281902080546001600160a01b0319169286169290921790915551909133917fc62063b81f7036fd97a0dc546516e99f11004d2d76ca0fddd3866346c86e709190620003aa90869062000487565b60405180910390a4505050565b6001600160e01b0319166000908152600160208181526040808420838552909152909120546001600160a01b03161490565b600080600060608486031215620003fe578283fd5b83516200040b816200052b565b60208501519093506200041e816200052b565b604085015190925062000431816200052b565b809150509250925092565b60008251815b818110156200045e576020818601810151858301520162000442565b818111156200046d5782828501525b509190910192915050565b621858db60ea1b815260030190565b6001600160a01b0391909116815260200190565b6020808252600b908201526a30b1b61d10333937bd32b760a91b604082015260600190565b60208082526022908201527f696e697469616c697a61626c653a20616c726561647920696e697469616c697a604082015261195960f21b606082015260800190565b6020808252600f908201526e61636c3a2062616420667265657a6560881b604082015260600190565b6001600160a01b03811681146200054157600080fd5b50565b611aa780620005546000396000f3fe608060405234801561001057600080fd5b50600436106101005760003560e01c8063a157a10d11610097578063cc1d4cab11610066578063cc1d4cab14610210578063d3feb83014610230578063ec8528f914610243578063fc0c546a1461024b57610100565b8063a157a10d146101c4578063a2157227146101d7578063bdf9a726146101ea578063c0c53b8b146101fd57610100565b80637e8c7f08116100d35780637e8c7f0814610169578063901d13e21461017e57806394d008ef1461019157806396fc8abd146101a457610100565b8063097c8108146101055780631c47671b1461012e578063495a9825146101435780635884973414610156575b600080fd5b610118610113366004611590565b610253565b60405161012591906117d2565b60405180910390f35b61014161013c3660046113ec565b610457565b005b61011861015136600461153c565b61057e565b610141610164366004611558565b6105b4565b610171610624565b60405161012591906117dd565b61014161018c366004611376565b61062f565b61014161019f366004611392565b610714565b6101b76101b2366004611558565b61087d565b60405161012591906117a5565b6101416101d2366004611558565b6108a3565b6101416101e53660046115f0565b610913565b6101416101f836600461153c565b61098a565b61014161020b36600461163a565b6109fd565b61022361021e366004611659565b610b6d565b6040516101259190611970565b6101b761023e3660046114bc565b610b8a565b6101b7610d98565b6101b7610da7565b6001600160e01b0319831660009081526001602090815260408083203384529091528120546001600160a01b0316801561034d576001600160a01b038116600214156102a3576001915050610450565b6040517f097c81080000000000000000000000000000000000000000000000000000000081526001600160a01b0382169063097c8108906102ec908890889088906004016117f2565b602060405180830381600087803b15801561030657600080fd5b505af115801561031a573d6000803e3d6000fd5b505050506040513d601f19601f8201168201806040525081019061033e919061149c565b1561034d576001915050610450565b6001600160e01b0319851660009081526001602090815260408083206001600160a01b03808552925290912054168015610449576001600160a01b0381166002141561039e57600192505050610450565b6040517f097c81080000000000000000000000000000000000000000000000000000000081526001600160a01b0382169063097c8108906103e7908990899089906004016117f2565b602060405180830381600087803b15801561040157600080fd5b505af1158015610415573d6000803e3d6000fd5b505050506040513d601f19601f82011682018060405250810190610439919061149c565b1561044957600192505050610450565b6000925050505b9392505050565b60408051602036601f810182900482028301820190935282825263161b7d8160e21b926104a192849233926000918190840183828082843760009201919091525061025392505050565b6104c65760405162461bcd60e51b81526004016104bd90611837565b60405180910390fd5b60005b8251811015610579576104da611260565b8382815181106104e657fe5b60200260200101519050600060028111156104fd57fe5b8151600281111561050a57fe5b14156105275761052281602001518260400151610db6565b610570565b60018151600281111561053657fe5b141561054e5761052281602001518260400151610dc2565b60028151600281111561055d57fe5b1415610570576105708160200151610e60565b506001016104c9565b505050565b6001600160e01b031981166000908152600160208181526040808420838552909152909120546001600160a01b0316145b919050565b60408051602036601f810182900482028301820190935282825263161b7d8160e21b926105fe92849233926000918190840183828082843760009201919091525061025392505050565b61061a5760405162461bcd60e51b81526004016104bd90611837565b6105798383610dc2565b63161b7d8160e21b81565b63901d13e260e01b61067981336000368080601f01602080910402602001604051908101604052809392919081815260200183838082843760009201919091525061025392505050565b6106955760405162461bcd60e51b81526004016104bd90611837565b6002546040517f2c4d4d180000000000000000000000000000000000000000000000000000000081526001600160a01b0390911690632c4d4d18906106de9085906004016117a5565b600060405180830381600087803b1580156106f857600080fd5b505af115801561070c573d6000803e3d6000fd5b505050505050565b60408051602036601f81018290048202830182019093528282527f472eb0df000000000000000000000000000000000000000000000000000000009261077792849233926000918190840183828082843760009201919091525061025392505050565b6107935760405162461bcd60e51b81526004016104bd90611837565b6002546040517f40c10f190000000000000000000000000000000000000000000000000000000081526001600160a01b03909116906340c10f19906107de90889088906004016117b9565b602060405180830381600087803b1580156107f857600080fd5b505af115801561080c573d6000803e3d6000fd5b505050506040513d601f19601f82011682018060405250810190610830919061149c565b50846001600160a01b03167ff8e46b9f2ac39b0277e905f82e86502779203bea0700bf987d3707e11636a39d85858560405161086e93929190611979565b60405180910390a25050505050565b60016020908152600092835260408084209091529082529020546001600160a01b031681565b60408051602036601f810182900482028301820190935282825263161b7d8160e21b926108ed92849233926000918190840183828082843760009201919091525061025392505050565b6109095760405162461bcd60e51b81526004016104bd90611837565b6105798383610db6565b60408051602036601f810182900482028301820190935282825263161b7d8160e21b9261095d92849233926000918190840183828082843760009201919091525061025392505050565b6109795760405162461bcd60e51b81526004016104bd90611837565b610984848484610ef4565b50505050565b60408051602036601f810182900482028301820190935282825263161b7d8160e21b926109d492849233926000918190840183828082843760009201919091525061025392505050565b6109f05760405162461bcd60e51b81526004016104bd90611837565b6109f982610e60565b5050565b816000604051610a0c9061177c565b90815260200160405180910390205460001415610a2c57610a2c81610fd8565b6040518060400160405280600681526020017f6d696e7465720000000000000000000000000000000000000000000000000000815250600081604051610a729190611760565b908152602001604051809103902054600014610aa05760405162461bcd60e51b81526004016104bd906118a5565b43600082604051610ab19190611760565b90815260405190819003602001902055600280546001600160a01b0380881673ffffffffffffffffffffffffffffffffffffffff19928316179092556003805492861692909116919091179055610b287f472eb0df0000000000000000000000000000000000000000000000000000000085610db6565b80604051610b369190611760565b604051908190038120907f7bc2a48a4a566e237a12186f19d985b0f76afc9d5290601edac19876253670c290600090a25050505050565b805160208183018101805160008252928201919093012091525481565b600063d3feb83060e01b6394d008ef60e01b18610bdf81336000368080601f01602080910402602001604051908101604052809392919081815260200183838082843760009201919091525061025392505050565b610bfb5760405162461bcd60e51b81526004016104bd90611837565b600254604051600091610ca3917fbe13f47c0000000000000000000000000000000000000000000000000000000091610c44916001600160a01b03909116908d906024016117b9565b60408051601f198184030181529190526020810180517bffffffffffffffffffffffffffffffffffffffffffffffffffffffff166001600160e01b0319909316929092179091526003546001600160a01b03169063ffffffff6110c016565b6002546040517f40c10f190000000000000000000000000000000000000000000000000000000081529192506001600160a01b0316906340c10f1990610cef9084908c906004016117b9565b602060405180830381600087803b158015610d0957600080fd5b505af1158015610d1d573d6000803e3d6000fd5b505050506040513d601f19601f82011682018060405250810190610d41919061149c565b5088816001600160a01b03167ff5eb12d9e3fbc57fd00a7246b6bb142b1c5f6e7cdd9f9f17efd5c2163440e0f48a8a8a8a8a604051610d84959493929190611993565b60405180910390a398975050505050505050565b6003546001600160a01b031681565b6002546001600160a01b031681565b6109f982826002610ef4565b610dcb8261057e565b15610de85760405162461bcd60e51b81526004016104bd9061186e565b6001600160e01b0319821660008181526001602090815260408083206001600160a01b0386168085529252808320805473ffffffffffffffffffffffffffffffffffffffff19169055519092339290917f682f2c466c1e9f6883eb72cbced01373e1cb18b05ae5c8bc04dc73d73e29f8cd9190a45050565b610e698161057e565b15610e865760405162461bcd60e51b81526004016104bd9061186e565b6001600160e01b031981166000818152600160208181526040808420838552909152808320805473ffffffffffffffffffffffffffffffffffffffff1916909217909155513392917f049c6b8b07a879425742523fa80f8ffb25e39ad518c93a5896a0df19518397e591a350565b610efd8361057e565b15610f1a5760405162461bcd60e51b81526004016104bd9061186e565b6001600160a01b03821660011415610f445760405162461bcd60e51b81526004016104bd90611902565b6001600160e01b0319831660008181526001602090815260408083206001600160a01b038781168086529190935292819020805473ffffffffffffffffffffffffffffffffffffffff19169286169290921790915551909133917fc62063b81f7036fd97a0dc546516e99f11004d2d76ca0fddd3866346c86e709190610fcb9086906117a5565b60405180910390a4505050565b6040518060400160405280600381526020017f61636c000000000000000000000000000000000000000000000000000000000081525060008160405161101e9190611760565b90815260200160405180910390205460001461104c5760405162461bcd60e51b81526004016104bd906118a5565b4360008260405161105d9190611760565b9081526040519081900360200190205561107e63161b7d8160e21b83610db6565b8060405161108c9190611760565b604051908190038120907f7bc2a48a4a566e237a12186f19d985b0f76afc9d5290601edac19876253670c290600090a25050565b60006110cb83611161565b905060006060826001600160a01b0316846040516110e99190611760565b6000604051808303816000865af19150503d8060008114611126576040519150601f19603f3d011682016040523d82523d6000602084013e61112b565b606091505b50915091508161113a826111a7565b906111585760405162461bcd60e51b81526004016104bd9190611824565b50505092915050565b6000606061116e836111e8565b90506037602082016000f091506001600160a01b0382166111a15760405162461bcd60e51b81526004016104bd90611939565b50919050565b60606044825110156111c857506040805160208101909152600081526105af565b600482019150818060200190518101906111e29190611694565b92915050565b604080516037808252606082810190935260208201818036833750507f3d602d80600a3d3981f3363d3d373d3d3d363d7300000000000000000000000060208301525060609290921b6034830152507f5af43d82803e903d91602b57fd5bf30000000000000000000000000000000000604882015290565b6040805160608101909152806000815260006020820181905260409091015290565b60008083601f840112611293578182fd5b50813567ffffffffffffffff8111156112aa578182fd5b6020830191508360208285010111156112c257600080fd5b9250929050565b600082601f8301126112d9578081fd5b81356112ec6112e7826119f3565b6119cc565b915080825283602082850101111561130357600080fd5b8060208401602084013760009082016020015292915050565b60006060828403121561132d578081fd5b61133760606119cc565b905081356003811061134857600080fd5b8152602082013561135881611a5b565b6020820152604082013561136b81611a43565b604082015292915050565b600060208284031215611387578081fd5b813561045081611a43565b600080600080606085870312156113a7578283fd5b84356113b281611a43565b935060208501359250604085013567ffffffffffffffff8111156113d4578283fd5b6113e087828801611282565b95989497509550505050565b600060208083850312156113fe578182fd5b823567ffffffffffffffff80821115611415578384fd5b81850186601f820112611426578485fd5b8035925081831115611436578485fd5b61144384858502016119cc565b83815284810192508185016060808602840187018a1015611462578788fd5b8793505b8584101561148e576114788a8361131c565b8552938601936001939093019290810190611466565b509098975050505050505050565b6000602082840312156114ad578081fd5b81518015158114610450578182fd5b600080600080600080608087890312156114d4578182fd5b8635955060208701359450604087013567ffffffffffffffff808211156114f9578384fd5b6115058a838b01611282565b9096509450606089013591508082111561151d578384fd5b5061152a89828a01611282565b979a9699509497509295939492505050565b60006020828403121561154d578081fd5b813561045081611a5b565b6000806040838503121561156a578182fd5b823561157581611a5b565b9150602083013561158581611a43565b809150509250929050565b6000806000606084860312156115a4578283fd5b83356115af81611a5b565b925060208401356115bf81611a43565b9150604084013567ffffffffffffffff8111156115da578182fd5b6115e6868287016112c9565b9150509250925092565b600080600060608486031215611604578081fd5b833561160f81611a5b565b9250602084013561161f81611a43565b9150604084013561162f81611a43565b809150509250925092565b60008060006060848603121561164e578081fd5b833561160f81611a43565b60006020828403121561166a578081fd5b813567ffffffffffffffff811115611680578182fd5b61168c848285016112c9565b949350505050565b6000602082840312156116a5578081fd5b815167ffffffffffffffff8111156116bb578182fd5b80830184601f8201126116cc578283fd5b805191506116dc6112e7836119f3565b8281528560208484010111156116f0578384fd5b611701836020830160208501611a17565b95945050505050565b60008284528282602086013780602084860101526020601f19601f85011685010190509392505050565b6000815180845261174c816020860160208601611a17565b601f01601f19169290920160200192915050565b60008251611772818460208701611a17565b9190910192915050565b7f61636c0000000000000000000000000000000000000000000000000000000000815260030190565b6001600160a01b0391909116815260200190565b6001600160a01b03929092168252602082015260400190565b901515815260200190565b6001600160e01b031991909116815260200190565b60006001600160e01b0319851682526001600160a01b0384166020830152606060408301526117016060830184611734565b6000602082526104506020830184611734565b60208082526009908201527f61636c3a20617574680000000000000000000000000000000000000000000000604082015260600190565b6020808252600b908201527f61636c3a2066726f7a656e000000000000000000000000000000000000000000604082015260600190565b60208082526022908201527f696e697469616c697a61626c653a20616c726561647920696e697469616c697a60408201527f6564000000000000000000000000000000000000000000000000000000000000606082015260800190565b6020808252600f908201527f61636c3a2062616420667265657a650000000000000000000000000000000000604082015260600190565b60208082526019908201527f70726f78792d666163746f72793a206261642063726561746500000000000000604082015260600190565b90815260200190565b60008482526040602083015261170160408301848661170a565b6000868252606060208301526119ad60608301868861170a565b82810360408401526119c081858761170a565b98975050505050505050565b60405181810167ffffffffffffffff811182821017156119eb57600080fd5b604052919050565b600067ffffffffffffffff821115611a09578081fd5b50601f01601f191660200190565b60005b83811015611a32578181015183820152602001611a1a565b838111156109845750506000910152565b6001600160a01b0381168114611a5857600080fd5b50565b6001600160e01b031981168114611a5857600080fdfea2646970667358221220abd2818399b7b7bfd2a06d4697c20cc6e27a25a5f27df3b42f9bc910ec616cd164736f6c634300060800337bc2a48a4a566e237a12186f19d985b0f76afc9d5290601edac19876253670c2a264697066735822122028e20441a0412d23861db66ef2af9fd39ac955cfd25714fd01ff7ca6d9436b0d64736f6c63430006080033608060405234801561001057600080fd5b50604051610e10380380610e108339818101604052604081101561003357600080fd5b50805160209091015161004f82826001600160e01b0361005616565b5050610221565b6040518060400160405280600b81526020016a3234b9ba3934b13aba37b960a91b8152506000816040518082805190602001908083835b602083106100ac5780518252601f19909201916020918201910161008d565b51815160209384036101000a600019018019909216911617905292019485525060405193849003019092205415915061011890505760405162461bcd60e51b8152600401808060200182810382526022815260200180610dee6022913960400191505060405180910390fd5b436000826040518082805190602001908083835b6020831061014b5780518252601f19909201916020918201910161012c565b51815160209384036101000a60001901801990921691161790529201948552506040519384900381018420949094555050600180546001600160a01b0319166001600160a01b0387161790556002849055825183928291908401908083835b602083106101c95780518252601f1990920191602091820191016101aa565b5181516020939093036101000a60001901801990911692169190911790526040519201829003822093507f7bc2a48a4a566e237a12186f19d985b0f76afc9d5290601edac19876253670c292506000919050a2505050565b610bbe806102306000396000f3fe608060405234801561001057600080fd5b506004361061007d5760003560e01c80639e34070f1161005b5780639e34070f146101e9578063be13f47c1461021a578063cc1d4cab14610246578063fc0c546a146102ec5761007d565b80632e7ba6ef146100825780632eb4a7ab1461011057806358beca341461012a575b600080fd5b61010e6004803603608081101561009857600080fd5b8135916001600160a01b0360208201351691604082013591908101906080810160608201356401000000008111156100cf57600080fd5b8201836020820111156100e157600080fd5b8035906020019184602083028401116401000000008311171561010357600080fd5b509092509050610310565b005b610118610468565b60408051918252519081900360200190f35b6101186004803603608081101561014057600080fd5b8135916001600160a01b03602082013516916040820135919081019060808101606082013564010000000081111561017757600080fd5b82018360208201111561018957600080fd5b803590602001918460208302840111640100000000831117156101ab57600080fd5b91908080602002602001604051908101604052809392919081815260200183836020028082843760009201919091525092955061046e945050505050565b610206600480360360208110156101ff57600080fd5b50356104aa565b604080519115158252519081900360200190f35b61010e6004803603604081101561023057600080fd5b506001600160a01b0381351690602001356104d0565b6101186004803603602081101561025c57600080fd5b81019060208101813564010000000081111561027757600080fd5b82018360208201111561028957600080fd5b803590602001918460018302840111640100000000831117156102ab57600080fd5b91908080601f0160208091040260200160405190810160405280939291908181526020018383808284376000920191909152509295506106c5945050505050565b6102f46106e2565b604080516001600160a01b039092168252519081900360200190f35b610319856104aa565b1561036b576040805162461bcd60e51b815260206004820152601560248201527f646973743a20616c726561647920636c61696d65640000000000000000000000604482015290519081900360640190fd5b6103aa8585858585808060200260200160405190810160405280939291908181526020018383602002808284376000920191909152506106f192505050565b6103fb576040805162461bcd60e51b815260206004820152601260248201527f646973743a2070726f6f66206661696c65640000000000000000000000000000604482015290519081900360640190fd5b61040485610764565b600154610421906001600160a01b0316858563ffffffff61078b16565b6040805184815290516001600160a01b0386169187917f4ec90e965519d92681267467f775ada5bd214aa92c0dc93d90a5e880ce9ed0269181900360200190a35050505050565b60025481565b6000610479856104aa565b15610486575060006104a2565b610492858585856106f1565b61049d57600061049f565b825b90505b949350505050565b6101008104600090815260036020526040902054600160ff9092169190911b9081161490565b6040518060400160405280600b81526020017f6469737472696275746f720000000000000000000000000000000000000000008152506000816040518082805190602001908083835b602083106105385780518252601f199092019160209182019101610519565b51815160209384036101000a60001901801990921691161790529201948552506040519384900301909220541591506105a490505760405162461bcd60e51b8152600401808060200182810382526022815260200180610b3d6022913960400191505060405180910390fd5b436000826040518082805190602001908083835b602083106105d75780518252601f1990920191602091820191016105b8565b51815160209384036101000a60001901801990921691161790529201948552506040519384900381018420949094555050600180547fffffffffffffffffffffffff0000000000000000000000000000000000000000166001600160a01b0387161790556002849055825183928291908401908083835b6020831061066d5780518252601f19909201916020918201910161064e565b5181516020939093036101000a60001901801990911692169190911790526040519201829003822093507f7bc2a48a4a566e237a12186f19d985b0f76afc9d5290601edac19876253670c292506000919050a2505050565b805160208183018101805160008252928201919093012091525481565b6001546001600160a01b031681565b6040805160208082018790527fffffffffffffffffffffffffffffffffffffffff000000000000000000000000606087901b1682840152605480830186905283518084039091018152607490920190925280519101206002546000919061075a90849083610810565b9695505050505050565b610100810460009081526003602052604090208054600160ff9093169290921b9091179055565b604080516001600160a01b038416602482015260448082018490528251808303909101815260649091019091526020810180517bffffffffffffffffffffffffffffffffffffffffffffffffffffffff167fa9059cbb0000000000000000000000000000000000000000000000000000000017905261080b9084906108bb565b505050565b600081815b85518110156108ae57600086828151811061082c57fe5b6020026020010151905080831161087357828160405160200180838152602001828152602001925050506040516020818303038152906040528051906020012092506108a5565b808360405160200180838152602001828152602001925050506040516020818303038152906040528051906020012092505b50600101610815565b50831490505b9392505050565b6060610910826040518060400160405280602081526020017f5361666545524332303a206c6f772d6c6576656c2063616c6c206661696c6564815250856001600160a01b031661096c9092919063ffffffff16565b80519091501561080b5780806020019051602081101561092f57600080fd5b505161080b5760405162461bcd60e51b815260040180806020018281038252602a815260200180610b5f602a913960400191505060405180910390fd5b60606104a284846000858561098085610a92565b6109d1576040805162461bcd60e51b815260206004820152601d60248201527f416464726573733a2063616c6c20746f206e6f6e2d636f6e7472616374000000604482015290519081900360640190fd5b60006060866001600160a01b031685876040518082805190602001908083835b60208310610a105780518252601f1990920191602091820191016109f1565b6001836020036101000a03801982511681845116808217855250505050505090500191505060006040518083038185875af1925050503d8060008114610a72576040519150601f19603f3d011682016040523d82523d6000602084013e610a77565b606091505b5091509150610a87828286610a98565b979650505050505050565b3b151590565b60608315610aa75750816108b4565b825115610ab75782518084602001fd5b8160405162461bcd60e51b81526004018080602001828103825283818151815260200191508051906020019080838360005b83811015610b01578181015183820152602001610ae9565b50505050905090810190601f168015610b2e5780820380516001836020036101000a031916815260200191505b509250505060405180910390fdfe696e697469616c697a61626c653a20616c726561647920696e697469616c697a65645361666545524332303a204552433230206f7065726174696f6e20646964206e6f742073756363656564a2646970667358221220452e03c41621d0b81f04661c6eddea1952674e2b8b8bc34531b2fd82b90420da64736f6c63430006080033696e697469616c697a61626c653a20616c726561647920696e697469616c697a656460806040523480156200001157600080fd5b5060405162001b8d38038062001b8d833981810160405260808110156200003757600080fd5b8151602083018051604051929492938301929190846401000000008211156200005f57600080fd5b9083019060208201858111156200007557600080fd5b82516401000000008111828201881017156200009057600080fd5b82525081516020918201929091019080838360005b83811015620000bf578181015183820152602001620000a5565b50505050905090810190601f168015620000ed5780820380516001836020036101000a031916815260200191505b50604052602001805160405193929190846401000000008211156200011157600080fd5b9083019060208201858111156200012757600080fd5b82516401000000008111828201881017156200014257600080fd5b82525081516020918201929091019080838360005b838110156200017157818101518382015260200162000157565b50505050905090810190601f1680156200019f5780820380516001836020036101000a031916815260200191505b50604052602001519150620001c29050848484846001600160e01b03620001cc16565b50505050620004be565b604051806040016040528060058152602001643a37b5b2b760d91b8152506000816040518082805190602001908083835b602083106200021e5780518252601f199092019160209182019101620001fd565b51815160209384036101000a60001901801990921691161790529201948552506040519384900301909220541591506200028c90505760405162461bcd60e51b815260040180806020018281038252602281526020018062001b6b6022913960400191505060405180910390fd5b436000826040518082805190602001908083835b60208310620002c15780518252601f199092019160209182019101620002a0565b51815160209384036101000a600019018019909216911617905292019485525060405193849003019092209290925550620002fe905085620003c7565b83516200031390600190602087019062000419565b5082516200032990600290602086019062000419565b506003805460ff191660ff84161790556040518151829190819060208401908083835b602083106200036d5780518252601f1990920191602091820191016200034c565b5181516020939093036101000a60001901801990911692169190911790526040519201829003822093507f7bc2a48a4a566e237a12186f19d985b0f76afc9d5290601edac19876253670c292506000919050a25050505050565b60038054610100600160a81b0319166101006001600160a01b038416908102919091179091556040517fc87aeafc6e4ae6202adf4f08a76769119ae93cc129c0e0cbac08a118bc18e1ce90600090a250565b828054600181600116156101000203166002900490600052602060002090601f016020900481019282601f106200045c57805160ff19168380011785556200048c565b828001600101855582156200048c579182015b828111156200048c5782518255916020019190600101906200046f565b506200049a9291506200049e565b5090565b620004bb91905b808211156200049a5760008155600101620004a5565b90565b61169d80620004ce6000396000f3fe608060405234801561001057600080fd5b506004361061018d5760003560e01c806370a08231116100e3578063d505accf1161008c578063e94a010211610066578063e94a01021461056e578063ed24911d1461059a578063f6d2ee86146105a25761018d565b8063d505accf14610490578063dd62ed3e146104e1578063e3ee160e1461050f5761018d565b8063a0cc6a68116100bd578063a0cc6a68146103b6578063a9059cbb146103be578063cc1d4cab146103ea5761018d565b806370a08231146103625780637ecebe001461038857806395d89b41146103ae5761018d565b80632c4d4d18116101455780633408e4701161011f5780633408e4701461031157806340c10f191461031957806342966c68146103455761018d565b80632c4d4d18146102c357806330adf81f146102eb578063313ce567146102f35761018d565b8063095ea7b311610176578063095ea7b31461023357806318160ddd1461027357806323b872dd1461028d5761018d565b806306fdde0314610192578063075461721461020f575b600080fd5b61019a6106e4565b6040805160208082528351818301528351919283929083019185019080838360005b838110156101d45781810151838201526020016101bc565b50505050905090810190601f1680156102015780820380516001836020036101000a031916815260200191505b509250505060405180910390f35b610217610771565b604080516001600160a01b039092168252519081900360200190f35b61025f6004803603604081101561024957600080fd5b506001600160a01b038135169060200135610785565b604080519115158252519081900360200190f35b61027b61079b565b60408051918252519081900360200190f35b61025f600480360360608110156102a357600080fd5b506001600160a01b038135811691602081013590911690604001356107a1565b6102e9600480360360208110156102d957600080fd5b50356001600160a01b0316610819565b005b61027b610889565b6102fb6108ad565b6040805160ff9092168252519081900360200190f35b61027b6108b6565b61025f6004803603604081101561032f57600080fd5b506001600160a01b0381351690602001356108ba565b61025f6004803603602081101561035b57600080fd5b503561092b565b61027b6004803603602081101561037857600080fd5b50356001600160a01b031661093f565b61027b6004803603602081101561039e57600080fd5b50356001600160a01b0316610951565b61019a610963565b61027b6109bb565b61025f600480360360408110156103d457600080fd5b506001600160a01b0381351690602001356109df565b61027b6004803603602081101561040057600080fd5b81019060208101813564010000000081111561041b57600080fd5b82018360208201111561042d57600080fd5b8035906020019184600183028401116401000000008311171561044f57600080fd5b91908080601f0160208091040260200160405190810160405280939291908181526020018383808284376000920191909152509295506109ec945050505050565b6102e9600480360360e08110156104a657600080fd5b506001600160a01b03813581169160208101359091169060408101359060608101359060ff6080820135169060a08101359060c00135610a09565b61027b600480360360408110156104f757600080fd5b506001600160a01b0381358116916020013516610b09565b6102e9600480360361012081101561052657600080fd5b506001600160a01b03813581169160208101359091169060408101359060608101359060808101359060a08101359060ff60c0820135169060e0810135906101000135610b26565b61025f6004803603604081101561058457600080fd5b506001600160a01b038135169060200135610d3a565b61027b610d5a565b6102e9600480360360808110156105b857600080fd5b6001600160a01b0382351691908101906040810160208201356401000000008111156105e357600080fd5b8201836020820111156105f557600080fd5b8035906020019184600183028401116401000000008311171561061757600080fd5b91908080601f016020809104026020016040519081016040528093929190818152602001838380828437600092019190915250929594936020810193503591505064010000000081111561066a57600080fd5b82018360208201111561067c57600080fd5b8035906020019184600183028401116401000000008311171561069e57600080fd5b91908080601f0160208091040260200160405190810160405280939291908181526020018383808284376000920191909152509295505050903560ff169150610e6e9050565b60018054604080516020600284861615610100026000190190941693909304601f810184900484028201840190925281815292918301828280156107695780601f1061073e57610100808354040283529160200191610769565b820191906000526020600020905b81548152906001019060200180831161074c57829003601f168201915b505050505081565b60035461010090046001600160a01b031681565b6000610792338484611073565b50600192915050565b60045481565b6001600160a01b03831660009081526006602090815260408083203384529091528120546000198114610803576107de818463ffffffff6110d516565b6001600160a01b03861660009081526006602090815260408083203384529091529020555b61080e858585611132565b506001949350505050565b60035461010090046001600160a01b0316331461087d576040805162461bcd60e51b815260206004820152601160248201527f746f6b656e3a206e6f74206d696e746572000000000000000000000000000000604482015290519081900360640190fd5b6108868161125e565b50565b7f6e71edae12b1b97f4d1f60370fef10105fa2faae0126114a169c64845d6126c981565b60035460ff1681565b4690565b60035460009061010090046001600160a01b03163314610921576040805162461bcd60e51b815260206004820152601160248201527f746f6b656e3a206e6f74206d696e746572000000000000000000000000000000604482015290519081900360640190fd5b61079283836112c7565b6000610937338361135e565b506001919050565b60056020526000908152604090205481565b60076020526000908152604090205481565b6002805460408051602060018416156101000260001901909316849004601f810184900484028201840190925281815292918301828280156107695780601f1061073e57610100808354040283529160200191610769565b7f7c7c6cdb67a18743f49ec6fa9b35f50d52ed05cbed4cc592e13b44501c1a226781565b6000610792338484611132565b805160208183018101805160008252928201919093012091525481565b42841015610a5e576040805162461bcd60e51b815260206004820152601360248201527f746f6b656e3a2061757468206578706972656400000000000000000000000000604482015290519081900360640190fd5b6001600160a01b0380881660008181526007602090815260409182902080546001810190915582517f6e71edae12b1b97f4d1f60370fef10105fa2faae0126114a169c64845d6126c98184015280840194909452938a1660608401526080830189905260a083019390935260c08083018890528151808403909101815260e090920190528051910120610af488828686866113fb565b610aff888888611073565b5050505050505050565b600660209081526000928352604080842090915290825290205481565b854211610b7a576040805162461bcd60e51b815260206004820152601060248201527f746f6b656e3a2061757468207761697400000000000000000000000000000000604482015290519081900360640190fd5b844210610bce576040805162461bcd60e51b815260206004820152601360248201527f746f6b656e3a2061757468206578706972656400000000000000000000000000604482015290519081900360640190fd5b6001600160a01b038916600090815260086020908152604080832087845290915290205460ff1615610c47576040805162461bcd60e51b815260206004820152601060248201527f746f6b656e3a2061757468207573656400000000000000000000000000000000604482015290519081900360640190fd5b604080517f7c7c6cdb67a18743f49ec6fa9b35f50d52ed05cbed4cc592e13b44501c1a22676020808301919091526001600160a01b03808d16838501528b166060830152608082018a905260a0820189905260c0820188905260e0808301889052835180840390910181526101009092019092528051910120610ccd8a828686866113fb565b6001600160a01b038a166000818152600860209081526040808320898452909152808220805460ff19166001179055518792917f98de503528ee59b575ef0c0a2576a82497bfc029a5685b209e9ec333479b10a591a3610d2e8a8a8a611132565b50505050505050505050565b600860209081526000928352604080842090915290825290205460ff1681565b60007f8b73c3c69bb8fe3d512ecc4cf759cc79239f7b179b0ffacaa9a75d522b39400f60001b60016040516020018082805460018160011615610100020316600290048015610de05780601f10610dbe576101008083540402835291820191610de0565b820191906000526020600020905b815481529060010190602001808311610dcc575b5050915050604051602081830303815290604052805190602001207fc89efdaa54c0f20c7adf612882df0950f5a951637e0307cdcb4c672f298b8bc660001b610e276108b6565b6040805160208082019690965280820194909452606084019290925260808301523060a0808401919091528151808403909101815260c09092019052805191012090505b90565b6040518060400160405280600581526020017f746f6b656e0000000000000000000000000000000000000000000000000000008152506000816040518082805190602001908083835b60208310610ed65780518252601f199092019160209182019101610eb7565b51815160209384036101000a6000190180199092169116179052920194855250604051938490030190922054159150610f4290505760405162461bcd60e51b81526004018080602001828103825260228152602001806116466022913960400191505060405180910390fd5b436000826040518082805190602001908083835b60208310610f755780518252601f199092019160209182019101610f56565b51815160209384036101000a600019018019909216911617905292019485525060405193849003019092209290925550610fb090508561125e565b8351610fc39060019060208701906115ad565b508251610fd79060029060208601906115ad565b506003805460ff191660ff84161790556040518151829190819060208401908083835b602083106110195780518252601f199092019160209182019101610ffa565b5181516020939093036101000a60001901801990911692169190911790526040519201829003822093507f7bc2a48a4a566e237a12186f19d985b0f76afc9d5290601edac19876253670c292506000919050a25050505050565b6001600160a01b03808416600081815260066020908152604080832094871680845294825291829020859055815185815291517f8c5be1e5ebec7d5bd14f71427d1e84f3dd0314c0f7b2291e5b200ac8c7c3b9259281900390910190a3505050565b60008282111561112c576040805162461bcd60e51b815260206004820152601e60248201527f536166654d6174683a207375627472616374696f6e206f766572666c6f770000604482015290519081900360640190fd5b50900390565b6001600160a01b038216301480159061115357506001600160a01b03821615155b6111a4576040805162461bcd60e51b815260206004820152600d60248201527f746f6b656e3a2062616420746f00000000000000000000000000000000000000604482015290519081900360640190fd5b6001600160a01b0383166000908152600560205260409020546111cd908263ffffffff6110d516565b6001600160a01b038085166000908152600560205260408082209390935590841681522054611202908263ffffffff61154c16565b6001600160a01b0380841660008181526005602090815260409182902094909455805185815290519193928716927fddf252ad1be2c89b69c2b068fc378daa952ba7f163c4a11628f55a4df523b3ef92918290030190a3505050565b600380547fffffffffffffffffffffff0000000000000000000000000000000000000000ff166101006001600160a01b038416908102919091179091556040517fc87aeafc6e4ae6202adf4f08a76769119ae93cc129c0e0cbac08a118bc18e1ce90600090a250565b6004546112da908263ffffffff61154c16565b6004556001600160a01b038216600090815260056020526040902054611306908263ffffffff61154c16565b6001600160a01b03831660008181526005602090815260408083209490945583518581529351929391927fddf252ad1be2c89b69c2b068fc378daa952ba7f163c4a11628f55a4df523b3ef9281900390910190a35050565b6001600160a01b038216600090815260056020526040902054611387908263ffffffff6110d516565b6001600160a01b0383166000908152600560205260409020556004546113b3908263ffffffff6110d516565b6004556040805182815290516000916001600160a01b038516917fddf252ad1be2c89b69c2b068fc378daa952ba7f163c4a11628f55a4df523b3ef9181900360200190a35050565b6000611405610d5a565b8560405160200180807f190100000000000000000000000000000000000000000000000000000000000081525060020183815260200182815260200192505050604051602081830303815290604052805190602001209050600060018286868660405160008152602001604052604051808581526020018460ff1660ff1681526020018381526020018281526020019450505050506020604051602081039080840390855afa1580156114bc573d6000803e3d6000fd5b5050604051601f1901519150506001600160a01b038116158015906114f25750866001600160a01b0316816001600160a01b0316145b611543576040805162461bcd60e51b815260206004820152600e60248201527f746f6b656e3a2062616420736967000000000000000000000000000000000000604482015290519081900360640190fd5b50505050505050565b6000828201838110156115a6576040805162461bcd60e51b815260206004820152601b60248201527f536166654d6174683a206164646974696f6e206f766572666c6f770000000000604482015290519081900360640190fd5b9392505050565b828054600181600116156101000203166002900490600052602060002090601f016020900481019282601f106115ee57805160ff191683800117855561161b565b8280016001018555821561161b579182015b8281111561161b578251825591602001919060010190611600565b5061162792915061162b565b5090565b610e6b91905b80821115611627576000815560010161163156fe696e697469616c697a61626c653a20616c726561647920696e697469616c697a6564a2646970667358221220c347f59ce57c2afaf9f4935c087a5562bf54095ef98ae89758b1c835886caf0564736f6c63430006080033696e697469616c697a61626c653a20616c726561647920696e697469616c697a656460806040523480156200001157600080fd5b506040516200201b3803806200201b8339810160408190526200003491620003e9565b81806000604051620000469062000478565b90815260200160405180910390205460001415620000725762000072816001600160e01b036200009416565b506200008b90508383836001600160e01b036200016e16565b50505062000544565b604051806040016040528060038152602001621858db60ea1b815250600081604051620000c291906200043c565b908152602001604051809103902054600014620000fc5760405162461bcd60e51b8152600401620000f390620004c0565b60405180910390fd5b436000826040516200010f91906200043c565b908152604051908190036020019020556200013b63161b7d8160e21b836001600160e01b03620002b216565b806040516200014b91906200043c565b6040519081900381209060008051602062001ffb83398151915290600090a25050565b8160006040516200017f9062000478565b90815260200160405180910390205460001415620001ab57620001ab816001600160e01b036200009416565b6040518060400160405280600681526020016536b4b73a32b960d11b815250600081604051620001dc91906200043c565b9081526020016040518091039020546000146200020d5760405162461bcd60e51b8152600401620000f390620004c0565b436000826040516200022091906200043c565b90815260405190819003602001902055600280546001600160a01b038088166001600160a01b03199283161790925560038054928616929091169190911790556200027c63472eb0df60e01b856001600160e01b03620002b216565b806040516200028c91906200043c565b6040519081900381209060008051602062001ffb83398151915290600090a25050505050565b620002c9828260026001600160e01b03620002cd16565b5050565b620002e1836001600160e01b03620003b716565b15620003015760405162461bcd60e51b8152600401620000f3906200049b565b6001600160a01b038216600114156200032e5760405162461bcd60e51b8152600401620000f39062000502565b6001600160e01b0319831660008181526001602090815260408083206001600160a01b03878116808652919093529281902080546001600160a01b0319169286169290921790915551909133917fc62063b81f7036fd97a0dc546516e99f11004d2d76ca0fddd3866346c86e709190620003aa90869062000487565b60405180910390a4505050565b6001600160e01b0319166000908152600160208181526040808420838552909152909120546001600160a01b03161490565b600080600060608486031215620003fe578283fd5b83516200040b816200052b565b60208501519093506200041e816200052b565b604085015190925062000431816200052b565b809150509250925092565b60008251815b818110156200045e576020818601810151858301520162000442565b818111156200046d5782828501525b509190910192915050565b621858db60ea1b815260030190565b6001600160a01b0391909116815260200190565b6020808252600b908201526a30b1b61d10333937bd32b760a91b604082015260600190565b60208082526022908201527f696e697469616c697a61626c653a20616c726561647920696e697469616c697a604082015261195960f21b606082015260800190565b6020808252600f908201526e61636c3a2062616420667265657a6560881b604082015260600190565b6001600160a01b03811681146200054157600080fd5b50565b611aa780620005546000396000f3fe608060405234801561001057600080fd5b50600436106101005760003560e01c8063a157a10d11610097578063cc1d4cab11610066578063cc1d4cab14610210578063d3feb83014610230578063ec8528f914610243578063fc0c546a1461024b57610100565b8063a157a10d146101c4578063a2157227146101d7578063bdf9a726146101ea578063c0c53b8b146101fd57610100565b80637e8c7f08116100d35780637e8c7f0814610169578063901d13e21461017e57806394d008ef1461019157806396fc8abd146101a457610100565b8063097c8108146101055780631c47671b1461012e578063495a9825146101435780635884973414610156575b600080fd5b610118610113366004611590565b610253565b60405161012591906117d2565b60405180910390f35b61014161013c3660046113ec565b610457565b005b61011861015136600461153c565b61057e565b610141610164366004611558565b6105b4565b610171610624565b60405161012591906117dd565b61014161018c366004611376565b61062f565b61014161019f366004611392565b610714565b6101b76101b2366004611558565b61087d565b60405161012591906117a5565b6101416101d2366004611558565b6108a3565b6101416101e53660046115f0565b610913565b6101416101f836600461153c565b61098a565b61014161020b36600461163a565b6109fd565b61022361021e366004611659565b610b6d565b6040516101259190611970565b6101b761023e3660046114bc565b610b8a565b6101b7610d98565b6101b7610da7565b6001600160e01b0319831660009081526001602090815260408083203384529091528120546001600160a01b0316801561034d576001600160a01b038116600214156102a3576001915050610450565b6040517f097c81080000000000000000000000000000000000000000000000000000000081526001600160a01b0382169063097c8108906102ec908890889088906004016117f2565b602060405180830381600087803b15801561030657600080fd5b505af115801561031a573d6000803e3d6000fd5b505050506040513d601f19601f8201168201806040525081019061033e919061149c565b1561034d576001915050610450565b6001600160e01b0319851660009081526001602090815260408083206001600160a01b03808552925290912054168015610449576001600160a01b0381166002141561039e57600192505050610450565b6040517f097c81080000000000000000000000000000000000000000000000000000000081526001600160a01b0382169063097c8108906103e7908990899089906004016117f2565b602060405180830381600087803b15801561040157600080fd5b505af1158015610415573d6000803e3d6000fd5b505050506040513d601f19601f82011682018060405250810190610439919061149c565b1561044957600192505050610450565b6000925050505b9392505050565b60408051602036601f810182900482028301820190935282825263161b7d8160e21b926104a192849233926000918190840183828082843760009201919091525061025392505050565b6104c65760405162461bcd60e51b81526004016104bd90611837565b60405180910390fd5b60005b8251811015610579576104da611260565b8382815181106104e657fe5b60200260200101519050600060028111156104fd57fe5b8151600281111561050a57fe5b14156105275761052281602001518260400151610db6565b610570565b60018151600281111561053657fe5b141561054e5761052281602001518260400151610dc2565b60028151600281111561055d57fe5b1415610570576105708160200151610e60565b506001016104c9565b505050565b6001600160e01b031981166000908152600160208181526040808420838552909152909120546001600160a01b0316145b919050565b60408051602036601f810182900482028301820190935282825263161b7d8160e21b926105fe92849233926000918190840183828082843760009201919091525061025392505050565b61061a5760405162461bcd60e51b81526004016104bd90611837565b6105798383610dc2565b63161b7d8160e21b81565b63901d13e260e01b61067981336000368080601f01602080910402602001604051908101604052809392919081815260200183838082843760009201919091525061025392505050565b6106955760405162461bcd60e51b81526004016104bd90611837565b6002546040517f2c4d4d180000000000000000000000000000000000000000000000000000000081526001600160a01b0390911690632c4d4d18906106de9085906004016117a5565b600060405180830381600087803b1580156106f857600080fd5b505af115801561070c573d6000803e3d6000fd5b505050505050565b60408051602036601f81018290048202830182019093528282527f472eb0df000000000000000000000000000000000000000000000000000000009261077792849233926000918190840183828082843760009201919091525061025392505050565b6107935760405162461bcd60e51b81526004016104bd90611837565b6002546040517f40c10f190000000000000000000000000000000000000000000000000000000081526001600160a01b03909116906340c10f19906107de90889088906004016117b9565b602060405180830381600087803b1580156107f857600080fd5b505af115801561080c573d6000803e3d6000fd5b505050506040513d601f19601f82011682018060405250810190610830919061149c565b50846001600160a01b03167ff8e46b9f2ac39b0277e905f82e86502779203bea0700bf987d3707e11636a39d85858560405161086e93929190611979565b60405180910390a25050505050565b60016020908152600092835260408084209091529082529020546001600160a01b031681565b60408051602036601f810182900482028301820190935282825263161b7d8160e21b926108ed92849233926000918190840183828082843760009201919091525061025392505050565b6109095760405162461bcd60e51b81526004016104bd90611837565b6105798383610db6565b60408051602036601f810182900482028301820190935282825263161b7d8160e21b9261095d92849233926000918190840183828082843760009201919091525061025392505050565b6109795760405162461bcd60e51b81526004016104bd90611837565b610984848484610ef4565b50505050565b60408051602036601f810182900482028301820190935282825263161b7d8160e21b926109d492849233926000918190840183828082843760009201919091525061025392505050565b6109f05760405162461bcd60e51b81526004016104bd90611837565b6109f982610e60565b5050565b816000604051610a0c9061177c565b90815260200160405180910390205460001415610a2c57610a2c81610fd8565b6040518060400160405280600681526020017f6d696e7465720000000000000000000000000000000000000000000000000000815250600081604051610a729190611760565b908152602001604051809103902054600014610aa05760405162461bcd60e51b81526004016104bd906118a5565b43600082604051610ab19190611760565b90815260405190819003602001902055600280546001600160a01b0380881673ffffffffffffffffffffffffffffffffffffffff19928316179092556003805492861692909116919091179055610b287f472eb0df0000000000000000000000000000000000000000000000000000000085610db6565b80604051610b369190611760565b604051908190038120907f7bc2a48a4a566e237a12186f19d985b0f76afc9d5290601edac19876253670c290600090a25050505050565b805160208183018101805160008252928201919093012091525481565b600063d3feb83060e01b6394d008ef60e01b18610bdf81336000368080601f01602080910402602001604051908101604052809392919081815260200183838082843760009201919091525061025392505050565b610bfb5760405162461bcd60e51b81526004016104bd90611837565b600254604051600091610ca3917fbe13f47c0000000000000000000000000000000000000000000000000000000091610c44916001600160a01b03909116908d906024016117b9565b60408051601f198184030181529190526020810180517bffffffffffffffffffffffffffffffffffffffffffffffffffffffff166001600160e01b0319909316929092179091526003546001600160a01b03169063ffffffff6110c016565b6002546040517f40c10f190000000000000000000000000000000000000000000000000000000081529192506001600160a01b0316906340c10f1990610cef9084908c906004016117b9565b602060405180830381600087803b158015610d0957600080fd5b505af1158015610d1d573d6000803e3d6000fd5b505050506040513d601f19601f82011682018060405250810190610d41919061149c565b5088816001600160a01b03167ff5eb12d9e3fbc57fd00a7246b6bb142b1c5f6e7cdd9f9f17efd5c2163440e0f48a8a8a8a8a604051610d84959493929190611993565b60405180910390a398975050505050505050565b6003546001600160a01b031681565b6002546001600160a01b031681565b6109f982826002610ef4565b610dcb8261057e565b15610de85760405162461bcd60e51b81526004016104bd9061186e565b6001600160e01b0319821660008181526001602090815260408083206001600160a01b0386168085529252808320805473ffffffffffffffffffffffffffffffffffffffff19169055519092339290917f682f2c466c1e9f6883eb72cbced01373e1cb18b05ae5c8bc04dc73d73e29f8cd9190a45050565b610e698161057e565b15610e865760405162461bcd60e51b81526004016104bd9061186e565b6001600160e01b031981166000818152600160208181526040808420838552909152808320805473ffffffffffffffffffffffffffffffffffffffff1916909217909155513392917f049c6b8b07a879425742523fa80f8ffb25e39ad518c93a5896a0df19518397e591a350565b610efd8361057e565b15610f1a5760405162461bcd60e51b81526004016104bd9061186e565b6001600160a01b03821660011415610f445760405162461bcd60e51b81526004016104bd90611902565b6001600160e01b0319831660008181526001602090815260408083206001600160a01b038781168086529190935292819020805473ffffffffffffffffffffffffffffffffffffffff19169286169290921790915551909133917fc62063b81f7036fd97a0dc546516e99f11004d2d76ca0fddd3866346c86e709190610fcb9086906117a5565b60405180910390a4505050565b6040518060400160405280600381526020017f61636c000000000000000000000000000000000000000000000000000000000081525060008160405161101e9190611760565b90815260200160405180910390205460001461104c5760405162461bcd60e51b81526004016104bd906118a5565b4360008260405161105d9190611760565b9081526040519081900360200190205561107e63161b7d8160e21b83610db6565b8060405161108c9190611760565b604051908190038120907f7bc2a48a4a566e237a12186f19d985b0f76afc9d5290601edac19876253670c290600090a25050565b60006110cb83611161565b905060006060826001600160a01b0316846040516110e99190611760565b6000604051808303816000865af19150503d8060008114611126576040519150601f19603f3d011682016040523d82523d6000602084013e61112b565b606091505b50915091508161113a826111a7565b906111585760405162461bcd60e51b81526004016104bd9190611824565b50505092915050565b6000606061116e836111e8565b90506037602082016000f091506001600160a01b0382166111a15760405162461bcd60e51b81526004016104bd90611939565b50919050565b60606044825110156111c857506040805160208101909152600081526105af565b600482019150818060200190518101906111e29190611694565b92915050565b604080516037808252606082810190935260208201818036833750507f3d602d80600a3d3981f3363d3d373d3d3d363d7300000000000000000000000060208301525060609290921b6034830152507f5af43d82803e903d91602b57fd5bf30000000000000000000000000000000000604882015290565b6040805160608101909152806000815260006020820181905260409091015290565b60008083601f840112611293578182fd5b50813567ffffffffffffffff8111156112aa578182fd5b6020830191508360208285010111156112c257600080fd5b9250929050565b600082601f8301126112d9578081fd5b81356112ec6112e7826119f3565b6119cc565b915080825283602082850101111561130357600080fd5b8060208401602084013760009082016020015292915050565b60006060828403121561132d578081fd5b61133760606119cc565b905081356003811061134857600080fd5b8152602082013561135881611a5b565b6020820152604082013561136b81611a43565b604082015292915050565b600060208284031215611387578081fd5b813561045081611a43565b600080600080606085870312156113a7578283fd5b84356113b281611a43565b935060208501359250604085013567ffffffffffffffff8111156113d4578283fd5b6113e087828801611282565b95989497509550505050565b600060208083850312156113fe578182fd5b823567ffffffffffffffff80821115611415578384fd5b81850186601f820112611426578485fd5b8035925081831115611436578485fd5b61144384858502016119cc565b83815284810192508185016060808602840187018a1015611462578788fd5b8793505b8584101561148e576114788a8361131c565b8552938601936001939093019290810190611466565b509098975050505050505050565b6000602082840312156114ad578081fd5b81518015158114610450578182fd5b600080600080600080608087890312156114d4578182fd5b8635955060208701359450604087013567ffffffffffffffff808211156114f9578384fd5b6115058a838b01611282565b9096509450606089013591508082111561151d578384fd5b5061152a89828a01611282565b979a9699509497509295939492505050565b60006020828403121561154d578081fd5b813561045081611a5b565b6000806040838503121561156a578182fd5b823561157581611a5b565b9150602083013561158581611a43565b809150509250929050565b6000806000606084860312156115a4578283fd5b83356115af81611a5b565b925060208401356115bf81611a43565b9150604084013567ffffffffffffffff8111156115da578182fd5b6115e6868287016112c9565b9150509250925092565b600080600060608486031215611604578081fd5b833561160f81611a5b565b9250602084013561161f81611a43565b9150604084013561162f81611a43565b809150509250925092565b60008060006060848603121561164e578081fd5b833561160f81611a43565b60006020828403121561166a578081fd5b813567ffffffffffffffff811115611680578182fd5b61168c848285016112c9565b949350505050565b6000602082840312156116a5578081fd5b815167ffffffffffffffff8111156116bb578182fd5b80830184601f8201126116cc578283fd5b805191506116dc6112e7836119f3565b8281528560208484010111156116f0578384fd5b611701836020830160208501611a17565b95945050505050565b60008284528282602086013780602084860101526020601f19601f85011685010190509392505050565b6000815180845261174c816020860160208601611a17565b601f01601f19169290920160200192915050565b60008251611772818460208701611a17565b9190910192915050565b7f61636c0000000000000000000000000000000000000000000000000000000000815260030190565b6001600160a01b0391909116815260200190565b6001600160a01b03929092168252602082015260400190565b901515815260200190565b6001600160e01b031991909116815260200190565b60006001600160e01b0319851682526001600160a01b0384166020830152606060408301526117016060830184611734565b6000602082526104506020830184611734565b60208082526009908201527f61636c3a20617574680000000000000000000000000000000000000000000000604082015260600190565b6020808252600b908201527f61636c3a2066726f7a656e000000000000000000000000000000000000000000604082015260600190565b60208082526022908201527f696e697469616c697a61626c653a20616c726561647920696e697469616c697a60408201527f6564000000000000000000000000000000000000000000000000000000000000606082015260800190565b6020808252600f908201527f61636c3a2062616420667265657a650000000000000000000000000000000000604082015260600190565b60208082526019908201527f70726f78792d666163746f72793a206261642063726561746500000000000000604082015260600190565b90815260200190565b60008482526040602083015261170160408301848661170a565b6000868252606060208301526119ad60608301868861170a565b82810360408401526119c081858761170a565b98975050505050505050565b60405181810167ffffffffffffffff811182821017156119eb57600080fd5b604052919050565b600067ffffffffffffffff821115611a09578081fd5b50601f01601f191660200190565b60005b83811015611a32578181015183820152602001611a1a565b838111156109845750506000910152565b6001600160a01b0381168114611a5857600080fd5b50565b6001600160e01b031981168114611a5857600080fdfea2646970667358221220abd2818399b7b7bfd2a06d4697c20cc6e27a25a5f27df3b42f9bc910ec616cd164736f6c634300060800337bc2a48a4a566e237a12186f19d985b0f76afc9d5290601edac19876253670c2",
  "linkReferences": {},
  "deployedLinkReferences": {}
}